:100000000C94FD020C9408240C9435240C942503C4
:100010000C9425030C9425030C940D130C942503C8
:100020000C9425030C9425030C9425030C94FC17C5
:100030000C9425030C9425030C9425030C942503A0
:100040000C9462240C9425030C9460270C94922742
:100050000C9425030C9425030C9425030C94250380
:100060000C94DA220C942503FFE0FFD1AFFF32FF9E
:10007000D0FFFEFFE0FFD1AEFFD0FFFEFFE0FFD1DB
:100080001000FFFEFFD0FFE0FFC1FFD1AED580A87A
:100090003FD300408D142000A1C8DA1281CFD9F1DE
:1000A000DB402EA4A6AFFFD0FFFE00060A00FE072D
:1000B000019E0337207FFE09FE08FE0000000600B7
:1000C0000001070706020080808080800080030313
:1000D00003060105A0A0A005050506000250F85082
:1000E000F8500509090600FF2070A8A07028A87024
:1000F0002005070706000078A8B05068A8900507FB
:10010000070600006090A040A89068010303060263
:10011000058080800309090601FF204080808080DF
:100120008040200309090601FF8040202020202074
:10013000408005050506000220A870A820050505D9
:100140000600012020F820200204040601FEC0C0A1
:100150004080030101060103E0020202060200C022
:10016000C0050A0A0600FE08081010202040408042
:1001700080050707060000708898A8C888700507E2
:100180000706000020E020202020F80507070600D1
:1001900000708808102040F80507070600007088E6
:1001A000083008887005070706000010305090F8E6
:1001B0001038050707060000F880F0080888700569
:1001C00007070600007080F088888870050707061A
:1001D0000000F8080810202020050707060000701E
:1001E00088887088887005070706000070888888EE
:1001F000780870020505060200C0C000C0C00207F2
:10020000070601FEC0C000C0C04080040707060109
:100210000010204080402010050303060002F80073
:10022000F8040707060100804020102040800507E1
:100230000706000070880810200020050707060048
:10024000007088B8A8B8807805070706000020501D
:100250005088F88888050707060000F08888F0882D
:1002600088F0050707060000708880808088700588
:100270000707060000F08888888888F005070706C9
:100280000000F88080F08080F8050707060000F87D
:100290008080F080808005070706000070888098C5
:1002A000888870050707060000888888F88888888D
:1002B000050707060000F82020202020F805070782
:1002C000060000080808088888700507070600006F
:1002D0008890A0C0A0908805070706000080808055
:1002E000808080F805070706000088D8A8A88888BD
:1002F0008805070706000088C8A898888888050729
:10030000070600007088888888887005070706003F
:1003100000F08888F08080800508080600FF70885B
:10032000888888A87008050707060000F08888F00C
:100330008888880507070600007088807008887024
:10034000050707060000F8202020202020050707C9
:1003500006000088888888888870050707060000DE
:100360008888885050202005070706000088888864
:10037000A8A8D8880507070600008888502050885C
:100380008805070706000088888850202020050778
:1003900007060000F80810204080F802090906024C
:1003A000FFC080808080808080C0050A0A0601FE30
:1003B000808040402020101008080209090601FF33
:1003C000C040404040404040C005030306000420B8
:1003D00050880601010600FEFC02020206010680AA
:1003E0004005050506000078888898680507070617
:1003F00000008080F0888888F00505050600007000
:1004000088808078050707060000080878888888B3
:10041000780505050600007088F88078040707064F
:1004200001003040E0404040400507070600FE78EC
:100430008888887808700507070600008080F088A3
:100440008888880307070601004000C0404040E05C
:100450000309090600FE2000602020202020C0059E
:100460000707060000808090A0E090880307070639
:100470000100C04040404040E0050505060000F096
:10048000A8A8A8A8050505060000B0C888888805A2
:10049000050506000070888888700507070600FEBD
:1004A000F0888888F080800507070600FE78888835
:1004B00088780808050505060000B0C8808080051A
:1004C000050506000078807008F0040707060100A3
:1004D0004040E0404040300505050600008888881F
:1004E0009868050505060000888850502005050518
:1004F000060000A8A8A8A850050505060000885019
:100500002050880507070600FE88888888780870CC
:10051000050505060000F8102040F8030B0B060146
:10052000FE204040404080404040402001090906F4
:1005300002FF808080808080808080030B0B06011A
:10054000FE8040404040204040404080050202067E
:10055000000368B000000006000000000008000270
:100560000100000304070000000000000000010279
:100570000408102040800102040810200102040831
:10058000102004040404040404040202020202020F
:1005900003030303030300000000230026002900D7
:1005A00000000000250028002B00000000002400AF
:1005B00027002A004E414E494E495459494E46CDD6
:1005C000CCCC3D0AD7233C17B7D13877CC2B32950A
:1005D00095E6241FB14F0A000020410000C84200E8
:1005E000401C4620BCBE4CCA1B0E5AAEC59D7400B2
:1005F0008E0818115115F821C22711241FBECFEF04
:10060000D8E0DEBFCDBF13E0A0E0B1E0EAE8F5E658
:1006100002C005900D92AE3CB107D9F727E0AEECD1
:10062000B3E001C01D92A334B207E1F715E0CAEFB1
:10063000D5E004C02297FE010E94A92CC03FD1073B
:10064000C9F70E9406280C94C3320C940000FC01E8
:1006500082A193A1680F791F6132710530F473A3F1
:1006600062A302968E0F9F1F089580E090E0089588
:100670009C01FC01EE5BFF4F80819181680F791F27
:100680006134710530F4718360830296820F931F89
:10069000089580E090E00895CF93DF93EC01262F3A
:1006A0004CAD6BAD04960E94E91D2BAD992787FDDB
:1006B0009095820F911D8BAF81E090E0DF91CF91FB
:1006C00008950F931F930E94AC240091DD031091B5
:1006D000DE032091DF033091E00306171707280798
:1006E000390790F40E94AC246093E1037093E20315
:1006F0008093E3039093E40363E074E080ED93E080
:100700001F910F910C945A111F910F910895EF9220
:10071000FF920F931F93CF93DF931F92CDB7DEB756
:100720007C010FE014E0F80161918F01C70169833A
:100730000E94BD316981681719F0C7010E94C53157
:10074000FFEFEF1AFF0A84E00732180761F78FE026
:1007500094E00F90DF91CF911F910F91FF90EF9058
:100760000895CF92DF92EF92FF920F931F93CF9352
:10077000DF93EC01E42EF12CFC0101900020E9F75D
:100780003197E81BF90B84E190E08E199F098E17D1
:100790009F0718F414E1141B01C01E2FC62ED12C84
:1007A000222371F025E12C9DC0012D9D900D112477
:1007B00044E150E060E270E087599B4F0E94942F23
:1007C00025E12C9DC0012D9D900D11248E0D9F1DA6
:1007D000412F50E0BE0187599B4F0E948B2F002371
:1007E00009F441C08BEE94E00E94E51F6AEA70E0D4
:1007F0008BEE94E00E948E1E1091030580910405FB
:10080000181B80912405811107C081E08093240585
:100810008BEE94E00E949A1F8BEE94E00E94C91F19
:10082000C1E0D0E005E1C730D105A4F4CE010197C5
:10083000089F9001099F300D112427593B4F1C9FA1
:10084000402D1124435060E08BEE94E00E94091E7D
:100850002196E9CF8BEE94E00E94CE1F882319F0F9
:10086000C1E0D0E0E0CFDF91CF911F910F91FF90D9
:10087000EF90DF90CF9008958FE00E944125BC015A
:10088000882777FD8095982F0E945A2B2CEE31E512
:1008900048E450E40E940E2C20E030EC4FE754E492
:1008A0000E94BF2A20E030E040E250E40E94562A35
:1008B00020E030E040E250E40E94BF2A20E030E037
:1008C00048EC52E40E940E2C0E94272B2091CE036C
:1008D0003091CF032617370721F07093CF03609331
:1008E000CE03882777FD8095982F08950F931F9347
:1008F000CF93DF93EC01162F042FFC01E60FF11DBF
:1009000010824FE0602F88E294E00E94A01368EC10
:1009100071E084EA96E00E94532840E150E0602FA5
:1009200084EA96E00E94522920E0412FBE0188E22D
:1009300094E00E944413182F811107C001E021E0C8
:1009400040E061E08DE191E019C088E294E00E940E
:1009500030130E94AC2428EE33E040E050E00E94C7
:10096000852C2093350530933605409337055093F9
:10097000380501E021E040E063E0CE010E94B103D0
:10098000812FDF91CF911F910F9108950F931F93A6
:10099000CF93DF93CDB7DEB769970FB6F894DEBF7C
:1009A0000FBECDBF80910D018F9380910C018F936D
:1009B0008AE291E09F938F938E010F5F1F4F1F93E9
:1009C0000F930E94C92FF80101900020E9F76E2FC4
:1009D000601B41E0C8010E9476040F900F900F90B9
:1009E0000F900F900F908823C1F181E0809327052D
:1009F0000E94AC246093E1037093E2038093E303CD
:100A00009093E4038091DD039091DE03A091DF03D6
:100A1000B091E003892B8A2B8B2B41F001E021E080
:100A200040E061E08DE391E00E94B1038091E10339
:100A30009091E203A091E303B091E403805F984DAD
:100A4000AF4FBF4F8093DD039093DE03A093DF038E
:100A5000B093E0036DEF73E01EC001E021E040E0E1
:100A600061E08BE491E00E94B1038091E1039091F9
:100A7000E203A091E303B091E403805A9541AF4FA4
:100A8000BF4F8093DD039093DE03A093DF03B09309
:100A9000E00367EF73E080ED93E00E945A116996DE
:100AA0000FB6F894DEBF0FBECDBFDF91CF911F917F
:100AB0000F91089508958F929F92AF92BF92CF9217
:100AC000DF92EF92FF92CF93DF93EC014A015B013B
:100AD000CB01BA010E94272B6B017C01882777FD8F
:100AE0008095982F0E945A2B9B01AC01C501B4013F
:100AF0000E94562A20E030E048EC52E40E940E2C7E
:100B00000E94272B7F936F93DF92CF9289E591E02C
:100B10009F938F93DF93CF930E94C92F8DB79EB77A
:100B200008960FB6F8949EBF0FBE8DBF81E090E08F
:100B3000DF91CF91FF90EF90DF90CF90BF90AF907B
:100B40009F908F9008952F923F924F925F926F9255
:100B50007F928F929F92AF92BF92CF92DF92EF924D
:100B6000FF920F931F93CF93DF93CDB7DEB76997B3
:100B70000FB6F894DEBF0FBECDBF0E94AC24C0906C
:100B80002A05D0902B05E0902C05F0902D050091C2
:100B90002E0510912F052091300530913105C01A96
:100BA000D10AE20AF30A28EE822E23E0922EA12C2B
:100BB000B12CA50194010E94852CC20ED31EE41E07
:100BC000F51EC701B60120E831E541E050E00E9482
:100BD000852C2E8B3F8B488F598F6B017C0120E138
:100BE0003EE040E050E00E94852C1901142F052FB3
:100BF0003CE3432E512C612C712CC701B601A3019B
:100C000092010E94852C7F936F93A0EFB1EF910129
:100C1000412F502F0E94BB2C6C0D7D1D8E1D9F1DE2
:100C2000A30192010E94852C3F932F933F922F9214
:100C300080912805909129052E893F89820F931F65
:100C40009F938F9381E691E09F938F93CE010196BE
:100C50007C01FF928F930E94C92F00E020E044E0C6
:100C600060E0C7010E94B1030E94AC2440903505AA
:100C7000509036056090370570903805A5019401B5
:100C80000E94852C24193509460957095F934F9313
:100C90003F932F937F926F925F924F928091340592
:100CA0008F93809133058F9389E791E09F938F9382
:100CB000FF92EF920E94C92F01E021E040E065E041
:100CC000C7010E94B1030FB6F894DEBF0FBECDBFBF
:100CD00069960FB6F894DEBF0FBECDBFDF91CF91FE
:100CE0001F910F91FF90EF90DF90CF90BF90AF904A
:100CF0009F908F907F906F905F904F903F902F903C
:100D0000089580ED93E00C9486112F923F924F92BC
:100D10005F926F927F928F929F92AF92BF92CF928B
:100D2000DF92EF92FF920F931F93CF93DF93CDB794
:100D3000DEB7CC56D1090FB6F894DEBF0FBECDBFDB
:100D40005E0185E4A80EB11C8CE1D5011D928A9547
:100D5000E9F7FE0131964F013E01F1E66F0E711C7D
:100D600048EE242E43E0342E412C512C88E294E0AE
:100D70000E942613882309F432C18CE1AD968FAF0F
:100D8000AD97C12CD12CE12CF12C00E010E09E019C
:100D900025593F4FAE0144595F4FB50188E294E0B9
:100DA0000E94D213811108C001E021E040E061E01F
:100DB0008BE891E00E94B103AD968FADAD97F50140
:100DC000E80FF11D108201E021E040E063E0C50181
:100DD0000E94B10388E294E00E94C813182F1F708C
:100DE000113009F0C9C0A0EBB2E0BA83A9832596FF
:100DF0001FAE1EAE25974AE0B501C4010E94001146
:100E00008C01FC0180819181892B61F464E971E09E
:100E100084EA96E00E945328B50184EA96E00E9495
:100E20007028A4CF69EB71E0C8010E94460F0E94B0
:100E30000A0E6CEB71E0C8010E94010EDC018D917D
:100E40009C91029718F16CEB71E0C8010E94460F6B
:100E50000E940A0E6E31710510F46EE170E061318E
:100E6000BEE07B0718F09CE281E002C0962F872F3E
:100E700090930A0180930B019093150480931604BC
:100E800080916704909168040E9487036EEB71E083
:100E9000C8010E94010EFC0180819181029760F1DE
:100EA0006EEB71E0C8010E94460F0E940A0E60932B
:100EB0002A0570932B0580932C0590932D050E9495
:100EC000AC24A20191010E94852C20932E05309321
:100ED0002F05409330055093310521E0809128057E
:100EE00090912905892B09F420E0209326050E9482
:100EF000A30581E0809325056BE072E0C8010E94A4
:100F0000010EDC018D919C91029708F42FCF6BE0CC
:100F100072E0C8010E94460F0E940A0E60932805E5
:100F2000709329057F936F93A0ECB1E0BF93AF93CB
:100F30007F926F920E94C92F01E020E044E060E0C0
:100F4000C3010E94B10321E00F900F900F900F900A
:100F50000F900F9080912A0590912B05A0912C0560
:100F6000B0912D05892B8A2B8B2B09F420E020933F
:100F700026050E94A305FACE00E021E040E062E0F1
:100F800085EC91E00E94B10388E294E00E94C813CE
:100F90001F928F93AFECB1E0BF93AF939F928F926C
:100FA0000E94C92F01E020E049E062E0C4010E94F4
:100FB000B1034AE050E06AE375E684EA96E00E94F5
:100FC00025294AE050E0612F84EA96E00E945229E8
:100FD0000F900F900F900F900F900F90C7CEC459A5
:100FE000DF4F0FB6F894DEBF0FBECDBFDF91CF91BC
:100FF0001F910F91FF90EF90DF90CF90BF90AF9037
:101000009F908F907F906F905F904F903F902F9028
:1010100008950F931F930E948506809126058823CB
:1010200019F061EF73E01BC00E94AC240091DD0356
:101030001091DE032091DF033091E00306171707BC
:101040002807390790F40E94AC246093E103709361
:10105000E2038093E3039093E40363E074E080EDA4
:1010600093E01F910F910C945A111F910F910895C5
:101070000F931F930E94850680912505882319F000
:10108000109225050FC00E94AC240091D903109145
:10109000DA032091DB033091DC03061717072807DA
:1010A000390740F465EE73E080ED93E01F910F91F6
:1010B0000C945A111F910F910895CF93DF93CDB7E0
:1010C000DEB72E970FB6F894DEBF0FBECDBF1C82E1
:1010D0001B822BED32E03A8329837E836D8341505E
:1010E000510958874F831A861986FB0110829E0189
:1010F0002F5F3F4F3C872B871E861D86BE01655F95
:101100007F4F0E94E10E8D859E852E960FB6F89436
:10111000DEBF0FBECDBFDF91CF910895CF93DF9398
:1011200082E395E00E94A9111092EA041092E9046A
:10113000C7EED4E080EA92E09983888342E06EE0D3
:1011400071E0CE010E94601A88EA92E09983888358
:1011500028E435E04AE069E08BE294E00E94601800
:1011600042E06BE274E088E294E00E94211369EEB1
:1011700078E089E094E00E942D1166EC74E083E051
:1011800094E00E942D1169E078E08DEF93E00E94D9
:101190002D1161E673E087EF93E00E942D116DE35E
:1011A0007AE081EF93E00E942D1168E378E08BEE06
:1011B00093E00E942D116AE07CE085EE93E00E94AE
:1011C0002D1169E074E080ED93E0DF91CF910C94F4
:1011D0004E11AF92BF92CF92DF92EF92FF920F9398
:1011E0001F93CF93DF93CDB7DEB769970FB6F8940F
:1011F000DEBF0FBECDBF26E040E051EE60E070E004
:1012000084EA96E00E9404274EE750E060E270E036
:1012100089E694E00E94942F10927D04109292042B
:101220001092A7041092BC041092D1041092E6040C
:101230008091F604813029F461E08BEE94E00E9405
:10124000FE1F1F9282E08F9383ED91E09F938F9317
:101250009E012F5F3F4F7901FF922F930E94C92F6C
:1012600000E021E040E060E0C7010E94B10301E03E
:1012700021E040E065E089EE91E00E94B103C0907A
:101280006704D09068040F900F900F900F900F900C
:101290000F900FE014E0C6018F5094405C01C5012F
:1012A000800F911F0E94BD31F80181938F01F4E0FE
:1012B00007321F07A1F780910F04811116C081E04A
:1012C00080930F04109210041092110410921204D3
:1012D0001092130482E08093140480910A0190918B
:1012E0000B019093160480931504409110045091C3
:1012F000110460911204709113044F5F5F4F6F4FA0
:101300007F4F409310045093110460931204709324
:101310001304209115043091160421318EE0380712
:1013200018F09CE281E002C0922F832F90930A0173
:1013300080930B01C6010E9487031F9285E08F9363
:1013400080910B018F9380910A018F9380910D0101
:101350008F9380910C018F938EEF91E09F938F93E9
:10136000FF92EF920E94C92F01E021E040E064E08B
:10137000C7010E94B10382E395E00E94AA1160E0D8
:1013800085E00E94872588E294E00E9487130FB6CB
:10139000F894DEBF0FBECDBF811107C021E040E051
:1013A00061E08DE092E00E94B10363E08BE294E0A3
:1013B0000E949918811106C06CE172E084EA96E0FF
:1013C0000E94702842E050E062E070E08BE294E01E
:1013D0000E94A018811106C06FE272E084EA96E0D4
:1013E0000E94702883E00E943E251F9283E08F9325
:1013F0001F9282E08F938DE392E09F938F93FF92F1
:10140000EF920E94C92FF70101900020E9F76E2F9B
:101410006E1940E0C7010E94760484EA96E00E94BB
:101420007D2660ED77E080E090E00E94DB240E9462
:10143000AC246093E1037093E2038093E303909301
:10144000E40363E074E080ED93E00E945A110FB66C
:10145000F894DEBF0FBECDBF69960FB6F894DEBF1D
:101460000FBECDBFDF91CF911F910F91FF90EF90F5
:10147000DF90CF90BF90AF9008954F925F926F92A0
:101480007F929F92AF92BF92CF92DF92EF92FF92A4
:101490000F931F93CF93DF93CDB7DEB7C857D10912
:1014A0000FB6F894DEBF0FBECDBF8091330590918B
:1014B00034050196909334058093330585E00E94AE
:1014C000F625182F61E572E084EA96E00E94532821
:1014D0004AE050E0612F84EA96E00E945229992464
:1014E0009394113009F0912C82E395E00E94DA1177
:1014F0006B017C0182E395E00E9452122B013C01BA
:10150000A7019601C701B6010E94712C9E01275BBD
:101510003F4F590181114CC020E030E0A901C701C3
:10152000B6010E94BB2A882309F442C026E636E6AB
:1015300046EE5FE3C301B2010E940E2C20E030E0D2
:1015400040E052E40E94572A2B013C01AB01BC0150
:10155000CE0181599F4F0E945B05B701A601CE01C4
:1015600087599F4F0E945B0584EA96E00E947D2682
:1015700086EB92E09EA38DA329961FAE1EAE2997FF
:10158000CE0185960E94CE0D8C01A3019201C3016C
:10159000B2010E94712C81112AC020E030E040EF9E
:1015A00052E4C301B2010E940A2C181604F145C08E
:1015B0000E94AC249F938F937F936F931F9282E03E
:1015C0008F938AE692E09F938F93BF92AF920E948F
:1015D000C92F0FB6F894DEBF0FBECDBF412C512CE2
:1015E00050E8652E5FEB752E73016201BDCF60E898
:1015F00072E0C8010E94460F4FEF5FEFBA010E94F0
:101600003F0EA7019601C701B6010E94712C8111FE
:101610001FC020E030E0A901C701B6010E94BB2A2B
:101620008823B1F020E030E048EC52E4C701B60175
:101630000E940A2C181664F0E2C060E872E0C8014B
:101640000E94460F22E0B301A2010E94300ED9CFC2
:1016500063E872E0C8010E94460F4FEF5FEFBA01E6
:101660000E943F0E80E2F50111928A95E9F740E26F
:1016700050E0B501C8010E945D08F501019000200D
:10168000E9F76E2F6A1942E0C5010E94760400E076
:1016900020E040E062E0CE0181599F4F0E94B103FB
:1016A00001E020E046E062E0CE0187599F4F0E94B2
:1016B000B10386EB92E09A8389831CA21BA2CE0120
:1016C00001960E94CE0D3C0167E572E084EA96E047
:1016D0000E9453286091270470E04AE050E084EAB9
:1016E00096E00E9425296BE572E084EA96E00E946C
:1016F0005328092D10E04AE050E0B80184EA96E052
:101700000E942D2984EA96E00E947D26809127047C
:10171000891569F061E672E0C3010E94460F492D08
:1017200050E060E070E00E943F0E909227044AE093
:10173000BE016B587F4FC8010E94A42F01E020E03A
:101740004CE062E00E94B1030E943C046B017C010A
:1017500063E672E0C3010E94460FB701A6010E9432
:101760003F0E66E672E0C3010E94460F40E050E083
:10177000BA010E943F0E80E2F50111928A95E9F7C5
:1017800040E250E0B501C3010E945D08F5010190FF
:101790000020E9F76E2F6A1942E0C5010E94760425
:1017A00084EA96E00E947D260E94AC24605F784D1A
:1017B0008F4F9F4F6093D9037093DA038093DB03BD
:1017C0009093DC036BEE73E080ED93E00E945A117E
:1017D000C858DF4F0FB6F894DEBF0FBECDBFDF9104
:1017E000CF911F910F91FF90EF90DF90CF90BF901E
:1017F000AF909F907F906F905F904F90089563E8B7
:1018000072E0C8010E94460F22E0B701A6010E94C3
:10181000300E28CF8F929F92AF92BF92CF92DF92DD
:10182000EF92FF920F93CF93DF93CDB7DEB765971B
:101830000FB6F894DEBF0FBECDBF80910B018F9322
:1018400080910A018F9386E892E09F938F93CE0157
:1018500001967C01FF928F930E94C92F01E021E045
:1018600040E061E0C7010E94B1030E94A30560EA65
:101870007FE080E090E00E94DB248BEE94E00E9409
:10188000DD1F68EC70E080E090E00E94DB248BE2DA
:1018900094E00E94791880900A0190900B0163E017
:1018A000969487946A95E1F7A12CB12C0F900F9034
:1018B0000F900F900F900F90C12CD12C760120E04B
:1018C00030E040E050E069E070E087E495E00E949D
:1018D000CA1291E0C91AD108E108F108D501C40182
:1018E0008C0D9D1DAE1DBF1D892B8A2B8B2B39F7AF
:1018F00061EF73E080ED93E00E945A1165960FB698
:10190000F894DEBF0FBECDBFDF91CF910F91FF9056
:10191000EF90DF90CF90BF90AF909F908F90089501
:10192000FC01808591852681378182179307A4F475
:10193000A481B5819C012F5F3F4F31872087A80F7D
:10194000B91F6C93A481B58180859185A80FB91FBB
:101950001C9281E090E0089580E090E00895CF939C
:10196000DF93EC0188819981DC01ED91FC9101907C
:10197000F081E02D09952A813B81280F391F3B8397
:101980002A83DF91CF910895DB01ED91FC911197AE
:101990000190F081E02DBC01CD0109940F931F93BC
:1019A000CF93DF938C01F801C281D381888199277D
:1019B00087FD90950E946B2F892B29F02196F801C5
:1019C000D383C283F0CFDF91CF911F910F91089500
:1019D0000F931F93CF93DF931F92CDB7DEB78C0188
:1019E00069830E94CE0CD8011296ED91FC91139759
:1019F0008081698186130AC031961396FC93EE9319
:101A00001297C8010E94CE0C81E001C080E00F90C7
:101A1000DF91CF911F910F910895FB012191BF019B
:101A2000222379F0DC011296ED91FC91139730811D
:101A3000321307C03196DC011396FC93EE93129794
:101A4000ECCF81E0211180E00895BF92CF92DF9228
:101A5000EF92FF920F931F93CF93DF937C01EB01E3
:101A6000009771F468EB72E0CE01DF91CF911F9186
:101A70000F91FF90EF90DF90CF90BF900C94532880
:101A8000E881F9810190F081E02D62E2CE010995B3
:101A90008C01F70161917F01662351F0E8ECF2E0DF
:101AA000B080BB2079F191819617B1F03296F8CFD2
:101AB000E881F9810190F081E02D62E2CE01099583
:101AC000800F911FDF91CF911F910F91FF90EF90A9
:101AD000DF90CF90BF900895E881F9810190F08167
:101AE000E02D6CE5CE0109956C01E881F98101904A
:101AF000F081E02D6B2DCE0109958C0D9D1D080FF9
:101B0000191FC7CFE881F9810190F081E02DCE0146
:101B10000995F5CFCF93FC015081523229F057320D
:101B200019F080E090E023C09C012F5F3F4FD90166
:101B3000F901CF0101964081442399F3451791F0B3
:101B40004C3569F401964181ECECF2E0C081CC2384
:101B500031F0C41302C0418102C03296F7CF4D93D9
:101B6000FC01E7CF1C92FB0191838083C901CF91D7
:101B70000895CF93DF93EC01BC0184E090E00E94D4
:101B8000C40CFC01009729F0D183C0831382128218
:101B900002C083E495E0DF91CF910895CF93DF9366
:101BA000EC01BC0184E090E00E94C40CFC010097B1
:101BB00029F0D183C0831382128202C08FE395E0A3
:101BC000DF91CF9108950F931F93CF93DF938B01F4
:101BD000FC01C281D381209759F0B8018A819B8191
:101BE0000E949B2F892B39F00990D881C02DF3CF0B
:101BF00080E090E001C0CE01DF91CF911F910F9165
:101C000008950E94E30D009711F00496089589E36A
:101C100095E00895FC01208131812630310529F4B9
:101C20006281738184819581089560E070E0CB01C9
:101C30000895FC0180819181892B29F084E090E056
:101C40009183808362830895FC0180819181892B37
:101C500031F085E090E091838083738362830895FF
:101C6000FC0180819181892B49F030E0295F3F4F51
:101C70003183208342835383648375830895FC01F9
:101C800080819181892B41F086E090E0918380836F
:101C900042835383648375830895FC01808191811D
:101CA000892B31F082E090E091838083738362839B
:101CB0000895FC0180819181892B31F083E090E0CF
:101CC00091838083738362830895CF93DF93FC01B4
:101CD000EB01208131812230310531F48281938101
:101CE000DF91CF910C94BB0E2330310531F482810A
:101CF0009381DF91CF910C94E10E2530310539F4B9
:101D000068817981828193810E94250D2BC02630C4
:101D1000310559F442815381648175812AE030E0B4
:101D2000888199810E94DB281DC02430310569F427
:101D30008281882319F06DEB72E002C062EC72E0E0
:101D4000888199810E9453280DC02730310584F085
:101D5000275030E042815381648175818881998167
:101D60000E94542A2A813B81280F391F3B832A83F2
:101D7000DF91CF9108950F931F93CF93DF93EC01E1
:101D80008B016BE5C8010E94AF0C0A80DB81C02D7E
:101D9000209779F0B801CE0102960E94650E099055
:101DA000D881C02D209729F06CE2C8010E94AF0CA9
:101DB000F1CF6DE5C801DF91CF911F910F910C9488
:101DC000AF0C0F931F93CF93DF938C01EB016BE765
:101DD000CE010E94AF0CF80102811381011511059B
:101DE00009F168817981F801828193810E94250D32
:101DF0002A813B81280F391F3B832A836AE3CE0166
:101E00000E94AF0CBE01C80104960E94650EF80145
:101E1000008111810115110529F06CE2CE010E94AB
:101E2000AF0CDFCF6DE7CE01DF91CF911F910F9106
:101E30000C94AF0CFC01608171816115710579F022
:101E40008AE090E00E94C40CFC01009741F01182EE
:101E5000108281E090E095838483CF01089580E033
:101E600090E00895DC011296ED91FC911397309764
:101E700049F080819181009711F0FC01FACF7183C4
:101E800060830895FC01738362830895EF92FF924B
:101E90000F931F93CF93DF938C017B010E94E30D7F
:101EA000EC01009761F4C8010E941A0FEC01009741
:101EB00049F0FB82EA82BC01C8010E94320FCE01C8
:101EC000049602C089E395E0DF91CF911F910F91B5
:101ED000FF90EF900895FC0160817181611571059B
:101EE00079F088E090E00E94C40CFC01009741F07A
:101EF0001182108281E090E093838283CF01089564
:101F000080E090E00895DC011296ED91FC9113972A
:101F1000309749F080819181009711F0FC01FACF50
:101F2000718360830895FC017383628308950F9326
:101F30001F93CF93DF938C010E946B0FEC010097EE
:101F400039F0BC01C8010E94830FCE01029602C085
:101F500089E395E0DF91CF911F910F910895EF9262
:101F6000FF920F931F93CF93DF93EC0188819981A8
:101F70000E94B90D7C016BE5CE010E94E80C811135
:101F800003C083E495E022C06DE5CE010E94E80C19
:101F900081111BC0C7010E94970F8C01BC01CE01AB
:101FA0000E94ED0FF801208131812230310548F384
:101FB0006DE5CE010E94E80C811107C06CE2CE01F4
:101FC0000E94E80C8111E6CFDCCFC701DF91CF91F1
:101FD0001F910F91FF90EF900895EF92FF920F9352
:101FE0001F93CF93DF9300D0CDB7DEB78C017B0179
:101FF000DC0114968C911497882309F4A3C08150B6
:1020000014968C93C8010E94CE0CF80182819381B2
:10201000DC012C912A337CF420330CF03FC02732B2
:1020200009F461C024F4223209F45DC065C02D5268
:102030002230A0F161C02E3609F442C02CF42B35B9
:1020400081F02636B1F058C0243799F02B3709F0CB
:1020500053C0C8010E94AB10BC01C7010E94590EB9
:102060004BC0C8010E94AF0FBC01C7010E944D0EBA
:1020700043C06DEB72E0C8010E940D0D882311F082
:1020800061E008C062EC72E0C8010E940D0D882377
:1020900009F160E0C7010E94190E2EC04AE050E02D
:1020A000BE016F5F7F4F0E94322EAB01BC01E98100
:1020B000FA8180818E3229F18F7D8534D1F521C05E
:1020C00068EB72E0C8010E940D0D882319F060E0F2
:1020D00070E00FC086E0E9E3F5E0D70101900D92D2
:1020E0008A95E1F709C0B8016E5F7F4F0E948A0DA3
:1020F000BC01C7010E94240EF80184818F5F848394
:1021000021C0B8016E5F7F4FD80112968D919C91CE
:1021100013970E94CF2CAB01BC01F80122813381BF
:1021200089819A81281B390B2150C7010E94300EEA
:10213000E3CFD8011396FC93EE931297C7010E9448
:102140003F0EDACF0F900F90DF91CF911F910F913B
:10215000FF90EF900895CF92DF92EF92FF920F934E
:102160001F93CF93DF93EC01888199810E94CE0D5C
:102170006C016BE7CE010E94E80C811103C08FE374
:1021800095E035C06DE7CE010E94E80C81112EC0AC
:102190007E0182E0E80EF11CB7018A819B810E94DA
:1021A0008A0D8C01009759F36AE3CE010E94E80C76
:1021B000882329F3B801C6010E94460F8C01BC0197
:1021C000CE010E94ED0FF8012081318122303105CE
:1021D000B0F26DE7CE010E94E80C811107C06CE2FD
:1021E000CE010E94E80C8111D7CFC9CFC601DF9183
:1021F000CF911F910F91FF90EF90DF90CF900895B6
:10220000CF93DF9300D000D01F92CDB7DEB79A8373
:1022100089837C836B834D83CE0101960E94AB1032
:102220000F900F900F900F900F90DF91CF91089526
:1022300010924405109243051092460510924505F0
:102240001092400510923F051092420510924105F0
:1022500010923A05109239050895FC0111821082FE
:1022600073836283158214820895DC01ED91FC91E1
:10227000309709F009940895DC011296ED91FC91D4
:102280001397309709F009940895DC011496ED91A5
:10229000FC911597309709F009940895FC0181E0AD
:1022A00080837483638372836183158216821782AD
:1022B00010860895CF93DF93EC017C836B830E949B
:1022C000AC246D837E838F839887CE01DF91CF917D
:1022D00008950F931F93CF93DF93EC018B018981B6
:1022E0009A810E9445111C830B831A830983C801BC
:1022F0000E9435110E94AC246D837E838F83988762
:10230000CE01DF91CF911F910F910895CF93DF936D
:10231000EC01288189819A81222321F00E943511C4
:1023200018820CC06B817C818617970719F0CE014B
:102330000E94691189819A810E943C11CE01DF912E
:10234000CF910895DC01ED91FC910190F081E02D99
:102350000994089587ED95E00E94BC2108950F939C
:102360001F93CB01A0E0B0E0BA2FA92F982F8827A8
:10237000842BE7E1F0E040E050E868E970E08C0190
:102380009D010E2E04C036952795179507950A9442
:10239000D2F700FF04C084279527A627B727769594
:1023A0006795579547953197E730F10541F71F91AC
:1023B0000F910895EF92FF920F931F93CF93DF93A6
:1023C0007C0160E470E087ED95E00E94E02165EF1C
:1023D00070E087ED95E00E94A21187ED95E00E94E4
:1023E000F52167E370E080E090E00E94DB2443E0A9
:1023F00050E060E470E087ED95E00E94D32105E6AF
:1024000010E087ED95E00E942521039774F461E0C8
:1024100070E080E090E00E94DB240150110989F710
:1024200060E070E889E794E436C087ED95E00E94AB
:102430002D21082F87ED95E00E942D21182F87ED83
:1024400095E00E942D21D02F90E0C92FC12B482F5D
:10245000BE01C7010E94AF11811119C0BE016C7F7E
:1024600080E090E00E94582B20E030E040E857E305
:102470000E940E2C20E030E04AEF52E40E940E2C25
:1024800020E030E040EC50E40E94562A04C060E0B6
:1024900070EC89E794E4DF91CF911F910F91FF9049
:1024A000EF900895EF92FF920F931F93CF93DF93D6
:1024B0007C0160E470E087ED95E00E94E02163EF2D
:1024C00070E087ED95E00E94A21187ED95E00E94F3
:1024D000F52167E370E080E090E00E94DB2443E0B8
:1024E00050E060E470E087ED95E00E94D32105E6BE
:1024F00010E087ED95E00E942521039774F461E0D8
:1025000070E080E090E00E94DB240150110989F71F
:1025100060E070E889E794E436C087ED95E00E94BA
:102520002D21082F87ED95E00E942D21182F87ED92
:1025300095E00E942D21D02F90E0C92FC12B482F6C
:10254000BE01C7010E94AF11811119C0BE016C7F8D
:1025500080E090E00E94582B20E030E040E857E314
:102560000E940E2C22E538EB4FE253E40E940E2C21
:1025700026E636E64BE352E40E94562A04C060E0A9
:1025800070EC89E794E4DF91CF911F910F91FF9058
:10259000EF9008954115510529F480917A008F77C5
:1025A00080937A006A307105B1F063FF02C088E25F
:1025B00001C088E06770682B88E190E00FB6F8945E
:1025C000A895809360000FBE6093600080916000CA
:1025D00080648093600083B7817F846083BF232BF6
:1025E00051F4F89483B7816083BF85B7806685BF57
:1025F0008F7D85BF04C0F89483B7816083BF7894D2
:10260000889583B78E7F83BF7894452B29F480917A
:102610007A00806880937A0008951F920F920FB617
:102620000F9211248F9388E10FB6F8948093600085
:10263000109260000FBE8F910F900FBE0F901F90F1
:102640001895FC017183608342830895DC018D91AC
:102650009C91DC01ED91FC910280F381E02D0994C5
:10266000DC018D919C91DC01ED91FC910484F58558
:10267000E02D0994DC018D919C91DC01ED91FC91A0
:102680000488F589E02D0994EF92FF920F931F9330
:10269000CF93DF931F92CDB7DEB77C018B01622F02
:1026A00049830E943A13D7018D919C91DC01ED91F1
:1026B000FC910680F781E02D4981B8010F90DF91F0
:1026C000CF911F910F91FF90EF900994DC018D91B4
:1026D0009C91DC01ED91FC910688F789E02D09942D
:1026E0001F93CF93DF93EC01162F88819981DC0132
:1026F000ED91FC910288F389E02D0995612FCE01BF
:102700000E9466131A83DF91CF911F9108951F9342
:10271000CF93DF93EC0188819981DC01ED91FC91ED
:102720000190F081E02D0995182F882321F06A810E
:10273000CE010E947013812FDF91CF911F910895D8
:10274000DC018D919C91DC01ED91FC91028CF38D6B
:10275000E02D0994DC018D919C91DC01ED91FC91BF
:10276000068CF78DE02D0994DC018D919C91DC01A4
:10277000ED91FC9100A0F1A1E02D0994DC018D9177
:102780009C91DC01ED91FC9102A0F3A1E02D099454
:10279000DC018D919C91DC01ED91FC9104A0F5A1EF
:1027A000E02D0994AF92BF92CF92DF92EF92FF9209
:1027B0000F931F93CF93DF93EC0159018881998187
:1027C000DC01ED91FC910480F581E02D09958823D1
:1027D00009F1A114B10429F0CE010E94B413F5014E
:1027E00080830115110529F0CE010E94AA13D8019A
:1027F0008C93E114F10429F0CE010E94BE13F7017D
:102800008083C114D10441F0CE010E94C813D601C7
:102810008C9302C080E001C081E0DF91CF911F91D5
:102820000F91FF90EF90DF90CF90BF90AF90089501
:1028300081E00895FC0165830895FC016483089597
:10284000FC0162870895FC0163870895FC01648799
:1028500008954095FC0125854223462B4587089520
:10286000FC0186810895FC0187810895FC01808523
:102870000895FC018185089580E00895CF93DF934A
:10288000EC01E881F9810280F381E02DCE01099508
:10289000811103C00E940724F4CFDF91CF910895E6
:1028A000CF93DF93EC018A819B81039719F40E94F7
:1028B0000724F9CF81E0DF91CF9108958F929F9205
:1028C000AF92BF92CF92DF92EF92FF92CF93DF93BE
:1028D000EC016B010E94AC244B015C01E12CF12C5A
:1028E0000E94AC24681979098A099B096C157D0539
:1028F0008E059F0560F4E881F9810280F381E02D67
:10290000CE010995811105C00E940724E9CF80E01E
:1029100001C081E0DF91CF91FF90EF90DF90CF90E9
:10292000BF90AF909F908F9008958F929F92AF929B
:10293000BF92CF92DF92EF92FF92CF93DF93EC01A1
:102940006B010E94AC244B015C01E12CF12C0E9434
:10295000AC24681979098A099B096C157D058E05D7
:102960009F0538F48A819B81039729F40E940724EC
:10297000EECF80E001C081E0DF91CF91FF90EF903A
:10298000DF90CF90BF90AF909F908F900895FC0103
:1029900083EE92E091838083138212828FEF84838F
:1029A0008287838714861586108A1786128A118A71
:1029B000148A138A089508950895FC017583648329
:1029C0000895FC01778366830895FC017383628315
:1029D0000895FC018FE093E0918380837383628389
:1029E000558344833783268308956EBD00000DB45C
:1029F00007FEFDCF8EB508958CB580688CBD089517
:102A00008CB58F778CBD0895FC0126813781211507
:102A1000310579F02130310541F02230310539F0AE
:102A20002330310531F49CE005C094E003C098E008
:102A300001C090E08CB5837F892B8CBD848195810A
:102A4000019719F48CB5806202C08CB58F7D8CBD66
:102A50008281938101978430910528F4FC01E15E25
:102A6000FC4F908101C095E02CB5892F83702C7F9D
:102A7000822B8CBD8DB592FB992790F98E7F892B87
:102A80008DBD0C94161A0C944C1ACF93DF93EC0165
:102A90000E94E91487E293E099838883DF91CF91C4
:102AA000089520E030E040E050E060E070E088E42D
:102AB00095E00C944515CF93DF93EC018D899E89A9
:102AC000DC01ED91FC910680F781E02D099561E034
:102AD0008F890E94872561E08F890E94C02564E666
:102AE00070E080E090E00E94DB2481E0DF91CF91F4
:102AF0000895EF92FF920F931F93CF93DF931F924E
:102B0000CDB7DEB77C018A0169830E94C7148BE3CD
:102B100093E0F70191838083168B058B6981678B26
:102B20000F90DF91CF911F910F91FF90EF9008953B
:102B30000F931F93CF93DF93EC01062F1FB7F894E9
:102B400060E08F890E94C0258D899E89DC01ED910E
:102B5000FC910190F081E02D602F0995082F61E034
:102B60008F890E94C0251FBF802FDF91CF911F91B9
:102B70000F9108950F931F93CF93DF93EC01062FCE
:102B80001FB7F89460E08F890E94C0258D899E89C7
:102B9000DC01ED91FC910190F081E02D602F099511
:102BA0008D899E89DC01ED91FC910190F081E02DF1
:102BB00060E00995082F61E08F890E94C0251FBF42
:102BC000802FDF91CF911F910F910895EF92FF9287
:102BD0000F931F93CF93DF931F92CDB7DEB77C0186
:102BE000162F0FB7F89460E0DC0157968C9149835B
:102BF0000E94C025F70185899689DC01ED91FC9141
:102C00000190F081E02D612F0995182FF70185893A
:102C10009689DC01ED91FC910190F081E02D4981D4
:102C2000642F099561E0F70187890E94C0250FBFD5
:102C3000812F0F90DF91CF911F910F91FF90EF9017
:102C40000895AF92BF92DF92EF92FF920F931F937E
:102C5000CF93DF9300D0CDB7DEB78C01D62EF22E06
:102C6000EFB6F89460E0DC0157968C9149835A8363
:102C70000E94C025F80185899689DC01ED91FC91BF
:102C80000190F081E02D6D2D0995D82E4981A42E5B
:102C90005A81B52EF40EFA1479F0F80185899689D7
:102CA000DC01ED91FC910190F081E02D60E009954F
:102CB000F50181935F01EFCF61E0D80157968C91C8
:102CC0000E94C025EFBE8D2D0F900F90DF91CF9108
:102CD0001F910F91FF90EF90DF90BF90AF900895FC
:102CE000AF92BF92DF92EF92FF920F931F93CF9319
:102CF000DF9300D0CDB7DEB78C01D62EF22EEFB623
:102D0000F89460E0DC0157968C9149835A830E94C5
:102D1000C025F80185899689DC01ED91FC9101902F
:102D2000F081E02D6D2D0995D82E4981A42E5A8170
:102D3000B52EF40EFA1471F0F80185899689D50143
:102D40006D915D01DC01ED91FC910190F081E02D30
:102D50000995F0CF61E0F80187890E94C025EFBE98
:102D60008D2D0F900F90DF91CF911F910F91FF90BC
:102D7000EF90DF90BF90AF900895CF93DF93EC0179
:102D80008F890E94F62521E0892B09F420E08A8DA5
:102D90008227DF91CF910895FC01808D0C94C0258E
:102DA000FC01238D6227818D0C94C025CF93DF9386
:102DB000EC018A819B81029761F060E0CE010E9464
:102DC000D01660E0CE010E94CC1682E090E09B839A
:102DD0008A83DF91CF910895862F86958695887096
:102DE00098E0980F891749F0E82FF0E0ED59FC4F73
:102DF0002081621719F08F5FF5CF80E008951F934F
:102E0000CF93DF93EC010E94BD16882319F09F8DAC
:102E10009F5F9F8F9E8D891771F098A1903518F450
:102E20002BE030E002C02DE130E098A1290F311DE8
:102E300028A38E8F03C088A18C5E88A388A1803AC6
:102E400008F46EC08AA19BA1969587959BA38AA33F
:102E50008F8D853028F08AA19BA198609BA38AA3BF
:102E600088A1805A88A31F8E89A1882309F446C0AF
:102E70008CA18F5F8CA38C3008F452C06AA17BA117
:102E80006F73CE010E94EC16182F6AA17BA146E059
:102E9000769567954A95E1F7CE010E94EC1690E190
:102EA000199F90011124822BBE0167597F4FFB01AE
:102EB0009081DE01A859BF4F9923B1F0FB019081A9
:102EC00021E0290F2083AE01490F511DFA0185A38E
:102ED000FB0190818C91981778F019A281E08C8F7A
:102EE000CE010E94D61608C08C939C91973090F02A
:102EF0009C91943478F4E2CF1CA212C08AA19BA1C9
:102F000088339B4069F481E089A31CA2C759DF4F35
:102F1000188206C019A28F8598890196988B8F8791
:102F2000DF91CF911F910895CF92DF92EF92FF92A0
:102F30000F931F93CF93DF93EC018C0104591F4F24
:102F4000F801808191E0980F9083811136C06E0165
:102F5000FAE6CF0ED11CF6018081EF56FF4F90812B
:102F6000891748F0CE010E94D6168B899C8901965C
:102F70009C8B8B8B22C0FE01E80FF11DE359FF4FA4
:102F8000608170E07E01FBE6EF0EF11CF7018081AD
:102F900091E0980F908302C0759567958A95E2F746
:102FA0006170CE010E94CC16F7018081863028F036
:102FB0001082F60180818F5F8083F80180818830E4
:102FC00008F01082DF91CF911F910F91FF90EF9049
:102FD000DF90CF900895FC012281338124303105A8
:102FE00011F40C94FF16FC0122813381233031054A
:102FF00011F40C94941708951F920F920FB60F922C
:1030000011242F933F934F935F936F937F938F93ED
:103010009F93AF93BF93EF93FF938091500590914F
:1030200051050E94EB17FF91EF91BF91AF919F91D6
:103030008F917F916F915F914F913F912F910F9061
:103040000FBE0F901F9018958CE10895DF92EF92BC
:10305000FF920F931F93CF93DF93EC017B018A01C3
:10306000E881F9810280F381E02D0995D82E88232B
:10307000F1F0E114F104C9F001151105B1F08A8DE8
:10308000282F30E023503109F801408150E04217E9
:10309000530714F084508083F801408150E0BE0152
:1030A000615E7F4FC7010E948B2F1BAE1A8E8D2D44
:1030B000DF91CF911F910F91FF90EF90DF900895D6
:1030C0001F93CF93DF93EC01162F642FA9010E9469
:1030D000791587E793E0998388831BAE8CE0888F0E
:1030E000198FDF91CF911F9108956F7160620C94D9
:1030F000E615CF93DF93EC018A819B81019769F0FC
:1031000040E060E0CE010E94751860E0898D0E9469
:10311000C02581E090E09B838A83DF91CF91089561
:103120006FEF0C94981561EE0C94981562EE0C9468
:103130009815462F4F7765E00E94751881E0089535
:10314000440F551F46706230710511F4406204C08F
:103150006130710509F44860416066E00E947518AD
:1031600081E00895CF93DF93EC018A819B810297E0
:1031700069F0488D60E0CE010E94751860E0898D8D
:103180000E94C02582E090E09B838A83DF91CF91EB
:1031900008951F93CF93DF93EC018A819B8103975E
:1031A000D1F4CE010E949018182F807319F40E9458
:1031B0000724F7CF14FF03C0CE010E949318CE015D
:1031C0000E94B21840E367E0CE010E94751815FB1B
:1031D000882780F901C080E0DF91CF911F91089589
:1031E000CF93DF93EC018A819B81049771F0488D26
:1031F000436060E0CE010E94751861E0898D0E94F5
:10320000C02584E090E09B838A83DF91CF9108956D
:10321000CF93DF93EC018A819B810397B9F060E043
:10322000898D0E94C02540E367E0CE010E94751899
:10323000488D426060E0CE010E94751861E0898D82
:103240000E94C02583E090E09B838A83DF91CF9129
:1032500008951F93CF93DF93EC01142F4D3100F5A8
:103260008A858B8F8B858C8F8C858D8F8D858E8FAE
:1032700050E0CE014F960E948B2F24E0210FAE012B
:10328000455E5F4F60EBCE010E947016CE010E943A
:1032900008198B899C8901969C8B8B8B81E001C0DE
:1032A00080E0DF91CF911F910895FC01828D8430E1
:1032B000C8F0838D8683848D8783858D8087868DF6
:1032C00081878581811107C096818481981719F0C3
:1032D00086818F3F39F4818992890196928B818B07
:1032E00081E083AF08950F931F93CF93DF93EC0199
:1032F0001BAD111134C02A813B812330310581F18E
:103300000E94F01867E1CE010E94BA1580FD28C026
:1033100060E6CE010E94BA15082F813248F0CE0136
:103320000E9496181BAE1A8ECE010E94B21818C0C9
:1033300040E467E0CE010E947518202FAE01455E83
:103340005F4F61E6CE010E9421160A8FCE010E94D6
:1033500055198BAD882319F0CE010E94B2181BAD10
:10336000812FDF91CF911F910F9108951F93CF93DC
:10337000DF93EC018D899E89DC01ED91FC9106843F
:10338000F785E02D60E070E00995CE010E945B15A5
:10339000182F811102C010E044C061E0898D0E94A5
:1033A000872560E0898D0E94C02540E767E0CE0157
:1033B0000E9475184FE36CE1CE010E94751845E03C
:1033C0006DE1CE010E9475186DE1CE010E94BA1523
:1033D0008530A9F4CE010E94B218CE010E94931844
:1033E000CE010E94961862E0CE010E94991843E037
:1033F00050E061E070E0CE010E94A01812C043E7E7
:1034000060E5CE010E94E61545E06DE1CE010E9427
:1034100075186DE1CE010E94BA15853009F0BBCF59
:10342000D9CF812FDF91CF911F910895CF93CFB73F
:10343000F89480915305811127C0ECE8F5E0849160
:10344000E8E7F5E09491E82FF0E0EE0FFF1FE65576
:10345000FA4FA591B4918C91892321F461E08AE01F
:103460000E94C02561E08AE00E9487258CB58061BA
:103470008CBD8CB580648CBD61E08DE00E94872599
:1034800061E08BE00E948725809153058F5F8093D8
:103490005305CFBFCF9108959FB7F89480915305FE
:1034A000882319F081508093530580915305811131
:1034B00005C08CB58F7B8CBD109252059FBF0895BF
:1034C000FC0113AE14AE15AE04960C94AC1F0F9312
:1034D000FC010150040F84A996A9941718F008174D
:1034E00028F402C0081750F0041740F42150260FAA
:1034F00083A995A9961720F4281720F480E007C027
:10350000281720F481E0261710F0F8CF81E00F9102
:103510000895DB011496ED91FC91159720E030E0C1
:1035200061E00994DB011496ED91FC91159720E080
:1035300030E063E00994DB011496ED91FC9115975E
:1035400020E030E040E064E00994DB011496ED9166
:10355000FC91159720E030E041E064E00994DB0144
:103560001496ED91FC91159720E030E062E009940B
:10357000DB011496ED91FC91159720E030E065E0B9
:103580000994DB011496ED91FC91159766E009947E
:10359000AF92BF92CF92DF92EF92FF920F931F9361
:1035A000CF93DF931F92CDB7DEB75C018B017A0119
:1035B00080E0F7014491811109C04F3FD9F1B80172
:1035C000C5010E94B81A81112EC039C04F3FB9F30E
:1035D0004E3FB9F1403F38F5403E30F04F70B801F2
:1035E000C5010E94AF1A1FC0403D30F04F70B801B6
:1035F000C5010E94921A17C0403CB8F0B801C5013D
:1036000049830E949B1A49814295407F4E5FC42E98
:10361000D12CC6010E94351CB801C5010E94A51A13
:10362000C6010E94351C80E006C047FDFCCF842FF8
:1036300090E0F7CF81E0FFEFEF1AFF0ABACF80E00A
:1036400001C081E00F90DF91CF911F910F91FF900A
:10365000EF90DF90CF90BF90AF900895CF93DF931E
:10366000EC018BA5882381F088E70E94E11B882369
:1036700069F08EA1811106C00E94121C882331F0CE
:103680001BA602C080E4F8CF81E001C080E0DF919A
:10369000CF9108951F93CF93DF93142FE9016330E7
:1036A000B9F050F4613079F0623009F043C0FC01A8
:1036B00046A321E023A73EC0663001F1673059F1EF
:1036C0006530C1F50EC0FC0186A50E94AF1B32C05B
:1036D000FC0116A221E023A741112CC00E942E1C40
:1036E00029C00E942E1B811103C00E942E1C24C0E1
:1036F000812F0E94121C81111DC0F7CF0E942E1B2A
:10370000882399F31123B1F089910E94121C882318
:1037100061F31150F7CF0E942E1B882331F3112340
:1037200049F0FE0184910E94121C882329F0219601
:103730001150F5CF81E001C080E0DF91CF911F9162
:10374000089590915605911104C080935605609399
:1037500054050895109256051092540508958093CB
:1037600055051092B90084FF02C082E001C080E2DA
:103770008093B8000C94AA1BCF93DF9300D0CDB7F1
:10378000DEB720ED37E03A8329839091BC0098237F
:1037900091F429813A81232B49F48091550581FDCB
:1037A0000AC081E00E94A11B80E006C029813A8105
:1037B00021503109E8CF81E00F900F90DF91CF9138
:1037C0000895CF93C82F84EA8093BC0061E080E81D
:1037D0000E94BC1B882309F19091B900987F983012
:1037E00021F0903111F061E015C0C093BB0084E876
:1037F0008093BC0062E080E80E94BC1B882369F0D3
:103800008091550581FD0BC08091B900887F88317A
:1038100031F062E082E00E94A11B80E001C081E003
:10382000CF9108958093BB0084E88093BC0063E04F
:1038300080E80E94BC1B882369F08091550581FDBA
:103840000BC08091B900887F883231F063E082E05C
:103850000E94A11B80E0089581E0089584E980938F
:10386000BC0064E080E10C94BC1B2EEC37E00097B8
:1038700029F0F9013197F1F70197F9CF0895BF9237
:10388000CF92DF92EF92FF920F931F93CF93DF932C
:103890008C01EB01B42E690180E14817B1F1841766
:1038A00070F0EAE04E133CC042E0C8010E94891A61
:1038B00044E850E0BE01C8010E94C81A31C0F1E1DD
:1038C0004F1731F185E148132BC0EA80FB804CE7AC
:1038D00050E0C8010E94C81AF7014481406BBE0144
:1038E000C8010E94B81A41E0BE01C8010E94AF1A87
:1038F000AE01B801C7010E946320882301F140E0B6
:10390000BE01C8010E94921A0BC043E750E002C0FA
:1039100048E650E0BE01C8010E94C81A81E010C00C
:1039200096014B2DBE01C801DF91CF911F910F91E0
:10393000FF90EF90DF90CF90BF900C94DB2080E061
:10394000DF91CF911F910F91FF90EF90DF90CF907B
:10395000BF900895FC01E60FF11D849190E0982F2F
:1039600088273196E4918E0F911D0895FC01849172
:1039700008950E94B61C882311F0823011F486E06D
:10398000089583E0089580E0089566E00C94AA1CF1
:1039900068E00C94AA1C0A96FC01849108950B9689
:1039A000FC0184910895BF92CF92DF92EF92FF9233
:1039B0000F931F93CF93DF93EC01E62E0C811D81B3
:1039C000C8010E94B61CF82E8C819D810E94B91CF2
:1039D000B82E21E0F21619F0CC24CA9402C05FE0A0
:1039E000C52E8C819D810E94CB1CF82E8C819D81DF
:1039F0000E94CF1CD82E8C819D810E94C81CE0E6BD
:103A0000EE1538F4009729F0080F191F41E6F42E3F
:103A100010C08C819D810E94C51CF0E4FE1538F415
:103A2000009729F0080F191F31E4F32E02C00F5E32
:103A30001F4FDE1440F4188A1B8A1C8A198A1A8ABE
:103A400080E090E050C0DF14B0F32B2D30E0F8019F
:103A500084918F3F19F40F5F1F4F40C0FE1036C096
:103A60008C819D810E94B61C98012F5F3F4FF80109
:103A7000882311F0823091F484918B8BF901249189
:103A80002C8BF8013396E491E88BF8013496E4919D
:103A9000E98BF8013596E491EA8B16C09491892F51
:103AA0008F7082508A8B92959F70998BF901249127
:103AB000822F8F708C8B22952F702B8BF801329672
:103AC000E491E295EF70E88BC8010DC0F8013296E1
:103AD000E491EC210E0F111D020F131FFD1409F4C8
:103AE000AACFF394B4CFDF91CF911F910F91FF90A4
:103AF000EF90DF90CF90BF9008954F925F927F92AA
:103B00008F929F92AF92BF92CF92DF92EF92FF92ED
:103B10000F931F93CF93DF931F92CDB7DEB72C0186
:103B2000162F742E622F0E94D31C6C01009709F48B
:103B30003EC0F201848195810E94B91CF82EF201E9
:103B4000838804899188910E8289781A172D101B19
:103B5000282D412F692DC2010E94671A882321F167
:103B6000CF0CD11CF7E08F0E869486948694A82CF7
:103B7000B12C1715C9F0392D76018E2D8C198815A9
:103B800078F4F701049120E0412F632FC2013983BB
:103B90000E94ED1FFFEFEF1AFF0A3981385FEDCF6A
:103BA000CA0CDB1C1F5FE5CFF201808901C080E0F9
:103BB0000F90DF91CF911F910F91FF90EF90DF90C9
:103BC000CF90BF90AF909F908F907F905F904F90DD
:103BD00008950F931F93CF93DF9300D01F92CDB71B
:103BE000DEB78C01DC015596ED91FC9156972B8345
:103BF0004A83698309954A81480F2B816981C801ED
:103C00000F900F900F90DF91CF911F910F910C9417
:103C10007D1DAF92BF92DF92EF92FF920F931F93A1
:103C2000CF93DF9300D0CDB7DEB78C01E62EF42E14
:103C3000DC015596ED91FC91569729833A830995BD
:103C4000F80E2981A22E3A81B32ED12CF5012191B3
:103C50005F01222341F04F2D6E2DC8010E947D1D72
:103C6000E80ED80EF3CF8D2D0F900F90DF91CF91EE
:103C70001F910F91FF90EF90DF90BF90AF9008954C
:103C8000DC0114968D919C911597009709F43FC023
:103C900057962C915797FC01211108C03596E49155
:103CA0005896EC935897FC013C9611C0213041F492
:103CB0003F96E4915896EC935897FC01709607C094
:103CC0003D96E4915896EC935897FC013E9684916A
:103CD00059968C93599758968C915897992787FDA8
:103CE000909559962C915997821B910927FD939590
:103CF0005A962C915A97203441F0829FC00111248A
:103D0000E6E096958795EA95E1F75B968C930895A2
:103D100023EC3CE1FC01368B258B0895CF93DF9398
:103D2000EC018C819D818617970749F07D836C8318
:103D3000CE010E94401E83EC9CE19E8B8D8BDF9117
:103D4000CF9108951F93CF93DF93EC011D821C82C6
:103D50001F821E82198681E0888782E28A871F86F9
:103D60001E8680E090E02FEFFE01E80FF91F23A3ED
:103D700001968E309105C1F711E018A3CE010E9483
:103D8000881E1F8B188E198E80E48A8F1B8E84E20A
:103D900091E29AAB89ABDF91CF911F910895DB013E
:103DA000ED91FC910994EF92FF921F93CF93DF93D3
:103DB00000D0CDB7DEB77C01DC01D196ED91FC914E
:103DC000D29782E069837A83099520E030E04AE067
:103DD00069817A81C7010E94CF1E182FD701D19621
:103DE000ED91FC91D29783E00995D701D196ED91A1
:103DF000FC91D29780E00995812F0F900F90DF9171
:103E0000CF911F91FF90EF9008950F931F93CF9341
:103E1000DF93EC018B01E9A9FAA982E00995E9A9F0
:103E2000FAA981E0099520E030E044E1B801CE0133
:103E30000E94CF1E9E012D5C3F4F47E1B801CE018D
:103E40000E94CF1EE9A9FAA980E0DF91CF911F91CE
:103E50000F910994FF920F931F93CF93DF93EC017F
:103E60008B01E9A9FAA982E00995E9A9FAA981E0FB
:103E7000099520E030E045E1B801CE010E94CF1E57
:103E8000F82E882341F09E012D5C3F4F47E1B80199
:103E9000CE010E94CF1EE9A9FAA980E009958F2DD5
:103EA000DF91CF911F910F91FF900895CF93DF93F2
:103EB0001F92CDB7DEB79E012F5F3F4F46E40E94B1
:103EC000CF1E89810F90DF91CF910895CF93DF931B
:103ED0001F92CDB7DEB79E012F5F3F4F47E40E9490
:103EE000CF1E89810F90DF91CF91089520E030E0BF
:103EF00048E40C94CF1ECF93DF93EC016A817B8161
:103F00000E94561F88836A817B81CE010E94661FB2
:103F100089836A817B81CE010E94761F8B879E01F7
:103F20002D5C3F4F6A817B8147E1CE01DF91CF91CC
:103F30000C94CF1ECF93DF93EC016A817B810E94AA
:103F4000D31E882329F0CE010E947B1F81E001C08F
:103F500080E0DF91CF910895EF92FF920F931F932E
:103F6000CF93DF931F92CDB7DEB77C018B014983DE
:103F70000E94A21EF70113830283498146A7C7014D
:103F80000F90DF91CF911F910F91FF90EF900C94C4
:103F90009A1FFC01628173810C94051FCF93DF93FC
:103FA000EC01EE85FF85309709F009956A817B81E8
:103FB000CE01DF91CF910C942A1FFC0162817381A5
:103FC00020E030E040E10C94CF1EFC01628173815F
:103FD00020E030E041E10C94CF1E0F93FC01828180
:103FE0009381648F458F278F068F9F01245E3F4FFB
:103FF0004BE3BC01CF010F910C94CF1EFC0160A3D9
:104000000895FC0112828081815083831482089577
:10401000FC0120818281820F82839181891760F463
:1040200084818F5F84838381820F891710F08FEFE3
:10403000890F838381E0089580E00895DC0116965E
:10404000ED91FC91179715968C919F01280F311DCA
:10405000C9011192E817F907E1F70895FC0191E011
:104060008381861708F490E021E0461708F020E0ED
:10407000322F392B81E05281451708F480E08323E9
:104080009223892B0895DC01FB01108212968C91FA
:104090001297818315968C91159781508283139680
:1040A0008C9183830895FB0141812381213029F084
:1040B000233031F468EF640F04C0642F485F01C0FF
:1040C000642F0C942E20FC01CB01BA01268137818C
:1040D00045810C94C11ADC011696ED91FC9117975D
:1040E00012968C91481B477081E090E0042E01C02D
:1040F000880F0A94EAF7E60FF11D3081222311F0B0
:10410000832B02C08095832380830895FB01418126
:10411000DC0112962C911297421768F013962C919D
:104120001397241740F0608115962C91621718F4AC
:1041300024810C946B200895CF92DF92FF920F930D
:104140001F93CF93DF9300D0CDB7DEB78C016B0107
:10415000FB01F2808381813039F070F0823039F0D8
:10416000833041F020E001C021E030E007C020E0D2
:104170003FEF04C02FEFF9CF20E031E0F7FE08C099
:10418000B601C80129833A830E9486203A81298199
:10419000F6018081830F80838181820F8183FF0CF0
:1041A00069F70F900F90DF91CF911F910F91FF90C2
:1041B000DF90CF9008950F931F93CF93DF938901E2
:1041C000FB01C281D3814233F9F068F4453109F132
:1041D000473141F1443181F5CE010E941E20CE01CC
:1041E0000E94012029C0463411F1473411F14B33AC
:1041F00019F5B901CE010E9453208823E9F0B801D6
:10420000CE010E949C2018C0B901CE010E948620D8
:1042100013C0CE010E940820882381F0CE010E94A5
:104220001E200AC0B901CE010E94432005C08D8125
:1042300001C08981F801808381E001C080E0DF91C5
:10424000CF911F910F91089508958091070690E0F6
:1042500020910806821B91090895209108068091FB
:104260000706281750F4E22FF0E0E75FF94F80814E
:1042700090E02F5F2093080608958FEF9FEF089539
:10428000E091080680910706E81730F4F0E0E75F58
:10429000F94F808190E008958FEF9FEF0895089582
:1042A000CF92DF92EF92FF920F931F93CF93DF9302
:1042B0007C01CB018A012091E305222389F0EB01E7
:1042C0006B01C40ED51ECC15DD0569F06991D701CF
:1042D000ED91FC910190F081E02DC7010995F3CF9C
:1042E000642F0E94B122C801DF91CF911F910F91DD
:1042F000FF90EF90DF90CF900895CF93DF931F92C0
:10430000CDB7DEB769832091E3052223D1F0209158
:10431000E405203240F021E030E0FC0133832283C9
:1043200080E090E015C08091E505E82FF0E0EA51CB
:10433000FA4F998190838F5F8093E5058093E40520
:1043400005C061E0CE0101960E94B12281E090E0BB
:104350000F90DF91CF910895FC011382128248EEF5
:1043600053E060E070E0448355836683778383EA9B
:1043700093E09183808308951092080610920706B7
:104380001092E5051092E4050C94FC21862F413231
:1043900008F040E269E076E00E941A2210920806D6
:1043A00080930706089521E00C94C62181E0809354
:1043B000E305609306061092E5051092E405089562
:1043C0000C94D6210F93062F21E04091E40566EE70
:1043D00075E0809106060E945E221092E50510921B
:1043E000E4051092E3050F91089561E00C94E22139
:1043F00087ED95E00C94AC211092960681E08093B5
:1044000094061092930661E082E10E94C02561E06B
:1044100083E10E94C025E9EBF0E080818E7F8083FC
:1044200080818D7F808380E28093B80085E48093D3
:10443000BC000895413208F03FC09091960691115A
:10444000FCCF91E090939606209394062FEF209353
:10445000290610926E06240F20936D069093950600
:1044600090919506880F892B8093950680919306ED
:10447000813041F410929306809195068093BB00A1
:1044800085EC01C085EE8093BC008091960681305A
:10449000E1F380916E06841710F440916E062FE6CA
:1044A00036E0FB01D9018A2F821B841718F48D9105
:1044B0008193F9CF842F089580E008950F934132BE
:1044C00008F046C0909196069111FCCF92E090932F
:1044D0009606009394069FEF9093290610926E061D
:1044E00040936D06FB016FE676E0DB019A2F961B89
:1044F000941718F491919D93F9CF1092950690918D
:104500009506880F892B80939506809193068130BC
:1045100041F410929306809195068093BB0085EC40
:1045200001C085EE8093BC00222321F08091960685
:104530008230E1F3809129068F3F61F08091290656
:10454000803251F080912906803341F483E007C026
:1045500081E005C080E003C082E001C084E00F91EB
:104560000895613298F420919606243089F460937E
:104570004B06FC018DE496E0DC012A2F281B261750
:1045800018F421912D93F9CF80E0089581E00895EA
:1045900082E0089585ED8093BC008091BC0084FD8D
:1045A000FCCF10929606089585EC8093BC00109283
:1045B000960608951F920F920FB60F9211242F9313
:1045C0003F934F935F936F937F938F939F93AF939B
:1045D000BF93EF93FF938091B900887F803609F4F1
:1045E0009CC068F5883209F45BC090F4803109F40E
:1045F00054C038F4882309F4F5C0883009F44DC05C
:10460000F5C0883109F44CC0803209F45DC0EEC0B9
:10461000803409F468C048F4803309F455C0883305
:1046200009F0E4C080932906A8C0803509F44FC082
:10463000883509F45DC0883409F0D8C0D5C0883900
:1046400009F4C6C0A8F4883709F467C038F488367E
:1046500009F463C0803709F460C0C8C0883809F421
:10466000B7C0803909F45FC0803809F0BFC05BC0B3
:10467000803B09F485C038F4803A09F466C0883A72
:1046800009F47EC0B3C0803C09F4A6C0883C09F49C
:10469000A3C0883B09F489C0A9C08091950610C0C9
:1046A00090916E0680916D06981770F5E0916E06F8
:1046B00081E08E0F80936E06F0E0E159F94F808122
:1046C0008093BB0085EC85C0809329068DC0E09166
:1046D0006E0681E08E0F80936E068091BB00F0E045
:1046E000E159F94F808390916E0680916D066DC0FF
:1046F000E0916E0681E08E0F80936E068091BB0084
:10470000F0E0E159F94F80838091940681116CC0EB
:1047100081E08093930684EA60C083E080939606EC
:1047200010922A06CFCF80912A06803208F050C01E
:10473000E0912A0681E08E0F80932A068091BB00CB
:10474000F0E0E55DF94F8083BDCF80912A0680328D
:1047500030F4E0912A06F0E0E55DF94F10820E9406
:10476000CA2260912A0670E0E0918F06F0919006CF
:104770008BE296E0099510922A060E94D42236C058
:1047800084E08093960610924C0610924B06E091BE
:104790009106F0919206099580914B06811105C012
:1047A00081E080934B0610924D06E0914C0681E02B
:1047B0008E0F80934C06F0E0E35BF94F808180938D
:1047C000BB0090914C0680914B06981708F47ACF65
:1047D00085E88093BC000AC085EC8093BC001092F1
:1047E000960604C0109229060E94CA22FF91EF91FA
:1047F000BF91AF919F918F917F916F915F914F91F9
:104800003F912F910F900FBE0F901F901895089514
:104810001F920F920FB60F9211242F933F934F9335
:104820005F936F937F938F939F93AF93BF93EF9318
:10483000FF938091970690919806892B29F0E0913B
:104840009706F09198060995FF91EF91BF91AF916E
:104850009F918F917F916F915F914F913F912F9198
:104860000F900FBE0F901F9018951F920F920FB6CA
:104870000F9211242F933F934F935F936F937F93E6
:104880008F939F93AF93BF93EF93FF93809199067C
:1048900090919A06892B29F0E0919906F0919A0659
:1048A0000995FF91EF91BF91AF919F918F917F916A
:1048B0006F915F914F913F912F910F900FBE0F908D
:1048C0001F9018951F920F920FB60F9211242F93DD
:1048D0003F938F939F93AF93BF9380919C0690914A
:1048E0009D06A0919E06B0919F0630919B0626E002
:1048F000230F2D3720F40296A11DB11D05C029E814
:10490000230F0396A11DB11D20939B0680939C0647
:1049100090939D06A0939E06B0939F068091A0065B
:104920009091A106A091A206B091A3060196A11DA7
:10493000B11D8093A0069093A106A093A206B09308
:10494000A306BF91AF919F918F913F912F910F90AF
:104950000FBE0F901F9018952FB7F89460919C068A
:1049600070919D0680919E0690919F062FBF08959D
:104970003FB7F8948091A0069091A106A091A2065D
:10498000B091A30626B5A89B05C02F3F19F001964C
:10499000A11DB11D3FBF6627782F892F9A2F620F67
:1049A000711D811D911D43E0660F771F881F991FA0
:1049B0004A95D1F70895CF92DF92EF92FF92CF936D
:1049C000DF936B017C010E94B824EB01C114D10478
:1049D000E104F10489F00E9407240E94B8246C1BB2
:1049E0007D0B683E734090F381E0C81AD108E1085E
:1049F000F108C851DC4FEACFDF91CF91FF90EF90E3
:104A0000DF90CF900895789484B5826084BD84B59A
:104A1000816084BD85B5826085BD85B5816085BDB9
:104A2000EEE6F0E0808181608083E1E8F0E01082D2
:104A3000808182608083808181608083E0E8F0E013
:104A4000808181608083E1EBF0E0808184608083FD
:104A5000E0EBF0E0808181608083EAE7F0E0808134
:104A60008460808380818260808380818160808394
:104A70008081806880831092C100089580931C011A
:104A800008958E3008F08E50877020911C0190E4BC
:104A9000299F90011124822B80937C0080917A00C1
:104AA000806480937A0080917A0086FDFCCF8091AB
:104AB00078002091790090E0922B0895833081F066
:104AC00028F4813099F08230A1F008958730A9F060
:104AD0008830B9F08430D1F4809180008F7D03C09C
:104AE000809180008F7780938000089584B58F77C0
:104AF00002C084B58F7D84BD08958091B0008F770A
:104B000003C08091B0008F7D8093B0000895CF9353
:104B1000DF9390E0FC01E259FA4F2491FC01EE573B
:104B2000FA4F8491882349F190E0880F991FFC0186
:104B3000E655FA4FA591B49180569A4FFC01C59164
:104B4000D4919FB7611108C0F8948C91209582236D
:104B50008C93888182230AC0623051F4F8948C913E
:104B6000322F309583238C938881822B888304C0D5
:104B7000F8948C91822B8C939FBFDF91CF910895F5
:104B80000F931F93CF93DF931F92CDB7DEB7282FDC
:104B900030E0F901E65AFA4F8491F901E259FA4FEF
:104BA0001491F901EE57FA4F04910023C9F08823BC
:104BB00021F069830E945E256981E02FF0E0EE0F0D
:104BC000FF1FE056FA4FA591B4919FB7F8948C91CE
:104BD000611103C01095812301C0812B8C939FBF6D
:104BE0000F90DF91CF911F910F910895CF93DF9395
:104BF000282F30E0F901E65AFA4F8491F901E25981
:104C0000FA4FD491F901EE57FA4FC491CC2391F0A9
:104C100081110E945E25EC2FF0E0EE0FFF1FEA5697
:104C2000FA4FA591B4912C912D2381E090E021F4CD
:104C300080E002C080E090E0DF91CF9108950E9473
:104C4000662FFC01818D228D90E0805C9F4F821B3E
:104C500091098F7399270895FC01918D828D981782
:104C600031F0828DE80FF11D858D90E008958FEF72
:104C70009FEF0895FC01918D828D981761F0828DD0
:104C8000DF01A80FB11D5D968C91928D9F5F9F7380
:104C9000928F90E008958FEF9FEF089588EB97E251
:104CA000892B49F080E090E0892B29F00E94B827F9
:104CB00081110C9400000895FC01848DDF01A80F80
:104CC000B11DA35ABF4F2C91848D90E001968F7334
:104CD0009927848FA689B7892C93A089B1898C9153
:104CE00080648C93938D848D981306C00288F38919
:104CF000E02D80818F7D80830895CF93DF93EC0139
:104D0000888D8823C9F0EA89FB89808185FD05C0EB
:104D1000A889B9898C9186FD0FC00FB607FCF5CF25
:104D2000808185FFF2CFA889B9898C9185FFEDCF6D
:104D3000CE010E945C26E7CFDF91CF910895CF92FC
:104D4000DF92FF920F931F93CF93DF931F92CDB704
:104D5000DEB76C01DC015B969C915B975C968C9155
:104D60005C97981307C05096ED91FC915197808104
:104D700085FD32C0F601038D10E00F5F1F4F0F73EA
:104D80001127F02EF601848DF81211C00FB607FC22
:104D9000F9CFD6015096ED91FC915197808185FF16
:104DA000F1CFC60169830E945C266981EBCF838DB8
:104DB000E80FF11DE35AFF4F6083D6015B960C9319
:104DC0005B975296ED91FC9153978081806280832E
:104DD00081E058968C930DC0D6015696ED91FC91CA
:104DE000579760835096ED91FC9151978081806434
:104DF000808381E090E00F90DF91CF911F910F9120
:104E0000FF90DF90CF900895BF92CF92DF92EF9204
:104E1000FF92CF93DF93EC016A017B01B22E60E831
:104E200074E88EE190E0A70196010E94852C215044
:104E30003109410951095695479537952795E889D4
:104E4000F98982E08083211580E1380798F0E889AC
:104E5000F989108260E472E48FE090E0A701960186
:104E60000E94852C215031094109510956954795D9
:104E700037952795EC85FD853083EE85FF8520836A
:104E8000188EEC89FD89B082EA89FB898081806176
:104E90008083EA89FB89808188608083EA89FB8935
:104EA000808180688083EA89FB8980818F7D80830F
:104EB000DF91CF91FF90EF90DF90CF90BF9008955A
:104EC0001F920F920FB60F9211242F938F939F93DF
:104ED000EF93FF93E091B406F091B5068081E091E5
:104EE000BA06F091BB0682FD12C090818091BD068A
:104EF0008F5F8F732091BE06821751F0E091BD063F
:104F0000F0E0EC55F94F958F8093BD0601C080818C
:104F1000FF91EF919F918F912F910F900FBE0F9066
:104F20001F9018951F920F920FB60F9211242F9376
:104F30003F934F935F936F937F938F939F93AF9321
:104F4000BF93EF93FF9384EA96E00E945C26FF9163
:104F5000EF91BF91AF919F918F917F916F915F91F1
:104F60004F913F912F910F900FBE0F901F9018956A
:104F700084EA96E00E94212621E0892B09F420E0B2
:104F8000822F08951092A7061092A60688EE93E04D
:104F9000A0E0B0E08093A8069093A906A093AA068B
:104FA000B093AB0683EB93E09093A5068093A406A1
:104FB00085EC90E09093B1068093B00684EC90E08D
:104FC0009093B3068093B20680EC90E09093B50680
:104FD0008093B40681EC90E09093B7068093B60678
:104FE00082EC90E09093B9068093B80686EC90E04E
:104FF0009093BB068093BA061092BD061092BE062F
:105000001092BF061092C006089508950E940325CD
:105010000E9405280E945A05CEE4D6E20E9481062D
:105020002097E1F30E944E26F9CFCF92DF92EF92C4
:10503000FF920F931F93CF93DF936C017A01EB01E3
:10504000E60EF71E00E010E0CE15DF0561F0699175
:10505000D601ED91FC910190F081E02DC6010995FA
:10506000080F191FF1CFC801DF91CF911F910F9148
:10507000FF90EF90DF90CF9008956115710581F05A
:10508000DB010D900020E9F7AD0141505109461BAD
:10509000570BDC01ED91FC910280F381E02D099426
:1050A00080E090E008950C943D28DC01ED91FC91A6
:1050B0000190F081E02D09940F931F93CF93DF931C
:1050C000EC016DE00E9455288C016AE0CE010E943F
:1050D0005528800F911FDF91CF911F910F91089557
:1050E0000F931F93CF93DF93EC010E943D288C0117
:1050F000CE010E945C28800F911FDF91CF911F91FC
:105100000F9108958F929F92AF92BF92CF92DF92AC
:10511000EF92FF920F931F93CF93DF93CDB7DEB73C
:10512000A1970FB6F894DEBF0FBECDBF7C01C42E91
:10513000E52FCB01D22E19A221E02D1510F02AE087
:10514000D22E8E010F5D1F4F8D2C912CA12CB12CD6
:105150006C2D7E2FA50194010E94852C8C2DD29E52
:1051600080191124015011098A3014F4805D01C0A6
:10517000895CF8018083211531054105510521F035
:10518000C22EE32FCA01E4CFB801C7010E943D2817
:10519000A1960FB6F894DEBF0FBECDBFDF91CF91C1
:1051A0001F910F91FF90EF90DF90CF90BF90AF9045
:1051B0009F908F900895CF92DF92EF92FF920F937E
:1051C0001F93CF93DF93EC016A017B012115310519
:1051D00079F4E881F9810190F081E02D642FDF916D
:1051E000CF911F910F91FF90EF90DF90CF90099496
:1051F0002A303105E9F477FF1AC06DE20E94552884
:105200008C0144275527BA014C195D096E097F09A5
:105210002AE0CE010E948228800F911FDF91CF915A
:105220001F910F91FF90EF90DF90CF9008952AE0AB
:10523000B701A601CE01DF91CF911F910F91FF9091
:10524000EF90DF90CF900C9482289A01AB016627F3
:1052500057FD6095762F0C94DB280F931F93CF9307
:10526000DF93EC019A01AB01662757FD6095762F1D
:105270000E94DB288C01CE010E945C28800F911FC8
:10528000DF91CF911F910F9108952115310541F4C0
:10529000DC01ED91FC910190F081E02D642F0994E7
:1052A0000C9482280F931F93CF93DF93EC019A0104
:1052B000462F50E060E070E00E9445298C01CE014D
:1052C0000E945C28800F911FDF91CF911F910F9159
:1052D00008954F925F926F927F928F929F92AF92BA
:1052E000BF92CF92DF92EF92FF920F931F93CF93D3
:1052F000DF93EC016A017B01B22E9A01AB01C70179
:10530000B6010E94712C882319F06FEB73E027C05F
:1053100026013701E89477F82FEF3FEF4FE75FE77B
:10532000C301B2010E94712C81110DC02FEF3FEF1C
:105330004FE75FE7C301B2010E94BB2A18161CF4B5
:1053400063EC73E00CC02FEF3FEF4FE75FE4C70162
:10535000B6010E940A2C1816ACF467EC73E0CE017B
:10536000DF91CF911F910F91FF90EF90DF90CF9041
:10537000BF90AF909F908F907F906F905F904F9075
:105380000C943D282FEF3FEF4FE75FECC701B601CC
:105390000E94BB2A87FDE1CF20E030E0A901C701D0
:1053A000B6010E94BB2A87FF0AC06DE2CE010E94AF
:1053B00055288C01F7FAF094F7F8F09402C000E059
:1053C00010E0A12C60E070E080E09FE3AB1441F0BE
:1053D00020E030E040E251E40E94BF2AA394F6CFDF
:1053E0009B01AC01C701B6010E94572A6B017C01E9
:1053F0000E942C2B2B013C010E94582B9B01AC01DD
:10540000C701B6010E94562A6B017C012AE0B30154
:10541000A201CE010E948228080F191FBB2039F07B
:105420006BEC73E0CE010E943D28080F191F7B2C06
:10543000772041F120E030E040E251E4C701B601BD
:105440000E940E2C6B017C010E94272B4B01AA2489
:1054500097FCA094BA2C2AE030E0B501A401CE015B
:105460000E94DB28080F191FC501B4010E945A2BA6
:105470009B01AC01C701B6010E94562A6B017C0159
:105480007A94D6CFC801DF91CF911F910F91FF90F1
:10549000EF90DF90CF90BF90AF909F908F907F90D4
:1054A0006F905F904F9008950C9469295058BB27D6
:1054B000AA270ED075C166D130F06BD120F031F43F
:1054C0009F3F11F41EF45BC10EF4E095E7FB51C160
:1054D000E92F77D180F3BA1762077307840795071E
:1054E00018F071F49EF58FC10EF4E0950B2EBA2FD3
:1054F000A02D0B01B90190010C01CA01A0011124DA
:10550000FF27591B99F0593F50F4503E68F11A1685
:10551000F040A22F232F342F4427585FF3CF469516
:1055200037952795A795F0405395C9F77EF41F1638
:10553000BA0B620B730B840BBAF09150A1F0FF0F02
:10554000BB1F661F771F881FC2F70EC0BA0F621FEE
:10555000731F841F48F4879577956795B795F795DE
:105560009E3F08F0B3CF9395880F08F09927EE0F70
:10557000979587950895D9D008F481E008950CD0C7
:105580000FC107D140F0FED030F021F45F3F19F099
:10559000F0C0511139C1F3C014D198F39923C9F364
:1055A0005523B1F3951B550BBB27AA276217730729
:1055B000840738F09F5F5F4F220F331F441FAA1FDD
:1055C000A9F333D00E2E3AF0E0E830D0915050409D
:1055D000E695001CCAF729D0FE2F27D0660F771F4B
:1055E000881FBB1F261737074807AB07B0E809F02D
:1055F000BB0B802DBF01FF2793585F4F2AF09E3FC2
:10560000510568F0B6C000C15F3FECF3983EDCF393
:10561000869577956795B795F7959F5FC9F7880F3A
:10562000911D9695879597F90895E1E0660F771F8C
:10563000881FBB1F621773078407BA0720F0621B1D
:10564000730B840BBA0BEE1F88F7E095089504D016
:105650006894B111D9C00895BCD088F09F5790F0DC
:10566000B92F9927B751A0F0D1F0660F771F881F87
:10567000991F1AF0BA95C9F712C0B13081F0C3D0A2
:10568000B1E00895C0C0672F782F8827B85F39F040
:10569000B93FCCF3869577956795B395D9F73EF4E6
:1056A00090958095709561957F4F8F4F9F4F08958E
:1056B000E89409C097FB3EF49095809570956195AC
:1056C0007F4F8F4F9F4F9923A9F0F92F96E9BB2762
:1056D0009395F695879577956795B795F111F8CFDE
:1056E000FAF4BB0F11F460FF1BC06F5F7F4F8F4F49
:1056F0009F4F16C0882311F096E911C0772321F03F
:105700009EE8872F762F05C0662371F096E8862FD6
:1057100070E060E02AF09A95660F771F881FDAF72D
:10572000880F9695879597F90895990F0008550F5A
:10573000AA0BE0E8FEEF16161706E807F907C0F017
:1057400012161306E407F50798F0621B730B840B1F
:10575000950B39F40A2661F0232B242B252B21F4F9
:1057600008950A2609F4A140A6958FEF811D811D99
:10577000089597F99F6780E870E060E008959FEFD3
:1057800080EC089500240A941616170618060906D8
:10579000089500240A9412161306140605060895A7
:1057A000092E0394000C11F4882352F0BB0F40F42F
:1057B000BF2B11F460FF04C06F5F7F4F8F4F9F4F6F
:1057C000089557FD9058440F551F59F05F3F71F0F1
:1057D0004795880F97FB991F61F09F3F79F0879558
:1057E0000895121613061406551FF2CF4695F1DFE1
:1057F00008C0161617061806991FF1CF8695710571
:10580000610508940895E894BB2766277727CB01A4
:1058100097F908958ADF08F48FEF08950BD0C0CF71
:10582000B1DF28F0B6DF18F0952309F0A2CFA7CF9B
:105830001124EACFC6DFA0F3959FD1F3950F50E076
:10584000551F629FF001729FBB27F00DB11D639F32
:10585000AA27F00DB11DAA1F649F6627B00DA11DD8
:10586000661F829F2227B00DA11D621F739FB00D7E
:10587000A11D621F839FA00D611D221F749F3327EE
:10588000A00D611D231F849F600D211D822F762F87
:105890006A2F11249F5750408AF0E1F088234AF084
:1058A000EE0FFF1FBB1F661F771F881F91505040D0
:1058B000A9F79E3F510570F05CCFA6CF5F3FECF398
:1058C000983EDCF3869577956795B795F795E795BC
:1058D0009F5FC1F7FE2B880F911D9695879597F9CD
:1058E000089523DF880B990B0895DB018F939F9315
:1058F0000E94AD2CBF91AF91A29F800D911DA39FDF
:10590000900DB29F900D11240895A1E21A2EAA1BAA
:10591000BB1BFD010DC0AA1FBB1FEE1FFF1FA2175F
:10592000B307E407F50720F0A21BB30BE40BF50B5C
:10593000661F771F881F991F1A9469F760957095E5
:10594000809590959B01AC01BD01CF010895EE0FAC
:10595000FF1F0590F491E02D09940E94C02CA59F93
:10596000900DB49F900DA49F800D911D112408955A
:10597000B7FF0C94AD2C0E94AD2C821B930B0895A5
:10598000A29FB001B39FC001A39F700D811D112480
:10599000911DB29F700D811D1124911D0895A0E0ED
:1059A000B0E0E5EDFCE20C9492328B0161157105DB
:1059B00021F0DB018C9311969C93EC015E01BFEF0B
:1059C000AB1ABB0A7501C8808C2D90E00E946B2F2A
:1059D000892B11F0E501F2CFEDE2CE1208C07E0175
:1059E000F2E0EF0EF11CC980DD24D39409C02BE254
:1059F000C21205C07E0142E0E40EF11CC980D12C28
:105A0000E701219743E050E06CEB75E0CE010E9486
:105A1000732F892BC1F4239645E050E067EB75E0C6
:105A2000CE010E94732F892B09F4259601151105CB
:105A300019F0D801CD93DC93D11006C160E070E07D
:105A400080E89FE70AC143E050E064EB75E0CE01D7
:105A50000E94732F892B59F40115110509F4F9C01F
:105A6000B2E0EB0EF11CF801F182E082F2C0F70126
:105A700060E070E0CB01C0E0D0E07F01A0EDAA2E95
:105A8000AC0C29E02A1530F14D2D4260B42E2D2D9D
:105A90002870D2FE04C0211125C0219623C02111F7
:105AA0002197A5E0B0E09B01AC010E94AD2C660FF0
:105AB000771F881F991F6A0D711D811D911D6839FF
:105AC000A9E97A078A07A9E19A0760F0BD2DB660B7
:105AD000BB2E08C02EEFA2120AC0D3FC50C04D2D21
