:100000000C946B010C94B4130C94E1130C949301B5
:100010000C9493010C9493010C94270C0C94930171
:100020000C9493010C9493010C9493010C94930100
:100030000C9493010C9493010C9493010C949301F0
:100040000C9426140C9493010C94FA100C942C111B
:100050000C9493010C9493010C9493010C949301D0
:100060000C9493010C9493012A2A2A205741524E52
:10007000494E47202A2A2A20496E76616C696420FD
:10008000616464726573732030256F0A0D006964C2
:1000900020253034782066726F6D2030256F2074F3
:1000A0006F2030256F2074797065202564005041E1
:1000B00020506F77657209203D2025530D0A0043BB
:1000C0005243204C656E67746809203D2025530D0E
:1000D0000A004D6F64656C0909203D2025530D0A07
:1000E0000044617461205261746509203D202553EC
:1000F0000D0A0044594E50442F464541545552452F
:1001000000434F4E4649470052465F5345545550B1
:100110000052465F434800454E5F525841444452A6
:1001200000454E5F41410052585F50575F50302D9F
:10013000360054585F414444520052585F41444491
:10014000525F50322D350052585F414444525F5047
:10015000302D31000D0A0025303278002030780033
:100160002553092563203D000D0A002030782530F5
:100170003278002553092563203D004F42534552F4
:1001800056455F54583D253032783A20504F4C53F5
:100190005F434E543D2578204152435F434E543DCA
:1001A00025780D0A005354415455530909203D2028
:1001B0003078253032782052585F44523D257820DF
:1001C00054585F44533D2578204D41585F52543D6B
:1001D00025782052585F505F4E4F3D257820545867
:1001E0005F46554C4C3D25780D0A0011121314152D
:1001F000160A0B0C0D0E0F0001020304051B02145E
:10020000020C02050250415F4D41580050415F48C9
:100210004947480050415F4C4F570050415F4D499E
:100220004E003702300228023136206269747300B2
:100230003820626974730044697361626C6564009C
:100240004E0244026E524632344C30312B006E5214
:100250004632344C3031006B0265025D023235307B
:100260004B42505300324D42505300314D42505397
:100270000000000008000201000003040700000065
:100280000000000000010204081020408001020468
:1002900008102001020408102004040404040404CB
:1002A000040202020202020303030303030000002C
:1002B0000023002600290000000000250028002B54
:1002C0000000000000240027002A0000A5027A0E8A
:1002D0002F0FB60F5C1111241FBECFEFD8E0DEBF89
:1002E000CDBF12E0A0E0B1E0E2E0FBE302C0059088
:1002F0000D92A833B107D9F723E0A8E3B2E001C01B
:100300001D92A93EB207E1F712E0C6EDD2E004C0AB
:100310002297FE010E948418CC3CD107C9F70E94A5
:1003200017140C947F1D0C940000CF93C82FE091FC
:100330003503F09136030190F081E02D682F85E3BD
:1003400093E009958C2F992787FD9095CF9108957B
:10035000FC0184A995A9680F791F6333710530F4F6
:1003600075AB64AB02968E0F9F1F089580E090E0FE
:10037000089560E070E085E991E00C94251A26E08C
:1003800040E05BE460E070E085E393E00E949E1053
:100390000E94B90161E08DE00E94531560E084E0A5
:1003A0000E94531564E271E085E393E00E94FA1124
:1003B00061E08DE00E948C1568EE73E080E090E0D3
:1003C0000E949F1460E08DE00E948C158EE00E94D8
:1003D0000D150E940E1489E392E00E94420C60E326
:1003E00071E085E393E00E94FA1186E193E00E94B8
:1003F0009E0B41E050E06AE587E492E00E944906E6
:1004000061E08DE00E948C1568E873E180E090E087
:100410000E949F1460E08DE00E948C1562E471E000
:1004200085E393E00C94FA118F929F92AF92BF9262
:10043000CF92DF92EF92FF92CF93DF93EC014A01CC
:100440005B01CB01BA010E94BD166B017C018827BC
:1004500077FD8095982F0E94F0169B01AC01C50195
:10046000B4010E94EC1520E030E048EC52E40E9418
:10047000A4170E94BD166B307105ACF07F936F938B
:10048000DF92CF9282E591E09F938F93DF93CF939A
:100490000E94921A8DB79EB708960FB6F8949EBF29
:1004A0000FBE8DBF14C07F936F93DF92CF9288E50C
:1004B00091E09F938F93DF93CF930E94921A8DB711
:1004C0009EB708960FB6F8949EBF0FBE8DBF81E011
:1004D00090E0DF91CF91FF90EF90DF90CF90BF90B1
:1004E000AF909F908F900895CF93DF93CDB7DEB7F5
:1004F0002E970FB6F894DEBF0FBECDBF1C821B82B5
:100500002CE032E03A8329837E836D834150510988
:1005100058874F831A861986FB0110829E012F5F30
:100520003F4F3C872B871E861D86BE01655F7F4F30
:100530000E94F60E8D859E852E960FB6F894DEBF2E
:100540000FBECDBFDF91CF9108954AE069E086E10B
:1005500093E00E94140966E173E087E492E00E9450
:10056000770526E046E162E089E392E00C943B0CDB
:10057000AF92BF92CF92DF92EF92FF920F931F93B1
:10058000CF93DF93CDB7DEB728970FB6F894DEBFD1
:100590000FBECDBF6C01FC0101900020E9F78F0177
:1005A00001501109081B190B85E393E00E941710F5
:1005B000E12CF12C83E5A82EE016F106D4F56FE5C9
:1005C00071E085E393E00E94DD11B8016E197F09A7
:1005D0006132710514F060E270E04AE050E085E3BA
:1005E00093E00E94AF121C821B8280910A019091BD
:1005F0000B019C012F5F3F4F30930B0120930A01A9
:100600009E838D83AF829801A601BE016F5F7F4FED
:1006100087E492E00E949007B82EF0E2EF0EF11C02
:100620008111CACF61E771E085E393E00E94FA117E
:1006300002C0BB24B3948B2D28960FB6F894DEBF6E
:100640000FBECDBFDF91CF911F910F91FF90EF9023
:10065000DF90CF90BF90AF9008952F923F924F922E
:100660005F927F928F929F92AF92BF92CF92DF92D2
:10067000EF92FF920F931F93CF93DF93CDB7DEB727
:10068000C65DD1090FB6F894DEBF0FBECDBF87E4BB
:1006900092E00E94440784E00E94C215772473947C
:1006A000813009F0712C65E871E085E393E00E94E8
:1006B000FA1189E392E00E94760D6B017C0160E003
:1006C00089E392E00E94020D4B015C0161E089E345
:1006D00092E00E94020D1B012C01AB01BC01CE0176
:1006E0008F529F4F0E941402B701A601CE0185537D
:1006F0009F4F0E94140264E971E085E393E00E9439
:10070000DD1122E030E0B701A60185E393E00E940D
:10071000B2136FE971E085E393E00E94DD1163EAB3
:1007200071E085E393E00E94DD1122E030E0B50145
:10073000A40185E393E00E94B21361EB71E085E3CD
:1007400093E00E94DD1122E030E0B201A10185E3D7
:1007500093E00E94B21366EB71E085E393E00E94A0
:10076000FA11A5019401C501B4010E9407188E0178
:100770000D551F4F8111C1C0A7019601C701B601D8
:100780000E9407188111B9C09CEE892E91E0992E24
:10079000AF969FAE8EAEAF97CF55DF4F19821882BE
:1007A000C15AD040CE0183599F4F0E94830E5C01F5
:1007B0006BEB71E00E94B90E42E050E060E070E047
:1007C0000E94520F6AEC71E0C5010E94B90E22E04E
:1007D000B201A1010E94430F48E250E0B801C501F7
:1007E0000E94740262EC71E085E393E00E94DD11E7
:1007F000B80185E393E00E94DD1160E971E085E3D3
:1008000093E00E94FA11C8010E94B80298AE8FAA24
:10081000AD961FAE1EAEAD97CE01C7960E94830E59
:100820005C016BEB71E00E94B90E42E050E060E0C9
:1008300070E00E94520F6DEC71E0C5010E94B90E8C
:1008400022E0B701A6010E94430F48E250E0B80140
:10085000C5010E94740262EC71E085E393E00E949E
:10086000DD11B80185E393E00E94DD1160E971E0DC
:1008700085E393E00E94FA11C8010E94B8028091BA
:1008800038028715A9F19A8289821EAA1DAACE0173
:1008900001960E94830E7C016BEB71E00E94B90E01
:1008A00042E050E060E070E00E94520F6EEB71E0B9
:1008B000C7010E94B90E672D0E94380F48E250E030
:1008C000B801C7010E94740262EC71E085E393E015
:1008D0000E94DD11B80185E393E00E94DD1160E91B
:1008E00071E085E393E00E94FA11C8010E94B8020A
:1008F00080E395E70E94EA0421C00E9470149F9350
:100900008F937F936F931F9282E08F938DE091E09E
:100910009F938F931F930F930E94921A60ED71E043
:1009200085E393E00E94FA11B80185E393E00E9409
:10093000FA110FB6F894DEBF0FBECDBFCA52DF4F1B
:100940000FB6F894DEBF0FBECDBFDF91CF911F91E0
:100950000F91FF90EF90DF90CF90BF90AF909F905E
:100960008F907F905F904F903F902F90089583FFDE
:1009700002C098E2892787FD02C0806401C080E040
:1009800094B7977F94BFF89490916000986190938A
:1009900060008093600078940895EAE7F0E0908129
:1009A00080818F77808383B7817F846083BFF89451
:1009B00083B7816083BF85B7806685BF85B78F7930
:1009C000806485BF7894889583B78E7F83BF90932A
:1009D0007A000895DF92EF92FF920F931F93CF93C7
:1009E000DF938C01EC0128E0E22EF12CC031D1051F
:1009F00038F19E01D12C2032310538F0D39489E0B2
:100A0000D81619F036952795F6CF109226038D2D1E
:100A10000E94B7040E94CD048FEF0E94B704C70163
:100A200002C0880F991FDA94E2F7C81BD90B2091F6
:100A30002603222319F0C81BD90BD8CF80E001C0B0
:100A400081E04091D7035091D8036091D903709110
:100A5000DA030C1B1D0B400F511F611D711D4093CC
:100A6000D7035093D8036093D9037093DA03DF91CF
:100A7000CF911F910F91FF90EF90DF90089561E06B
:100A80008AE00E948C1561E08AE00E9453158CB5C3
:100A900080618CBD8CB580648CBD61E08DE00E946E
:100AA000531561E08BE00C9453158EBD0DB407FE19
:100AB000FDCF8EB50895811103C08CB5806202C050
:100AC0008CB58F7D8CBD08959CB5937F982B9CBD74
:100AD00008952CB5982F93702C7F922B9CBD9DB5BB
:100AE00082FB882780F99E7F982B9DBD0895FC018D
:100AF00075836483E853FF4F8896918380830895BC
:100B0000CF93DF93EC01C853DF4FA881B981AC17B5
:100B1000BD0770F4FC01389680E201900D928A9531
:100B2000E1F78881998180969983888381E001C06B
:100B300080E0DF91CF910895FC01E353FF4F2081C6
:100B40003181AB0142235323FC01868197814817F1
:100B5000590761F42095309583E0220F331F8A9561
:100B6000E1F72623372381E0232B09F080E0089565
:100B7000FC01268137814FEF5FEFBA0162237323B7
:100B8000672B31F0B3E0440F551FBA95E1F7F5CF6D
:100B900040955095FC01E353FF4F51834083A3E000
:100BA00056954795AA95E1F73397BA0162237323C7
:100BB000718360834115510559F063E0369527959F
:100BC0006A95E1F773E0569547957A95E1F7F2CF8C
:100BD000FC01E453FF4F208308950097C9F0282FAC
:100BE00027702150253070F09F938F9388E690E016
:100BF0009F938F930E94701A0F900F900F900F90F9
:100C000080E0089553E0969587955A95E1F7E5CFF2
:100C100081E00895CF93DF93CDB7DEB728970FB665
:100C2000F894DEBF0FBECDBFE62FF0E0E251FE4FDD
:100C300020812983FE0136964CE050E09C01042E71
:100C400002C0369527950A94E2F7622F6F70262F1F
:100C500030E02095309574E0220F331F7A95E1F74C
:100C6000262B2293445051094C3F2FEF520731F766
:100C700029813A814B815C816D817E818F8198854C
:100C800028960FB6F894DEBF0FBECDBFDF91CF918F
:100C900008958F929F92BF92CF92DF92EF92FF9230
:100CA0000F931F93CF93DF931F92CDB7DEB74C0105
:100CB0006A01CA0169830E94ED056981882309F4EC
:100CC00062C0F401D782C68284819581FC012081B3
:100CD0002F3F09F458C021812F3F09F454C00E94CE
:100CE0001E0960E070E0F401848195810E945C0B34
:100CF00062E070E0F401848195810E94020CF401AD
:100D00008681978167E070E00E940B1805E0080F6C
:100D10004FE0602F848195810E941E0CF1E10F9FAE
:100D200080011124222717FD2095322FF401008322
:100D3000118322833383C4010E94B805E5E0BE2EEF
:100D40006B2DC6010E940A0679018A019B01AC0144
:100D50006B2DF401848195810E94870ABA94FFEF7C
:100D6000BF12EECFF401848195810F90DF91CF9176
:100D70001F910F91FF90EF90DF90CF90BF909F90C9
:100D80008F900C94140B0F90DF91CF911F910F91C6
:100D9000FF90EF90DF90CF90BF909F908F9008953D
:100DA0000F931F93CF93DF93EC01CB01642F0E942D
:100DB0000A0689019A01AB01BC018C819D810E94C8
:100DC0004C0ABE01685F7F4F40E28C819D810E948A
:100DD000C609488159816A817B8120E08C819D818F
:100DE000DF91CF911F910F910C94C909DF92EF927F
:100DF000FF920F931F93CF93DF938C01EB01CB01F5
:100E00000E94ED058823C1F1F801E653FF4FD08021
:100E1000E1803296F080BE01C8010E949C058111DC
:100E200016C0F801E353FF4F80819181BE01682312
:100E30007923F801268137816217730751F4F3E0B3
:100E4000880F991FFA95E1F78760C823D923F12C01
:100E500002C0CD2DDE2DF801848195810E942509E7
:100E60004F2DBE01C8010E94D006C82FF801848111
:100E700095810E94140B8C2FDF91CF911F910F91C0
:100E8000FF90EF90DF900895EF92FF920F931F93E2
:100E9000CF93DF931F92CDB7DEB78C017C0188E042
:100EA000E80EF11CF80184819581FC0120812F3F1F
:100EB00079F121812F3F61F1BE016F5F7F4F0E9469
:100EC0001E0A882329F1F801848195810E943C0A39
:100ED000882341F340E2B701F801848195810E94A3
:100EE000400AF801828593850E94ED05882359F315
:100EF000F80162857385868197816817790721F4E7
:100F0000C8010E948005DFCFC8010E94F606DBCF32
:100F10000F90DF91CF911F910F91FF90EF90089567
:100F20000F931F93CF93DF93EC018B01BA018E8156
:100F30009F81F80191838083DE01189688E00190FB
:100F40000D928A95E1F72115310551F0CE014096B9
:100F5000A9012931310510F048E150E00E940C1A36
:100F6000F801628173818E819F816817790739F456
:100F7000CE01DF91CF911F910F910C948005CE018E
:100F8000DF91CF911F910F910C94F6060F931F9351
:100F9000CF93DF931F92CDB7DEB78C0181E06983D9
:100FA0000E945B0580E00E94640584E00E94690560
:100FB0006981F80181810E948C1585E090E00F9095
:100FC000DF91CF911F910F910C94C714FC01808188
:100FD000918189130C948C1508951F93CF93DF93FF
:100FE000EC01162F60E00E94C607812F8F710E94CE
:100FF00055058FEF0E945505182F61E0CE010E9424
:10100000C607812FDF91CF911F910895CF92DF9274
:10101000EF92FF920F931F93CF93DF9300D0CDB742
:10102000DEB78C01E62EF22E60E049835A830E94DF
:10103000C6078E2D8F7180620E945505E82E49816A
:10104000C42E5A81D52EF40EFC1431F0F601819194
:101050006F010E945505F8CF61E0C8010E94C607E4
:101060008E2D0F900F90DF91CF911F910F91FF90D8
:10107000EF90DF90CF900895EF92FF921F93CF9360
:10108000DF931F92CDB7DEB77C01162F60E0498356
:101090000E94C607812F8F7180620E945505182F0C
:1010A0004981842F0E94550561E0C7010E94C6074F
:1010B000812F0F90DF91CF911F91FF90EF900895B6
:1010C000AF92BF92CF92DF92EF92FF920F931F9356
:1010D000CF93DF9300D0CDB7DEB78C01D62EFC01C5
:1010E000E380F42EE41608F4FE2CF80184818111CB
:1010F00002C0EF1801C0E12C60E0C80129837A83A7
:101100000E94C6072981822F0E945505C82EAD2C4A
:101110007A81B72EFD0CFA1431F0F50181915F014F
:101120000E945505F8CFEE2029F080E00E94550579
:10113000EA94F9CF61E0C8010E94C6078C2D0F9098
:101140000F90DF91CF911F910F91FF90EF90DF9063
:10115000CF90BF90AF900895AF92BF92CF92DF92A1
:10116000EF92FF920F931F93CF93DF931F92CDB710
:10117000DEB78C01D62EFC01E380F42EE41608F4D1
:10118000FE2CF8018481811102C0EF1801C0E12C0E
:1011900060E0C80179830E94C60781E60E94550578
:1011A000C82EAD2C7981B72EFD0CFA1439F08FEFD3
:1011B0000E945505F50181935F01F7CFEE2029F0DC
:1011C0008FEF0E945505EA94F9CF61E0C8010E94B3
:1011D000C6078C2D0F90DF91CF911F910F91FF903B
:1011E000EF90DF90CF90BF90AF9008951F93CF9373
:1011F000DF93EC01162F60E00E94C607812F0E944A
:101200005505182F61E0CE010E94C607812FDF919E
:10121000CF911F91089562EE0C94F60861EE0C9444
:10122000F6086FEF0C94F608FC016083418312828C
:1012300080E28383148285E082870895462F603898
:1012400008F04FE765E00C943C08CF93DF93EC0186
:1012500060E00E94E6078B859C850E94C7146DE1C3
:10126000CE010E94ED0781FF07C08B859C850E94FF
:10127000C714CE010E940E0960E0CE010E94ED0766
:10128000482F4E7F60E0CE010E943C0862E0CE0114
:101290000E94ED07E7EFF1E0E49121E030E001C0CA
:1012A000220FEA95EAF7822B482F62E0CE01DF9108
:1012B000CF910C943C08CF93DF93EC0160E00E9447
:1012C000ED0781FD12C060E0CE010E94ED07482FBE
:1012D000426060E0CE010E943C0865E070E080E082
:1012E00090E0DF91CF910C949F14DF91CF910895FE
:1012F0000F93CF93DF93EC01222311F020EB01C079
:1013000020EACE010E946008002339F061E0CE019E
:10131000DF91CF910F910C94E607DF91CF910F9160
:101320000895CF92DF92EF92FF920F93CF93DF93C6
:1013300000D0CDB7DEB76C017B01C6012A8349839B
:101340000E9411092A81498180FF10C0C6012A83A9
:1013500049830E9411092A81498184FFEECF40E12F
:1013600067E0C6010E943C0880E006C001E0B701CA
:10137000C6010E94780981E00F900F90DF91CF9114
:101380000F91FF90EF90DF90CF90089520E00C94A4
:1013900091098F929F92AF92BF92CF92DF92EF927C
:1013A000FF92CF93DF93EC014A015B01222331F0DE
:1013B0000E94250961E0CE010E94E6070E94701498
:1013C0006B017C0167E1CE010E94ED0784FD26C020
:1013D000CE010E94110984FFF5CF40E167E0CE0104
:1013E0000E943C0860E0CE010E94E60761E0CE0169
:1013F0000E94E6070E9470146C197D098E099F09EE
:10140000681579058A059B05E8F260E0CE010E9427
:10141000E607CE010E940E0980E005C060E0CE0123
:101420000E94E60781E0DF91CF91FF90EF90DF907F
:10143000CF90BF90AF909F908F9008950F931F9380
:10144000CF93DF938C01EB0167E10E94ED0780FDF4
:101450000BC0209759F0C8010E94110990E09595A2
:1014600087958770888302C080E001C081E0DF91AA
:10147000CF911F910F91089560E070E00C941E0AC7
:10148000CF93DF93EC010E94AC0840E767E0CE0108
:10149000DF91CF910C943C08EF92FF920F931F9332
:1014A000CF93DF93CDB7DEB728970FB6F894DEBFA2
:1014B0000FBECDBF7C0109831A832B833C834D83F0
:1014C0005E836F837887FC012285AE014F5F5F4F9B
:1014D0006AE00E940608F7012285AE014F5F5F4F68
:1014E00060E1C7010E940608F701438161E1C7017D
:1014F0000E943C0828960FB6F894DEBF0FBECDBF01
:10150000DF91CF911F910F91FF90EF900895BF92BF
:10151000CF92DF92EF92FF920F931F93CF93DF93BF
:10152000CDB7DEB728970FB6F894DEBF0FBECDBF9C
:101530006C01B62EE982FA820B831C832D833E83D5
:101540004F83588761110AC0FC01428550E0BE01FB
:101550006F5F7F4F05960E940C1A07C0F6E0F617E2
:1015600008F436C081E0681308C0EB2DF0E0EF50BE
:10157000FE4F6491F601228506C0E62FF0E0EF50A1
:10158000FE4F649121E0AE014F5F5F4FC6010E94A4
:1015900006080B2D10E0F801E551FE4F6491F601AD
:1015A0004381C6010E943C0862E0C6010E94ED072B
:1015B000F801E950FE4F049121E030E001C0220F14
:1015C0000A95EAF7822B482F62E0C6010E943C0888
:1015D00028960FB6F894DEBF0FBECDBFDF91CF9136
:1015E0001F910F91FF90EF90DF90CF90BF900895E3
:1015F0001F93CF93DF93EC01162F62E00E94ED075B
:10160000E12FF0E0E950FE4FE49141E050E001C0ED
:10161000440FEA95EAF74095482362E0CE01DF9156
:10162000CF911F910C943C08CF93DF93EC010E9463
:101630005B0960E0CE010E94ED07482F416060E049
:10164000CE010E943C0840E767E0CE010E943C08C2
:1016500061E0CE010E94E6078D81882349F02A854A
:10166000AE014B5F5F4F6AE0CE010E94060804C0E6
:1016700060E0CE010E94F80A6DE1CE010E94ED0704
:1016800081FF05C0CE01DF91CF910C940E09DF914F
:10169000CF910895CF93DF93EC0160E00E94C607DD
:1016A00080E50E94550583E70E94550561E0CE0163
:1016B000DF91CF910C94C607EF92FF920F931F9387
:1016C000CF93DF931F92CDB7DEB77C018B0166E02D
:1016D0000E94ED07582F577D0230110531F45062FA
:1016E0000BE910E020E030E00DC00130110529F0D9
:1016F00005E510E020E030E005C0586001E410E0AE
:1017000020E030E0F7010387148725873687452FCF
:1017100066E0C70159830E943C0866E0C7010E9449
:10172000ED0791E05981851390E0892F0F90DF91AB
:10173000CF911F910F91FF90EF900895CF93DF937A
:10174000EC0188819981891719F061E00E94531595
:1017500089819881981719F061E00E9453150E94C1
:101760003F0560E0CE010E94E60761E0CE010E94E5
:10177000C60765E070E080E090E00E949F144CE0B6
:1017800060E0CE010E943C084FE564E0CE010E947B
:101790003C0862E070E0CE010E945C0B882311F0EF
:1017A00081E08A8360E070E0CE010E945C0BCE0194
:1017B0000E944A0B40E06DE1CE010E943C0840E0EF
:1017C0006CE1CE010E943C0840E767E0CE010E9438
:1017D0003C086CE4CE010E941E09CE010E940B0958
:1017E000CE010E940E09CE010E945B0960E0CE018D
:1017F0000E94ED07482F4E7F60E0CE01DF91CF9130
:101800000C943C080F931F93CF93DF93EC018B0153
:1018100060E00E94ED07482F437F0115110531F06C
:101820000130110511F4486001C04C6060E0CE0148
:10183000DF91CF911F910F910C943C0820E1629FA2
:10184000B00111244F70462B64E00C943C081F92A9
:101850000F920FB60F9211248F9388E10FB6F89470
:1018600080936000109260000FBE8F910F900FBEAA
:101870000F901F901895FC0166834783208781E0B5
:1018800085870895CF93DF93EC0160E08E810E94FD
:10189000531561E08E810E948C1519861A861B866D
:1018A0001C86DF91CF910895DF92EF92FF920F9304
:1018B0001F93CF93DF93EC010E94701409851A8562
:1018C0002B853C85601771078207930720F41986E2
:1018D0001A861B861C862D85211111C009851A8543
:1018E0002B853C85DC01CB01801B910BA20BB30B3C
:1018F000803D9740A105B10510F481E07BC01D86B5
:101900000E94701469877A878B879C871C821B8250
:101910001A821982188261E08E810E948C156AEF0A
:1019200070E080E090E00E949F1461E08E810E9450
:10193000531560E08E810E948C1564E170E080E0B8
:1019400090E00E949F14F89461E08E810E948C15B3
:1019500088E290E00E94C71460E08E810E945315D7
:10196000F12CD12C81E0E12C082F10E08E810E9417
:10197000C2158017910741F4E39481E090E00E9442
:10198000C7148FEFE812F2CF8E810E94C2159FEF2D
:10199000E916C9F023E02F1590F4F0FC10C09D2D3E
:1019A000969596959695FE01E90FF11D9081990FF8
:1019B000908328852E1510F491609083D394F3942E
:1019C00095E5F912D0CF789427E22D1590F42C816B
:1019D00030E04881898190E0840F911D4A81840F15
:1019E000911D4B81840F911D99272817390709F400
:1019F00084CF80E0DF91CF911F910F91FF90EF9006
:101A0000DF900895CF92DF92EF92FF920F931F9392
:101A1000CF93DF93EC01162F0E94540C882309F416
:101A200050C08F818B3031F008F44BC0855182302B
:101A300078F047C06A8170E080E090E00E94EE1686
:101A4000112309F443C020E030E040E151E42AC012
:101A50000A81602F6F7770E080E090E00E94F016BE
:101A600020E030E040E853E40E94A4176B017C01C1
:101A70006B8170E080E090E00E94F0169B01AC0169
:101A8000C701B6010E94ED1520E030E040E251E4CC
:101A90000E94551607FD90581123D9F020E030E040
:101AA00040E151E40E94A41720E030E040EA50E415
:101AB0000E94551620E030E040E052E40E94ED150F
:101AC00008C020E030E040EC5FE705C09B01AC01BE
:101AD00002C09B01AC01B901CA01DF91CF911F91F6
:101AE0000F91FF90EF90DF90CF900895CF92DF920B
:101AF000EF92FF92CF93DF93EC010E94540C882366
:101B000079F18F818B3029F158F18551823040F580
:101B1000688170E080E090E00E94EE1620E030E006
:101B200040E853E40E94A4176B017C01698170E0D6
:101B300080E090E00E94F0169B01AC01C701B60165
:101B40000E94ED1520E030E040E251E40E9455167D
:101B50000BC0688170E080E090E00E94EE1604C047
:101B600060E070E080EC9FE7DF91CF91FF90EF9015
:101B7000DF90CF900895BF92CF92DF92EF92FF92C5
:101B80000F931F93CF93DF937C01EB01009771F4C8
:101B900064EF71E0CE01DF91CF911F910F91FF9023
:101BA000EF90DF90CF90BF900C94DD11E881F98128
:101BB0000190F081E02D62E2CE0109958C01F701E0
:101BC00061917F01662351F0E9EFF1E0B080BB2025
:101BD00079F191819617B1F03296F8CFE881F981C9
:101BE0000190F081E02D62E2CE010995800F911FF6
:101BF000DF91CF911F910F91FF90EF90DF90CF90E9
:101C0000BF900895E881F9810190F081E02D6CE5A5
:101C1000CE0109956C01E881F9810190F081E02DF8
:101C20006B2DCE0109958C0D9D1D080F191FC7CF77
:101C3000E881F9810190F081E02DCE010995F5CF81
:101C4000FC01808591852681378182179307A4F452
:101C5000A481B5819C012F5F3F4F31872087A80F5A
:101C6000B91F6C93A481B58180859185A80FB91F98
:101C70001C9281E090E0089580E090E00895CF9379
:101C8000DF93EC0188819981DC01ED91FC91019059
:101C9000F081E02D09952A813B81280F391F3B8374
:101CA0002A83DF91CF9108950F931F93CF93DF93F2
:101CB000EC018B016BE5C8010E943F0E0A80DB81BD
:101CC000C02D209779F0B801CE0102960E94600FD6
:101CD0000990D881C02D209729F06CE2C8010E949C
:101CE0003F0EF1CF6DE5C801DF91CF911F910F91AC
:101CF0000C943F0E109228031092270310922A038F
:101D0000109229030895CF93DF93EC01E881F981C4
:101D10000190F081E02D64E070E00995FC010097EE
:101D200029F0D183C0831382128202C08BE293E038
:101D3000DF91CF9108950F931F93CF93DF938B0182
:101D4000FC01C281D381209759F0B8018A819B811F
:101D50000E941C1A892B39F00990D881C02DF3CF2D
:101D600080E090E001C0CE01DF91CF911F910F91F3
:101D700008950F931F93CF93DF93EC018B010E9483
:101D80009B0EFC01009741F588819981009739F1FC
:101D9000DC01ED91FC910190F081E02D6AE070E0B2
:101DA0000995FC010097D9F01182108281E090E042
:101DB0009583848313830283AA81BB81109751F09A
:101DC0008D919C911197009711F0DC01F9CFED9363
:101DD000FC9302C0FB83EA83CF01049602C08FE22A
:101DE00093E0DF91CF911F910F9108950F931F936F
:101DF000CF93DF938C01EB016BE7CE010E943F0E86
:101E0000F801028113810115110509F168817981B9
:101E1000F801828193810E94BB0D2A813B81280FAA
:101E2000391F3B832A836AE3CE010E943F0EBE0125
:101E3000C80104960E94600FF8010081118101150C
:101E4000110529F06CE2CE010E943F0EDFCF6DE755
:101E5000CE01DF91CF911F910F910C943F0E109204
:101E60002C0310922B0310922E0310922D03089531
:101E7000FC0180819181892B29F084E090E091839D
:101E8000808362830895FC0180819181892B49F0D0
:101E900030E0295F3F4F3183208342835383648343
:101EA00075830895FC0180819181892B41F086E042
:101EB00090E0918380834283538364837583089584
:101EC000CF93DF93FC01EB0120813181223031057A
:101ED00031F482819381DF91CF910C94540E2330A1
:101EE000310531F482819381DF91CF910C94F60E0C
:101EF0002530310539F468817981828193810E948E
:101F0000BB0D2BC02630310559F4428153816481C9
:101F100075812AE030E0888199810E9465121DC098
:101F20002430310569F48281882319F060E172E080
:101F300002C065E172E0888199810E94DD110DC0C7
:101F40002730310584F0275030E04281538164818D
:101F50007581888199810E94B2132A813B81280F63
:101F6000391F3B832A83DF91CF910895109230036C
:101F700010922F030895FC01818D228D90E0805CEA
:101F80009F4F821B91098F7399270895FC01918DB2
:101F9000828D981731F0828DE80FF11D858D90E0CC
:101FA00008958FEF9FEF0895FC01918D828D981712
:101FB00061F0828DDF01A80FB11D5D968C91928D2D
:101FC0009F5F9F73928F90E008958FEF9FEF08952A
:101FD00082E591E1892B49F080E090E0892B29F09E
:101FE0000E94521181110C9400000895FC01848D0F
:101FF000DF01A80FB11DA35ABF4F2C91848D90E033
:1020000001968F739927848FA689B7892C93A0890D
:10201000B1898C9180648C93938D848D981306C0C4
:102020000288F389E02D80818F7D80830895CF938E
:10203000DF93EC01888D8823C9F0EA89FB898081D0
:1020400085FD05C0A889B9898C9186FD0FC00FB6A2
:1020500007FCF5CF808185FFF2CFA889B9898C91E3
:1020600085FFEDCFCE010E94F60FE7CFDF91CF9134
:102070000895CF92DF92FF920F931F93CF93DF9338
:102080001F92CDB7DEB76C01DC015B969C915B972C
:102090005C968C915C97981307C05096ED91FC91DB
:1020A0005197808185FD32C0F601038D10E00F5FEE
:1020B0001F4F0F731127F02EF601848DF81211C0F7
:1020C0000FB607FCF9CFD6015096ED91FC915197D0
:1020D000808185FFF1CFC60169830E94F60F698177
:1020E000EBCF838DE80FF11DE35AFF4F6083D601DC
:1020F0005B960C935B975296ED91FC915397808180
:102100008062808381E058968C930DC0D6015696EC
:10211000ED91FC91579760835096ED91FC9151970A
:1021200080818064808381E090E00F90DF91CF9187
:102130001F910F91FF90DF90CF900895BF92CF92A3
:10214000DF92EF92FF92CF93DF93EC016A017B0164
:10215000B22E60E874E88EE190E0A70196010E943B
:102160001F18215031094109510956954795379556
:102170002795E889F98982E08083211580E1380775
:1021800098F0E889F989108260E472E48FE090E0C9
:10219000A70196010E941F182150310941095109D8
:1021A0005695479537952795EC85FD853083EE85C7
:1021B000FF852083188EEC89FD89B082EA89FB892E
:1021C000808180618083EA89FB8980818860808347
:1021D000EA89FB89808180688083EA89FB89808124
:1021E0008F7D8083DF91CF91FF90EF90DF90CF9034
:1021F000BF9008951F920F920FB60F9211242F9344
:102200008F939F93EF93FF93E0914503F0914603E3
:102210008081E0914B03F0914C0382FD12C09081CC
:1022200080914E038F5F8F7320914F03821751F07F
:10223000E0914E03F0E0EB5CFC4F958F80934E03F2
:1022400001C08081FF91EF919F918F912F910F900D
:102250000FBE0F901F9018951F920F920FB60F92FE
:1022600011242F933F934F935F936F937F938F939B
:102270009F93AF93BF93EF93FF9385E393E00E9407
:10228000F60FFF91EF91BF91AF919F918F917F9149
:102290006F915F914F913F912F910F900FBE0F90D3
:1022A0001F90189585E393E00E94BB0F21E0892BD6
:1022B00009F420E0822F089510923803109237031A
:1022C00088EE93E0A0E0B0E08093390390933A0366
:1022D000A0933B03B0933C038FE192E090933603CD
:1022E0008093350385EC90E0909342038093410303
:1022F00084EC90E0909344038093430380EC90E05F
:10230000909346038093450381EC90E090934803BB
:102310008093470382EC90E090934A0380934903B3
:1023200086EC90E090934C0380934B0310924E0305
:1023300010924F0310925003109251030895CF92C0
:10234000DF92EF92FF920F931F93CF93DF936C0175
:102350007A01EB01E60EF71E00E010E0CE15DF0576
:1023600061F06991D601ED91FC910190F081E02D31
:10237000C6010995080F191FF1CFC801DF91CF9150
:102380001F910F91FF90EF90DF90CF90089561150E
:10239000710581F0DB010D900020E9F7AD0141509E
:1023A0005109461B570BDC01ED91FC910280F38132
:1023B000E02D099480E090E008950C94C711DC01B1
:1023C000ED91FC910190F081E02D09940F931F9302
:1023D000CF93DF93EC016DE00E94DF118C016AE086
:1023E000CE010E94DF11800F911FDF91CF911F91CD
:1023F0000F9108950F931F93CF93DF93EC010E94E9
:10240000C7118C01CE010E94E611800F911FDF9150
:10241000CF911F910F9108958F929F92AF92BF928B
:10242000CF92DF92EF92FF920F931F93CF93DF93A0
:10243000CDB7DEB7A1970FB6F894DEBF0FBECDBF04
:102440007C01C42EE52FCB01D22E19A221E02D153F
:1024500010F02AE0D22E8E010F5D1F4F8D2C912C93
:10246000A12CB12C6C2D7E2FA50194010E941F1868
:102470008C2DD29E80191124015011098A3014F438
:10248000805D01C0895CF80180832115310541051B
:10249000510521F0C22EE32FCA01E4CFB801C701D4
:1024A0000E94C711A1960FB6F894DEBF0FBECDBF34
:1024B000DF91CF911F910F91FF90EF90DF90CF9020
:1024C000BF90AF909F908F900895CF92DF92EF9240
:1024D000FF920F931F93CF93DF93EC016A017B016F
:1024E0002115310579F4E881F9810190F081E02D21
:1024F000642FDF91CF911F910F91FF90EF90DF90AC
:10250000CF9009942A303105E9F477FF1AC06DE2C3
:102510000E94DF118C0144275527BA014C195D092F
:102520006E097F092AE0CE010E940C12800F911FD4
:10253000DF91CF911F910F91FF90EF90DF90CF909F
:1025400008952AE0B701A601CE01DF91CF911F9136
:102550000F91FF90EF90DF90CF900C940C120F939F
:102560001F93CF93DF93EC019A01AB01662757FDD0
:102570006095762F0E9465128C01CE010E94E611B3
:10258000800F911FDF91CF911F910F9108954F926E
:102590005F926F927F928F929F92AF92BF92CF92F3
:1025A000DF92EF92FF920F931F93CF93DF93EC0193
:1025B0006A017B01B22E9A01AB01C701B6010E94EC
:1025C0000718882319F06BE272E027C02601370153
:1025D000E89477F82FEF3FEF4FE75FE7C301B201D1
:1025E0000E94071881110DC02FEF3FEF4FE75FE703
:1025F000C301B2010E94511618161CF46FE272E07A
:102600000CC02FEF3FEF4FE75FE4C701B6010E9418
:10261000A0171816ACF463E372E0CE01DF91CF91FE
:102620001F910F91FF90EF90DF90CF90BF90AF90F0
:102630009F908F907F906F905F904F900C94C711F8
:102640002FEF3FEF4FE75FECC701B6010E94511635
:1026500087FDE1CF20E030E0A901C701B6010E946B
:10266000511687FF0AC06DE2CE010E94DF118C0176
:10267000F7FAF094F7F8F09402C000E010E0A12C13
:1026800060E070E080E09FE3AB1441F020E030E0D8
:1026900040E251E40E945516A394F6CF9B01AC0191
:1026A000C701B6010E94ED156B017C010E94C216A4
:1026B0002B013C010E94EE169B01AC01C701B60143
:1026C0000E94EC156B017C012AE0B301A201CE014E
:1026D0000E940C12080F191FBB2039F062E971E04B
:1026E000CE010E94C711080F191F7B2C772041F1E2
:1026F00020E030E040E251E4C701B6010E94A41797
:102700006B017C010E94BD164B01AA2497FCA0948A
:10271000BA2C2AE030E0B501A401CE010E94651276
:10272000080F191FC501B4010E94F0169B01AC01EE
:10273000C701B6010E94EC156B017C017A94D6CFDB
:10274000C801DF91CF911F910F91FF90EF90DF9023
:10275000CF90BF90AF909F908F907F906F905F9041
:102760004F9008950C94C7121F920F920FB60F92BC
:1027700011242F933F934F935F936F937F938F9386
:102780009F93AF93BF93EF93FF938091D203909168
:10279000D303892B29F0E091D203F091D30309955B
:1027A000FF91EF91BF91AF919F918F917F916F9129
:1027B0005F914F913F912F910F900FBE0F901F90FF
:1027C00018951F920F920FB60F9211242F933F93DB
:1027D0004F935F936F937F938F939F93AF93BF9329
:1027E000EF93FF938091D4039091D503892B29F027
:1027F000E091D403F091D5030995FF91EF91BF913A
:10280000AF919F918F917F916F915F914F913F9188
:102810002F910F900FBE0F901F901895009729F0E1
:10282000BC0180E090E00C94031A089508950E9482
:10283000D2140E9416140E94BF01C8EEDFE00E946D
:102840002D032097E1F30E94E80FF9CF1F920F921A
:102850000FB60F9211242F933F938F939F93AF93B3
:10286000BF938091D7039091D803A091D903B091E1
:10287000DA033091D60326E0230F2D3720F4029699
:10288000A11DB11D05C029E8230F0396A11DB11D8F
:102890002093D6038093D7039093D803A093D903B2
:1028A000B093DA038091DB039091DC03A091DD0308
:1028B000B091DE030196A11DB11D8093DB039093BF
:1028C000DC03A093DD03B093DE03BF91AF919F9132
:1028D0008F913F912F910F900FBE0F901F901895E1
:1028E0002FB7F8946091D7037091D8038091D903E2
:1028F0009091DA032FBF08953FB7F8948091DB03DE
:102900009091DC03A091DD03B091DE0326B5A89B76
:1029100005C02F3F19F00196A11DB11D3FBF6627CD
:10292000782F892F9A2F620F711D811D911D43E011
:10293000660F771F881F991F4A95D1F70895CF9288
:10294000DF92EF92FF92CF93DF936B017C010E94A5
:102950007C14EB01C114D104E104F10489F00E945C
:10296000EB150E947C146C1B7D0B683E734090F34A
:1029700081E0C81AD108E108F108C851DC4FEACF5C
:10298000DF91CF91FF90EF90DF90CF90089581304D
:10299000910539F0029729F0880F991F0197019747
:1029A000F1F70895789484B5826084BD84B5816020
:1029B00084BD85B5826085BD85B5816085BDEEE647
:1029C000F0E0808181608083E1E8F0E01082808126
:1029D00082608083808181608083E0E8F0E0808194
:1029E00081608083E1EBF0E0808184608083E0EBB4
:1029F000F0E0808181608083EAE7F0E0808184609C
:102A000080838081826080838081816080838081F7
:102A1000806880831092C10008958E3008F08E5037
:102A2000877020910C0190E4299F90011124822B42
:102A300080937C0080917A00806480937A008091FA
:102A40007A0086FDFCCF809178002091790090E09B
:102A5000922B0895833081F028F4813099F08230F0
:102A6000A1F008958730A9F08830B9F08430D1F40E
:102A7000809180008F7D03C0809180008F7780934C
:102A80008000089584B58F7702C084B58F7D84BDA2
:102A900008958091B0008F7703C08091B0008F7D42
:102AA0008093B0000895CF93DF9390E0FC01EB5743
:102AB000FD4F2491FC01E756FD4F8491882349F195
:102AC00090E0880F991FFC01EF53FD4FA591B49141
:102AD00089549D4FFC01C591D4919FB7611108C0E5
:102AE000F8948C91209582238C93888182230AC04C
:102AF000623051F4F8948C91322F309583238C936B
:102B00008881822B888304C0F8948C91822B8C93CB
:102B10009FBFDF91CF9108950F931F93CF93DF93C2
:102B20001F92CDB7DEB7282F30E0F901EF58FD4FE7
:102B30008491F901EB57FD4F1491F901E756FD4FD0
:102B400004910023C9F0882321F069830E942A158B
:102B50006981E02FF0E0EE0FFF1FE954FD4FA591D2
:102B6000B4919FB7F8948C91611103C010958123A3
:102B700001C0812B8C939FBF0F90DF91CF911F914C
:102B80000F910895CF93DF93282F30E0F901EF588C
:102B9000FD4F8491F901EB57FD4FD491F901E756B0
:102BA000FD4FC491CC2391F081110E942A15EC2F86
:102BB000F0E0EE0FFF1FE355FD4FA591B4912C916E
:102BC0002D2381E090E021F480E002C080E090E0DD
:102BD000DF91CF91089508955058BB27AA270ED0B2
:102BE00075C166D130F06BD120F031F49F3F11F404
:102BF0001EF45BC10EF4E095E7FB51C1E92F77D1DC
:102C000080F3BA17620773078407950718F071F409
:102C10009EF58FC10EF4E0950B2EBA2FA02D0B015F
:102C2000B90190010C01CA01A0011124FF27591B11
:102C300099F0593F50F4503E68F11A16F040A22F17
:102C4000232F342F4427585FF3CF46953795279588
:102C5000A795F0405395C9F77EF41F16BA0B620B87
:102C6000730B840BBAF09150A1F0FF0FBB1F661FCE
:102C7000771F881FC2F70EC0BA0F621F731F841F11
:102C800048F4879577956795B795F7959E3F08F037
:102C9000B3CF9395880F08F09927EE0F97958795F6
:102CA0000895D9D008F481E008950CD00FC107D160
:102CB00040F0FED030F021F45F3F19F0F0C0511128
:102CC00039C1F3C014D198F39923C9F35523B1F353
:102CD000951B550BBB27AA2762177307840738F08B
:102CE0009F5F5F4F220F331F441FAA1FA9F333D0EA
:102CF0000E2E3AF0E0E830D091505040E695001C9E
:102D0000CAF729D0FE2F27D0660F771F881FBB1F59
:102D1000261737074807AB07B0E809F0BB0B802D33
:102D2000BF01FF2793585F4F2AF09E3F510568F07F
:102D3000B6C000C15F3FECF3983EDCF38695779513
:102D40006795B795F7959F5FC9F7880F911D969581
:102D5000879597F90895E1E0660F771F881FBB1FDD
:102D6000621773078407BA0720F0621B730B840B8A
:102D7000BA0BEE1F88F7E095089504D06894B1115E
:102D8000D9C00895BCD088F09F5790F0B92F9927EB
:102D9000B751A0F0D1F0660F771F881F991F1AF066
:102DA000BA95C9F712C0B13081F0C3D0B1E008952F
:102DB000C0C0672F782F8827B85F39F0B93FCCF3B0
:102DC000869577956795B395D9F73EF4909580955C
:102DD000709561957F4F8F4F9F4F0895E89409C07C
:102DE00097FB3EF490958095709561957F4F8F4F3E
:102DF0009F4F9923A9F0F92F96E9BB279395F69554
:102E0000879577956795B795F111F8CFFAF4BB0FD1
:102E100011F460FF1BC06F5F7F4F8F4F9F4F16C035
:102E2000882311F096E911C0772321F09EE8872FBF
:102E3000762F05C0662371F096E8862F70E060E07B
:102E40002AF09A95660F771F881FDAF7880F9695F4
:102E5000879597F90895990F0008550FAA0BE0E898
:102E6000FEEF16161706E807F907C0F0121613064C
:102E7000E407F50798F0621B730B840B950B39F48C
:102E80000A2661F0232B242B252B21F408950A26F2
:102E900009F4A140A6958FEF811D811D089597F932
:102EA0009F6780E870E060E008959FEF80EC0895F0
:102EB00000240A9416161706180609060895002419
:102EC0000A9412161306140605060895092E039493
:102ED000000C11F4882352F0BB0F40F4BF2B11F407
:102EE00060FF04C06F5F7F4F8F4F9F4F089557FD66
:102EF0009058440F551F59F05F3F71F04795880F68
:102F000097FB991F61F09F3F79F0879508951216FE
:102F100013061406551FF2CF4695F1DF08C01616AA
:102F200017061806991FF1CF86957105610508945B
:102F30000895E894BB2766277727CB0197F9089572
:102F40008ADF08F48FEF08950BD0C0CFB1DF28F0EF
:102F5000B6DF18F0952309F0A2CFA7CF1124EACF4E
:102F6000C6DFA0F3959FD1F3950F50E0551F629FE8
:102F7000F001729FBB27F00DB11D639FAA27F00DD2
:102F8000B11DAA1F649F6627B00DA11D661F829FF9
:102F90002227B00DA11D621F739FB00DA11D621FDE
:102FA000839FA00D611D221F749F3327A00D611DFB
:102FB000231F849F600D211D822F762F6A2F1124DD
:102FC0009F5750408AF0E1F088234AF0EE0FFF1F30
:102FD000BB1F661F771F881F91505040A9F79E3F67
:102FE000510570F05CCFA6CF5F3FECF3983EDCF369
:102FF000869577956795B795F795E7959F5FC1F7A4
:10300000FE2B880F911D9695879597F9089523DFDC
:10301000880B990B0895AA1BBB1B51E107C0AA1F7F
:10302000BB1FA617B70710F0A61BB70B881F991F69
:103030005A95A9F780959095BC01CD010895A1E21C
:103040001A2EAA1BBB1BFD010DC0AA1FBB1FEE1F22
:10305000FF1FA217B307E407F50720F0A21BB30B6D
:10306000E40BF50B661F771F881F991F1A9469F7E9
:1030700060957095809590959B01AC01BD01CF0145
:103080000895052E97FB1EF400940E94581857FDD2
:1030900007D00E941F1807FC03D04EF40C94581858
:1030A00050954095309521953F4F4F4F5F4F089574
:1030B00090958095709561957F4F8F4F9F4F0895A4
:1030C000A29FB001B39FC001A39F700D811D112469
:1030D000911DB29F700D811D1124911D08950E94B4
:1030E0006018A59F900DB49F900DA49F800D911D19
:1030F00011240895B7FF0C946F180E946F18821B5B
:10310000930B0895EE0FFF1F0590F491E02D0994A5
:10311000CF93DF938230910510F482E090E0E0914C
:10312000E103F091E20320E030E0A0E0B0E030976E
:1031300039F14081518148175907B8F048175907AC
:1031400071F482819381109729F013969C938E934A
:1031500012972CC09093E2038093E10327C02115BE
:10316000310531F04217530718F0A901DB0101C006
:10317000EF019A01BD01DF010280F381E02DD7CF7D
:1031800021153105F9F0281B390B2430310580F465
:103190008A819B816115710521F0FB0193838283F4
:1031A00004C09093E2038093E103FE01329644C091
:1031B000FE01E20FF31F819391932250310939836D
:1031C00028833AC02091DF033091E003232B41F4A0
:1031D00020910201309103013093E0032093DF033B
:1031E00020910001309101012115310541F42DB7E5
:1031F0003EB74091040150910501241B350BE0912D
:10320000DF03F091E003E217F307A0F42E1B3F0B5E
:103210002817390778F0AC014E5F5F4F2417350748
:1032200048F04E0F5F1F5093E0034093DF038193FC
:10323000919302C0E0E0F0E0CF01DF91CF910895DB
:10324000CF93DF93009709F487C0FC013297138274
:103250001282C091E103D091E203209781F4208192
:103260003181280F391F8091DF039091E00382178D
:10327000930779F5F093E003E093DF036DC0DE017F
:1032800020E030E0AE17BF0750F412964D915C91EC
:1032900013979D014115510509F1DA01F3CFB3836D
:1032A000A28340815181840F951F8A179B0771F477
:1032B0008D919C911197840F951F02969183808325
:1032C00012968D919C9113979383828321153105DA
:1032D00029F4F093E203E093E1033EC0D901139691
:1032E000FC93EE9312974D915D91A40FB51FEA17D1
:1032F000FB0779F480819181840F951F0296D90193
:1033000011969C938E938281938113969C938E93B6
:103310001297E0E0F0E08A819B81009719F0FE01AE
:10332000EC01F9CFCE01029628813981820F931FDB
:103330002091DF033091E0032817390769F43097B3
:1033400029F41092E2031092E10302C01382128268
:10335000D093E003C093DF03DF91CF9108958F9264
:103360009F92AF92BF92CF92DF92EF92FF92CF9354
:10337000DF93EC01688179818A819B8161157105F8
:103380008105910521F464E279ED8BE597E02DE16B
:1033900033EF41E050E00E94411849015A019B017E
:1033A000AC01A7EAB1E40E946F186B017C01ACEE9E
:1033B000B4EFA50194010E947D18C60ED71EE81E29
:1033C000F91EF7FE06C081E0C81AD108E10880E8BE
:1033D000F80AC882D982EA82FB82C701B6019F77C8
:1033E000DF91CF91FF90EF90DF90CF90BF90AF90A3
:1033F0009F908F9008950E94AF19089586E091E004
:103400000E94AF190895609306017093070180939D
:103410000801909309010895FB01DC0102C00190AD
:103420000D9241505040D8F70895DC0101C06D93D2
:1034300041505040E0F70895FB01DC018D9101906F
:1034400080190110D9F3990B08950F931F93CF930F
:10345000DF93EC018B01009731F46115710519F4CC
:1034600080E090E038C06EE070E081E090E00E9483
:10347000861CFC010097A1F380E8838301151105E8
:1034800071F01387028781E883838091E303909131
:10349000E403892B21F4F093E403E093E303209702
:1034A000C9F0D187C0878381826083838091E503DF
:1034B0009091E603892B71F4F093E603E093E50322
:1034C0008091E7039091E803892B21F4F093E803BE
:1034D000E093E703CF01DF91CF911F910F91089502
:1034E000A0E0B0E0E6E7FAE10C94561DFE01379645
:1034F0006191719105EE13E0D8018D919C91DC01F1
:1035000013962C911397286013962C93AF010E9469
:10351000B41AD801ED91FC912381277F2383E4E045
:103520000C94721DAEE0B0E0E8E9FAE10C94561D8F
:103530000D891E8986E08C831A8309838FEF9FE7AC
:103540009E838D83AE01475E5F4F6F89788DCE017C
:1035500001960E94B41AEF81F885E00FF11F1082E6
:103560002E96E4E00C94721DACE0B0E0EAEBFAE1D8
:103570000C94481D7C016B018A01FC0117821682A4
:10358000838181FFBDC1CE0101964C01F70193817A
:10359000F60193FD859193FF81916F01882309F4D2
:1035A000ABC1853239F493FD859193FF81916F0111
:1035B000853229F4B70190E00E94B81CE7CF512C66
:1035C000312C20E02032A0F48B3269F030F48032CC
:1035D00059F0833269F420612CC08D3239F0803388
:1035E00039F4216026C02260246023C0286021C0F5
:1035F00027FD27C030ED380F3A3078F426FF06C09B
:10360000FAE05F9E300D1124532E13C08AE0389EDD
:10361000300D1124332E20620CC08E3221F426FD91
:103620006BC1206406C08C3611F4206802C0883655
:1036300041F4F60193FD859193FF81916F01811112
:10364000C1CF982F9F7D9554933028F40C5F1F4F66
:10365000FFE3F9830DC0833631F0833771F0833592
:1036600009F05BC022C0F801808189830E5F1F4F83
:1036700044244394512C540115C03801F2E06F0EDC
:10368000711CF801A080B18026FF03C0652D70E099
:1036900002C06FEF7FEFC5012C870E94AD1C2C018B
:1036A00083012C852F77222E17C03801F2E06F0E90
:1036B000711CF801A080B18026FF03C0652D70E069
:1036C00002C06FEF7FEFC5012C870E94A21C2C0166
:1036D0002C852068222E830123FC1BC0832D90E0C3
:1036E00048165906B0F4B70180E290E00E94B81C79
:1036F0003A94F4CFF50127FC859127FE81915F0173
:10370000B70190E00E94B81C31103A94F1E04F1AD2
:1037100051084114510471F7E5C0843611F089361F
:1037200039F5F80127FF07C060817181828193819B
:103730000C5F1F4F08C060817181882777FD8095DD
:10374000982F0E5F1F4F2F76B22E97FF09C09095CE
:103750008095709561957F4F8F4F9F4F2068B22E57
:103760002AE030E0A4010E94EA1CA82EA81844C058
:10377000853729F42F7EB22E2AE030E025C0F22FC3
:10378000F97FBF2E8F36C1F018F4883579F0B4C0B8
:10379000803719F0883721F0AFC02F2F2061B22E6B
:1037A000B4FE0DC08B2D8460B82E09C024FF0AC062
:1037B0009F2F9660B92E06C028E030E005C020E1BA
:1037C00030E002C020E132E0F801B7FE07C06081BE
:1037D0007181828193810C5F1F4F06C0608171816E
:1037E00080E090E00E5F1F4FA4010E94EA1CA82E0B
:1037F000A818FB2DFF77BF2EB6FE0BC02B2D2E7FFA
:10380000A51450F4B4FE0AC0B2FC08C02B2D2E7EC5
:1038100005C07A2C2B2D03C07A2C01C0752C24FFF7
:103820000DC0FE01EA0DF11D8081803311F4297E67
:1038300009C022FF06C07394739404C0822F867857
:1038400009F0739423FD13C020FF06C05A2C731493
:1038500018F4530C5718732C731468F4B70180E2F2
:1038600090E02C870E94B81C73942C85F5CF7314BC
:1038700010F4371801C0312C24FF12C0B70180E3C7
:1038800090E02C870E94B81C2C8522FF17C021FFD6
:1038900003C088E590E002C088E790E0B7010CC063
:1038A000822F867859F021FD02C080E201C08BE2B0
:1038B00027FD8DE2B70190E00E94B81CA51438F4F2
:1038C000B70180E390E00E94B81C5A94F7CFAA9405
:1038D000F401EA0DF11D8081B70190E00E94B81C4F
:1038E000A110F5CF332009F451CEB70180E290E06A
:1038F0000E94B81C3A94F6CFF7018681978102C0E6
:103900008FEF9FEF2C96E2E10C94641D0F931F93B1
:10391000CF93DF93869F8001879F100D969F100D98
:103920001124C8010E948818EC01009729F0A80111
:1039300060E070E00E94151ACE01DF91CF911F91D7
:103940000F910895FC010590615070400110D8F767
:10395000809590958E0F9F1F0895FC0161507040D7
:1039600001900110D8F7809590958E0F9F1F0895B4
:103970000F931F93CF93DF93182F092FEB018B81A8
:1039800081FD03C08FEF9FEF20C082FF10C04E81EA
:103990005F812C813D81421753077CF4E881F981D6
:1039A0009F012F5F3F4F39832883108306C0E8852E
:1039B000F985812F0995892B29F72E813F812F5F6A
:1039C0003F4F3F832E83812F902FDF91CF911F9107
:1039D0000F910895FA01AA27283051F1203181F181
:1039E000E8946F936E7F6E5F7F4F8F4F9F4FAF4F07
:1039F000B1E03ED0B4E03CD0670F781F891F9A1F1A
:103A0000A11D680F791F8A1F911DA11D6A0F711DCD
:103A1000811D911DA11D20D009F468943F912AE0D9
:103A2000269F11243019305D3193DEF6CF010895C1
:103A3000462F4770405D4193B3E00FD0C9F7F6CFF2
:103A4000462F4F70405D4A3318F0495D31FD4052BA
:103A5000419302D0A9F7EACFB4E0A6959795879550
:103A600077956795BA95C9F700976105710508952F
:103A70009B01AC010A2E06945795479537952795DB
:103A8000BA95C9F7620F731F841F951FA01D089573
:103A90002F923F924F925F926F927F928F929F925E
:103AA000AF92BF92CF92DF92EF92FF920F931F934C
:103AB000CF93DF93CDB7DEB7CA1BDB0B0FB6F894FD
:103AC000DEBF0FBECDBF09942A88398848885F843D
:103AD0006E847D848C849B84AA84B984C884DF80AE
:103AE000EE80FD800C811B81AA81B981CE0FD11D92
:103AF0000FB6F894DEBF0FBECDBFED010895F89468
:023B0000FFCFF5
:103B02000000E90380000100000001000149443A7D
:103B120025643A54533A256C753A45523A45525205
:103B22004F5200005374617274696E672E2E2E001C
:103B32005374617274696E6720726164696F2E2EAC
:103B42002E00456E64696E672073657475702E2E43
:103B52002E0025642E25640025642E302564005332
:103B6200656E64696E67207061636B65742E2E2EBC
:103B720000577269746520627566666572206661B7
:103B8200696C65640052656164696E6720444854DB
:103B92002E2E2E0048756D69646974793A200020D2
:103BA20025090054656D70657261747572653A20FD
:103BB20000202A432000202A460900696400706917
:103BC20072006275666665723D0074660072680016
:103BD2004661696C656420746F2072656164206659
:103BE200726F6D204448540000000000A8013C5A46
:103BF2006996A5C36E756C6C0022225C5C620866D5
:103C02000C6E0A720D74090000000000200E9F1154
:103C1200747275650066616C73650000000000399E
:103C2200109F11BB0FD40FC60F17106E616E006983
:083C32006E66006F766600006B
:00000001FF
