:100000000C946B010C94BC130C94E9130C949301A5
:100010000C9493010C9493010C942E0C0C9493016A
:100020000C9493010C9493010C9493010C94930100
:100030000C9493010C9493010C9493010C949301F0
:100040000C942E140C9493010C9402110C94341102
:100050000C9493010C9493010C9493010C949301D0
:100060000C9493010C9493012A2A2A205741524E52
:10007000494E47202A2A2A20496E76616C696420FD
:10008000616464726573732030256F0A0D006964C2
:1000900020253034782066726F6D2030256F2074F3
:1000A0006F2030256F2074797065202564005041E1
:1000B00020506F77657209203D2025530D0A0043BB
:1000C0005243204C656E67746809203D2025530D0E
:1000D0000A004D6F64656C0909203D2025530D0A07
:1000E0000044617461205261746509203D202553EC
:1000F0000D0A0044594E50442F464541545552452F
:1001000000434F4E4649470052465F5345545550B1
:100110000052465F434800454E5F525841444452A6
:1001200000454E5F41410052585F50575F50302D9F
:10013000360054585F414444520052585F41444491
:10014000525F50322D350052585F414444525F5047
:10015000302D31000D0A0025303278002030780033
:100160002553092563203D000D0A002030782530F5
:100170003278002553092563203D004F42534552F4
:1001800056455F54583D253032783A20504F4C53F5
:100190005F434E543D2578204152435F434E543DCA
:1001A00025780D0A005354415455530909203D2028
:1001B0003078253032782052585F44523D257820DF
:1001C00054585F44533D2578204D41585F52543D6B
:1001D00025782052585F505F4E4F3D257820545867
:1001E0005F46554C4C3D25780D0A0011121314152D
:1001F000160A0B0C0D0E0F0001020304051B02145E
:10020000020C02050250415F4D41580050415F48C9
:100210004947480050415F4C4F570050415F4D499E
:100220004E003702300228023136206269747300B2
:100230003820626974730044697361626C6564009C
:100240004E0244026E524632344C30312B006E5214
:100250004632344C3031006B0265025D023235307B
:100260004B42505300324D42505300314D42505397
:100270000000000008000201000003040700000065
:100280000000000000010204081020408001020468
:1002900008102001020408102004040404040404CB
:1002A000040202020202020303030303030000002C
:1002B0000023002600290000000000250028002B54
:1002C0000000000000240027002A00009902810E8F
:1002D000360FBE0F641111241FBECFEFD8E0DEBF72
:1002E000CDBF12E0A0E0B1E0E2E1FBE302C0059087
:1002F0000D92A631B107D9F723E0A6E1B2E001C023
:100300001D92A73CB207E1F712E0C6EDD2E004C0AF
:100310002297FE010E948C18CC3CD107C9F70E949D
:100320001F140C94871D0C940000CF93C82FE091EC
:100330001303F09114030190F081E02D682F83E105
:1003400093E009958C2F992787FD9095CF9108957B
:10035000FC0184A995A9680F791F6333710530F4F6
:1003600075AB64AB02968E0F9F1F089580E090E0FE
:10037000089560E070E085E991E00C942D1A26E084
:1003800040E05BE460E070E083E193E00E94A6104F
:100390000E94B90161E08DE00E945B1560E084E09D
:1003A0000E945B1564E271E083E193E00E94021217
:1003B00061E08DE00E94941568EE73E080E090E0CB
:1003C0000E94A71460E08DE00E9494158EE00E94C8
:1003D00015150E94161487E192E00E94490C84EFE3
:1003E00092E00E94A50B41E050E06AE585E292E0D0
:1003F0000E94500661E08DE00E94941568E873E168
:1004000080E090E00E94A71460E08DE00C949415C9
:100410008F929F92AF92BF92CF92DF92EF92FF9214
:10042000CF93DF93EC014A015B01CB01BA010E943B
:10043000C5166B017C01882777FD8095982F0E9457
:10044000F8169B01AC01C501B4010E94F41520E02F
:1004500030E048EC52E40E94AC170E94C5166B30A5
:100460007105ACF07F936F93DF92CF9286E391E0BA
:100470009F938F93DF93CF930E949A1A8DB79EB765
:1004800008960FB6F8949EBF0FBE8DBF14C07F9321
:100490006F93DF92CF928CE391E09F938F93DF93E2
:1004A000CF930E949A1A8DB79EB708960FB6F8940C
:1004B0009EBF0FBE8DBF81E090E0DF91CF91FF9096
:1004C000EF90DF90CF90BF90AF909F908F90089566
:1004D000CF93DF93CDB7DEB72E970FB6F894DEBF7C
:1004E0000FBECDBF1C821B822AEE31E03A832983E6
:1004F0007E836D834150510958874F831A86198630
:10050000FB0110829E012F5F3F4F3C872B871E8689
:100510001D86BE01655F7F4F0E94FD0E8D859E8505
:100520002E960FB6F894DEBF0FBECDBFDF91CF91F0
:1005300008954AE069E084EF92E00E941B0964EFAD
:1005400072E085E292E00E947E0526E046E162E0EC
:1005500087E192E00C94420C6F927F928F929F926F
:10056000AF92BF92CF92DF92EF92FF920F931F93C1
:10057000CF93DF93CDB7DEB728970FB6F894DEBFE1
:100580000FBECDBF7C01FC0101900020E9F78F0177
:1005900001501109081B190B83E193E00E941F1001
:1005A000C12CD12C5701A00EB11E83E5782E480135
:1005B000FFEF8F1A9F0AC016D1060CF04EC063E4FD
:1005C00071E083E193E00E94E511B8016C197D09A7
:1005D0006132710514F060E270E04AE050E083E1BE
:1005E00093E00E94B712F50110821C821B82809159
:1005F0000A0190910B019C012F5F3F4F30930B013B
:1006000020930A019E838D837F829401A701BE01FE
:100610006F5F7F4F85E292E00E949707682EF0E2BD
:10062000CF0ED11C811107C065E571E083E193E035
:100630000E94021214C069E671E083E193E00E9417
:10064000E511B70183E193E00E94E51162E371E0F7
:1006500083E193E00E940212AECF66246394862D5C
:1006600028960FB6F894DEBF0FBECDBFDF91CF91B5
:100670001F910F91FF90EF90DF90CF90BF90AF90C0
:100680009F908F907F906F9008952F923F924F92FE
:100690005F926F927F928F929F92AF92BF92CF9212
:1006A000DF92EF92FF920F931F93CF93DF93CDB71B
:1006B000DEB7C65DD1090FB6F894DEBF0FBECDBF61
:1006C00085E292E00E944B0784E00E94CA15682EE2
:1006D00087E192E00E947D0D6B017C0160E087E183
:1006E00092E00E94090D4B015C0161E087E192E01C
:1006F0000E94090D1B012C01AB01BC01CE018F52E0
:100700009F4F0E940802B701A601CE0185539F4F5B
:100710000E9408026AE771E083E193E00E94E5111C
:1007200022E030E0B701A60183E193E00E94BA1312
:1007300065E871E083E193E00E94E51169E871E00A
:1007400083E193E00E94E51122E030E0B501A401CD
:1007500083E193E00E94BA1367E971E083E193E0DB
:100760000E94E51122E030E0B201A10183E193E0B3
:100770000E94BA136CE971E083E193E00E940212D7
:10078000A5019401C501B4010E940F188E010D55F9
:100790001F4F811111C0A7019601C701B6010E9428
:1007A0000F18811109C020E030E0A901C701B6018E
:1007B0000E945916811122C00E9478149F938F9332
:1007C0007F936F931F9282E08F938DE091E09F93D0
:1007D0008F931F930F930E949A1A68EA71E083E146
:1007E00093E00E940212B80183E193E00E9402129A
:1007F0000FB6F894DEBF0FBECDBFA6C077247394AA
:100800006710712C9AEC892E91E0992EAF969FAECD
:100810008EAEAF97CF55DF4F19821882C15AD040A4
:10082000CE0183599F4F0E948A0E5C0161EA71E0FC
:100830000E94C00E42E050E060E070E00E945A0F5B
:1008400060EC71E0C5010E94C00E22E0B201A1017E
:100850000E944B0F28E2522EF801852D11928A95A5
:10086000E9F748E250E0B801C5010E946802C801FA
:100870000E94AC0298AE8FAAAD961FAE1EAEAD9789
:10088000CE01C7960E948A0E5C0161EA71E00E9467
:10089000C00E42E050E060E070E00E945A0F63EC4E
:1008A00071E0C5010E94C00E22E0B701A6010E94BE
:1008B0004B0FF80111925A94E9F748E250E0B80161
:1008C000C5010E946802C8010E94AC028091160214
:1008D0008715B1F19A8289821EAA1DAACE010196BE
:1008E0000E948A0E7C0161EA71E00E94C00E42E023
:1008F00050E060E070E00E945A0F772029F04FE648
:10090000C42E41E0D42E04C034E7C32E31E0D32EF0
:1009100064EA71E0C7010E94C00EB6010E943F0F59
:1009200088E2F80111928A95E9F748E250E0B801AF
:10093000C7010E946802C8010E94AC0270921602B0
:1009400080E395E70E94F104CA52DF4F0FB6F89496
:10095000DEBF0FBECDBFDF91CF911F910F91FF90F2
:10096000EF90DF90CF90BF90AF909F908F907F904F
:100970006F905F904F903F902F90089583FF02C03B
:1009800098E2892787FD02C0806401C080E094B7A7
:10099000977F94BFF8949091600098619093600065
:1009A0008093600078940895EAE7F0E09081808178
:1009B0008F77808383B7817F846083BFF89483B708
:1009C000816083BF85B7806685BF85B78F79806476
:1009D00085BF7894889583B78E7F83BF90937A0084
:1009E0000895DF92EF92FF920F931F93CF93DF93BF
:1009F0008C01EC0128E0E22EF12CC031D10538F158
:100A00009E01D12C2032310538F0D39489E0D816DC
:100A100019F036952795F6CF109204038D2D0E947C
:100A2000BE040E94D4048FEF0E94BE04C70102C01E
:100A3000880F991FDA94E2F7C81BD90B20910403A1
:100A4000222319F0C81BD90BD8CF80E001C081E068
:100A50004091B5035091B6036091B7037091B8030C
:100A60000C1B1D0B400F511F611D711D4093B503E1
:100A70005093B6036093B7037093B803DF91CF919F
:100A80001F910F91FF90EF90DF90089561E08AE051
:100A90000E94941561E08AE00E945B158CB580612C
:100AA0008CBD8CB580648CBD61E08DE00E945B15CF
:100AB00061E08BE00C945B158EBD0DB407FEFDCF9D
:100AC0008EB50895811103C08CB5806202C08CB5CB
:100AD0008F7D8CBD08959CB5937F982B9CBD089508
:100AE0002CB5982F93702C7F922B9CBD9DB582FBCB
:100AF000882780F99E7F982B9DBD0895FC01758302
:100B00006483E853FF4F8896918380830895CF9341
:100B1000DF93EC01C853DF4FA881B981AC17BD0743
:100B200070F4FC01389680E201900D928A95E1F70D
:100B30008881998180969983888381E001C080E0D3
:100B4000DF91CF910895FC01E353FF4F2081318164
:100B5000AB0142235323FC01868197814817590733
:100B600061F42095309583E0220F331F8A95E1F7D9
:100B70002623372381E0232B09F080E00895FC0130
:100B8000268137814FEF5FEFBA0162237323672B12
:100B900031F0B3E0440F551FBA95E1F7F5CF40951A
:100BA0005095FC01E353FF4F51834083A3E05695DA
:100BB0004795AA95E1F73397BA01622373237183AE
:100BC00060834115510559F063E0369527956A9584
:100BD000E1F773E0569547957A95E1F7F2CFFC017E
:100BE000E453FF4F208308950097C9F0282F277002
:100BF0002150253070F09F938F9388E690E09F936B
:100C00008F930E94781A0F900F900F900F9080E0B2
:100C1000089553E0969587955A95E1F7E5CF81E0E1
:100C20000895CF93DF93CDB7DEB728970FB6F8942A
:100C3000DEBF0FBECDBFE62FF0E0E453FE4F2081B4
:100C40002983FE0136964CE050E09C01042E02C040
:100C5000369527950A94E2F7622F6F70262F30E0C1
:100C60002095309574E0220F331F7A95E1F7262BFB
:100C70002293445051094C3F2FEF520731F72981FD
:100C80003A814B815C816D817E818F819885289628
:100C90000FB6F894DEBF0FBECDBFDF91CF910895A0
:100CA0008F929F92BF92CF92DF92EF92FF920F931B
:100CB0001F93CF93DF931F92CDB7DEB74C016A012C
:100CC000CA0169830E94F4056981882309F462C01E
:100CD000F401D782C68284819581FC0120812F3F57
:100CE00009F458C021812F3F09F454C00E942509FE
:100CF00060E070E0F401848195810E94630B62E002
:100D000070E0F401848195810E94090CF4018681D0
:100D1000978167E070E00E94131805E0080F4FE02C
:100D2000602F848195810E94250CF1E10F9F800145
:100D30001124222717FD2095322FF40100831183FF
:100D400022833383C4010E94BF05E5E0BE2E6B2DD4
:100D5000C6010E94110679018A019B01AC016B2D2D
:100D6000F401848195810E948E0ABA94FFEFBF122C
:100D7000EECFF401848195810F90DF91CF911F9187
:100D80000F91FF90EF90DF90CF90BF909F908F904A
:100D90000C941B0B0F90DF91CF911F910F91FF903F
:100DA000EF90DF90CF90BF909F908F9008950F931A
:100DB0001F93CF93DF93EC01CB01642F0E941106A8
:100DC00089019A01AB01BC018C819D810E94530A6B
:100DD000BE01685F7F4F40E28C819D810E94CD09FA
:100DE000488159816A817B8120E08C819D81DF91DE
:100DF000CF911F910F910C94D009DF92EF92FF9247
:100E00000F931F93CF93DF938C01EB01CB010E94D3
:100E1000F4058823C1F1F801E653FF4FD080E1804B
:100E20003296F080BE01C8010E94A305811116C050
:100E3000F801E353FF4F80819181BE01682379233C
:100E4000F801268137816217730751F4F3E0880FA8
:100E5000991FFA95E1F78760C823D923F12C02C0C6
:100E6000CD2DDE2DF801848195810E942C094F2D16
:100E7000BE01C8010E94D706C82FF8018481958160
:100E80000E941B0B8C2FDF91CF911F910F91FF9030
:100E9000EF90DF900895EF92FF920F931F93CF93FF
:100EA000DF931F92CDB7DEB78C017C0188E0E80E9E
:100EB000F11CF80184819581FC0120812F3F79F19B
:100EC00021812F3F61F1BE016F5F7F4F0E94250A94
:100ED000882329F1F801848195810E94430A88239F
:100EE00041F340E2B701F801848195810E94470AED
:100EF000F801828593850E94F405882359F3F8014F
:100F000062857385868197816817790721F4C80106
:100F10000E948705DFCFC8010E94FD06DBCF0F903E
:100F2000DF91CF911F910F91FF90EF9008950F9354
:100F30001F93CF93DF93EC018B01BA018E819F81C8
:100F4000F80191838083DE01189688E001900D926C
:100F50008A95E1F72115310551F0CE014096A9019E
:100F60002931310510F048E150E00E94141AF801CF
:100F7000628173818E819F816817790739F4CE0170
:100F8000DF91CF911F910F910C948705CE01DF91D6
:100F9000CF911F910F910C94FD060F931F93CF9348
:100FA000DF931F92CDB7DEB78C0181E069830E9489
:100FB000620580E00E946B0584E00E9470056981F3
:100FC000F80181810E94941585E090E00F90DF91F7
:100FD000CF911F910F910C94CF14FC0180819181CE
:100FE00089130C94941508951F93CF93DF93EC010C
:100FF000162F60E00E94CD07812F8F710E945C0543
:101000008FEF0E945C05182F61E0CE010E94CD0792
:10101000812FDF91CF911F910895CF92DF92EF92B0
:10102000FF920F931F93CF93DF9300D0CDB7DEB71E
:101030008C01E62EF22E60E049835A830E94CD0790
:101040008E2D8F7180620E945C05E82E4981C42E2E
:101050005A81D52EF40EFC1431F0F60181916F0106
:101060000E945C05F8CF61E0C8010E94CD078E2D7B
:101070000F900F90DF91CF911F910F91FF90EF9004
:10108000DF90CF900895EF92FF921F93CF93DF935D
:101090001F92CDB7DEB77C01162F60E049830E9416
:1010A000CD07812F8F7180620E945C05182F4981C6
:1010B000842F0E945C0561E0C7010E94CD07812F4B
:1010C0000F90DF91CF911F91FF90EF900895AF9215
:1010D000BF92CF92DF92EF92FF920F931F93CF9325
:1010E000DF9300D0CDB7DEB78C01D62EFC01E380B4
:1010F000F42EE41608F4FE2CF8018481811102C05C
:10110000EF1801C0E12C60E0C80129837A830E94B6
:10111000CD072981822F0E945C05C82EAD2C7A81D3
:10112000B72EFD0CFA1431F0F50181915F010E9498
:101130005C05F8CFEE2029F080E00E945C05EA947F
:10114000F9CF61E0C8010E94CD078C2D0F900F9060
:10115000DF91CF911F910F91FF90EF90DF90CF9093
:10116000BF90AF900895AF92BF92CF92DF92EF926F
:10117000FF920F931F93CF93DF931F92CDB7DEB7EC
:101180008C01D62EFC01E380F42EE41608F4FE2C2C
:10119000F8018481811102C0EF1801C0E12C60E0E8
:1011A000C80179830E94CD0781E60E945C05C82EA4
:1011B000AD2C7981B72EFD0CFA1439F08FEF0E9417
:1011C0005C05F50181935F01F7CFEE2029F08FEFE9
:1011D0000E945C05EA94F9CF61E0C8010E94CD0746
:1011E0008C2D0F90DF91CF911F910F91FF90EF9079
:1011F000DF90CF90BF90AF9008951F93CF93DF9370
:10120000EC01162F60E00E94CD07812F0E945C0543
:10121000182F61E0CE010E94CD07812FDF91CF9181
:101220001F91089562EE0C94FD0861EE0C94FD0888
:101230006FEF0C94FD08FC0160834183128280E211
:101240008383148285E082870895462F603808F0F2
:101250004FE765E00C944308CF93DF93EC0160E027
:101260000E94ED078B859C850E94CF146DE1CE0115
:101270000E94F40781FF07C08B859C850E94CF14D4
:10128000CE010E94150960E0CE010E94F407482FAC
:101290004E7F60E0CE010E94430862E0CE010E94D2
:1012A000F407E7EFF1E0E49121E030E001C0220F24
:1012B000EA95EAF7822B482F62E0CE01DF91CF91C9
:1012C0000C944308CF93DF93EC0160E00E94F40795
:1012D00081FD12C060E0CE010E94F407482F4260F9
:1012E00060E0CE010E94430865E070E080E090E09D
:1012F000DF91CF910C94A714DF91CF9108950F93B4
:10130000CF93DF93EC01222311F020EB01C020EA00
:10131000CE010E946708002339F061E0CE01DF9121
:10132000CF910F910C94ED07DF91CF910F9108951C
:10133000CF92DF92EF92FF920F93CF93DF9300D083
:10134000CDB7DEB76C017B01C6012A8349830E94B9
:1013500018092A81498180FF10C0C6012A83498368
:101360000E9418092A81498184FFEECF40E167E09D
:10137000C6010E94430880E006C001E0B701C60133
:101380000E947F0981E00F900F90DF91CF910F9124
:10139000FF90EF90DF90CF90089520E00C94980993
:1013A0008F929F92AF92BF92CF92DF92EF92FF9275
:1013B000CF93DF93EC014A015B01222331F00E94BD
:1013C0002C0961E0CE010E94ED070E9478146B01A8
:1013D0007C0167E1CE010E94F40784FD26C0CE01A6
:1013E0000E94180984FFF5CF40E167E0CE010E941A
:1013F000430860E0CE010E94ED0761E0CE010E944B
:10140000ED070E9478146C197D098E099F096815F3
:1014100079058A059B05E8F260E0CE010E94ED07A0
:10142000CE010E94150980E005C060E0CE010E9457
:10143000ED0781E0DF91CF91FF90EF90DF90CF90AB
:10144000BF90AF909F908F9008950F931F93CF936D
:10145000DF938C01EB0167E10E94F40780FD0BC074
:10146000209759F0C8010E94180990E0959587953A
:101470008770888302C080E001C081E0DF91CF9156
:101480001F910F91089560E070E00C94250ACF93AE
:10149000DF93EC010E94B30840E767E0CE01DF91E3
:1014A000CF910C944308EF92FF920F931F93CF9329
:1014B000DF93CDB7DEB728970FB6F894DEBF0FBE27
:1014C000CDBF7C0109831A832B833C834D835E83CC
:1014D0006F837887FC012285AE014F5F5F4F6AE022
:1014E0000E940D08F7012285AE014F5F5F4F60E15A
:1014F000C7010E940D08F701438161E1C7010E9405
:10150000430828960FB6F894DEBF0FBECDBFDF911B
:10151000CF911F910F91FF90EF900895BF92CF92BE
:10152000DF92EF92FF920F931F93CF93DF93CDB78C
:10153000DEB728970FB6F894DEBF0FBECDBF6C01A3
:10154000B62EE982FA820B831C832D833E834F8360
:10155000588761110AC0FC01428550E0BE016F5FEF
:101560007F4F05960E94141A07C0F6E0F61708F49C
:1015700036C081E0681308C0EB2DF0E0EF50FE4F5D
:101580006491F601228506C0E62FF0E0EF50FE4F91
:10159000649121E0AE014F5F5F4FC6010E940D08CC
:1015A0000B2D10E0F801E551FE4F6491F6014381E7
:1015B000C6010E94430862E0C6010E94F407F801D8
:1015C000E950FE4F049121E030E001C0220F0A955E
:1015D000EAF7822B482F62E0C6010E944308289652
:1015E0000FB6F894DEBF0FBECDBFDF91CF911F9134
:1015F0000F91FF90EF90DF90CF90BF9008951F93D1
:10160000CF93DF93EC01162F62E00E94F407E12FE5
:10161000F0E0E950FE4FE49141E050E001C0440F9A
:10162000EA95EAF74095482362E0CE01DF91CF9139
:101630001F910C944308CF93DF93EC010E94620941
:1016400060E0CE010E94F407482F416060E0CE01C7
:101650000E94430840E767E0CE010E94430861E032
:10166000CE010E94ED078D81882349F02A85AE01C5
:101670004B5F5F4F6AE0CE010E940D0804C060E03E
:10168000CE010E94FF0A6DE1CE010E94F40781FFA6
:1016900005C0CE01DF91CF910C941509DF91CF9158
:1016A0000895CF93DF93EC0160E00E94CD0780E5C1
:1016B0000E945C0583E70E945C0561E0CE01DF913A
:1016C000CF910C94CD07EF92FF920F931F93CF937E
:1016D000DF931F92CDB7DEB77C018B0166E00E94DD
:1016E000F407582F577D0230110531F450620BE991
:1016F00010E020E030E00DC00130110529F005E5D3
:1017000010E020E030E005C0586001E410E020E087
:1017100030E0F7010387148725873687452F66E079
:10172000C70159830E94430866E0C7010E94F4077D
:1017300091E05981851390E0892F0F90DF91CF912F
:101740001F910F91FF90EF900895CF93DF93EC01DD
:1017500088819981891719F061E00E945B15898160
:101760009881981719F061E00E945B150E94460568
:1017700060E0CE010E94ED0761E0CE010E94CD073E
:1017800065E070E080E090E00E94A7144CE060E02B
:10179000CE010E9443084FE564E0CE010E94430859
:1017A00062E070E0CE010E94630B882311F081E0BB
:1017B0008A8360E070E0CE010E94630BCE010E943C
:1017C000510B40E06DE1CE010E94430840E06CE126
:1017D000CE010E94430840E767E0CE010E94430823
:1017E0006CE4CE010E942509CE010E941209CE01AF
:1017F0000E941509CE010E94620960E0CE010E949C
:10180000F407482F4E7F60E0CE01DF91CF910C941A
:1018100043080F931F93CF93DF93EC018B0160E09C
:101820000E94F407482F437F0115110531F0013064
:10183000110511F4486001C04C6060E0CE01DF91F9
:10184000CF911F910F910C94430820E1629FB0014A
:1018500011244F70462B64E00C9443081F920F92A2
:101860000FB60F9211248F9388E10FB6F8948093EE
:101870006000109260000FBE8F910F900FBE0F900E
:101880001F901895FC0166834783208781E0858738
:101890000895CF93DF93EC0160E08E810E945B1589
:1018A00061E08E810E94941519861A861B861C861B
:1018B000DF91CF910895DF92EF92FF920F931F93E4
:1018C000CF93DF93EC010E94781409851A852B854C
:1018D0003C85601771078207930720F419861A86E2
:1018E0001B861C862D85211111C009851A852B8523
:1018F0003C85DC01CB01801B910BA20BB30B803D1F
:101900009740A105B10510F481E07BC01D860E94BF
:10191000781469877A878B879C871C821B821A823E
:101920001982188261E08E810E9494156AEF70E03E
:1019300080E090E00E94A71461E08E810E945B1518
:1019400060E08E810E94941564E170E080E090E098
:101950000E94A714F89461E08E810E94941588E299
:1019600090E00E94CF1460E08E810E945B15F12C04
:10197000D12C81E0E12C082F10E08E810E94CA1545
:101980008017910741F4E39481E090E00E94CF1426
:101990008FEFE812F2CF8E810E94CA159FEFE916F1
:1019A000C9F023E02F1590F4F0FC10C09D2D969502
:1019B00096959695FE01E90FF11D9081990F908300
:1019C00028852E1510F491609083D394F39495E5B7
:1019D000F912D0CF789427E22D1590F42C8130E0C5
:1019E0004881898190E0840F911D4A81840F911D67
:1019F0004B81840F911D99272817390709F484CF4B
:101A000080E0DF91CF911F910F91FF90EF90DF90D9
:101A10000895CF92DF92EF92FF920F931F93CF938F
:101A2000DF93EC01162F0E945B0C882309F450C051
:101A30008F818B3031F008F44BC08551823078F0C3
:101A400047C06A8170E080E090E00E94F6161123A2
:101A500009F443C020E030E040E151E42AC00A81AB
:101A6000602F6F7770E080E090E00E94F81620E031
:101A700030E040E853E40E94AC176B017C016B81BD
:101A800070E080E090E00E94F8169B01AC01C70175
:101A9000B6010E94F51520E030E040E251E40E94DA
:101AA0005D1607FD90581123D9F020E030E040E1A9
:101AB00051E40E94AC1720E030E040EA50E40E947C
:101AC0005D1620E030E040E052E40E94F51508C0C9
:101AD00020E030E040EC5FE705C09B01AC0102C0B4
:101AE0009B01AC01B901CA01DF91CF911F910F9108
:101AF000FF90EF90DF90CF900895CF92DF92EF921A
:101B0000FF92CF93DF93EC010E945B0C882379F165
:101B10008F818B3029F158F18551823040F56881F1
:101B200070E080E090E00E94F61620E030E040E8AF
:101B300053E40E94AC176B017C01698170E080E086
:101B400090E00E94F8169B01AC01C701B6010E940B
:101B5000F51520E030E040E251E40E945D160BC034
:101B6000688170E080E090E00E94F61604C060E0BA
:101B700070E080EC9FE7DF91CF91FF90EF90DF90D6
:101B8000CF900895BF92CF92DF92EF92FF920F9382
:101B90001F93CF93DF937C01EB01009771F462ED0B
:101BA00071E0CE01DF91CF911F910F91FF90EF90E7
:101BB000DF90CF90BF900C94E511E881F9810190FE
:101BC000F081E02D62E2CE0109958C01F70161916F
:101BD0007F01662351F0E7EDF1E0B080BB2079F1A1
:101BE00091819617B1F03296F8CFE881F981019092
:101BF000F081E02D62E2CE010995800F911FDF9107
:101C0000CF911F910F91FF90EF90DF90CF90BF90F9
:101C10000895E881F9810190F081E02D6CE5CE0115
:101C200009956C01E881F9810190F081E02D6B2D1F
:101C3000CE0109958C0D9D1D080F191FC7CFE88196
:101C4000F9810190F081E02DCE010995F5CFFC01DD
:101C5000808591852681378182179307A4F4A4811A
:101C6000B5819C012F5F3F4F31872087A80FB91F97
:101C70006C93A481B58180859185A80FB91F1C92B2
:101C800081E090E0089580E090E00895CF93DF93A5
:101C9000EC0188819981DC01ED91FC910190F0814A
:101CA000E02D09952A813B81280F391F3B832A8328
:101CB000DF91CF9108950F931F93CF93DF93EC01A2
:101CC0008B016BE5C8010E94460E0A80DB81C02DA6
:101CD000209779F0B801CE0102960E94680F099012
:101CE000D881C02D209729F06CE2C8010E94460ED1
:101CF000F1CF6DE5C801DF91CF911F910F910C9449
:101D0000460E1092060310920503109208031092DB
:101D100007030895CF93DF93EC01E881F9810190E7
:101D2000F081E02D64E070E00995FC01009729F056
:101D3000D183C0831382128202C089E093E0DF91D5
:101D4000CF9108950F931F93CF93DF938B01FC01E5
:101D5000C281D381209759F0B8018A819B810E946A
:101D6000241A892B39F00990D881C02DF3CF80E057
:101D700090E001C0CE01DF91CF911F910F910895A6
:101D80000F931F93CF93DF93EC018B010E94A20E60
:101D9000FC01009741F588819981009739F1DC01B8
:101DA000ED91FC910190F081E02D6AE070E00995E1
:101DB000FC010097D9F01182108281E090E09583B8
:101DC000848313830283AA81BB81109751F08D9184
:101DD0009C911197009711F0DC01F9CFED93FC93E2
:101DE00002C0FB83EA83CF01049602C08DE093E03A
:101DF000DF91CF911F910F9108950F931F93CF9370
:101E0000DF938C01EB016BE7CE010E94460EF801D7
:101E1000028113810115110509F168817981F801A9
:101E2000828193810E94C20D2A813B81280F391F34
:101E30003B832A836AE3CE010E94460EBE01C8019D
:101E400004960E94680FF8010081118101151105A7
:101E500029F06CE2CE010E94460EDFCF6DE7CE0185
:101E6000DF91CF911F910F910C94460E10920A03AF
:101E70001092090310920C0310920B030895FC01B9
:101E800080819181892B31F085E090E0918380837E
:101E9000738362830895FC0180819181892B49F0CD
:101EA00030E0295F3F4F3183208342835383648333
:101EB00075830895FC0180819181892B41F086E032
:101EC00090E0918380834283538364837583089574
:101ED000CF93DF93FC01EB0120813181223031056A
:101EE00031F482819381DF91CF910C945B0E23308A
:101EF000310531F482819381DF91CF910C94FD0EF5
:101F00002530310539F468817981828193810E947D
:101F1000C20D2BC02630310559F4428153816481B2
:101F200075812AE030E0888199810E946D121DC080
:101F30002430310569F48281882319F06EEE71E056
:101F400002C063EF71E0888199810E94E5110DC0A4
:101F50002730310584F0275030E04281538164817D
:101F60007581888199810E94BA132A813B81280F4B
:101F7000391F3B832A83DF91CF91089510920E037E
:101F800010920D030895FC01818D228D90E0805CFC
:101F90009F4F821B91098F7399270895FC01918DA2
:101FA000828D981731F0828DE80FF11D858D90E0BC
:101FB00008958FEF9FEF0895FC01918D828D981702
:101FC00061F0828DDF01A80FB11D5D968C91928D1D
:101FD0009F5F9F73928F90E008958FEF9FEF08951A
:101FE0008AE591E1892B49F080E090E0892B29F086
:101FF0000E945A1181110C9400000895FC01848DF7
:10200000DF01A80FB11DA35ABF4F2C91848D90E022
:1020100001968F739927848FA689B7892C93A089FD
:10202000B1898C9180648C93938D848D981306C0B4
:102030000288F389E02D80818F7D80830895CF937E
:10204000DF93EC01888D8823C9F0EA89FB898081C0
:1020500085FD05C0A889B9898C9186FD0FC00FB692
:1020600007FCF5CF808185FFF2CFA889B9898C91D3
:1020700085FFEDCFCE010E94FE0FE7CFDF91CF911C
:102080000895CF92DF92FF920F931F93CF93DF9328
:102090001F92CDB7DEB76C01DC015B969C915B971C
:1020A0005C968C915C97981307C05096ED91FC91CB
:1020B0005197808185FD32C0F601038D10E00F5FDE
:1020C0001F4F0F731127F02EF601848DF81211C0E7
:1020D0000FB607FCF9CFD6015096ED91FC915197C0
:1020E000808185FFF1CFC60169830E94FE0F69815F
:1020F000EBCF838DE80FF11DE35AFF4F6083D601CC
:102100005B960C935B975296ED91FC91539780816F
:102110008062808381E058968C930DC0D6015696DC
:10212000ED91FC91579760835096ED91FC915197FA
:1021300080818064808381E090E00F90DF91CF9177
:102140001F910F91FF90DF90CF900895BF92CF9293
:10215000DF92EF92FF92CF93DF93EC016A017B0154
:10216000B22E60E874E88EE190E0A70196010E942B
:10217000271821503109410951095695479537953E
:102180002795E889F98982E08083211580E1380765
:1021900098F0E889F989108260E472E48FE090E0B9
:1021A000A70196010E9427182150310941095109C0
:1021B0005695479537952795EC85FD853083EE85B7
:1021C000FF852083188EEC89FD89B082EA89FB891E
:1021D000808180618083EA89FB8980818860808337
:1021E000EA89FB89808180688083EA89FB89808114
:1021F0008F7D8083DF91CF91FF90EF90DF90CF9024
:10220000BF9008951F920F920FB60F9211242F9333
:102210008F939F93EF93FF93E0912303F091240317
:102220008081E0912903F0912A0382FD12C0908100
:1022300080912C038F5F8F7320912D03821751F0B3
:10224000E0912C03F0E0ED5EFC4F958F80932C0322
:1022500001C08081FF91EF919F918F912F910F90FD
:102260000FBE0F901F9018951F920F920FB60F92EE
:1022700011242F933F934F935F936F937F938F938B
:102280009F93AF93BF93EF93FF9383E193E00E94FB
:10229000FE0FFF91EF91BF91AF919F918F917F9131
:1022A0006F915F914F913F912F910F900FBE0F90C3
:1022B0001F90189583E193E00E94C30F21E0892BC2
:1022C00009F420E0822F089510921603109215034E
:1022D00088EE93E0A0E0B0E080931703909318039A
:1022E000A0931903B0931A038DEF91E09093140318
:1022F0008093130385EC90E09093200380931F0359
:1023000084EC90E0909322038093210380EC90E092
:10231000909324038093230381EC90E09093260311
:102320008093250382EC90E0909328038093270309
:1023300086EC90E090932A038093290310922C035B
:1023400010922D0310922E0310922F030895CF9216
:10235000DF92EF92FF920F931F93CF93DF936C0165
:102360007A01EB01E60EF71E00E010E0CE15DF0566
:1023700061F06991D601ED91FC910190F081E02D21
:10238000C6010995080F191FF1CFC801DF91CF9140
:102390001F910F91FF90EF90DF90CF9008956115FE
:1023A000710581F0DB010D900020E9F7AD0141508E
:1023B0005109461B570BDC01ED91FC910280F38122
:1023C000E02D099480E090E008950C94CF11DC0199
:1023D000ED91FC910190F081E02D09940F931F93F2
:1023E000CF93DF93EC016DE00E94E7118C016AE06E
:1023F000CE010E94E711800F911FDF91CF911F91B5
:102400000F9108950F931F93CF93DF93EC010E94D8
:10241000CF118C01CE010E94EE11800F911FDF9130
:10242000CF911F910F9108958F929F92AF92BF927B
:10243000CF92DF92EF92FF920F931F93CF93DF9390
:10244000CDB7DEB7A1970FB6F894DEBF0FBECDBFF4
:102450007C01C42EE52FCB01D22E19A221E02D152F
:1024600010F02AE0D22E8E010F5D1F4F8D2C912C83
:10247000A12CB12C6C2D7E2FA50194010E94271850
:102480008C2DD29E80191124015011098A3014F428
:10249000805D01C0895CF80180832115310541050B
:1024A000510521F0C22EE32FCA01E4CFB801C701C4
:1024B0000E94CF11A1960FB6F894DEBF0FBECDBF1C
:1024C000DF91CF911F910F91FF90EF90DF90CF9010
:1024D000BF90AF909F908F900895CF92DF92EF9230
:1024E000FF920F931F93CF93DF93EC016A017B015F
:1024F0002115310579F4E881F9810190F081E02D11
:10250000642FDF91CF911F910F91FF90EF90DF909B
:10251000CF9009942A303105E9F477FF1AC06DE2B3
:102520000E94E7118C0144275527BA014C195D0917
:102530006E097F092AE0CE010E941412800F911FBC
:10254000DF91CF911F910F91FF90EF90DF90CF908F
:1025500008952AE0B701A601CE01DF91CF911F9126
:102560000F91FF90EF90DF90CF900C9414120F9387
:102570001F93CF93DF93EC019A01AB01662757FDC0
:102580006095762F0E946D128C01CE010E94EE1193
:10259000800F911FDF91CF911F910F9108954F925E
:1025A0005F926F927F928F929F92AF92BF92CF92E3
:1025B000DF92EF92FF920F931F93CF93DF93EC0183
:1025C0006A017B01B22E9A01AB01C701B6010E94DC
:1025D0000F18882319F069E072E027C0260137013F
:1025E000E89477F82FEF3FEF4FE75FE7C301B201C1
:1025F0000E940F1881110DC02FEF3FEF4FE75FE7EB
:10260000C301B2010E94591618161CF46DE072E065
:102610000CC02FEF3FEF4FE75FE4C701B6010E9408
:10262000A8171816ACF461E172E0CE01DF91CF91EA
:102630001F910F91FF90EF90DF90CF90BF90AF90E0
:102640009F908F907F906F905F904F900C94CF11E0
:102650002FEF3FEF4FE75FECC701B6010E9459161D
:1026600087FDE1CF20E030E0A901C701B6010E945B
:10267000591687FF0AC06DE2CE010E94E7118C0156
:10268000F7FAF094F7F8F09402C000E010E0A12C03
:1026900060E070E080E09FE3AB1441F020E030E0C8
:1026A00040E251E40E945D16A394F6CF9B01AC0179
:1026B000C701B6010E94F5156B017C010E94CA1684
:1026C0002B013C010E94F6169B01AC01C701B6012B
:1026D0000E94F4156B017C012AE0B301A201CE0136
:1026E0000E941412080F191FBB2039F064E371E037
:1026F000CE010E94CF11080F191F7B2C772041F1CA
:1027000020E030E040E251E4C701B6010E94AC177E
:102710006B017C010E94C5164B01AA2497FCA09472
:10272000BA2C2AE030E0B501A401CE010E946D125E
:10273000080F191FC501B4010E94F8169B01AC01D6
:10274000C701B6010E94F4156B017C017A94D6CFC3
:10275000C801DF91CF911F910F91FF90EF90DF9013
:10276000CF90BF90AF909F908F907F906F905F9031
:102770004F9008950C94CF121F920F920FB60F92A4
:1027800011242F933F934F935F936F937F938F9376
:102790009F93AF93BF93EF93FF938091B00390917A
:1027A000B103892B29F0E091B003F091B1030995B1
:1027B000FF91EF91BF91AF919F918F917F916F9119
:1027C0005F914F913F912F910F900FBE0F901F90EF
:1027D00018951F920F920FB60F9211242F933F93CB
:1027E0004F935F936F937F938F939F93AF93BF9319
:1027F000EF93FF938091B2039091B303892B29F05B
:10280000E091B203F091B3030995FF91EF91BF916D
:10281000AF919F918F917F916F915F914F913F9178
:102820002F910F900FBE0F901F901895009729F0D1
:10283000BC0180E090E00C940B1A089508950E946A
:10284000DA140E941E140E94BF01C0EFDFE00E9454
:1028500045032097E1F30E94F00FF9CF1F920F92EA
:102860000FB60F9211242F933F938F939F93AF93A3
:10287000BF938091B5039091B603A091B703B09137
:10288000B8033091B40326E0230F2D3720F40296CD
:10289000A11DB11D05C029E8230F0396A11DB11D7F
:1028A0002093B4038093B5039093B603A093B7032A
:1028B000B093B8038091B9039091BA03A091BB0380
:1028C000B091BC030196A11DB11D8093B9039093F3
:1028D000BA03A093BB03B093BC03BF91AF919F9188
:1028E0008F913F912F910F900FBE0F901F901895D1
:1028F0002FB7F8946091B5037091B6038091B70338
:102900009091B8032FBF08953FB7F8948091B90311
:102910009091BA03A091BB03B091BC0326B5A89BCC
:1029200005C02F3F19F00196A11DB11D3FBF6627BD
:10293000782F892F9A2F620F711D811D911D43E001
:10294000660F771F881F991F4A95D1F70895CF9278
:10295000DF92EF92FF92CF93DF936B017C010E9495
:102960008414EB01C114D104E104F10489F00E9444
:10297000F3150E9484146C1B7D0B683E734090F32A
:1029800081E0C81AD108E108F108C851DC4FEACF4C
:10299000DF91CF91FF90EF90DF90CF90089581303D
:1029A000910539F0029729F0880F991F0197019737
:1029B000F1F70895789484B5826084BD84B5816010
:1029C00084BD85B5826085BD85B5816085BDEEE637
:1029D000F0E0808181608083E1E8F0E01082808116
:1029E00082608083808181608083E0E8F0E0808184
:1029F00081608083E1EBF0E0808184608083E0EBA4
:102A0000F0E0808181608083EAE7F0E0808184608B
:102A100080838081826080838081816080838081E7
:102A2000806880831092C10008958E3008F08E5027
:102A3000877020910C0190E4299F90011124822B32
:102A400080937C0080917A00806480937A008091EA
:102A50007A0086FDFCCF809178002091790090E08B
:102A6000922B0895833081F028F4813099F08230E0
:102A7000A1F008958730A9F08830B9F08430D1F4FE
:102A8000809180008F7D03C0809180008F7780933C
:102A90008000089584B58F7702C084B58F7D84BD92
:102AA00008958091B0008F7703C08091B0008F7D32
:102AB0008093B0000895CF93DF9390E0FC01EB5733
:102AC000FD4F2491FC01E756FD4F8491882349F185
:102AD00090E0880F991FFC01EF53FD4FA591B49131
:102AE00089549D4FFC01C591D4919FB7611108C0D5
:102AF000F8948C91209582238C93888182230AC03C
:102B0000623051F4F8948C91322F309583238C935A
:102B10008881822B888304C0F8948C91822B8C93BB
:102B20009FBFDF91CF9108950F931F93CF93DF93B2
:102B30001F92CDB7DEB7282F30E0F901EF58FD4FD7
:102B40008491F901EB57FD4F1491F901E756FD4FC0
:102B500004910023C9F0882321F069830E94321573
:102B60006981E02FF0E0EE0FFF1FE954FD4FA591C2
:102B7000B4919FB7F8948C91611103C01095812393
:102B800001C0812B8C939FBF0F90DF91CF911F913C
:102B90000F910895CF93DF93282F30E0F901EF587C
:102BA000FD4F8491F901EB57FD4FD491F901E756A0
:102BB000FD4FC491CC2391F081110E943215EC2F6E
:102BC000F0E0EE0FFF1FE355FD4FA591B4912C915E
:102BD0002D2381E090E021F480E002C080E090E0CD
:102BE000DF91CF91089508955058BB27AA270ED0A2
:102BF00075C166D130F06BD120F031F49F3F11F4F4
:102C00001EF45BC10EF4E095E7FB51C1E92F77D1CB
:102C100080F3BA17620773078407950718F071F4F9
:102C20009EF58FC10EF4E0950B2EBA2FA02D0B014F
:102C3000B90190010C01CA01A0011124FF27591B01
:102C400099F0593F50F4503E68F11A16F040A22F07
:102C5000232F342F4427585FF3CF46953795279578
:102C6000A795F0405395C9F77EF41F16BA0B620B77
:102C7000730B840BBAF09150A1F0FF0FBB1F661FBE
:102C8000771F881FC2F70EC0BA0F621F731F841F01
:102C900048F4879577956795B795F7959E3F08F027
:102CA000B3CF9395880F08F09927EE0F97958795E6
:102CB0000895D9D008F481E008950CD00FC107D150
:102CC00040F0FED030F021F45F3F19F0F0C0511118
:102CD00039C1F3C014D198F39923C9F35523B1F343
:102CE000951B550BBB27AA2762177307840738F07B
:102CF0009F5F5F4F220F331F441FAA1FA9F333D0DA
:102D00000E2E3AF0E0E830D091505040E695001C8D
:102D1000CAF729D0FE2F27D0660F771F881FBB1F49
:102D2000261737074807AB07B0E809F0BB0B802D23
:102D3000BF01FF2793585F4F2AF09E3F510568F06F
:102D4000B6C000C15F3FECF3983EDCF38695779503
:102D50006795B795F7959F5FC9F7880F911D969571
:102D6000879597F90895E1E0660F771F881FBB1FCD
:102D7000621773078407BA0720F0621B730B840B7A
:102D8000BA0BEE1F88F7E095089504D06894B1114E
:102D9000D9C00895BCD088F09F5790F0B92F9927DB
:102DA000B751A0F0D1F0660F771F881F991F1AF056
:102DB000BA95C9F712C0B13081F0C3D0B1E008951F
:102DC000C0C0672F782F8827B85F39F0B93FCCF3A0
:102DD000869577956795B395D9F73EF4909580954C
:102DE000709561957F4F8F4F9F4F0895E89409C06C
:102DF00097FB3EF490958095709561957F4F8F4F2E
:102E00009F4F9923A9F0F92F96E9BB279395F69543
:102E1000879577956795B795F111F8CFFAF4BB0FC1
:102E200011F460FF1BC06F5F7F4F8F4F9F4F16C025
:102E3000882311F096E911C0772321F09EE8872FAF
:102E4000762F05C0662371F096E8862F70E060E06B
:102E50002AF09A95660F771F881FDAF7880F9695E4
:102E6000879597F90895990F0008550FAA0BE0E888
:102E7000FEEF16161706E807F907C0F0121613063C
:102E8000E407F50798F0621B730B840B950B39F47C
:102E90000A2661F0232B242B252B21F408950A26E2
:102EA00009F4A140A6958FEF811D811D089597F922
:102EB0009F6780E870E060E008959FEF80EC0895E0
:102EC00000240A9416161706180609060895002409
:102ED0000A9412161306140605060895092E039483
:102EE000000C11F4882352F0BB0F40F4BF2B11F4F7
:102EF00060FF04C06F5F7F4F8F4F9F4F089557FD56
:102F00009058440F551F59F05F3F71F04795880F57
:102F100097FB991F61F09F3F79F0879508951216EE
:102F200013061406551FF2CF4695F1DF08C016169A
:102F300017061806991FF1CF86957105610508944B
:102F40000895E894BB2766277727CB0197F9089562
:102F50008ADF08F48FEF08950BD0C0CFB1DF28F0DF
:102F6000B6DF18F0952309F0A2CFA7CF1124EACF3E
:102F7000C6DFA0F3959FD1F3950F50E0551F629FD8
:102F8000F001729FBB27F00DB11D639FAA27F00DC2
:102F9000B11DAA1F649F6627B00DA11D661F829FE9
:102FA0002227B00DA11D621F739FB00DA11D621FCE
:102FB000839FA00D611D221F749F3327A00D611DEB
:102FC000231F849F600D211D822F762F6A2F1124CD
:102FD0009F5750408AF0E1F088234AF0EE0FFF1F20
:102FE000BB1F661F771F881F91505040A9F79E3F57
:102FF000510570F05CCFA6CF5F3FECF3983EDCF359
:10300000869577956795B795F795E7959F5FC1F793
:10301000FE2B880F911D9695879597F9089523DFCC
:10302000880B990B0895AA1BBB1B51E107C0AA1F6F
:10303000BB1FA617B70710F0A61BB70B881F991F59
:103040005A95A9F780959095BC01CD010895A1E20C
:103050001A2EAA1BBB1BFD010DC0AA1FBB1FEE1F12
:10306000FF1FA217B307E407F50720F0A21BB30B5D
:10307000E40BF50B661F771F881F991F1A9469F7D9
:1030800060957095809590959B01AC01BD01CF0135
:103090000895052E97FB1EF400940E94601857FDBA
:1030A00007D00E94271807FC03D04EF40C94601838
:1030B00050954095309521953F4F4F4F5F4F089564
:1030C00090958095709561957F4F8F4F9F4F089594
:1030D000A29FB001B39FC001A39F700D811D112459
:1030E000911DB29F700D811D1124911D08950E94A4
:1030F0006818A59F900DB49F900DA49F800D911D01
:1031000011240895B7FF0C9477180E947718821B3A
:10311000930B0895EE0FFF1F0590F491E02D099495
:10312000CF93DF938230910510F482E090E0E0913C
:10313000BF03F091C00320E030E0A0E0B0E03097A2
:1031400039F14081518148175907B8F0481759079C
:1031500071F482819381109729F013969C938E933A
:1031600012972CC09093C0038093BF0327C02115F2
:10317000310531F04217530718F0A901DB0101C0F6
:10318000EF019A01BD01DF010280F381E02DD7CF6D
:1031900021153105F9F0281B390B2430310580F455
:1031A0008A819B816115710521F0FB0193838283E4
:1031B00004C09093C0038093BF03FE01329644C0C5
:1031C000FE01E20FF31F819391932250310939835D
:1031D00028833AC02091BD033091BE03232B41F4D4
:1031E00020910201309103013093BE032093BD036F
:1031F00020910001309101012115310541F42DB7D5
:103200003EB74091040150910501241B350BE0911C
:10321000BD03F091BE03E217F307A0F42E1B3F0B92
:103220002817390778F0AC014E5F5F4F2417350738
:1032300048F04E0F5F1F5093BE034093BD03819330
:10324000919302C0E0E0F0E0CF01DF91CF910895CB
:10325000CF93DF93009709F487C0FC013297138264
:103260001282C091BF03D091C003209781F42081C6
:103270003181280F391F8091BD039091BE038217C1
:10328000930779F5F093BE03E093BD036DC0DE01B3
:1032900020E030E0AE17BF0750F412964D915C91DC
:1032A00013979D014115510509F1DA01F3CFB3835D
:1032B000A28340815181840F951F8A179B0771F467
:1032C0008D919C911197840F951F02969183808315
:1032D00012968D919C9113979383828321153105CA
:1032E00029F4F093C003E093BF033EC0D9011396C5
:1032F000FC93EE9312974D915D91A40FB51FEA17C1
:10330000FB0779F480819181840F951F0296D90182
:1033100011969C938E938281938113969C938E93A6
:103320001297E0E0F0E08A819B81009719F0FE019E
:10333000EC01F9CFCE01029628813981820F931FCB
:103340002091BD033091BE032817390769F43097E7
:1033500029F41092C0031092BF0302C0138212829C
:10336000D093BE03C093BD03DF91CF9108958F9298
:103370009F92AF92BF92CF92DF92EF92FF92CF9344
:10338000DF93EC01688179818A819B8161157105E8
:103390008105910521F464E279ED8BE597E02DE15B
:1033A00033EF41E050E00E94491849015A019B0166
:1033B000AC01A7EAB1E40E9477186B017C01ACEE86
:1033C000B4EFA50194010E948518C60ED71EE81E11
:1033D000F91EF7FE06C081E0C81AD108E10880E8AE
:1033E000F80AC882D982EA82FB82C701B6019F77B8
:1033F000DF91CF91FF90EF90DF90CF90BF90AF9093
:103400009F908F9008950E94B719089586E091E0EB
:103410000E94B71908956093060170930701809385
:103420000801909309010895FB01DC0102C001909D
:103430000D9241505040D8F70895DC0101C06D93C2
:1034400041505040E0F70895FB01DC018D9101905F
:1034500080190110D9F3990B08950F931F93CF93FF
:10346000DF93EC018B01009731F46115710519F4BC
:1034700080E090E038C06EE070E081E090E00E9473
:103480008E1CFC010097A1F380E8838301151105D0
:1034900071F01387028781E883838091C103909143
:1034A000C203892B21F4F093C203E093C103209758
:1034B000C9F0D187C0878381826083838091C303F1
:1034C0009091C403892B71F4F093C403E093C30378
:1034D0008091C5039091C603892B21F4F093C60314
:1034E000E093C503CF01DF91CF911F910F91089514
:1034F000A0E0B0E0EEE7FAE10C945E1DFE01379625
:103500006191719103EC13E0D8018D919C91DC01E4
:1035100013962C911397286013962C93AF010E9459
:10352000BC1AD801ED91FC912381277F2383E4E02D
:103530000C947A1DAEE0B0E0E0EAFAE10C945E1D76
:103540000D891E8986E08C831A8309838FEF9FE79C
:103550009E838D83AE01475E5F4F6F89788DCE016C
:1035600001960E94BC1AEF81F885E00FF11F1082CE
:103570002E96E4E00C947A1DACE0B0E0E2ECFAE1C7
:103580000C94501D7C016B018A01FC01178216828C
:10359000838181FFBDC1CE0101964C01F70193816A
:1035A000F60193FD859193FF81916F01882309F4C2
:1035B000ABC1853239F493FD859193FF81916F0101
:1035C000853229F4B70190E00E94C01CE7CF512C4E
:1035D000312C20E02032A0F48B3269F030F48032BC
:1035E00059F0833269F420612CC08D3239F0803378
:1035F00039F4216026C02260246023C0286021C0E5
:1036000027FD27C030ED380F3A3078F426FF06C08A
:10361000FAE05F9E300D1124532E13C08AE0389ECD
:10362000300D1124332E20620CC08E3221F426FD81
:103630006BC1206406C08C3611F4206802C0883645
:1036400041F4F60193FD859193FF81916F01811102
:10365000C1CF982F9F7D9554933028F40C5F1F4F56
:10366000FFE3F9830DC0833631F0833771F0833582
:1036700009F05BC022C0F801808189830E5F1F4F73
:1036800044244394512C540115C03801F2E06F0ECC
:10369000711CF801A080B18026FF03C0652D70E089
:1036A00002C06FEF7FEFC5012C870E94B51C2C0173
:1036B00083012C852F77222E17C03801F2E06F0E80
:1036C000711CF801A080B18026FF03C0652D70E059
:1036D00002C06FEF7FEFC5012C870E94AA1C2C014E
:1036E0002C852068222E830123FC1BC0832D90E0B3
:1036F00048165906B0F4B70180E290E00E94C01C61
:103700003A94F4CFF50127FC859127FE81915F0162
:10371000B70190E00E94C01C31103A94F1E04F1ABA
:1037200051084114510471F7E5C0843611F089360F
:1037300039F5F80127FF07C060817181828193818B
:103740000C5F1F4F08C060817181882777FD8095CD
:10375000982F0E5F1F4F2F76B22E97FF09C09095BE
:103760008095709561957F4F8F4F9F4F2068B22E47
:103770002AE030E0A4010E94F21CA82EA81844C040
:10378000853729F42F7EB22E2AE030E025C0F22FB3
:10379000F97FBF2E8F36C1F018F4883579F0B4C0A8
:1037A000803719F0883721F0AFC02F2F2061B22E5B
:1037B000B4FE0DC08B2D8460B82E09C024FF0AC052
:1037C0009F2F9660B92E06C028E030E005C020E1AA
:1037D00030E002C020E132E0F801B7FE07C06081AE
:1037E0007181828193810C5F1F4F06C0608171815E
:1037F00080E090E00E5F1F4FA4010E94F21CA82EF3
:10380000A818FB2DFF77BF2EB6FE0BC02B2D2E7FE9
:10381000A51450F4B4FE0AC0B2FC08C02B2D2E7EB5
:1038200005C07A2C2B2D03C07A2C01C0752C24FFE7
:103830000DC0FE01EA0DF11D8081803311F4297E57
:1038400009C022FF06C07394739404C0822F867847
:1038500009F0739423FD13C020FF06C05A2C731483
:1038600018F4530C5718732C731468F4B70180E2E2
:1038700090E02C870E94C01C73942C85F5CF7314A4
:1038800010F4371801C0312C24FF12C0B70180E3B7
:1038900090E02C870E94C01C2C8522FF17C021FFBE
:1038A00003C088E590E002C088E790E0B7010CC053
:1038B000822F867859F021FD02C080E201C08BE2A0
:1038C00027FD8DE2B70190E00E94C01CA51438F4DA
:1038D000B70180E390E00E94C01C5A94F7CFAA94ED
:1038E000F401EA0DF11D8081B70190E00E94C01C37
:1038F000A110F5CF332009F451CEB70180E290E05A
:103900000E94C01C3A94F6CFF7018681978102C0CD
:103910008FEF9FEF2C96E2E10C946C1D0F931F9399
:10392000CF93DF93869F8001879F100D969F100D88
:103930001124C8010E949018EC01009729F0A801F9
:1039400060E070E00E941D1ACE01DF91CF911F91BF
:103950000F910895FC010590615070400110D8F757
:10396000809590958E0F9F1F0895FC0161507040C7
:1039700001900110D8F7809590958E0F9F1F0895A4
:103980000F931F93CF93DF93182F092FEB018B8198
:1039900081FD03C08FEF9FEF20C082FF10C04E81DA
:1039A0005F812C813D81421753077CF4E881F981C6
:1039B0009F012F5F3F4F39832883108306C0E8851E
:1039C000F985812F0995892B29F72E813F812F5F5A
:1039D0003F4F3F832E83812F902FDF91CF911F91F7
:1039E0000F910895FA01AA27283051F1203181F171
:1039F000E8946F936E7F6E5F7F4F8F4F9F4FAF4FF7
:103A0000B1E03ED0B4E03CD0670F781F891F9A1F09
:103A1000A11D680F791F8A1F911DA11D6A0F711DBD
:103A2000811D911DA11D20D009F468943F912AE0C9
:103A3000269F11243019305D3193DEF6CF010895B1
:103A4000462F4770405D4193B3E00FD0C9F7F6CFE2
:103A5000462F4F70405D4A3318F0495D31FD4052AA
:103A6000419302D0A9F7EACFB4E0A6959795879540
:103A700077956795BA95C9F700976105710508951F
:103A80009B01AC010A2E06945795479537952795CB
:103A9000BA95C9F7620F731F841F951FA01D089563
:103AA0002F923F924F925F926F927F928F929F924E
:103AB000AF92BF92CF92DF92EF92FF920F931F933C
:103AC000CF93DF93CDB7DEB7CA1BDB0B0FB6F894ED
:103AD000DEBF0FBECDBF09942A88398848885F842D
:103AE0006E847D848C849B84AA84B984C884DF809E
:103AF000EE80FD800C811B81AA81B981CE0FD11D82
:103B00000FB6F894DEBF0FBECDBFED010895F89457
:023B1000FFCFE5
:103B12000000C70380000100000001000149443A8F
:103B220025643A54533A256C753A45523A455252F5
:103B32004F5200005374617274696E672076302EA2
:103B420032352E2E2E0025642E25640025642E305B
:103B520025640053656E64696E67207061636B65EE
:103B6200742E2E2E00577269746520627566666522
:103B720072206661696C65640073656E743D005401
:103B82007275650046616C73650048756D6964699C
:103B920074793A20002025090054656D70657261C0
:103BA200747572653A2000202A432000202A4609B3
:103BB20000696400706972004661696C6564207412
:103BC2006F20726561642066726F6D2044485400F4
:103BD20074660072680000000000A8013C5A6996F1
:103BE200A5C36E756C6C0022225C5C6208660C6E6A
:103BF2000A720D74090000000000270EA7117472EA
:103C020075650066616C736500000000004110A7D5
:103C120011C30FDC0FCE0F1F106E616E00696E664E
:063C2200006F7666000051
:00000001FF
