:100000000C946B010C94A7190C94D4190C949301C3
:100010000C9493010C9493010C9438100C9493015C
:100020000C9493010C9493010C9493010C94930100
:100030000C9493010C9493010C9493010C949301F0
:100040000C94181A0C9493010C94AC160C942F1762
:100050000C9493010C9493010C9493010C949301D0
:100060000C9493010C9493012A2A2A205741524E52
:10007000494E47202A2A2A20496E76616C696420FD
:10008000616464726573732030256F0A0D006964C2
:1000900020253034782066726F6D2030256F2074F3
:1000A0006F2030256F207479706520256400000171
:1000B000020304050A0B0C0D0E0F11121314151672
:1000C00015021B022102290232023C0245024C02A7
:1000D00054025B0262026A02504120506F776572DF
:1000E00009203D2025530D0A00435243204C656EE4
:1000F00067746809203D2025530D0A004D6F646523
:100100006C0909203D2025530D0A004461746120CB
:100110005261746509203D2025530D0A0044594E53
:1001200050442F4645415455524500434F4E464991
:10013000470052465F53455455500052465F43486E
:1001400000454E5F52584144445200454E5F414184
:100150000052585F50575F50302D360054585F4161
:100160004444520052585F414444525F50322D354E
:100170000052585F414444525F50302D31000D0A07
:10018000002530327800203078002553092563207F
:100190003D000D0A002030782530327800255309C3
:1001A0002563203D004F4253455256455F54583D0C
:1001B000253032783A20504F4C535F434E543D2502
:1001C00078204152435F434E543D25780D0A005339
:1001D00054415455530909203D2030782530327858
:1001E0002052585F44523D25782054585F44533D77
:1001F0002578204D41585F52543D25782052585F54
:10020000505F4E4F3D25782054585F46554C4C3D2D
:1002100025780D0A00314D42505300324D42505363
:10022000003235304B425053006E524632344C301F
:1002300031006E524632344C30312B0044697361C8
:10024000626C656400382062697473003136206224
:100250006974730050415F4D494E0050415F4C4FEF
:10026000570050415F484947480050415F4D415851
:100270000000000000240027002A000000000025E4
:100280000028002B000000000023002600290004A5
:10029000040404040404040202020202020303032D
:1002A0000303030102040810204080010204081027
:1002B00020010204081020000000070002010000D5
:1002C0000304060000000000000000005205651253
:1002D000DC12D313E21611241FBECFEFD8E0DEBF2D
:1002E000CDBF12E0A0E0B1E0E4EEFDE302C0059076
:1002F0000D92A635B107D9F714E0A6E5B2E001C02A
:100300001D92A730B107E1F712E0C6EDD2E004C0BC
:100310002297FE010E94B51ECC3CD107C9F70E946E
:10032000091A0C94F01E0C940000A0E0B0E0EBE978
:10033000F1E00C94C11EEC01A880B980CA80DB807A
:10034000A114B104C104D10441F484E2A82E89EDC2
:10035000B82E8BE5C82E87E0D82EC601B5012DE159
:1003600033EF41E050E00E94981E27EA31E440E07C
:1003700050E00E94431E7B018C01C601B5012DE1B6
:1003800033EF41E050E00E94981ECA01B9012CEE03
:1003900034EF4FEF5FEF0E94431E6E0D7F1D801FF5
:1003A000911F97FF04C0615070408040904868835F
:1003B00079838A839B839B01AC015F77B901CA0172
:1003C000CDB7DEB7EAE00C94DD1E0E9495010895DA
:1003D00086E192E00E949501089560931602709361
:1003E000170280931802909319020895FB01DC0113
:1003F00002C001900D9241505040D8F70895DC01A1
:1004000001C06D9341505040E0F70895FB01DC01BD
:100410008D91019080190110D9F3990B08950F93D4
:100420001F93CF93DF938C01EB01009731F461159B
:10043000710519F420E030E038C081E090E06EE012
:1004400070E00E948204FC019C01009771F180E839
:100450008383209771F0D387C28781E8838380915B
:10046000010490910204892B21F4F0930204E0939B
:10047000010401151105C9F011870087838182608D
:1004800083838091030490910404892B71F4F09389
:100490000404E09303048091050490910604892BE1
:1004A00021F4F0930604E0930504C901DF91CF9194
:1004B0001F910F910895A0E0B0E0E1E6F2E00C9406
:1004C000C91EFE01359661917191A0910304B0910E
:1004D000040413968C911397886013968C938091E3
:1004E000030490910404AF010E94A502E09103046B
:1004F000F09104042381277F23832096E2E00C946B
:10050000E51EAEE0B0E0E7E8F2E00C94C71E0D890E
:100510001E8986E08C831A8309838FEF9FE79E8371
:100520008D839E01275E3F4FCE0101966F89788DA6
:10053000A9010E94A5022F813885020F131FF8011F
:1005400010822E96E4E00C94E31EABE0B0E0EBEA00
:10055000F2E00C94B91E3C012B015A01FC011782F8
:100560001682838181FD03C06FEF7FEFC6C19AE0E1
:10057000892E1E010894211C311CF3012381F201F4
:1005800023FD859123FF81912F01882309F4B2C1B6
:10059000853239F423FD859123FF81912F01853226
:1005A00029F490E0B3010E94B404E7CF982FFF2410
:1005B000EE249924FFE1FF15D0F09B3269F09C32C4
:1005C00028F4903259F0933291F40EC09D3249F0E4
:1005D000903369F441E024C052E0F52A84E0F82A1F
:1005E00028C098E0F92A25C0E0E1FE2A22C0F7FCE5
:1005F00029C0892F80538A3070F4F6FE05C0989C7C
:10060000902C1124980E15C0E89CE02C1124E80EC3
:10061000F0E2FF2A0EC09E3229F4F6FC6BC140E4E2
:10062000F42A07C09C3619F450E8F52A02C098361F
:1006300049F4F20123FD959123FF91912F01992314
:1006400009F0B8CF892F8554833018F08052833059
:1006500038F444E050E0A40EB51E5FE359830FC0A8
:10066000933631F0933779F0933509F056C020C0B6
:10067000F5018081898342E050E0A40EB51E61013E
:1006800001E010E012C0F501C080D180F6FC03C08B
:100690006FEF7FEF02C0692D70E042E050E0A40EE2
:1006A000B51EC6010E94A9048C015FE7F52214C0A3
:1006B000F501C080D180F6FC03C06FEF7FEF02C070
:1006C000692D70E042E050E0A40EB51EC6010E9404
:1006D0009E048C0150E8F52AF3FE07C01AC080E2A0
:1006E00090E0B3010E94B404EA948E2D90E00817C4
:1006F0001907A8F30EC0F601F7FC8591F7FE81916A
:100700006F0190E0B3010E94B404E110EA9401503B
:1007100010400115110579F7EAC0943611F09936A9
:1007200069F5F7FE08C0F5012081318142815381CE
:1007300084E090E00AC0F501808191819C0144270A
:1007400037FD4095542F82E090E0A80EB91E9FE639
:10075000F92257FF09C050954095309521953F4F9C
:100760004F4F5F4FE0E8FE2ACA01B901A1012AE01C
:1007700030E00E94E004D82ED21840C0953729F40A
:100780001F2D1F7E2AE030E01DC01F2D197F9F36D0
:1007900061F0903720F4983509F0ACC00FC0903765
:1007A00039F0983709F0A6C004C028E030E00AC04C
:1007B000106114FD146020E130E004C014FD1660E7
:1007C00020E132E017FF08C0F5016081718182816C
:1007D000938144E050E008C0F50180819181BC0123
:1007E00080E090E042E050E0A40EB51EA1010E941E
:1007F000E004D82ED2188FE7F82EF122F6FE0BC0B7
:100800005EEFF522D91438F4F4FE07C0F2FC05C0FF
:100810008FEEF82202C01D2D01C0192DF4FE0DC06F
:10082000FE01ED0DF11D8081803319F499EEF9225E
:1008300008C01F5FF2FE05C003C08F2D867809F047
:100840001F5F0F2DF3FC14C0F0FE0FC01E1510F03B
:100850009D2C0BC09D2C9E0C911A1E2D06C080E273
:1008600090E0B3010E94B4041F5F1E15C0F304C0E2
:100870001E1510F4E11A01C0EE2404FF0FC080E33E
:1008800090E0B3010E94B40402FF1DC001FD03C04B
:1008900088E790E00EC088E590E00BC0802F867856
:1008A00091F001FF02C08BE201C080E2F7FC8DE213
:1008B00090E0B3010E94B40406C080E390E0B3016D
:1008C0000E94B4049A94D914C0F3DA94F101ED0DA6
:1008D000F11D808190E0B3010E94B404DD20A9F7EE
:1008E00006C080E290E0B3010E94B404EA94EE20D6
:1008F000C1F743CEF30166817781CB012B96E2E10C
:100900000C94D51E0F931F93CF93DF93689F8001A4
:10091000699F100D789F100D1124C8010E94371493
:10092000EC01009729F060E070E0A8010E94FF014F
:10093000CE01DF91CF911F910F910895FC01059099
:10094000615070400110D8F7809590958E0F9F1FD1
:100950000895FC016150704001900110D8F7809516
:1009600090958E0F9F1F08950F931F93CF93DF9342
:100970008C01EB018B8181FF1BC082FF0DC02E819A
:100980003F818C819D812817390764F4E881F981C2
:100990000193F983E88306C0E885F985802F0995DE
:1009A000892B31F48E819F8101969F838E8302C0B3
:1009B0000FEF1FEFC801DF91CF911F910F910895A5
:1009C000FA01AA27283051F1203181F1E8946F9380
:1009D0006E7F6E5F7F4F8F4F9F4FAF4FB1E03ED026
:1009E000B4E03CD0670F781F891F9A1FA11D680FC4
:1009F000791F8A1F911DA11D6A0F711D811D911DF7
:100A0000A11D20D009F468943F912AE0269F11246B
:100A10003019305D3193DEF6CF010895462F4770CF
:100A2000405D4193B3E00FD0C9F7F6CF462F4F702A
:100A3000405D4A3318F0495D31FD4052419302D088
:100A4000A9F7EACFB4E0A69597958795779567952E
:100A5000BA95C9F700976105710508959B01AC012E
:100A60000A2E06945795479537952795BA95C9F755
:100A7000620F731F841F951FA01D0895FC0184A998
:100A800095A9680F791F6333710518F020E030E0F5
:100A900007C075AB64AB9C012E5F3F4F2E0F3F1F0D
:100AA000C90108950F931F9306E512E0C80169E09C
:100AB0004AE00E94090C86E692E0B8010E9486098D
:100AC00085E393E062E046E126E00E944C101F912E
:100AD0000F910895AF92BF92CF92DF92EF92FF9263
:100AE0000F931F93CF93DF93EC017A018B01CB011E
:100AF000BA010E94F51C5B016C01B501882777FDE6
:100B00008095982F0E94281D9B01AC01C801B70158
:100B10000E94241C20E030E048EC52E40E94DC1DDE
:100B20000E94F51C9B01AC016B307105A4F08DB7E0
:100B30009EB708970FB6F8949EBF0FBE8DBFEDB756
:100B4000FEB73196ADB7BEB71296DC93CE93119730
:100B500080E091E011C0ADB7BEB718970FB6F8941A
:100B6000BEBF0FBEADBFEDB7FEB731961296DC9398
:100B7000CE93119786E091E093838283B582A4821D
:100B8000378326830E9481028DB79EB708960FB6E1
:100B9000F8949EBF0FBE8DBF81E090E0DF91CF91B2
:100BA0001F910F91FF90EF90DF90CF90BF90AF908B
:100BB0000895DF93CF93CDB7DEB72E970FB6F89495
:100BC000DEBF0FBECDBFFB0118861F8222E432E0DC
:100BD0003E832D837A876987415050405C874B87DD
:100BE0001E861D8610829E012B5F3F4F3A8329830C
:100BF0001C821B82BE016F5F7F4F0E94E5128B81BA
:100C00009C812E960FB6F894DEBF0FBECDBFCF915C
:100C1000DF9108958F929F92BF92CF92DF92EF92D1
:100C2000FF920F931F93DF93CF93CDB7DEB7289733
:100C30000FB6F894DEBF0FBECDBFB82EE92EE82F59
:100C4000F92FDF010D900020E9F78D0101501040D0
:100C50000E1B1F0B83E593E06DE071E00E94AA1864
:100C600083E593E0B8014AE050E00E948B1883E5E9
:100C700093E00E943A16CC24DD244E010894811C96
:100C8000911C4EC083E593E06EE171E00E94AA18CA
:100C9000B8016C197D096132710514F060E270E0F1
:100CA00083E593E04AE050E00E948B181C821B828F
:100CB00080911A0290911B029E838D8301969093DE
:100CC0001B0280931A021F8283E593E060E371E0C8
:100CD0000E94AA18AB2DBE2DFD0101900020E9F75E
:100CE0003197EA1BFB0B83E593E0BF014AE050E03C
:100CF0000E942E1886E692E0B4014B2D5E2D9801DD
:100D00000E94BE0AF82E882339F483E593E068E355
:100D100071E00E9494190AC080E290E0C80ED91ECA
:100D2000C016D1060CF4AECFFF24F3948F2D289675
:100D30000FB6F894DEBF0FBECDBFCF91DF911F91EC
:100D40000F91FF90EF90DF90CF90BF909F908F908A
:100D500008954F925F926F927F928F929F92AF927F
:100D6000BF92CF92DF92EF92FF920F931F93DF9388
:100D7000CF93CDB7DEB7C65DD0400FB6F894DEBFD7
:100D80000FBECDBF86E692E00E94F30A84E00E9487
:100D9000D01B482E83E593E06CE471E00E94941927
:100DA00085E393E00E941F113B014C0185E393E032
:100DB00060E00E9470117B018C0185E393E061E0AB
:100DC0000E9470115B016C01CE010196B601A50174
:100DD0000E946A05CE010796B401A3010E946A052C
:100DE00083E593E06BE571E00E94AA1883E593E048
:100DF000B401A30122E030E00E94911983E593E061
:100E000066E671E00E94AA1883E593E06AE671E065
:100E10000E94AA1883E593E0B801A70122E030E020
:100E20000E94911983E593E068E771E00E94AA1897
:100E300083E593E0B601A50122E030E00E9491191C
:100E400083E593E06DE771E00E949419C801B70152
:100E5000A80197010E943F1E882349F4C401B301F1
:100E6000A40193010E943F1E882309F479C00E94C7
:100E7000601A2DB73EB72A5030400FB6F8943EBFE7
:100E80000FBE2DBFEDB7FEB731968E01035F1F4F2A
:100E9000ADB7BEB712961C930E93119722E831E0BE
:100EA0003383228322E030E0358324836683778393
:100EB000808791870E9481022DB73EB7265F3F4F02
:100EC0000FB6F8943EBF0FBE2DBF83E593E069E9EE
:100ED00071E00E94941983E593E0B8010E9494198F
:100EE000C7C0FE01EF55FF4FF182E08215AA14AA98
:100EF000CF010E94C2128C0161EB71E00E9470135D
:100F000042E050E060E070E00E94C513C80164EB6D
:100F100071E00E947013452D50E060E070E00E9487
:100F2000C513C801B60148E250E00E94D90583E527
:100F300093E068EB71E00E94AA1883E593E0B601A4
:100F40000E94AA1883E593E060EC71E00E94941976
:100F5000C6010E940A0680E395E70E94F20888C055
:100F6000552431E0431611F45524539497E2E92EA9
:100F700092E0F92EFEAAEDAAFE01E759FF4F118279
:100F80001082CE01C5960E94C2128C0161EB71E005
:100F90000E94701342E050E060E070E00E94C513D0
:100FA000C80164EC71E00E947013B601A50122E053
:100FB0000E94B6138DE0C82ED12CCC0EDD1EC801C8
:100FC000B60148E250E00E94D90583E593E068EB62
:100FD00071E00E94AA1883E593E0B6010E94AA1866
:100FE00083E593E060EC71E00E949419C6010E94D1
:100FF0000A06FE01E559FF4FF182E08215AA14AA04
:10100000CF010E94C2128C0161EB71E00E9470134B
:1010100042E050E060E070E00E94C513C80167EC58
:1010200071E00E947013B401A30122E00E94B61384
:10103000C801B60148E250E00E94D90583E593E07B
:1010400068EB71E00E94AA1883E593E0B6010E9464
:10105000AA1883E593E060EC71E00E949419C60140
:101060000E940A0680914303851509F03ACF73CF99
:10107000CA52DF4F0FB6F894DEBF0FBECDBFCF917F
:10108000DF911F910F91FF90EF90DF90CF90BF9075
:10109000AF909F908F907F906F905F904F9008954A
:1010A0008FEA98E060E070E00E940F0208950F93CD
:1010B0001F9303E513E0C80140E051EE60E070E0EB
:1010C00026E00E949C150E9450088DE061E00E947D
:1010D0003D1B84E060E00E943D1BC8016AEC71E0AA
:1010E0000E9494198DE061E00E947C1B68EE73E021
:1010F00080E090E00E94B31A8DE060E00E947C1BCB
:101100008EE00E941B1B0E94011A85E393E00E945F
:101110005310C80166ED71E00E94941986E592E0D3
:101120000E94D10F86E692E06AE541E050E00E941D
:101130004F0B8DE061E00E947C1B68E873E180E06A
:1011400090E00E94B31A8DE060E00E947C1BC80111
:1011500068EE71E00E9494191F910F9108950F930A
:101160001F93082F112707FD109583E593E0602F4B
:101170000E945D16C8011F910F910895982F83FF5B
:1011800002C088E2982797FF02C090E001C09064F7
:1011900084B7877F84BFF8948091600088618093D2
:1011A00060009093600078940895EAE7F0E0908101
:1011B00080818F77808383B7817F846083BFF89439
:1011C00083B7816083BF85B7806685BF85B78F7918
:1011D000806485BF7894889583B78E7F83BF909312
:1011E0007A000895CF92DF92EF92FF921F93CF93F0
:1011F000DF937C01EC0158E0C52ED12C20C01F5F8D
:10120000193029F09695879580329105C0F7109294
:101210004403812F0E94BE080E94D5088FEF0E94D0
:10122000BE08960102C0220F331F1A95E2F7C21BB7
:10123000D30B80914403882351F0C21BD30BC031E0
:10124000D10510F461E004C0CE0110E0DDCF60E014
:101250002091F8033091F9034091FA035091FB0378
:10126000EC1AFD0AC701A0E0B0E0820F931FA41F93
:10127000B51F8093F8039093F903A093FA03B093FA
:10128000FB03862FDF91CF911F91FF90EF90DF90AE
:10129000CF9008958EBD0DB407FEFDCF8EB5089595
:1012A000882319F48CB5806202C08CB58F7D8CBD0B
:1012B00008959CB5937F982B9CBD08952CB5382F2D
:1012C00033702C7F322B3CBD2DB590E095958795E2
:1012D0009595879581702E7F822B8DBD08958AE02C
:1012E00061E00E947C1B8AE061E00E943D1B8CB59E
:1012F00080618CBD8CB580648CBD8DE061E00E9406
:101300003D1B8BE061E00E943D1B0895FC0175834D
:1013100064838896E853FF4F918380830895FC018E
:10132000468157812FEF3FEF05C063E0220F331F47
:101330006A95E1F7C90184239523892BB1F7C90187
:1013400080959095E353FF4F91838083ED5CF0404F
:1013500043E0969587954A95E1F7468157819C0130
:1013600024233523E653FF4F31832083EA5CF0408A
:101370000AC033E0569547953A95E1F723E09695F4
:1013800087952A95E1F70097A1F7E453FF4F408333
:1013900008959C011CC0822F87708150853090F089
:1013A00000D000D088E690E0EDB7FEB7928381834D
:1013B000348323830E945B0280E00F900F900F9094
:1013C0000F90089543E0369527954A95E1F721154A
:1013D000310509F781E00895EF92FF920F931F9373
:1013E000DF93CF93CDB7DEB728970FB6F894DEBF63
:1013F0000FBECDBF7C01E42FF0E0E75DFD4F8081A3
:101400008983FE0131964CE050E015C09B01042E0B
:1014100002C0369527950A94E2F72F70822F90E04C
:1014200080959095A4E0880F991FAA95E1F7282B45
:1014300025834450504031978FEF4C3F580731F788
:1014400009811A812B813C814D815E816F81788574
:10145000F701848195810E94880DB701685F7F4FF5
:10146000F7018481958140E20E94560DF701408189
:101470005181628173818481958120E00E94470FB0
:1014800028960FB6F894DEBF0FBECDBFCF91DF9187
:101490001F910F91FF90EF900895DF92EF92FF92CE
:1014A0000F931F93CF93DF938C017B01CB010E949D
:1014B000C909882311F4FF243CC006531F4FF801CB
:1014C000C191D191D1908F01408151810D5C10402B
:1014D000970124233523F80186819781281739073E
:1014E000C1F4CA018095909523E0880F991F2A9531
:1014F000E1F78E219F21892B11F4E70109C0EA0150
:10150000B3E0CC0FDD1FBA95E1F7C760CE21DF2134
:10151000DD24F801848195810E940F0FC801BE016E
:101520004D2D0E94EC09F82EF801848195810E94CE
:101530009D0F8F2DDF91CF911F910F91FF90EF9015
:10154000DF900895FC01E853FF4F208131812E1771
:101550003F0710F080E00895F901DC01189620E2C1
:101560000D9001922150E1F7FC01E853FF4F80817B
:10157000918180969183808381E008950F931F93DA
:10158000CF93DF93EC018B018E819F81FB019183CF
:101590008083DE01189688E001900D928150E1F77A
:1015A0002115310561F0FE0170962931310510F0E9
:1015B00028E130E0CF01BA01A9010E94F601F8014B
:1015C000628173818E819F816817790721F4CE0132
:1015D0000E94A20A03C0CE010E944D0ADF91CF9162
:1015E0001F910F910895CF92DF92EF92FF920F9388
:1015F0001F93DF93CF930F92CDB7DEB78C0138E006
:10160000E32EF12CE80EF91E6E010894C11CD11CCA
:101610002BC0D80114968D919C911597B70140E28B
:101620000E941E0DF701828193810E94C9098823BF
:1016300091F0D70112966D917C911397F8018681F4
:1016400097816817790721F4C8010E94A20A03C094
:10165000C8010E944D0AD80114968D919C9115974E
:101660000E94EF0E8823A9F6D8011496ED91FC9103
:10167000159780818F3F49F081818F3F31F0CF01F5
:10168000B6010E94D00E882331F70F90CF91DF91E1
:101690001F910F91FF90EF90DF90CF9008956F9280
:1016A0007F928F929F92BF92CF92DF92EF92FF92A2
:1016B0000F931F93DF93CF93CDB7DEB728970FB665
:1016C000F894DEBF0FBECDBF6C01162F4A01CA01D0
:1016D0000E94C909882309F488C0D60117969C92F4
:1016E0008E9216971496ED91FC91159780818F3FFD
:1016F00009F47BC081818F3F09F477C0CF01612F4E
:101700000E945A0DF6018481958160E070E00E948C
:10171000F60DD60114968D919C91159762E070E0BC
:101720000E94DB0DF6018681978167E070E00E94E0
:10173000621E15E0E12EE80E848195816E2D4FE04A
:101740000E94140D81E1E89E700111240027F7FC2E
:101750000095102FD601ED92FD920D931C931397D7
:10176000C6010E948F09B5E0BB2E3E010894611CA2
:10177000711CF60164817581EB2DF0E0E75DFD4F92
:1017800080818983F3014CE050E015C09401042E60
:1017900002C0369527950A94E2F72F70822F90E0C9
:1017A00080959095A4E0880F991FAA95E1F7282BC2
:1017B00025834450504031978FEF4C3F580731F705
:1017C000E980FA800B811C812D813E814F815885F3
:1017D000CB016B2D0E94540EBA94AFEFBA1649F6A6
:1017E000F601848195810E949D0F28960FB6F8948A
:1017F000DEBF0FBECDBFCF91DF911F910F91FF9044
:10180000EF90DF90CF90BF909F908F907F906F90E0
:101810000895FC0160834183128280E283831482F5
:1018200085E082870895FC0190818181981719F0E5
:10183000892F0E947C1B0895FF920F931F938C01A8
:10184000F62E81E00E94500980E00E94590984E050
:101850000E945E09F80181816F2D0E947C1B85E04A
:1018600090E00E946E1A1F910F91FF9008950F93C0
:101870001F938C0160E00E941C0C80E50E944A09C5
:1018800083E70E944A09C80161E00E941C0C1F9175
:101890000F910895FF920F931F938C01F62E60E035
:1018A0000E941C0C8F2D0E944A09F82EC80161E08D
:1018B0000E941C0C8F2D1F910F91FF9008956FEFC8
:1018C0000E944A0C089561EE0E944A0C089562EE4F
:1018D0000E944A0C0895DF92EF92FF920F931F939C
:1018E000CF93DF93EC019B81142F941708F4192FE9
:1018F0008C81882311F000E002C0092F011B7B01BD
:10190000CE0160E00E941C0C81E60E944A09D82E9C
:1019100007C08FEF0E944A09F70181937F011150A0
:101920001123B9F704C08FEF0E944A090150002328
:10193000D1F7CE0161E00E941C0C8D2DDF91CF917B
:101940001F910F91FF90EF90DF900895DF92EF923B
:10195000FF920F931F93CF93DF93EC01D22E9B81C5
:10196000142F941708F4192F8C81882311F000E0AC
:1019700002C0092F011B7B01CE0160E00E941C0CFC
:101980008D2D0E944A09D82E06C0F70181917F0152
:101990000E944A0911501123C1F704C080E00E943F
:1019A0004A0901500023D1F7CE0161E00E941C0CCE
:1019B0008D2DDF91CF911F910F91FF90EF90DF90D0
:1019C00008950F93CF93DF93EC01222311F420EAC3
:1019D00001C020EBCE010E94A60C002321F0CE0115
:1019E00061E00E94130CDF91CF910F910895EF9267
:1019F000FF920F931F937C01162F042F60E00E942B
:101A00001C0C1F71812F80620E944A09182F802FA1
:101A10000E944A09C70161E00E941C0C812F1F919E
:101A20000F91FF90EF900895262F4F702295207F01
:101A3000242B64E0422F0E94F70C08950F931F930C
:101A40008C010E946B0CC80167E040E70E94F70C14
:101A50001F910F910895EF92FF920F931F93CF93D1
:101A6000DF93EC018B01F42EE22E0CC0CE010E941C
:101A70005F0C84FF07C0CE0167E040E10E94F70CD5
:101A800080E00DC0CE010E945F0C80FDEFCFCE0143
:101A9000B8014F2D2E2D01E00E94E10C81E0DF9175
:101AA000CF911F910F91FF90EF90089520E00E9439
:101AB0002B0D0895462F603808F04FE765E00E942F
:101AC000F70C0895EF92FF920F931F93CF93DF933C
:101AD0007C01162FEA01022F60E00E941C0C1F718E
:101AE000812F80620E944A09182F04C089910E94A8
:101AF0004A0901500023D1F7C70161E00E941C0C84
:101B0000812FDF91CF911F910F91FF90EF9008955A
:101B1000EF92FF920F931F93DF93CF93CDB7DEB772
:101B200028970FB6F894DEBF0FBECDBF7C010983A6
:101B30001A832B833C834D835E836F8378878E016A
:101B40000F5F1F4F6AE0A801F70122850E94620D16
:101B5000C70160E1A801F70122850E94620DC7015B
:101B600061E1F70143810E94F70C28960FB6F894C3
:101B7000DEBF0FBECDBFCF91DF911F910F91FF90C0
:101B8000EF900895FF920F931F938C01F62E60E063
:101B90000E941C0C8F2D8F710E944A098FEF0E94AA
:101BA0004A09F82EC80161E00E941C0C8F2D1F917C
:101BB0000F91FF9008950F931F93CF93DF938C01A4
:101BC000EB0160E00E94C20D482F437F209729F06F
:101BD000219711F4486001C04C60C80160E00E9488
:101BE000F70CDF91CF911F910F910895FF920F9302
:101BF0001F93CF93DF93EC018B0166E00E94C20D2F
:101C0000F7EDFF2EF82285E590E0A0E0B0E08B87AD
:101C10009C87AD87BE870230110539F480E2F82A2F
:101C20008BE990E0A0E0B0E009C00130110551F46B
:101C300088E0F82A81E490E0A0E0B0E08B879C8700
:101C4000AD87BE87CE0166E04F2D0E94F70CCE0116
:101C500066E00E94C20D90E08F1509F491E0892F93
:101C6000DF91CF911F910F91FF900895FF920F93F5
:101C70001F938C01F62E62E00E94C20DEEEAF0E0A6
:101C8000EF0DF11DE49141E050E002C0440F551FFB
:101C9000EA95E2F740954823C80162E00E94F70CFC
:101CA0001F910F91FF900895BF92CF92DF92EF9214
:101CB000FF920F931F93DF93CF93CDB7DEB7289793
:101CC0000FB6F894DEBF0FBECDBF6C01B62EE98211
:101CD000FA820B831C832D833E834F8358876623B0
:101CE00069F49C012B5F3F4FFC014285C901BE0195
:101CF0006F5F7F4F50E00E94F60107C0F6E0F617D5
:101D000008F43EC081E0681769F4EB2DF0E0EC5474
:101D1000FF4FE491C6016E2FAE014F5F5F4FF6019A
:101D200022850BC0E62FF0E0EC54FF4FE491C60192
:101D30006E2FAE014F5F5F4F21E00E94620D0B2DB1
:101D400010E0F801E654FF4FE491C6016E2FF60152
:101D500043810E94F70CC60162E00E94C20D025549
:101D60001F4FF801649121E030E002C0220F331FC1
:101D70006A95E2F7482F422BC60162E00E94F70CF9
:101D800028960FB6F894DEBF0FBECDBFCF91DF917E
:101D90001F910F91FF90EF90DF90CF90BF9008952B
:101DA0000F931F93CF93DF93EC018B0167E10E94A8
:101DB000C20D80FF02C080E00DC00115110549F081
:101DC000CE010E945F0C90E0959587958770F80191
:101DD000808381E0DF91CF911F910F91089560E0A2
:101DE00070E00E94D00E0895CF93DF93EC0160E085
:101DF0000E94C20D81FD10C0CE0160E00E94C20DA4
:101E0000482F4260CE0160E00E94F70C65E070E070
:101E100080E090E00E94B31ADF91CF910895CF93B4
:101E2000DF93EC0160E00E94130C8B859C850E947F
:101E30006E1ACE016DE10E94C20D81FF07C08B8535
:101E40009C850E946E1ACE010E94630CCE0160E058
:101E50000E94C20D482F4E7FCE0160E00E94F70C19
:101E6000CE0162E00E94C20DEEEAF0E0E49121E0D2
:101E700030E002C0220F331FEA95E2F7482F422BD1
:101E8000CE0162E00E94F70CDF91CF910895AF92EE
:101E9000BF92CF92DF92EF92FF920F931F93CF9357
:101EA000DF93EC015A016B01222331F00E940F0FE6
:101EB000CE0161E00E94130C0E94601A7B018C012C
:101EC00026C0CE010E945F0C84FF21C0CE0167E0D6
:101ED00040E10E94F70CCE0160E00E94130CCE019D
:101EE00061E00E94130C0E94601A6E197F09800B3A
:101EF000910B6A157B058C059D0548F0CE0160E0CD
:101F00000E94130CCE010E94630C80E00BC0CE0136
:101F100067E10E94C20D84FFD4CFCE0160E00E9431
:101F2000130C81E0DF91CF911F910F91FF90EF9003
:101F3000DF90CF90BF90AF900895CF93DF93EC01E7
:101F40000E94F40ECE0160E00E94C20D482F416055
:101F5000CE0160E00E94F70CCE0167E040E70E94EE
:101F6000F70CCE0161E00E94130C8D81882349F0AB
:101F7000AE014B5F5F4FCE016AE02A850E94620D81
:101F800004C0CE0160E00E94360ECE016DE10E94D9
:101F9000C20D81FF03C0CE010E94630CDF91CF917F
:101FA0000895CF93DF93EC0198818981981721F0F0
:101FB000892F61E00E943D1B99818881891721F05A
:101FC000892F61E00E943D1B0E946F09CE0160E0F5
:101FD0000E94130CCE0161E00E941C0C65E070E0D1
:101FE00080E090E00E94B31ACE0160E04CE00E94D5
:101FF000F70CCE0165E04FE00E94140DCE0162E0C7
:1020000070E00E94F60D882311F081E08A83CE01F2
:1020100060E070E00E94F60DCE010E94370CCE0108
:102020006DE140E00E94F70CCE016CE140E00E94BF
:10203000F70CCE0167E040E70E94F70CCE016CE49C
:102040000E945A0DCE010E94670CCE010E94630CC3
:10205000CE010E94F40ECE0160E00E94C20D482F16
:102060004E7FCE0160E00E94F70CDF91CF91089582
:102070001F920F920FB60F9211248F9388E10FB623
:10208000F89480936000109260000FBE8F910F90C3
:102090000FBE0F901F901895FC0166834783208721
:1020A00081E0858708950F931F938C01FC01868141
:1020B00060E00E943D1BF801868161E00E947C1B6C
:1020C000F80111861286138614861F910F910895C8
:1020D000CF92DF92EF92FF920F931F93CF93DF93F4
:1020E000EC010E94601A9B01AC0189859A85AB8541
:1020F000BC85281739074A075B0720F419861A861A
:102100001B861C868D85882371F489859A85AB850D
:10211000BC85281B390B4A0B5B0B205D37404040C8
:10212000504008F481C01D860E94601A69877A8732
:102130008B879C871C821B821A82198218828E814F
:1021400061E00E947C1B6AEF70E080E090E00E94FA
:10215000B31A8E8161E00E943D1B8E8160E00E9477
:102160007C1B64E170E080E090E00E94B31AF89478
:102170008E8161E00E947C1B88E290E00E946E1AD2
:102180008E8160E00E943D1B81E0EE2400E010E0C3
:102190000AC0F39481E090E00E946E1A8FEFF81667
:1021A00029F40AC0822FFF24C82EDD248E810E94CC
:1021B000D01B8C159D0569F38E810E94D01B282FA2
:1021C0008FEFF816C9F0043090F000FD10C08E2D8E
:1021D000869586958695FE01E80FF11D9081990FF1
:1021E000908388858F1510F491609083E3940F5F3E
:1021F0001F4F05351105B1F6789487E28E1510F062
:1022000030E013C030E04C8150E02981888190E0BB
:10221000820F911D2A81820F911D2B81820F911DAA
:1022200090704817590709F431E0832FDF91CF915F
:102230001F910F91FF90EF90DF90CF900895EF9254
:10224000FF920F931F93CF93DF93EC010E946810CE
:102250008823A9F18F818B3031F08B3080F185514B
:10226000823068F507C0688170E080E090E00E94ED
:10227000261D22C0688170E080E090E00E94261D4B
:1022800020E030E040E853E40E94DC1D7B018C013B
:10229000698170E0882777FD8095982F0E94281D1E
:1022A0009B01AC01C801B7010E94251C20E030E071
:1022B00040E251E40E948D1CE62F692F04C0E0E04B
:1022C00070E080EC6FE72E2F372F482F562FB90183
:1022D000CA01DF91CF911F910F91FF90EF90089568
:1022E000CF92DF92EF92FF920F931F93CF93DF93E2
:1022F000EC01C62E0E946810882309F450C08F811B
:102300008B3041F08B3008F44AC08551823008F0A0
:1023100046C007C06A8170E080E090E00E94261D00
:1023200029C0DA806D2D70E06F777070882777FD97
:102330008095982F0E94281D20E030E040E853E46B
:102340000E94DC1D7B018C016B8170E0882777FD8A
:102350008095982F0E94281D9B01AC01C801B701F0
:102360000E94251C20E030E040E251E40E948D1CD8
:10237000D7FC9058CC20B9F020E030E040E151E4A7
:102380000E94DC1D20E030E040EA50E40E948D1CF9
:1023900020E030E040E052E40E94251C04C060E0F0
:1023A00070E080EC9FE7DF91CF911F910F91FF903C
:1023B000EF90DF90CF900895BF92CF92DF92EF928F
:1023C000FF920F931F93CF93DF937C01EB01009754
:1023D00039F4CB0168EF71E00E94AA189C0143C058
:1023E000E881F9810190F081E02DCB0162E209954D
:1023F0006C0127C03296B080BB20B9F0818186176E
:10240000C9F7E881F9810190F081E02DCE016CE5FA
:1024100009958C01E881F9810190F081E02DCE01D0
:102420006B2D0995800F911F07C0E881F9810190FC
:10243000F081E02DCE0109950894E11CF11CC80E35
:10244000D91EF7016081662319F0EFE2F2E0D3CFE5
:10245000E881F9810190F081E02DCE0162E20995D9
:102460009601280F391FC901DF91CF911F910F915C
:10247000FF90EF90DF90CF90BF900895DC01189609
:102480002D913C91199716968D919C91179728172D
:1024900039071CF020E030E016C01496ED91FC9155
:1024A0001597E20FF31F6083C901019619969C935B
:1024B0008E9318971496ED91FC911597E80FF91FDC
:1024C000108221E030E0C901089510924603109275
:1024D000450310924803109247030895EF92FF922C
:1024E0000F931F93CF93DF937C01EB010A811B8134
:1024F000A881B981ED91FC9111970190F081E02DB7
:10250000CD016BE50995080F191F1B830A83F7019D
:10251000E280F380E114F104E9F0C7010296BE0104
:102520000E94D813F701E080F180E114F10491F0EA
:102530000A811B81A881B981ED91FC9111970190CD
:10254000F081E02DCD016CE20995080F191F1B8366
:102550000A83E3CF0A811B81A881B981ED91FC91A7
:1025600011970190F081E02DCD016DE50995080FDF
:10257000191F1B830A83DF91CF911F910F91FF9049
:10258000EF900895CF93DF93EC01E881F9810190FA
:10259000F081E02D64E070E00995FC019C0100975A
:1025A00019F429E433E004C0D183C083138212827A
:1025B000C901DF91CF91089510924A031092490307
:1025C00010924C0310924B030895EF92FF920F93D9
:1025D0001F93CF93DF937C01EB010A811B81A881BC
:1025E000B981ED91FC9111970190F081E02DCD0121
:1025F0006BE70995080F191F1B830A83F701E28017
:10260000F380E114F104C9F10A811B8168817981A9
:10261000F701828193810E94DC11080F191F1B832F
:102620000A83A881B981ED91FC9111970190F08105
:10263000E02DCD016AE30995080F191F1B830A835A
:10264000C7010496BE010E94D813F701E080F18013
:10265000E114F10491F00A811B81A881B981ED9107
:10266000FC9111970190F081E02DCD016CE209956C
:10267000080F191F1B830A83C7CF0A811B81A881FA
:10268000B981ED91FC9111970190F081E02DCD0180
:102690006DE70995080F191F1B830A83DF91CF91FE
:1026A0001F910F91FF90EF9008950F931F93CF9379
:1026B000DF938B01FC01C281D3810AC08A819B8197
:1026C000B8010E940602009729F00990D881C02D18
:1026D0002097A1F7CE01DF91CF911F910F9108951F
:1026E0000F931F93CF93DF93EC018B010E9455133F
:1026F0009C01009781F588819981892B79F1E88186
:10270000F981A081B1812D913C91CF016AE070E007
:10271000F9010995DC019C01009701F111961C92C9
:102720001E9281E090E015969C938E9314971396D9
:102730001C930E931297EA81FB81309751F0CF01E1
:102740000190F081E02D3097D1F7FC01B183A08397
:1027500002C0BB83AA832C5F3F4F02C02DE433E04D
:10276000C901DF91CF911F910F910895FC018081E4
:102770009181892B49F0822F90E007969183808385
:1027800042835383648375830895FC018081918122
:10279000892B41F086E090E09183808342835383CC
:1027A00064837583089510924E0310924D0308952B
:1027B0000F931F93CF93DF93FC01EB0120813181B5
:1027C0002230310529F4828193810E946E124AC021
:1027D0002330310529F4828193810E94E51242C0A1
:1027E0002530310549F40A811B8168817981828114
:1027F00093810E94DC1132C02630310569F40A81D0
:102800001B814281538164817581888199812AE08D
:1028100030E00E944B1822C02430310581F40A8137
:102820001B81288139818281882319F46DEF71E041
:1028300002C063E072E0C9010E94AA180FC02730ED
:10284000310584F00A811B81428153816481758145
:1028500027508881998130E00E949119080F191F33
:102860001B830A83DF91CF911F910F9108950F93DE
:102870001F93CF93DF93BC018230910510F462E087
:1028800070E0E091FF03F091000440E050E0A0E030
:10289000B0E024C08081918186179707D0F0861719
:1028A000970771F482819381109729F013969C9376
:1028B0008E9312972CC0909300048093FF0327C03F
:1028C0004115510519F08417950718F48D01AC01D5
:1028D000EF01DF01828193819C01F9013097D1F6EC
:1028E00041155105F9F0CA01861B970B84309105FB
:1028F00080F48A819B810115110521F0F8019383F1
:10290000828304C0909300048093FF03FE013296FB
:1029100045C0FE01E80FF91F6193719302979983F7
:1029200088833CC08091FD039091FE03892B41F484
:1029300080911E0290911F029093FE038093FD03ED
:1029400040912002509121024115510541F44DB7AB
:102950005EB780911C0290911D02481B590B20917B
:10296000FD033091FE0324173507B0F4CA01821B22
:10297000930B8617970780F0AB014E5F5F4F84176C
:10298000950750F0420F531F5093FE034093FD03F1
:10299000F9016193719302C0E0E0F0E0CF01DF91B3
:1029A000CF911F910F910895CF93DF939C010097D2
:1029B00009F48FC0EC0122971B821A826091FF03F9
:1029C000709100046115710581F488819981820FED
:1029D000931F2091FD033091FE032817390739F525
:1029E000D093FE03C093FD0374C0DB0140E050E0D0
:1029F000AC17BD0708F1BB83AA83FE012191319179
:102A0000E20FF31FAE17BF0779F48D919C911197D8
:102A1000280F391F2E5F3F4F3983288312968D91DF
:102A20009C9113979B838A834115510571F4D09330
:102A30000004C093FF034DC012968D919C91139793
:102A4000AD01009711F0DC01D3CFDA011396DC93CE
:102A5000CE931297FA0121913191E20FF31FCE1715
:102A6000DF0769F488819981280F391F2E5F3F4F56
:102A7000FA01318320838A819B8193838283E0E002
:102A8000F0E0DB0112968D919C911397009719F05D
:102A9000BC01FD01F6CFAB014E5F5F4FDB018D91B5
:102AA0009C91840F951F2091FD033091FE03281700
:102AB000390779F4309729F4109200041092FF033B
:102AC00002C013821282425050405093FE03409342
:102AD000FD03DF91CF910895DC015C968C915C97AA
:102AE000FD01E80FF11DE35AFF4F20815C968C91A8
:102AF0005C9790E001968F7390705C968C935C97D6
:102B00005696ED91FC91579720835096ED91FC914C
:102B100051978081806480835B969C915B975C96E3
:102B20008C915C97981739F45296ED91FC915397DC
:102B300080818F7D80830895DF92EF92FF920F93C3
:102B40001F93CF93DF93EC017A018B01D22EE8899A
:102B5000F98982E08083403081EE580780E0680781
:102B600080E07807A1F060E079E08DE390E0A801D3
:102B700097010E94761E21503040404050405695AB
:102B800047953795279580E12030380798F0E889F8
:102B9000F989108260E874E88EE190E0A80197015D
:102BA0000E94761E21503040404050405695479537
:102BB00037952795EC85FD853083EE85FF8520834D
:102BC000188EEC89FD89D082EA89FB898081806139
:102BD0008083EA89FB89808188608083EA89FB8918
:102BE000808180688083EA89FB8980818F7D8083F2
:102BF000DF91CF911F910F91FF90EF90DF9008959B
:102C0000FC01218D828D30E0205C3F4F281B310973
:102C10002F733070C9010895FC01918D828D981732
:102C200019F42FEF3FEF06C0828DE80FF11D858D5F
:102C3000282F30E0C9010895DC0159969C915997DD
:102C40005A968C915A97981719F42FEF3FEF10C0AE
:102C50005A968C915A97FD01E80FF11D958D5A9661
:102C60008C915A978F5F8F735A968C93292F30E0EF
:102C7000C9010895CF93DF93EC01888D882361F417
:102C800019C08C9185FF0AC0E889F989808185FF88
:102C900005C0CE010E946C15AA89BB898C9185FD67
:102CA00005C0E889F989808186FD04C00FB607FE5A
:102CB000E8CFF4CFDF91CF9108950F931F93CF9377
:102CC000DF93EC01062F9B8D8C8D981791F5E88989
:102CD000F989808185FF2DC0EE89FF896083E889AD
:102CE000F9898081806480831DC00FB607FC08C00D
:102CF000E889F989808185FF03C0CE010E946C15A7
:102D00008C8D181791F38B8DFE01E80FF11DE35A9E
:102D1000FF4F00831B8FEA89FB898081806280835B
:102D200081E0888F81E090E0DF91CF911F910F913A
:102D300008951B8D1F5F1F73E3CF85E297E1892BF9
:102D400051F080E090E0892B31F00E942517882314
:102D500011F00E94000008951F920F920FB60F927B
:102D600011242F938F939F93EF93FF93E09163032D
:102D7000F0916403808182FD16C0E0916903F091B7
:102D80006A03208190916C039F5F9F7380916D0314
:102D9000981771F0E0916C03F0E0ED5AFC4F258F2D
:102DA00090936C0305C0E0916903F0916A03E081A0
:102DB000FF91EF919F918F912F910F900FBE0F90E8
:102DC0001F901895109256031092550388EE93E0C9
:102DD000A0E0B0E08093570390935803A093590369
:102DE000B0935A038AE492E0909354038093530380
:102DF00085EC90E09093600380935F0384EC90E017
:102E0000909362038093610380EC90E0909364035D
:102E10008093630381EC90E0909366038093650355
:102E200082EC90E0909368038093670386EC90E0D7
:102E300090936A038093690310926C0310926D0360
:102E400010926E0310926F03089583E593E00E9441
:102E5000001620E0892B09F021E0822F08951F92AF
:102E60000F920FB60F9211242F933F934F935F93BE
:102E70006F937F938F939F93AF93BF93EF93FF9342
:102E800083E593E00E946C15FF91EF91BF91AF91A4
:102E90009F918F917F916F915F914F913F912F9172
:102EA0000F900FBE0F901F901895CF92DF92EF9268
:102EB000FF920F931F93CF93DF937C016B018A01E5
:102EC000C0E0D0E00FC0D6016D916D01D701ED914A
:102ED000FC910190F081E02DC7010995C80FD91F21
:102EE000015010400115110571F7CE01DF91CF910E
:102EF0001F910F91FF90EF90DF90CF900895EF9288
:102F0000FF920F931F938C01DC01ED91FC910190D6
:102F1000F081E02D6DE009957C01D801ED91FC91E7
:102F20000190F081E02DC8016AE009959C012E0D09
:102F30003F1DC9011F910F91FF90EF900895CF930E
:102F4000DF93EC016115710519F420E030E00FC04A
:102F5000DB010D900020E9F71197A61BB70BE88164
:102F6000F9810280F381E02DAD0109959C01C90131
:102F7000DF91CF9108954F925F927F928F929F92AF
:102F8000AF92BF92CF92DF92EF92FF920F931F9377
:102F9000DF93CF93CDB7DEB7A1970FB6F894DEBF1E
:102FA0000FBECDBF2C01742ECB01223008F42AE0D5
:102FB00019A231E2C32ED12CCC0EDD1E822E992413
:102FC000AA24BB24672D752FA50194010E94761EAB
:102FD00079018A01C801B701A50194010E94431E2D
:102FE000472D461B0894C108D1084A3014F4405DAF
:102FF00001C0495CF6014083E114F10401051105AB
:1030000021F07E2C5F2DC801DDCFC201B6010E94E8
:103010009F17A1960FB6F894DEBF0FBECDBFCF911C
:10302000DF911F910F91FF90EF90DF90CF90BF90B5
:10303000AF909F908F907F905F904F900895DC01AC
:103040002115310541F4ED91FC910190F081E02DC5
:10305000642F099508950E94BB170895CF92DF92BF
:10306000EF92FF920F931F936C017B019A0100E096
:1030700010E0B801A7010E941F188C01C6010E9430
:103080007F17080F191FC8011F910F91FF90EF9034
:10309000DF90CF900895CF92DF92EF92FF920F933F
:1030A0001F93CF93DF93EC016A017B01211531055A
:1030B00041F4E881F9810190F081E02D642F0995B8
:1030C0001FC02A303105D1F477FF17C0E881F9819C
:1030D0000190F081E02D6DE209958C014427552780
:1030E000BA014C195D096E097F09CE012AE00E94E0
:1030F000BB179801280F391F04C02AE00E94BB1794
:103100009C01C901DF91CF911F910F91FF90EF902A
:10311000DF90CF900895CF92DF92EF92FF920F93BE
:103120001F936C017B019A010027F7FC0095102F7B
:10313000B801A7010E944B188C01C6010E947F179D
:10314000080F191FC8011F910F91FF90EF90DF909A
:10315000CF9008950E949F1708957F928F929F921B
:10316000AF92BF92CF92DF92EF92FF920F931F9395
:10317000CF93DF934C017A018B01722ECB01BA0100
:10318000A80197010E943F1E882321F0C40168E036
:1031900072E021C0C0E0D0E057016801E894D7F8A0
:1031A000C601B5012FEF3FEF4FE75FE70E943F1EDB
:1031B000882351F4C601B5012FEF3FEF4FE75FE7DA
:1031C0000E94891C181614F0C1E0D0E0219739F054
:1031D000C4016CE072E00E949F17EC0193C0C8012B
:1031E000B7012FEF3FEF4FE75FE40E94D81D18169D
:1031F00054F0C801B7012FEF3FEF4FE75FEC0E949B
:10320000891C882324F4C40160E172E0E4CFC80182
:10321000B70120E030E040E050E00E94891C87FDCB
:1032200003C0C0E0D0E00EC0D401ED91FC9101904C
:10323000F081E02DC4016DE20995EC0117FB1095BA
:1032400017F9109520E030E040E05FE3DD240BC08B
:10325000CA01B90120E030E040E251E40E948D1C37
:103260009B01AC01D394D71498F3C801B7010E9415
:10327000251C5B016C010E94FA1C7B018C01C401BE
:10328000B801A7012AE030E00E941F18C80FD91F1B
:10329000772039F0C40164E172E00E949F17C80FE3
:1032A000D91FC801B7010E94261D9B01AC01C601B0
:1032B000B5010E94241C24C020E030E040E251E42B
:1032C0000E94DC1D7B018C010E94F51C5B016C01DE
:1032D000CC24B7FCC094DC2CC401B601A5012AE0C3
:1032E00030E00E944B18C80FD91FC601B5010E94DB
:1032F000281D9B01AC01C801B7010E94241C7A94CF
:103300007720D1F6CE01DF91CF911F910F91FF90E1
:10331000EF90DF90CF90BF90AF909F908F907F9075
:1033200008950E94AD180895EF92FF920F931F9396
:103330007C010E949F178C01C7010E947F17080F14
:10334000191FC8011F910F91FF90EF9008951F92D0
:103350000F920FB60F9211242F933F934F935F93C9
:103360006F937F938F939F93AF93BF93EF93FF934D
:103370008091F0039091F103892B29F0E091F00303
:10338000F091F1030995FF91EF91BF91AF919F915A
:103390008F917F916F915F914F913F912F910F90FE
:1033A0000FBE0F901F9018951F920F920FB60F929D
:1033B00011242F933F934F935F936F937F938F933A
:1033C0009F93AF93BF93EF93FF938091F2039091FC
:1033D000F303892B29F0E091F203F091F3030995AF
:1033E000FF91EF91BF91AF919F918F917F916F91DD
:1033F0005F914F913F912F910F900FBE0F901F90B3
:103400001895009729F0BC0180E090E00E94ED0142
:103410000895CF93DF930E94781A0E945708CDE950
:10342000D6E10E94A9062097E1F30E949D16F9CFEC
:103430001F920F920FB60F9211242F933F938F93E9
:103440009F93AF93BF938091F8039091F903A0915C
:10345000FA03B091FB033091FC030196A11DB11D4D
:10346000232F2D5F2D3720F02D570196A11DB11D63
:103470002093FC038093F8039093F903A093FA033D
:10348000B093FB038091F4039091F503A091F603B0
:10349000B091F7030196A11DB11D8093F4039093A1
:1034A000F503A093F603B093F703BF91AF919F91FB
:1034B0008F913F912F910F900FBE0F901F901895F5
:1034C0008FB7F8942091F8033091F9034091FA03F3
:1034D0005091FB038FBFB901CA010895019739F0DC
:1034E000880F991F880F991F02970197F1F7089588
:1034F000789484B5826084BD84B5816084BD85B5CF
:10350000826085BD85B5816085BDEEE6F0E0808195
:1035100081608083E1E8F0E01082808182608083B6
:10352000808181608083E0E8F0E080818160808339
:10353000E1EBF0E0808184608083E0EBF0E080816B
:1035400081608083EAE7F0E080818460808380810D
:1035500082608083808181608083808180688083B5
:103560001092C1000895EF92FF920F931F93CF9393
:10357000DF937B018C013FB7F8948091F403909125
:10358000F503A091F603B091F70326B5A89B05C0FB
:103590002F3F19F00196A11DB11D3FBFBA2FA92FD2
:1035A000982F8827820F911DA11DB11D52E0880F11
:1035B000991FAA1FBB1F5A95D1F7EC0130C00E947A
:1035C000231C3FB7F8948091F4039091F503A091E8
:1035D000F603B091F70326B5A89B05C02F3F19F05D
:1035E0000196A11DB11D3FBFBA2FA92F982F882783
:1035F000820F911DA11DB11D32E0880F991FAA1FD6
:10360000BB1F3A95D1F78C1B9D0B885E9340B8F297
:103610000894E108F10801091109C851DC4FE114CF
:10362000F1040105110559F6DF91CF911F910F911A
:10363000FF90EF900895982F8E3008F09E5097706D
:10364000809122028295880F880F807C892B80933D
:103650007C0080917A00806480937A0080917A0067
:1036600086FDFCCF2091780040917900942F80E076
:1036700030E0282B392BC9010895CF93DF93482FD1
:1036800050E0CA018D559D4FFC01349141575D4F6B
:10369000FA018491882369F190E0880F991FFC0159
:1036A000EF58FD4FA591B491FC01E558FD4FC59130
:1036B000D491662351F42FB7F8948C91932F909561
:1036C00089238C93888189230BC0623061F42FB7E2
:1036D000F8948C91932F909589238C938881832BD8
:1036E00088832FBF06C09FB7F8948C91832B8C934F
:1036F0009FBFDF91CF910895482F50E0CA018954B0
:103700009D4FFC012491CA018D559D4FFC01949160
:1037100041575D4FFA013491332309F440C022230D
:1037200051F1233071F0243028F42130A1F02230FF
:1037300011F514C02630B1F02730C1F02430D9F48F
:1037400004C0809180008F7703C0809180008F7DBE
:103750008093800010C084B58F7702C084B58F7DC0
:1037600084BD09C08091B0008F7703C08091B00004
:103770008F7D8093B000E32FF0E0EE0FFF1FE55840
:10378000FD4FA591B4912FB7F894662321F48C9145
:103790009095892302C08C91892B8C932FBF08951B
:1037A000682F70E0CB0189549D4FFC012491CB011F
:1037B0008D559D4FFC01449161577D4FFB019491C4
:1037C000992319F420E030E03CC0222351F123304A
:1037D00071F0243028F42130A1F0223011F514C00A
:1037E0002630B1F02730C1F02430D9F404C08091E4
:1037F00080008F7703C0809180008F7D8093800050
:1038000010C084B58F7702C084B58F7D84BD09C098
:103810008091B0008F7703C08091B0008F7D80933E
:10382000B000892F90E0880F991F8B579D4FFC01A6
:10383000A591B4918C9120E030E0842311F021E037
:1038400030E0C901089508955058BB27AA270ED02B
:1038500075C166D130F06BD120F031F49F3F11F487
:103860001EF45BC10EF4E095E7FB51C1E92F77D15F
:1038700080F3BA17620773078407950718F071F48D
:103880009EF58FC10EF4E0950B2EBA2FA02D0B01E3
:10389000B90190010C01CA01A0011124FF27591B95
:1038A00099F0593F50F4503E68F11A16F040A22F9B
:1038B000232F342F4427585FF3CF4695379527950C
:1038C000A795F0405395C9F77EF41F16BA0B620B0B
:1038D000730B840BBAF09150A1F0FF0FBB1F661F52
:1038E000771F881FC2F70EC0BA0F621F731F841F95
:1038F00048F4879577956795B795F7959E3F08F0BB
:10390000B3CF9395880F08F09927EE0F9795879579
:103910000895D9D008F481E008950CD00FC107D1E3
:1039200040F0FED030F021F45F3F19F0F0C05111AB
:1039300039C1F3C014D198F39923C9F35523B1F3D6
:10394000951B550BBB27AA2762177307840738F00E
:103950009F5F5F4F220F331F441FAA1FA9F333D06D
:103960000E2E3AF0E0E830D091505040E695001C21
:10397000CAF729D0FE2F27D0660F771F881FBB1FDD
:10398000261737074807AB07B0E809F0BB0B802DB7
:10399000BF01FF2793585F4F2AF09E3F510568F003
:1039A000B6C000C15F3FECF3983EDCF38695779597
:1039B0006795B795F7959F5FC9F7880F911D969505
:1039C000879597F90895E1E0660F771F881FBB1F61
:1039D000621773078407BA0720F0621B730B840B0E
:1039E000BA0BEE1F88F7E095089504D06894B111E2
:1039F000D9C00895BCD088F09F5790F0B92F99276F
:103A0000B751A0F0D1F0660F771F881F991F1AF0E9
:103A1000BA95C9F712C0B13081F0C3D0B1E00895B2
:103A2000C0C0672F782F8827B85F39F0B93FCCF333
:103A3000869577956795B395D9F73EF490958095DF
:103A4000709561957F4F8F4F9F4F0895E89409C0FF
:103A500097FB3EF490958095709561957F4F8F4FC1
:103A60009F4F9923A9F0F92F96E9BB279395F695D7
:103A7000879577956795B795F111F8CFFAF4BB0F55
:103A800011F460FF1BC06F5F7F4F8F4F9F4F16C0B9
:103A9000882311F096E911C0772321F09EE8872F43
:103AA000762F05C0662371F096E8862F70E060E0FF
:103AB0002AF09A95660F771F881FDAF7880F969578
:103AC000879597F90895990F0008550FAA0BE0E81C
:103AD000FEEF16161706E807F907C0F012161306D0
:103AE000E407F50798F0621B730B840B950B39F410
:103AF0000A2661F0232B242B252B21F408950A2676
:103B000009F4A140A6958FEF811D811D089597F9B5
:103B10009F6780E870E060E008959FEF80EC089573
:103B200000240A941616170618060906089500249C
:103B30000A9412161306140605060895092E039416
:103B4000000C11F4882352F0BB0F40F4BF2B11F48A
:103B500060FF04C06F5F7F4F8F4F9F4F089557FDE9
:103B60009058440F551F59F05F3F71F04795880FEB
:103B700097FB991F61F09F3F79F087950895121682
:103B800013061406551FF2CF4695F1DF08C016162E
:103B900017061806991FF1CF8695710561050894DF
:103BA0000895E894BB2766277727CB0197F90895F6
:103BB0008ADF08F48FEF08950BD0C0CFB1DF28F073
:103BC000B6DF18F0952309F0A2CFA7CF1124EACFD2
:103BD000C6DFA0F3959FD1F3950F50E0551F629F6C
:103BE000F001729FBB27F00DB11D639FAA27F00D56
:103BF000B11DAA1F649F6627B00DA11D661F829F7D
:103C00002227B00DA11D621F739FB00DA11D621F61
:103C1000839FA00D611D221F749F3327A00D611D7E
:103C2000231F849F600D211D822F762F6A2F112460
:103C30009F5750408AF0E1F088234AF0EE0FFF1FB3
:103C4000BB1F661F771F881F91505040A9F79E3FEA
:103C5000510570F05CCFA6CF5F3FECF3983EDCF3EC
:103C6000869577956795B795F795E7959F5FC1F727
:103C7000FE2B880F911D9695879597F9089523DF60
:103C8000880B990B0895629FD001739FF001829F6A
:103C9000E00DF11D649FE00DF11D929FF00D839FDB
:103CA000F00D749FF00D659FF00D9927729FB00D78
:103CB000E11DF91F639FB00DE11DF91FBD01CF018B
:103CC00011240895AA1BBB1B51E107C0AA1FBB1FEB
:103CD000A617B70710F0A61BB70B881F991F5A9598
:103CE000A9F780959095BC01CD010895A1E21A2E07
:103CF000AA1BBB1BFD010DC0AA1FBB1FEE1FFF1F90
:103D0000A217B307E407F50720F0A21BB30BE40BDF
:103D1000F50B661F771F881F991F1A9469F7609526
:103D20007095809590959B01AC01BD01CF010895E0
:103D300097FB092E05260ED057FD04D0D7DF0AD0F9
:103D4000001C38F450954095309521953F4F4F4FCA
:103D50005F4F0895F6F790958095709561957F4F28
:103D60008F4F9F4F0895EE0FFF1F0590F491E02DA8
:103D700009942F923F924F925F926F927F928F920F
:103D80009F92AF92BF92CF92DF92EF92FF920F93EA
:103D90001F93CF93DF93CDB7DEB7CA1BDB0B0FB6F4
:103DA000F894DEBF0FBECDBF09942A8839884888B1
:103DB0005F846E847D848C849B84AA84B984C88447
:103DC000DF80EE80FD800C811B81AA81B981CE0F3E
:103DD000D11D0FB6F894DEBF0FBECDBFED01089523
:043DE000F894FFCF85
:103DE40025642E25640025642E302564000A54724F
:103DF400616E736D697474696E672E2E2E0053653F
:103E04006E64696E67207061636B65742E2E2E007C
:103E14006275666C656E3D005772697465206275E3
:103E240066666572206661696C65640052656164EA
:103E3400696E67204448542E2E2E0048756D6964BF
:103E44006974793A20002025090054656D70657203
:103E540061747572653A2000202A432000202A46A6
:103E6400090049443A25643A54533A256C753A4555
:103E7400523A4552524F5200004661696C656420C3
:103E8400746F20726561642066726F6D20444854BB
:103E940000696400706972006275666665723D004F
:103EA4002E2E2E0074660072680053746172746959
:103EB4006E672E2E2E005374617274696E672072C1
:103EC4006164696F2E2E2E00456E64696E672073DF
:103ED400657475702E2E2E006E756C6C0066616CA8
:103EE40073650074727565006E616E00696E6600BC
:103EF4006F7666002E0001000000010080000704B8
:103F0400000001000000003E053C5A6996A5C3224A
:103F1400225C5C6208660C6E0A720D740900000073
:103F240000003E125517000000005D1655170016DC
:063F34001C160C163A16E3
:00000001FF
