:100000000C9448010C9437180C9464180C947001EB
:100010000C9470010C9470010C94C80E0C94700137
:100020000C9470010C9470010C9470010C9470018C
:100030000C9470010C9470010C9470010C9470017C
:100040000C94A8180C9470010C943C150C94BF15DA
:100050000C9470010C9470010C9470010C9470015C
:100060000C9470010C9470010001020304050A0B4A
:100070000C0D0E0F111213141516CF01D501DB0153
:10008000E301EC01F601FF0106020E0215021C025B
:100090002402504120506F77657209203D2025537E
:1000A0000D0A00435243204C656E67746809203D79
:1000B0002025530D0A004D6F64656C0909203D2011
:1000C00025530D0A00446174612052617465092052
:1000D0003D2025530D0A0044594E50442F464541BA
:1000E0005455524500434F4E4649470052465F53D0
:1000F000455455500052465F434800454E5F5258A4
:100100004144445200454E5F41410052585F5057B0
:100110005F50302D360054585F41444452005258CD
:100120005F414444525F50322D350052585F414484
:1001300044525F50302D31000D0A002530327800D6
:10014000203078002553092563203D000D0A00204A
:10015000307825303278002553092563203D004F43
:100160004253455256455F54583D253032783A2027
:10017000504F4C535F434E543D2578204152435FCE
:10018000434E543D25780D0A0053544154555309AC
:1001900009203D203078253032782052585F445273
:1001A0003D25782054585F44533D2578204D4158D3
:1001B0005F52543D25782052585F505F4E4F3D2589
:1001C000782054585F46554C4C3D25780D0A003137
:1001D0004D42505300324D425053003235304B4265
:1001E0005053006E524632344C3031006E5246321B
:1001F000344C30312B0044697361626C65640038A3
:100200002062697473003136206269747300504152
:100210005F4D494E0050415F4C4F570050415F4881
:100220004947480050415F4D4158000000000024FC
:100230000027002A0000000000250028002B0000F5
:100240000000002300260029000404040404040420
:100250000402020202020203030303030301020475
:100260000810204080010204081020010204081038
:100270002000000007000201000003040600000047
:100280000000000000003B05F5106C1163127215B0
:1002900011241FBECFEFD8E0DEBFCDBF12E0A0E03B
:1002A000B1E0ECEDFAE302C005900D92AA36B10779
:1002B000D9F713E0AAE6B2E001C01D92AB34B10752
:1002C000E1F712E0C0E9D2E004C02297FE010E94EB
:1002D000311DC638D107C9F70E9499180C946C1DBE
:1002E0000C940000A0E0B0E0E8E7F1E00C943D1DC4
:1002F000EC01A880B980CA80DB80A114B104C104DC
:10030000D10441F484E2A82E89EDB82E8BE5C82EE5
:1003100087E0D82EC601B5012DE133EF41E050E072
:100320000E94141D27EA31E440E050E00E94D31CF3
:100330007B018C01C601B5012DE133EF41E050E0B6
:100340000E94141DCA01B9012CEE34EF4FEF5FEF8C
:100350000E94D31C6E0D7F1D801F911F97FF04C04C
:100360006150704080409048688379838A839B8382
:100370009B01AC015F77B901CA01CDB7DEB7EAE0F6
:100380000C94591D0E947201089582E392E00E942C
:1003900072010895609332027093330280933402A5
:1003A000909335020895FC0105900020E9F78095AF
:1003B00090958E0F9F1F0895FB01DC0102C00190F4
:1003C0000D9241505040D8F70895DC0101C06D9363
:1003D00041505040E0F70895FB01DC018D91019000
:1003E00080190110D9F3990B08950F931F93CF93A0
:1003F000DF938C01EB01009731F46115710519F45D
:1004000020E030E038C081E090E06EE070E00E94D3
:100410006804FC019C01009771F180E883832097B8
:1004200071F0D387C28781E88383809145039091DF
:100430004603892B21F4F0934603E093450301150D
:100440001105C9F0118700878381826083838091C1
:10045000470390914803892B71F4F0934803E0938C
:1004600047038091490390914A03892B21F4F0932B
:100470004A03E0934903C901DF91CF911F910F9186
:100480000895A0E0B0E0E7E4F2E00C94451DFE0121
:10049000359661917191A0914703B09148031396ED
:1004A0008C911397886013968C9380914703909159
:1004B0004803AF010E948B02E0914703F09148038B
:1004C0002381277F23832096E2E00C94611DAEE018
:1004D000B0E0EDE6F2E00C94431D0D891E8986E044
:1004E0008C831A8309838FEF9FE79E838D839E0100
:1004F000275E3F4FCE0101966F89788DA9010E943A
:100500008B022F813885020F131FF80110822E965F
:10051000E4E00C945F1DABE0B0E0E1E9F2E00C94A4
:10052000351D3C012B015A01FC0117821682838183
:1005300081FD03C06FEF7FEFC6C19AE0892E1E01D7
:100540000894211C311CF3012381F20123FD8591C4
:1005500023FF81912F01882309F4B2C1853239F438
:1005600023FD859123FF81912F01853229F490E0AD
:10057000B3010E949A04E7CF982FFF24EE24992418
:10058000FFE1FF15D0F09B3269F09C3228F49032E5
:1005900059F0933291F40EC09D3249F0903369F4D2
:1005A00041E024C052E0F52A84E0F82A28C098E00F
:1005B000F92A25C0E0E1FE2A22C0F7FC29C0892FD4
:1005C00080538A3070F4F6FE05C0989C902C11245C
:1005D000980E15C0E89CE02C1124E80EF0E2FF2AEA
:1005E0000EC09E3229F4F6FC6BC140E4F42A07C029
:1005F0009C3619F450E8F52A02C0983649F4F20105
:1006000023FD959123FF91912F01992309F0B8CFF4
:10061000892F8554833018F08052833038F444E0B9
:1006200050E0A40EB51E5FE359830FC0933631F03E
:10063000933779F0933509F056C020C0F5018081D9
:10064000898342E050E0A40EB51E610101E010E094
:1006500012C0F501C080D180F6FC03C06FEF7FEFC0
:1006600002C0692D70E042E050E0A40EB51EC60144
:100670000E948F048C015FE7F52214C0F501C08051
:10068000D180F6FC03C06FEF7FEF02C0692D70E0F0
:1006900042E050E0A40EB51EC6010E9484048C0105
:1006A00050E8F52AF3FE07C01AC080E290E0B301DB
:1006B0000E949A04EA948E2D90E008171907A8F377
:1006C0000EC0F601F7FC8591F7FE81916F0190E075
:1006D000B3010E949A04E110EA9401501040011500
:1006E000110579F7EAC0943611F0993669F5F7FEED
:1006F00008C0F501208131814281538184E090E07E
:100700000AC0F501808191819C01442737FD409505
:10071000542F82E090E0A80EB91E9FE6F92257FF01
:1007200009C050954095309521953F4F4F4F5F4FF1
:10073000E0E8FE2ACA01B901A1012AE030E00E94E6
:10074000C604D82ED21840C0953729F41F2D1F7E1D
:100750002AE030E01DC01F2D197F9F3661F09037D1
:1007600020F4983509F0ACC00FC0903739F09837B5
:1007700009F0A6C004C028E030E00AC0106114FDF2
:10078000146020E130E004C014FD166020E132E086
:1007900017FF08C0F501608171818281938144E077
:1007A00050E008C0F50180819181BC0180E090E0BB
:1007B00042E050E0A40EB51EA1010E94C604D82E4E
:1007C000D2188FE7F82EF122F6FE0BC05EEFF5226D
:1007D000D91438F4F4FE07C0F2FC05C08FEEF822FD
:1007E00002C01D2D01C0192DF4FE0DC0FE01ED0D3E
:1007F000F11D8081803319F499EEF92208C01F5F42
:10080000F2FE05C003C08F2D867809F01F5F0F2D03
:10081000F3FC14C0F0FE0FC01E1510F09D2C0BC091
:100820009D2C9E0C911A1E2D06C080E290E0B30113
:100830000E949A041F5F1E15C0F304C01E1510F419
:10084000E11A01C0EE2404FF0FC080E390E0B30181
:100850000E949A0402FF1DC001FD03C088E790E0DA
:100860000EC088E590E00BC0802F867891F001FFE4
:1008700002C08BE201C080E2F7FC8DE290E0B301A0
:100880000E949A0406C080E390E0B3010E949A049B
:100890009A94D914C0F3DA94F101ED0DF11D808121
:1008A00090E0B3010E949A04DD20A9F706C080E21F
:1008B00090E0B3010E949A04EA94EE20C1F743CE7F
:1008C000F30166817781CB012B96E2E10C94511DF7
:1008D0000F931F93CF93DF93689F8001699F100D43
:1008E000789F100D1124C8010E94C712EC010097D7
:1008F00029F060E070E0A8010E94E501CE01DF91DF
:10090000CF911F910F910895FC01059061507040A7
:100910000110D8F7809590958E0F9F1F0895FC01C8
:100920006150704001900110D8F7809590958E0F1E
:100930009F1F08950F931F93CF93DF938C01EB01BB
:100940008B8181FF1BC082FF0DC02E813F818C8176
:100950009D812817390764F4E881F9810193F983AF
:10096000E88306C0E885F985802F0995892B31F445
:100970008E819F8101969F838E8302C00FEF1FEFB0
:10098000C801DF91CF911F910F910895FA01AA2715
:10099000283051F1203181F1E8946F936E7F6E5FC2
:1009A0007F4F8F4F9F4FAF4FB1E03ED0B4E03CD070
:1009B000670F781F891F9A1FA11D680F791F8A1F53
:1009C000911DA11D6A0F711D811D911DA11D20D0BA
:1009D00009F468943F912AE0269F11243019305D74
:1009E0003193DEF6CF010895462F4770405D419365
:1009F000B3E00FD0C9F7F6CF462F4F70405D4A33B2
:100A000018F0495D31FD4052419302D0A9F7EACF79
:100A1000B4E0A6959795879577956795BA95C9F7A8
:100A200000976105710508959B01AC010A2E06949B
:100A30005795479537952795BA95C9F7620F731F54
:100A4000841F951FA01D0895AC01FC01E653FF4FC4
:100A500080819181680F791F693C710518F020E051
:100A600030E007C0718360839C012E5F3F4F240FED
:100A7000351FC90108958AE692E069E04AE00E94C4
:100A8000DC088AE792E062E046E126E00E94DC0EA4
:100A90000895AF92BF92CF92DF92EF92FF920F93A1
:100AA0001F93CF93DF93EC017A018B01CB01BA0145
:100AB0000E94851B5B016C01B501882777FD80953D
:100AC000982F0E94B81B9B01AC01C801B7010E947E
:100AD000B41A20E030E048EC52E40E946C1C0E9402
:100AE000851B9B01AC016B307105A4F08DB79EB7DF
:100AF00008970FB6F8949EBF0FBE8DBFEDB7FEB737
:100B00003196ADB7BEB71296DC93CE93119780E0C5
:100B100091E011C0ADB7BEB718970FB6F894BEBF3D
:100B20000FBEADBFEDB7FEB731961296DC93CE93F4
:100B3000119786E091E093838283B582A482378304
:100B400026830E9467028DB79EB708960FB6F89469
:100B50009EBF0FBE8DBF81E090E0DF91CF911F91CE
:100B60000F91FF90EF90DF90CF90BF90AF900895DE
:100B70005F926F927F928F929F92AF92BF92CF922D
:100B8000DF92EF92FF920F931F93DF93CF93CDB736
:100B9000DEB7CE5ED1400FB6F894DEBF0FBECDBF3C
:100BA0000E94F01884E00E94601A582E87E992E0B3
:100BB0006DE071E00E9424188AE792E00E94AF0F76
:100BC0005B016C018AE792E060E00E9400107B010B
:100BD0008C018AE792E061E00E9400103B014C0129
:100BE000CE010596B401A3010E944905CE010B96E2
:100BF000B601A5010E94490587E992E06CE171E028
:100C00000E943A1787E992E0B601A50122E030E0A0
:100C10000E94211887E992E067E271E00E943A178A
:100C200087E992E06BE271E00E943A1787E992E06F
:100C3000B801A70122E030E00E94211887E992E084
:100C400069E371E00E943A1787E992E0B401A301D9
:100C500022E030E00E94211887E992E06EE371E023
:100C60000E942418C801B701A80197010E94CF1C57
:100C7000882349F4C601B501A60195010E94CF1C45
:100C8000882309F4C8C00E94F0182DB73EB72A5037
:100C900030400FB6F8943EBF0FBE2DBFEDB7FEB784
:100CA00031968E01055E1F4FADB7BEB712961C93ED
:100CB0000E93119723E431E03383228322E030E066
:100CC0003583248366837783808791870E946702B8
:100CD000EDB7FEB73A960FB6F894FEBF0FBEEDBF64
:100CE00087E992E06AE571E00E94241887E992E0C2
:100CF000B8010E9424188E01055A1F4FD8010D908B
:100D00000020E9F76D010894C108D108C01AD10A82
:100D100087E992E062E771E00E943A17F8010190DA
:100D20000020E9F73197E01BF10B87E992E0BF0162
:100D30004AE050E00E94BE168AE692E00E94F70B5D
:100D400087E992E0B8010E942418EE24FF2458019C
:100D50002DC087E992E063E871E00E943A178601AE
:100D60000E191F090132110514F000E210E087E9A5
:100D700092E0B8014AE050E00E941B178AE692E038
:100D8000602F0E94E608B5016E0D7F1D8AE692E095
:100D9000402F0E94270A882329F487E992E065E919
:100DA00071E01CC0E0E2F0E0EE0EFF1EEC14FD046A
:100DB00084F287E992E069EA71E00E9424181BAE90
:100DC0008AE692E0BE01655C7F4F41E00E94270AFF
:100DD000882331F487E992E06CEB71E00E942418DB
:100DE00080E395E70E944808C251DE4F0FB6F894A1
:100DF000DEBF0FBECDBFCF91DF911F910F91FF904E
:100E0000EF90DF90CF90BF90AF909F908F907F90AA
:100E10006F905F900895DE01AD5DBE4F81E492E07A
:100E200011969C938E93FE01E351FE4F1182108226
:100E3000CD010E9452117C0164ED71E00E9400120C
:100E400042E050E060E070E00E945512C70167ED9B
:100E500071E00E940012B401A30122E00E94461238
:100E6000C7016CED71E00E9400128C010E94F01825
:100E7000AB01BC01C8010E945512C7016FED71E0C2
:100E80000E940012B601A50122E00E944612C7018D
:100E900062EE71E00E940012452D50E060E070E0CB
:100EA0000E9455121C8A1B8A86E592E09A8B898BD8
:100EB000FE01E55AFF4FFE8BED8B87EC90E0988F9B
:100EC0008F8B1A8E198E1082CE0141969A83898358
:100ED0001C821B82C701BE016F5F7F4F0E9475118C
:100EE00087E992E00E940F1606CF85E098E060E067
:100EF00070E00E94F5010895AF92BF92CF92DF9209
:100F0000EF92FF920F931F9357E9A52E52E0B52E53
:100F1000C50140E855E260E070E026E00E942C1434
:100F20000E9475078DE061E00E94CD1984E060E0C9
:100F30000E94CD19C50166EE71E00E9424188DE073
:100F400061E00E940C1A68EE73E080E090E00E947D
:100F500043198DE060E00E940C1A8EE00E94AB19EC
:100F60000E9491188AE792E00E94E30EC50162EFA9
:100F700071E00E9424184AE6C42E42E0D42EC60135
:100F80000E94C90CC6010E94260BC60165E04FE015
:100F90000E94FC09C60102EC12EC22EC32EC42EC9D
:100FA00050E060E070E00E94590AC60161E031E75C
:100FB000E32E2DECF22E0BEA1DEC2BEA30E040E0A4
:100FC00050E00E94600BC6010E942F0CC6010E94D7
:100FD000130E8DE061E00E940C1A68E873E180E076
:100FE00090E00E9443198DE060E00E940C1AC50158
:100FF00064E072E00E9424181F910F91FF90EF901F
:10100000DF90CF90BF90AF9008950F931F93082F5C
:10101000112707FD109587E992E0602F0E94ED14DB
:10102000C8011F910F910895982F83FF02C088E295
:10103000982797FF02C090E001C0906484B7877F33
:1010400084BFF894809160008861809360009093E1
:10105000600078940895EAE7F0E0908180818F77CE
:10106000808383B7817F846083BFF89483B7816076
:1010700083BF85B7806685BF85B78F79806485BF5C
:101080007894889583B78E7F83BF90937A00089574
:10109000CF92DF92EF92FF921F93CF93DF937C0169
:1010A000EC0158E0C52ED12C20C01F5F193029F06B
:1010B0009695879580329105C0F710928802812F0E
:1010C0000E9414080E942B088FEF0E9414089601BA
:1010D00002C0220F331F1A95E2F7C21BD30B809177
:1010E0008802882351F0C21BD30BC031D10510F404
:1010F00061E004C0CE0110E0DDCF60E020913C0350
:1011000030913D0340913E0350913F03EC1AFD0A9C
:10111000C701A0E0B0E0820F931FA41FB51F80930A
:101120003C0390933D03A0933E03B0933F03862F6F
:10113000DF91CF911F91FF90EF90DF90CF900895B6
:101140008EBD0DB407FEFDCF8EB50895882319F42A
:101150008CB5806202C08CB58F7D8CBD08959CB526
:10116000937F982B9CBD08952CB5382F33702C7F1E
:10117000322B3CBD2DB590E095958795959587953B
:1011800081702E7F822B8DBD08958AE061E00E94E0
:101190000C1A8AE061E00E94CD198CB580618CBD8B
:1011A0008CB580648CBD8DE061E00E94CD198BE030
:1011B00061E00E94CD190895FC0160834183128291
:1011C00080E28383148285E082870895FC01613286
:1011D00008F060E26383089570E08DB79EB70E97C4
:1011E0000FB6F8949EBF0FBE8DBFEDB7FEB7319618
:1011F00089E891E0ADB7BEB712969C938E93119794
:1012000073836283CB0156E0969587955A95E1F7F3
:101210008170907095838483CB0145E09695879586
:101220004A95E1F78170907097838683CB0134E013
:10123000969587953A95E1F78170907091878087B0
:10124000CB019595879587709070938782876170A1
:101250007070758764870E9441028DB79EB70E96A5
:101260000FB6F8949EBF0FBE8DBF0895FC0190810C
:101270008181981719F0892F0E940C1A0895FF9206
:101280000F931F938C01F62E81E00E94A60880E048
:101290000E94AF0884E00E94B408F80181816F2D9C
:1012A0000E940C1A85E090E00E94FE181F910F9199
:1012B000FF9008950F931F938C0160E00E943F09F7
:1012C00080E50E94A00883E70E94A008C80161E0B1
:1012D0000E943F091F910F910895FF920F931F9352
:1012E0008C01F62E60E00E943F098F2D0E94A0081D
:1012F000F82EC80161E00E943F098F2D1F910F91C8
:10130000FF9008956FEF0E946D09089561EE0E94AD
:101310006D09089562EE0E946D090895DF92EF92C3
:10132000FF920F931F93CF93DF93EC01D22E9B81FB
:10133000142F941708F4192F8C81882311F000E0E2
:1013400002C0092F011B7B01CE0160E00E943F0912
:101350008D2D0E94A008D82E06C0F70181917F0133
:101360000E94A00811501123C1F704C080E00E9420
:10137000A00801500023D1F7CE0161E00E943F098F
:101380008D2DDF91CF911F910F91FF90EF90DF9006
:1013900008950F93CF93DF93EC01222311F420EAF9
:1013A00001C020EBCE010E948E09002321F0CE0166
:1013B00061E00E943609DF91CF910F910895EF927D
:1013C000FF920F931F937C01162F042F60E00E9461
:1013D0003F091F71812F80620E94A008182F802F63
:1013E0000E94A008C70161E00E943F09812F1F9160
:1013F0000F91FF90EF900895262F4F702295207F38
:10140000242B64E0422F0E94DF0908950F93CF93AD
:10141000DF93EC0101E00E94C909CE010E9482091C
:101420008073D9F3CE0160E00E943609CE0167E0F7
:1014300040E70E94DF0984FD02C081E004C0CE01C4
:101440000E94860980E0DF91CF910F91089520E0FE
:101450000E94060A0895462F603808F04FE765E0BD
:101460000E94DF090895EF92FF920F931F93CF938D
:10147000DF937C01162FEA01022F60E00E943F09F2
:101480001F71812F80620E94A008182F04C08991CB
:101490000E94A00801500023D1F7C70161E00E941B
:1014A0003F09812FDF91CF911F910F91FF90EF9016
:1014B0000895EF92FF920F931F93DF93CF93CDB7D1
:1014C000DEB728970FB6F894DEBF0FBECDBF7C0104
:1014D00009831A832B833C834D835E836F837887D4
:1014E0008E010F5F1F4F6AE0A801F70122850E945D
:1014F000330AC70160E1A801F70122850E94330A7F
:10150000C70161E1F70143810E94DF0928960FB608
:10151000F894DEBF0FBECDBFCF91DF911F910F9129
:10152000FF90EF900895FF920F931F938C01F62E7A
:1015300060E00E943F098F2D8F710E94A0088FEFFD
:101540000E94A008F82EC80161E00E943F098F2D7B
:101550001F910F91FF900895EF92FF921F937C01CE
:1015600060E00E94930A182FC70161E00E94930A6D
:101570001C7013FD05C0882319F420E030E007C07B
:1015800012FD03C021E030E002C022E030E0C901DA
:101590001F91FF90EF90089566E00E94930A887271
:1015A000803219F422E030E006C020E030E08830DC
:1015B00011F421E030E0C9010895FF920F931F93C9
:1015C000CF93DF93EC018B0166E00E94930AF7ED65
:1015D000FF2EF82285E590E0A0E0B0E08B879C87A5
:1015E000AD87BE870230110539F480E2F82A8BE915
:1015F00090E0A0E0B0E009C00130110551F488E0AE
:10160000F82A81E490E0A0E0B0E08B879C87AD876A
:10161000BE87CE0166E04F2D0E94DF09CE0166E055
:101620000E94930A90E08F1509F491E0892FDF91D1
:10163000CF911F910F91FF90089566E00E94930A49
:1016400090E0867090709595879508950F931F93FD
:101650008C016DE10E94930A482F4460C8016DE13E
:101660000E94DF09C8016CE10E94930A482F4F6372
:10167000C8016CE10E94DF0981E0F80184831F91B9
:101680000F910895FF920F931F938C01F62E62E045
:101690000E94930AE8E6F0E0EF0DF11DE49141E0CD
:1016A00050E002C0440F551FEA95E2F740954823E9
:1016B000C80162E00E94DF091F910F91FF90089519
:1016C000BF92CF92DF92EF92FF920F931F93DF931F
:1016D000CF93CDB7DEB728970FB6F894DEBF0FBE15
:1016E000CDBF6C01B62EE982FA820B831C832D8359
:1016F0003E834F835887662369F49C012B5F3F4FDD
:10170000FC014285C901BE016F5F7F4F50E00E941E
:10171000DC0107C0F6E0F61708F43EC081E0681768
:1017200069F4EB2DF0E0E259FF4FE491C6016E2F12
:10173000AE014F5F5F4FF60122850BC0E62FF0E050
:10174000E259FF4FE491C6016E2FAE014F5F5F4F2C
:1017500021E00E94330A0B2D10E0F801EC58FF4FF6
:10176000E491C6016E2FF60143810E94DF09C60194
:1017700062E00E94930A08591F4FF801649121E02A
:1017800030E002C0220F331F6A95E2F7482F422B48
:10179000C60162E00E94DF0928960FB6F894DEBF0A
:1017A0000FBECDBFCF91DF911F910F91FF90EF90B2
:1017B000DF90CF90BF900895CF93DF93EC0160E06E
:1017C0000E94930A81FD10C0CE0160E00E94930A3E
:1017D000482F4260CE0160E00E94DF0965E070E0C2
:1017E00080E090E00E944319DF91CF910895CF935C
:1017F000DF93EC0160E00E9436098B859C850E9496
:10180000FE18CE016DE10E94930A81FF07C08B850F
:101810009C850E94FE18CE010E948609CE0160E0E0
:101820000E94930A482F4E7FCE0160E00E94DF099C
:10183000CE0162E00E94930AE8E6F0E0E49121E044
:1018400030E002C0220F331FEA95E2F7482F422B07
:10185000CE0162E00E94DF09DF91CF910895CF931E
:10186000DF93EC010E94DC0BCE0160E00E94930A42
:10187000482F4160CE0160E00E94DF09CE0167E0A1
:1018800040E70E94DF09CE0161E00E9436098D81A8
:10189000882349F0AE014B5F5F4FCE016AE02A8595
:1018A0000E94330A04C0CE0160E00E94420BCE01C8
:1018B0006DE10E94930A81FF03C0CE010E94860958
:1018C000DF91CF910895CF92DF92FF920F931F93F4
:1018D000CF93DF936C01EB01042FF22ECB010E941A
:1018E000D301089710F027E001C029E000D000D014
:1018F00000D0EDB7FEB7319687E591E0ADB7BEB742
:1019000012969C938E931197D383C283822F99272B
:1019100087FD9095958384830E944102EDB7FEB7C1
:1019200036960FB6F894FEBF0FBEEDBFCFE4D1E000
:101930001BC0102F1F5FC601602F0E94930A00D0AA
:1019400000D0EDB7FEB73196ADB7BEB71296DC93B7
:10195000CE931197828313820E944102FA94012F41
:101960000F900F900F900F90FF2019F700D08CE48C
:1019700091E0EDB7FEB7928381830E9441020F9000
:101980000F90DF91CF911F910F91FF90DF90CF903B
:101990000895CF93DF93EC0198818981981721F006
:1019A000892F61E00E94CD1999818881891721F0E2
:1019B000892F61E00E94CD190E94C508CE0160E028
:1019C0000E943609CE0161E00E943F0965E070E0A7
:1019D00080E090E00E944319CE0160E04CE00E945C
:1019E000DF09CE0165E04FE00E94FC09CE0162E014
:1019F00070E00E94DD0A882311F081E08A83CE0125
:101A000060E070E00E94DD0ACE010E945A09CE011A
:101A10006DE140E00E94DF09CE016CE140E00E94F0
:101A2000DF09CE0167E040E70E94DF09CE016CE4E8
:101A30000E942B0ACE010E948A09CE010E948609CB
:101A4000CE010E94DC0BCE0160E00E94930A482F79
:101A50004E7FCE0160E00E94DF09DF91CF910895B3
:101A6000EF92FF920F931F93CF93DF937C01162F7A
:101A7000EA01022F60E00E943F09812F8F710E94CE
:101A8000A008182F05C08FEF0E94A008899301506D
:101A90000023C9F7C70161E00E943F09812FDF9150
:101AA000CF911F910F91FF90EF9008952F923F9249
:101AB0004F925F926F927F928F929F92AF92BF925E
:101AC000CF92DF92EF92FF920F931F93DF93CF930A
:101AD000CDB7DEB75C018B01C42ED22E6DB67EB6BB
:101AE000CB010E94D301089710F027E001C029E044
:101AF00000D000D000D0EDB7FEB7319684E491E07D
:101B0000ADB7BEB712969C938E9311971383028341
:101B1000822F992787FD9095958384830E944102A7
:101B2000EDB7FEB736960FB6F894FEBF0FBEEDBF09
:101B300040E4242E41E0342E3BE3432E31E0532E8B
:101B40004CC09DB68EB6D5011A960C9110E0EDB73B
:101B5000FEB7E01BF10B0FB6F894FEBF0FBEEDBF52
:101B6000EDB6FEB60894E11CF11C202FC5016C2DCA
:101B7000A7010E94300D00D0ADB7BEB712963C92BF
:101B80002E9211970E9441020E0D1F1D0F900F9073
:101B900015C000D000D0EDB7FEB73196ADB7BEB7D7
:101BA00012965C924E921197D8018C918283138287
:101BB0000E9441020F900F900F900F900150104023
:101BC0000E151F0530F7C394892D982D9C010FB673
:101BD000F8943EBF0FBE2DBFDA94DD2009F0B1CFDF
:101BE00000D088E391E0EDB7FEB7928381830E9435
:101BF00041020F900F900FB6F8947EBE0FBE6DBEDF
:101C0000CF91DF911F910F91FF90EF90DF90CF90D8
:101C1000BF90AF909F908F907F906F905F904F900C
:101C20003F902F9008950F931F938C010E9482097B
:101C3000682FC8010E94EC08C8016BE271E04AE01D
:101C400022E00E94560DC8016EE171E04CE024E0F4
:101C50000E94630CC80166E171E040E121E00E944E
:101C6000560DC8016BE071E041E126E00E94630C73
:101C7000C80165E071E041E021E00E94630CC80109
:101C80006BEF70E042E021E00E94630CC80165EF59
:101C900070E045E021E00E94630CC8016CEE70E04A
:101CA00046E021E00E94630CC80165EE70E040E070
:101CB00021E00E94630CC80167ED70E04CE122E076
:101CC0000E94630CC8010E94CC0AFC01EE0FFF1FAA
:101CD000E658FF4F2591349100D000D085EC90E07C
:101CE000EDB7FEB792838183348323830E94410240
:101CF000F8018281E82FF0E0EE0FFF1FE058FF4F60
:101D00002591349186EB90E0EDB7FEB79283818305
:101D1000348323830E9441020F900F900F900F9005
:101D2000C8010E94AC0AFC01EE0FFF1FEC57FF4FE9
:101D30002591349100D000D083EA90E0EDB7FEB752
:101D400092838183348323830E9441020F900F90FA
:101D50000F900F90C8010E941D0BE82FF0E0EE0FCE
:101D6000FF1FE657FF4F2591349100D000D082E944
:101D700090E0EDB7FEB792838183348323830E9482
:101D800041020F900F900F900F901F910F910895A7
:101D90001F920F920FB60F9211248F9388E10FB606
:101DA000F89480936000109260000FBE8F910F90A6
:101DB0000FBE0F901F901895FC0166834783208704
:101DC00081E0858708950F931F938C01FC01868124
:101DD00060E00E94CD19F801868161E00E940C1A32
:101DE000F80111861286138614861F910F910895AB
:101DF000CF92DF92EF92FF920F931F93CF93DF93D7
:101E0000EC010E94F0189B01AC0189859A85AB8595
:101E1000BC85281739074A075B0720F419861A86FC
:101E20001B861C868D85882371F489859A85AB85F0
:101E3000BC85281B390B4A0B5B0B205D37404040AB
:101E4000504008F481C01D860E94F01869877A8787
:101E50008B879C871C821B821A82198218828E8132
:101E600061E00E940C1A6AEF70E080E090E00E944E
:101E700043198E8161E00E94CD198E8160E00E943D
:101E80000C1A64E170E080E090E00E944319F8943D
:101E90008E8161E00E940C1A88E290E00E94FE1898
:101EA0008E8160E00E94CD1981E0EE2400E010E018
:101EB0000AC0F39481E090E00E94FE188FEFF816BC
:101EC00029F40AC0822FFF24C82EDD248E810E94AF
:101ED000601A8C159D0569F38E810E94601A282F67
:101EE0008FEFF816C9F0043090F000FD10C08E2D71
:101EF000869586958695FE01E80FF11D9081990FD4
:101F0000908388858F1510F491609083E3940F5F20
:101F10001F4F05351105B1F6789487E28E1510F044
:101F200030E013C030E04C8150E02981888190E09E
:101F3000820F911D2A81820F911D2B81820F911D8D
:101F400090704817590709F431E0832FDF91CF9142
:101F50001F910F91FF90EF90DF90CF900895EF9237
:101F6000FF920F931F93CF93DF93EC010E94F80E23
:101F70008823A9F18F818B3031F08B3080F185512E
:101F8000823068F507C0688170E080E090E00E94D0
:101F9000B61B22C0688170E080E090E00E94B61B12
:101FA00020E030E040E853E40E946C1C7B018C018F
:101FB000698170E0882777FD8095982F0E94B81B73
:101FC0009B01AC01C801B7010E94B51A20E030E0C6
:101FD00040E251E40E941D1BE62F692F04C0E0E09F
:101FE00070E080EC6FE72E2F372F482F562FB90166
:101FF000CA01DF91CF911F910F91FF90EF9008954B
:10200000CF92DF92EF92FF920F931F93CF93DF93C4
:10201000EC01C62E0E94F80E882309F450C08F816F
:102020008B3041F08B3008F44AC08551823008F083
:1020300046C007C06A8170E080E090E00E94B61B55
:1020400029C0DA806D2D70E06F777070882777FD7A
:102050008095982F0E94B81B20E030E040E853E4C0
:102060000E946C1C7B018C016B8170E0882777FDDE
:102070008095982F0E94B81B9B01AC01C801B70145
:102080000E94B51A20E030E040E251E40E941D1B9E
:10209000D7FC9058CC20B9F020E030E040E151E48A
:1020A0000E946C1C20E030E040EA50E40E941D1BBE
:1020B00020E030E040E052E40E94B51A04C060E045
:1020C00070E080EC9FE7DF91CF911F910F91FF901F
:1020D000EF90DF90CF900895BF92CF92DF92EF9272
:1020E000FF920F931F93CF93DF937C01EB01009737
:1020F00039F4CB0164E172E00E943A179C0143C0BD
:10210000E881F9810190F081E02DCB0162E209952F
:102110006C0127C03296B080BB20B9F08181861750
:10212000C9F7E881F9810190F081E02DCE016CE5DD
:1021300009958C01E881F9810190F081E02DCE01B3
:102140006B2D0995800F911F07C0E881F9810190DF
:10215000F081E02DCE0109950894E11CF11CC80E18
:10216000D91EF7016081662319F0E3E4F2E0D3CFD2
:10217000E881F9810190F081E02DCE0162E20995BC
:102180009601280F391FC901DF91CF911F910F913F
:10219000FF90EF90DF90CF90BF900895DC011896EC
:1021A0002D913C91199716968D919C911797281710
:1021B00039071CF020E030E016C01496ED91FC9138
:1021C0001597E20FF31F6083C901019619969C933E
:1021D0008E9318971496ED91FC911597E80FF91FBF
:1021E000108221E030E0C901089510928A02109215
:1021F000890210928C0210928B020895EF92FF9246
:102200000F931F93CF93DF937C01EB010A811B8116
:10221000A881B981ED91FC9111970190F081E02D99
:10222000CD016BE50995080F191F1B830A83F70180
:10223000E280F380E114F104E9F0C7010296BE01E7
:102240000E946812F701E080F180E114F10491F03E
:102250000A811B81A881B981ED91FC9111970190B0
:10226000F081E02DCD016CE20995080F191F1B8349
:102270000A83E3CF0A811B81A881B981ED91FC918A
:1022800011970190F081E02DCD016DE50995080FC2
:10229000191F1B830A83DF91CF911F910F91FF902C
:1022A000EF900895CF93DF93EC01E881F9810190DD
:1022B000F081E02D64E070E00995FC019C0100973D
:1022C00019F42DE832E004C0D183C0831382128256
:1022D000C901DF91CF91089510928E0210928D0264
:1022E0001092900210928F020895EF92FF920F9336
:1022F0001F93CF93DF937C01EB010A811B81A8819F
:10230000B981ED91FC9111970190F081E02DCD0103
:102310006BE70995080F191F1B830A83F701E280F9
:10232000F380E114F104C9F10A811B81688179818C
:10233000F701828193810E946C10080F191F1B8383
:102340000A83A881B981ED91FC9111970190F081E8
:10235000E02DCD016AE30995080F191F1B830A833D
:10236000C7010496BE010E946812F701E080F18067
:10237000E114F10491F00A811B81A881B981ED91EA
:10238000FC9111970190F081E02DCD016CE209954F
:10239000080F191F1B830A83C7CF0A811B81A881DD
:1023A000B981ED91FC9111970190F081E02DCD0163
:1023B0006DE70995080F191F1B830A83DF91CF91E1
:1023C0001F910F91FF90EF9008950F931F93CF935C
:1023D000DF938B01FC01C281D3810AC08A819B817A
:1023E000B8010E94EC01009729F00990D881C02D16
:1023F0002097A1F7CE01DF91CF911F910F91089502
:102400000F931F93CF93DF93EC018B010E94E51193
:102410009C01009781F588819981892B79F1E88168
:10242000F981A081B1812D913C91CF016AE070E0EA
:10243000F9010995DC019C01009701F111961C92AC
:102440001E9281E090E015969C938E9314971396BC
:102450001C930E931297EA81FB81309751F0CF01C4
:102460000190F081E02D3097D1F7FC01B183A0837A
:1024700002C0BB83AA832C5F3F4F02C021E932E038
:10248000C901DF91CF911F910F910895FC018081C7
:102490009181892B49F0822F90E007969183808368
:1024A00042835383648375830895FC018081918105
:1024B000892B41F086E090E09183808342835383AF
:1024C0006483758308951092920210929102089588
:1024D0000F931F93CF93DF93FC01EB012081318198
:1024E0002230310529F4828193810E94FE104AC076
:1024F0002330310529F4828193810E94751142C0F5
:102500002530310549F40A811B81688179818281F6
:1025100093810E946C1032C02630310569F40A8123
:102520001B814281538164817581888199812AE070
:1025300030E00E94DB1622C02430310581F40A818C
:102540001B81288139818281882319F469E172E035
:1025500002C06FE172E0C9010E943A170FC0273034
:10256000310584F00A811B81428153816481758128
:1025700027508881998130E00E942118080F191F87
:102580001B830A83DF91CF911F910F9108950F93C1
:102590001F93CF93DF93BC018230910510F462E06A
:1025A00070E0E0914303F091440340E050E0A0E08C
:1025B000B0E024C08081918186179707D0F08617FC
:1025C000970771F482819381109729F013969C9359
:1025D0008E9312972CC0909344038093430327C09B
:1025E0004115510519F08417950718F48D01AC01B8
:1025F000EF01DF01828193819C01F9013097D1F6CF
:1026000041155105F9F0CA01861B970B84309105DD
:1026100080F48A819B810115110521F0F8019383D3
:10262000828304C09093440380934303FE01329657
:1026300045C0FE01E80FF91F6193719302979983DA
:1026400088833CC08091410390914203892B41F4DF
:102650008091380290913902909342038093410314
:1026600040913A0250913B024115510541F44DB75A
:102670005EB78091360290913702481B590B20912A
:1026800041033091420324173507B0F4CA01821B7D
:10269000930B8617970780F0AB014E5F5F4F84174F
:1026A000950750F0420F531F50934203409341034C
:1026B000F9016193719302C0E0E0F0E0CF01DF9196
:1026C000CF911F910F910895CF93DF939C010097B5
:1026D00009F48FC0EC0122971B821A826091430398
:1026E000709144036115710581F488819981820F8D
:1026F000931F20914103309142032817390739F580
:10270000D0934203C093410374C0DB0140E050E02A
:10271000AC17BD0708F1BB83AA83FE01219131915B
:10272000E20FF31FAE17BF0779F48D919C911197BB
:10273000280F391F2E5F3F4F3983288312968D91C2
:102740009C9113979B838A834115510571F4D09313
:102750004403C09343034DC012968D919C911397EF
:10276000AD01009711F0DC01D3CFDA011396DC93B1
:10277000CE931297FA0121913191E20FF31FCE17F8
:10278000DF0769F488819981280F391F2E5F3F4F39
:10279000FA01318320838A819B8193838283E0E0E5
:1027A000F0E0DB0112968D919C911397009719F040
:1027B000BC01FD01F6CFAB014E5F5F4FDB018D9198
:1027C0009C91840F951F209141033091420328175B
:1027D000390779F4309729F4109244031092430397
:1027E00002C01382128242505040509342034093E1
:1027F0004103DF91CF910895DC015C968C915C9749
:10280000FD01E80FF11DE35AFF4F20815C968C918A
:102810005C9790E001968F7390705C968C935C97B8
:102820005696ED91FC91579720835096ED91FC912F
:1028300051978081806480835B969C915B975C96C6
:102840008C915C97981739F45296ED91FC915397BF
:1028500080818F7D80830895DF92EF92FF920F93A6
:102860001F93CF93DF93EC017A018B01D22EE8897D
:10287000F98982E08083403081EE580780E0680764
:1028800080E07807A1F060E079E08DE390E0A801B6
:1028900097010E94F21C2150304040405040569514
:1028A00047953795279580E12030380798F0E889DB
:1028B000F989108260E874E88EE190E0A801970140
:1028C0000E94F21C215030404040504056954795A0
:1028D00037952795EC85FD853083EE85FF85208330
:1028E000188EEC89FD89D082EA89FB89808180611C
:1028F0008083EA89FB89808188608083EA89FB89FB
:10290000808180688083EA89FB8980818F7D8083D4
:10291000DF91CF911F910F91FF90EF90DF9008957D
:10292000FC01218D828D30E0205C3F4F281B310956
:102930002F733070C9010895FC01918D828D981715
:1029400019F42FEF3FEF06C0828DE80FF11D858D42
:10295000282F30E0C9010895DC0159969C915997C0
:102960005A968C915A97981719F42FEF3FEF10C091
:102970005A968C915A97FD01E80FF11D958D5A9644
:102980008C915A978F5F8F735A968C93292F30E0D2
:10299000C9010895CF93DF93EC01888D882361F4FA
:1029A00019C08C9185FF0AC0E889F989808185FF6B
:1029B00005C0CE010E94FC13AA89BB898C9185FDBC
:1029C00005C0E889F989808186FD04C00FB607FE3D
:1029D000E8CFF4CFDF91CF9108950F931F93CF935A
:1029E000DF93EC01062F9B8D8C8D981791F5E8896C
:1029F000F989808185FF2DC0EE89FF896083E88990
:102A0000F9898081806480831DC00FB607FC08C0EF
:102A1000E889F989808185FF03C0CE010E94FC13FB
:102A20008C8D181791F38B8DFE01E80FF11DE35A81
:102A3000FF4F00831B8FEA89FB898081806280833E
:102A400081E0888F81E090E0DF91CF911F910F911D
:102A500008951B8D1F5F1F73E3CF85EB95E1892BD5
:102A600051F080E090E0892B31F00E94B515882369
:102A700011F00E94000008951F920F920FB60F925E
:102A800011242F938F939F93EF93FF93E091A702CD
:102A9000F091A802808182FD16C0E091AD02F09114
:102AA000AE0220819091B0029F5F9F738091B1022E
:102AB000981771F0E091B002F0E0E956FD4F258FD4
:102AC0009093B00205C0E091AD02F091AE02E081BA
:102AD000FF91EF919F918F912F910F900FBE0F90CB
:102AE0001F90189510929A021092990288EE93E026
:102AF000A0E0B0E080939B0290939C02A0939D0283
:102B0000B0939E028EE592E0909398028093970294
:102B100085EC90E09093A4028093A30284EC90E073
:102B20009093A6028093A50280EC90E09093A80277
:102B30008093A70281EC90E09093AA028093A9026F
:102B400082EC90E09093AC028093AB0286EC90E034
:102B50009093AE028093AD021092B0021092B10237
:102B60001092B2021092B302089587E992E00E9497
:102B7000901420E0892B09F021E0822F08951F9204
:102B80000F920FB60F9211242F933F934F935F93A1
:102B90006F937F938F939F93AF93BF93EF93FF9325
:102BA00087E992E00E94FC13FF91EF91BF91AF91F2
:102BB0009F918F917F916F915F914F913F912F9155
:102BC0000F900FBE0F901F901895CF92DF92EF924B
:102BD000FF920F931F93CF93DF937C016B018A01C8
:102BE000C0E0D0E00FC0D6016D916D01D701ED912D
:102BF000FC910190F081E02DC7010995C80FD91F04
:102C0000015010400115110571F7CE01DF91CF91F0
:102C10001F910F91FF90EF90DF90CF900895EF926A
:102C2000FF920F931F938C01DC01ED91FC910190B9
:102C3000F081E02D6DE009957C01D801ED91FC91CA
:102C40000190F081E02DC8016AE009959C012E0DEC
:102C50003F1DC9011F910F91FF90EF900895CF93F1
:102C6000DF93EC016115710519F420E030E00FC02D
:102C7000DB010D900020E9F71197A61BB70BE88147
:102C8000F9810280F381E02DAD0109959C01C90114
:102C9000DF91CF9108954F925F927F928F929F9292
:102CA000AF92BF92CF92DF92EF92FF920F931F935A
:102CB000DF93CF93CDB7DEB7A1970FB6F894DEBF01
:102CC0000FBECDBF2C01742ECB01223008F42AE0B8
:102CD00019A231E2C32ED12CCC0EDD1E822E9924F6
:102CE000AA24BB24672D752FA50194010E94F21C14
:102CF00079018A01C801B701A50194010E94D31C82
:102D0000472D461B0894C108D1084A3014F4405D91
:102D100001C0495CF6014083E114F104010511058D
:102D200021F07E2C5F2DC801DDCFC201B6010E94CB
:102D30002F16A1960FB6F894DEBF0FBECDBFCF9170
:102D4000DF911F910F91FF90EF90DF90CF90BF9098
:102D5000AF909F908F907F905F904F900895DC018F
:102D60002115310541F4ED91FC910190F081E02DA8
:102D7000642F099508950E944B160895CF92DF9213
:102D8000EF92FF920F931F936C017B019A0100E079
:102D900010E0B801A7010E94AF168C01C6010E9485
:102DA0000F16080F191FC8011F910F91FF90EF9088
:102DB000DF90CF900895CF92DF92EF92FF920F9322
:102DC0001F93CF93DF93EC016A017B01211531053D
:102DD00041F4E881F9810190F081E02D642F09959B
:102DE0001FC02A303105D1F477FF17C0E881F9817F
:102DF0000190F081E02D6DE209958C014427552763
:102E0000BA014C195D096E097F09CE012AE00E94C2
:102E10004B169801280F391F04C02AE00E944B1658
:102E20009C01C901DF91CF911F910F91FF90EF900D
:102E3000DF90CF900895CF92DF92EF92FF920F93A1
:102E40001F936C017B019A010027F7FC0095102F5E
:102E5000B801A7010E94DB168C01C6010E940F1663
:102E6000080F191FC8011F910F91FF90EF90DF907D
:102E7000CF9008950E942F1608957F928F929F926F
:102E8000AF92BF92CF92DF92EF92FF920F931F9378
:102E9000CF93DF934C017A018B01722ECB01BA01E3
:102EA000A80197010E94CF1C882321F0C40164E28D
:102EB00072E021C0C0E0D0E057016801E894D7F883
:102EC000C601B5012FEF3FEF4FE75FE70E94CF1C30
:102ED000882351F4C601B5012FEF3FEF4FE75FE7BD
:102EE0000E94191B181614F0C1E0D0E0219739F0A8
:102EF000C40168E272E00E942F16EC0193C0C80181
:102F0000B7012FEF3FEF4FE75FE40E94681C1816F0
:102F100054F0C801B7012FEF3FEF4FE75FEC0E947D
:102F2000191B882324F4C4016CE272E0E4CFC801C9
:102F3000B70120E030E040E050E00E94191B87FD1F
:102F400003C0C0E0D0E00EC0D401ED91FC9101902F
:102F5000F081E02DC4016DE20995EC0117FB10959D
:102F600017F9109520E030E040E05FE3DD240BC06E
:102F7000CA01B90120E030E040E251E40E941D1B8B
:102F80009B01AC01D394D71498F3C801B7010E94F8
:102F9000B51A5B016C010E948A1B7B018C01C40184
:102FA000B801A7012AE030E00E94AF16C80FD91F70
:102FB000772039F0C40160E372E00E942F16C80F39
:102FC000D91FC801B7010E94B61B9B01AC01C60105
:102FD000B5010E94B41A24C020E030E040E251E480
:102FE0000E946C1C7B018C010E94851B5B016C01A3
:102FF000CC24B7FCC094DC2CC401B601A5012AE0A6
:1030000030E00E94DB16C80FD91FC601B5010E942F
:10301000B81B9B01AC01C801B7010E94B41A7A9495
:103020007720D1F6CE01DF91CF911F910F91FF90C4
:10303000EF90DF90CF90BF90AF909F908F907F9058
:1030400008950E943D170895EF92FF920F931F93EA
:103050007C010E942F168C01C7010E940F16080FD9
:10306000191FC8011F910F91FF90EF9008951F92B3
:103070000F920FB60F9211242F933F934F935F93AC
:103080006F937F938F939F93AF93BF93EF93FF9330
:103090008091340390913503892B29F0E09134031A
:1030A000F09135030995FF91EF91BF91AF919F91F9
:1030B0008F917F916F915F914F913F912F910F90E1
:1030C0000FBE0F901F9018951F920F920FB60F9280
:1030D00011242F933F934F935F936F937F938F931D
:1030E0009F93AF93BF93EF93FF938091360390919B
:1030F0003703892B29F0E0913603F09137030995C6
:10310000FF91EF91BF91AF919F918F917F916F91BF
:103110005F914F913F912F910F900FBE0F901F9095
:103120001895009729F0BC0180E090E00E94CA0148
:103130000895CF93DF930E9408190E947C07CDE287
:10314000D5E10E94B8052097E1F30E942D15F9CF33
:103150001F920F920FB60F9211242F933F938F93CC
:103160009F93AF93BF9380913C0390913D03A091B7
:103170003E03B0913F03309140030196A11DB11D64
:10318000232F2D5F2D3720F02D570196A11DB11D46
:103190002093400380933C0390933D03A0933E0310
:1031A000B0933F038091380390913903A0913A0383
:1031B000B0913B030196A11DB11D809338039093FC
:1031C0003903A0933A03B0933B03BF91AF919F9112
:1031D0008F913F912F910F900FBE0F901F901895D8
:1031E0008FB7F89420913C0330913D0340913E030A
:1031F00050913F038FBFB901CA010895019739F07B
:10320000880F991F880F991F02970197F1F708956A
:10321000789484B5826084BD84B5816084BD85B5B1
:10322000826085BD85B5816085BDEEE6F0E0808178
:1032300081608083E1E8F0E0108280818260808399
:10324000808181608083E0E8F0E08081816080831C
:10325000E1EBF0E0808184608083E0EBF0E080814E
:1032600081608083EAE7F0E08081846080838081F0
:103270008260808380818160808380818068808398
:103280001092C1000895EF92FF920F931F93CF9376
:10329000DF937B018C013FB7F894809138039091C4
:1032A0003903A0913A03B0913B0326B5A89B05C012
:1032B0002F3F19F00196A11DB11D3FBFBA2FA92FB5
:1032C000982F8827820F911DA11DB11D52E0880FF4
:1032D000991FAA1FBB1F5A95D1F7EC0130C00E945D
:1032E000B31A3FB7F8948091380390913903A091B5
:1032F0003A03B0913B0326B5A89B05C02F3F19F0B8
:103300000196A11DB11D3FBFBA2FA92F982F882765
:10331000820F911DA11DB11D32E0880F991FAA1FB8
:10332000BB1F3A95D1F78C1B9D0B885E9340B8F27A
:103330000894E108F10801091109C851DC4FE114B2
:10334000F1040105110559F6DF91CF911F910F91FD
:10335000FF90EF900895982F8E3008F09E50977050
:1033600080913C028295880F880F807C892B809306
:103370007C0080917A00806480937A0080917A004A
:1033800086FDFCCF2091780040917900942F80E059
:1033900030E0282B392BC9010895CF93DF93482FB4
:1033A00050E0CA01835A9D4FFC013491475B5D4F49
:1033B000FA018491882369F190E0880F991FFC013C
:1033C000E55DFD4FA591B491FC01EB5CFD4FC5910E
:1033D000D491662351F42FB7F8948C91932F909544
:1033E00089238C93888189230BC0623061F42FB7C5
:1033F000F8948C91932F909589238C938881832BBB
:1034000088832FBF06C09FB7F8948C91832B8C9331
:103410009FBFDF91CF910895482F50E0CA018F5888
:103420009D4FFC012491CA01835A9D4FFC01949148
:10343000475B5D4FFA013491332309F440C02223E6
:1034400051F1233071F0243028F42130A1F02230E2
:1034500011F514C02630B1F02730C1F02430D9F472
:1034600004C0809180008F7703C0809180008F7DA1
:103470008093800010C084B58F7702C084B58F7DA3
:1034800084BD09C08091B0008F7703C08091B000E7
:103490008F7D8093B000E32FF0E0EE0FFF1FEB5C19
:1034A000FD4FA591B4912FB7F894662321F48C9128
:1034B0009095892302C08C91892B8C932FBF0895FE
:1034C000682F70E0CB018F589D4FFC012491CB01F8
:1034D000835A9D4FFC014491675B7D4FFB019491A2
:1034E000992319F420E030E03CC0222351F123302D
:1034F00071F0243028F42130A1F0223011F514C0ED
:103500002630B1F02730C1F02430D9F404C08091C6
:1035100080008F7703C0809180008F7D8093800032
:1035200010C084B58F7702C084B58F7D84BD09C07B
:103530008091B0008F7703C08091B0008F7D809321
:10354000B000892F90E0880F991F815C9D4FFC018E
:10355000A591B4918C9120E030E0842311F021E01A
:1035600030E0C901089508955058BB27AA270ED00E
:1035700075C166D130F06BD120F031F49F3F11F46A
:103580001EF45BC10EF4E095E7FB51C1E92F77D142
:1035900080F3BA17620773078407950718F071F470
:1035A0009EF58FC10EF4E0950B2EBA2FA02D0B01C6
:1035B000B90190010C01CA01A0011124FF27591B78
:1035C00099F0593F50F4503E68F11A16F040A22F7E
:1035D000232F342F4427585FF3CF469537952795EF
:1035E000A795F0405395C9F77EF41F16BA0B620BEE
:1035F000730B840BBAF09150A1F0FF0FBB1F661F35
:10360000771F881FC2F70EC0BA0F621F731F841F77
:1036100048F4879577956795B795F7959E3F08F09D
:10362000B3CF9395880F08F09927EE0F979587955C
:103630000895D9D008F481E008950CD00FC107D1C6
:1036400040F0FED030F021F45F3F19F0F0C051118E
:1036500039C1F3C014D198F39923C9F35523B1F3B9
:10366000951B550BBB27AA2762177307840738F0F1
:103670009F5F5F4F220F331F441FAA1FA9F333D050
:103680000E2E3AF0E0E830D091505040E695001C04
:10369000CAF729D0FE2F27D0660F771F881FBB1FC0
:1036A000261737074807AB07B0E809F0BB0B802D9A
:1036B000BF01FF2793585F4F2AF09E3F510568F0E6
:1036C000B6C000C15F3FECF3983EDCF3869577957A
:1036D0006795B795F7959F5FC9F7880F911D9695E8
:1036E000879597F90895E1E0660F771F881FBB1F44
:1036F000621773078407BA0720F0621B730B840BF1
:10370000BA0BEE1F88F7E095089504D06894B111C4
:10371000D9C00895BCD088F09F5790F0B92F992751
:10372000B751A0F0D1F0660F771F881F991F1AF0CC
:10373000BA95C9F712C0B13081F0C3D0B1E0089595
:10374000C0C0672F782F8827B85F39F0B93FCCF316
:10375000869577956795B395D9F73EF490958095C2
:10376000709561957F4F8F4F9F4F0895E89409C0E2
:1037700097FB3EF490958095709561957F4F8F4FA4
:103780009F4F9923A9F0F92F96E9BB279395F695BA
:10379000879577956795B795F111F8CFFAF4BB0F38
:1037A00011F460FF1BC06F5F7F4F8F4F9F4F16C09C
:1037B000882311F096E911C0772321F09EE8872F26
:1037C000762F05C0662371F096E8862F70E060E0E2
:1037D0002AF09A95660F771F881FDAF7880F96955B
:1037E000879597F90895990F0008550FAA0BE0E8FF
:1037F000FEEF16161706E807F907C0F012161306B3
:10380000E407F50798F0621B730B840B950B39F4F2
:103810000A2661F0232B242B252B21F408950A2658
:1038200009F4A140A6958FEF811D811D089597F998
:103830009F6780E870E060E008959FEF80EC089556
:1038400000240A941616170618060906089500247F
:103850000A9412161306140605060895092E0394F9
:10386000000C11F4882352F0BB0F40F4BF2B11F46D
:1038700060FF04C06F5F7F4F8F4F9F4F089557FDCC
:103880009058440F551F59F05F3F71F04795880FCE
:1038900097FB991F61F09F3F79F087950895121665
:1038A00013061406551FF2CF4695F1DF08C0161611
:1038B00017061806991FF1CF8695710561050894C2
:1038C0000895E894BB2766277727CB0197F90895D9
:1038D0008ADF08F48FEF08950BD0C0CFB1DF28F056
:1038E000B6DF18F0952309F0A2CFA7CF1124EACFB5
:1038F000C6DFA0F3959FD1F3950F50E0551F629F4F
:10390000F001729FBB27F00DB11D639FAA27F00D38
:10391000B11DAA1F649F6627B00DA11D661F829F5F
:103920002227B00DA11D621F739FB00DA11D621F44
:10393000839FA00D611D221F749F3327A00D611D61
:10394000231F849F600D211D822F762F6A2F112443
:103950009F5750408AF0E1F088234AF0EE0FFF1F96
:10396000BB1F661F771F881F91505040A9F79E3FCD
:10397000510570F05CCFA6CF5F3FECF3983EDCF3CF
:10398000869577956795B795F795E7959F5FC1F70A
:10399000FE2B880F911D9695879597F9089523DF43
:1039A000880B990B0895629FD001739FF001829F4D
:1039B000E00DF11D649FE00DF11D929FF00D839FBE
:1039C000F00D749FF00D659FF00D9927729FB00D5B
:1039D000E11DF91F639FB00DE11DF91FBD01CF016E
:1039E00011240895A1E21A2EAA1BBB1BFD010DC0D4
:1039F000AA1FBB1FEE1FFF1FA217B307E407F5079F
:103A000020F0A21BB30BE40BF50B661F771F881F7A
:103A1000991F1A9469F760957095809590959B0110
:103A2000AC01BD01CF01089597FB092E05260ED0EC
:103A300057FD04D0D7DF0AD0001C38F450954095CC
:103A4000309521953F4F4F4F5F4F0895F6F7909572
:103A50008095709561957F4F8F4F9F4F0895EE0F22
:103A6000FF1F0590F491E02D09942F923F924F9201
:103A70005F926F927F928F929F92AF92BF92CF92FE
:103A8000DF92EF92FF920F931F93CF93DF93CDB707
:103A9000DEB7CA1BDB0B0FB6F894DEBF0FBECDBF7F
:103AA00009942A88398848885F846E847D848C8450
:103AB0009B84AA84B984C884DF80EE80FD800C8159
:103AC0001B81AA81B981CE0FD11D0FB6F894DEBF3C
:0C3AD0000FBECDBFED010895F894FFCFAC
:103ADC0025642E25640025642E3025640052656112
:103AEC0064696E67204448542E2E2E0048756D690B
:103AFC00646974793A20002025090054656D70655D
:103B0C007261747572653A2000202A432000202AC5
:103B1C0046090049443A25643A54533A256C753A9F
:103B2C0045523A4552524F5200004661696C6564E9
:103B3C0020746F20726561642066726F6D2044483A
:103B4C0054000A5472616E736D697474696E672ED9
:103B5C002E2E0053656E64696E67207061636B6511
:103B6C00742E2E2E00577269746520627566666518
:103B7C0072206661696C65640053656E64696E677A
:103B8C00207465726D696E61746F7200577269741E
:103B9C0065207465726D696E61746F7220666169FF
:103BAC006C65640069640074656D700074730072F8
:103BBC006800706972005374617274696E672E2E9E
:103BCC002E005374617274696E6720726164696F40
:103BDC002E2E2E00456E64696E67207365747570A9
:103BEC002E2E2E006E756C6C0066616C7365007405
:103BFC00727565006E616E00696E66006F766600A8
:103C0C002E000100000080004B03000001000000AA
:103C1C0000240522225C5C6208660C6E0A720D742C
:103C2C00090000000000CE10E51500000000ED14A6
:0A3C3C00E5159014AC149C14CA1492
:00000001FF
