:100000000C946B010C94EB130C9418140C94930146
:100010000C9493010C9493010C945D0C0C9493013B
:100020000C9493010C9493010C9493010C94930100
:100030000C9493010C9493010C9493010C949301F0
:100040000C945D140C9493010C9431110C94631175
:100050000C9493010C9493010C9493010C949301D0
:100060000C9493010C9493012A2A2A205741524E52
:10007000494E47202A2A2A20496E76616C696420FD
:10008000616464726573732030256F0A0D006964C2
:1000900020253034782066726F6D2030256F2074F3
:1000A0006F2030256F2074797065202564005041E1
:1000B00020506F77657209203D2025530D0A0043BB
:1000C0005243204C656E67746809203D2025530D0E
:1000D0000A004D6F64656C0909203D2025530D0A07
:1000E0000044617461205261746509203D202553EC
:1000F0000D0A0044594E50442F464541545552452F
:1001000000434F4E4649470052465F5345545550B1
:100110000052465F434800454E5F525841444452A6
:1001200000454E5F41410052585F50575F50302D9F
:10013000360054585F414444520052585F41444491
:10014000525F50322D350052585F414444525F5047
:10015000302D31000D0A0025303278002030780033
:100160002553092563203D000D0A002030782530F5
:100170003278002553092563203D004F42534552F4
:1001800056455F54583D253032783A20504F4C53F5
:100190005F434E543D2578204152435F434E543DCA
:1001A00025780D0A005354415455530909203D2028
:1001B0003078253032782052585F44523D257820DF
:1001C00054585F44533D2578204D41585F52543D6B
:1001D00025782052585F505F4E4F3D257820545867
:1001E0005F46554C4C3D25780D0A0011121314152D
:1001F000160A0B0C0D0E0F0001020304051B02145E
:10020000020C02050250415F4D41580050415F48C9
:100210004947480050415F4C4F570050415F4D499E
:100220004E003702300228023136206269747300B2
:100230003820626974730044697361626C6564009C
:100240004E0244026E524632344C30312B006E5214
:100250004632344C3031006B0265025D023235307B
:100260004B42505300324D42505300314D42505397
:100270000000000008000201000003040700000065
:100280000000000000010204081020408001020468
:1002900008102001020408102004040404040404CB
:1002A000040202020202020303030303030000002C
:1002B0000023002600290000000000250028002B54
:1002C0000000000000240027002A00009902B00E60
:1002D000650FED0F931111241FBECFEFD8E0DEBFE5
:1002E000CDBF12E0A0E0B1E0E0E7FBE302C0059083
:1002F0000D92A831B107D9F723E0A8E1B2E001C01F
:100300001D92A93CB207E1F712E0C6EDD2E004C0AD
:100310002297FE010E94BB18CC3CD107C9F70E946E
:100320004E140C94B61D0C940000CF93C82FE0918E
:100330001503F09116030190F081E02D682F85E1FF
:1003400093E009958C2F992787FD9095CF9108957B
:10035000FC0184A995A9680F791F6333710530F4F6
:1003600075AB64AB02968E0F9F1F089580E090E0FE
:10037000089560E070E085E991E00C945C1A26E055
:1003800040E05BE460E070E085E193E00E94D5101E
:100390000E94B90161E08DE00E948A1560E084E06E
:1003A0000E948A1564E271E085E193E00E943112B7
:1003B00061E08DE00E94C31568EE73E080E090E09C
:1003C0000E94D61460E08DE00E94C3158EE00E946A
:1003D00044150E94451489E192E00E94780C86EF52
:1003E00092E00E94D40B41E050E06AE587E292E09F
:1003F0000E947F0661E08DE00E94C31568E873E10A
:1004000080E090E00E94D61460E08DE00C94C3156B
:100410008F929F92AF92BF92CF92DF92EF92FF9214
:10042000CF93DF93EC014A015B01CB01BA010E943B
:10043000F4166B017C01882777FD8095982F0E9428
:1004400027179B01AC01C501B4010E94231620E0CF
:1004500030E048EC52E40E94DB170E94F4166B3047
:100460007105ACF07F936F93DF92CF9286E391E0BA
:100470009F938F93DF93CF930E94C91A8DB79EB736
:1004800008960FB6F8949EBF0FBE8DBF14C07F9321
:100490006F93DF92CF928CE391E09F938F93DF93E2
:1004A000CF930E94C91A8DB79EB708960FB6F894DD
:1004B0009EBF0FBE8DBF81E090E0DF91CF91FF9096
:1004C000EF90DF90CF90BF90AF909F908F90089566
:1004D000CF93DF93CDB7DEB72E970FB6F894DEBF7C
:1004E0000FBECDBF1C821B822DEE31E03A832983E3
:1004F0007E836D834150510958874F831A86198630
:10050000FB0110829E012F5F3F4F3C872B871E8689
:100510001D86BE01655F7F4F0E942C0F8D859E85D5
:100520002E960FB6F894DEBF0FBECDBFDF91CF91F0
:1005300008954AE069E086EF92E00E944A0966EF7A
:1005400072E087E292E00E94AD0526E046E162E0BB
:1005500089E192E00C94710C6F927F928F929F923E
:10056000AF92BF92CF92DF92EF92FF920F931F93C1
:10057000CF93DF93CDB7DEB728970FB6F894DEBFE1
:100580000FBECDBF7C01FC0101900020E9F78F0177
:1005900001501109081B190B85E193E00E944E10D0
:1005A000C12CD12C5701A00EB11E83E5782E480135
:1005B000FFEF8F1A9F0AC016D1060CF04EC063E4FD
:1005C00071E085E193E00E941412B8016C197D0975
:1005D0006132710514F060E270E04AE050E085E1BC
:1005E00093E00E94E612F50110821C821B8280912A
:1005F0000A0190910B019C012F5F3F4F30930B013B
:1006000020930A019E838D837F829401A701BE01FE
:100610006F5F7F4F87E292E00E94C607682EF0E28C
:10062000CF0ED11C811107C065E571E085E193E033
:100630000E94311214C069E671E085E193E00E94E6
:100640001412B70185E193E00E94141262E371E095
:1006500085E193E00E943112AECF66246394862D2B
:1006600028960FB6F894DEBF0FBECDBFDF91CF91B5
:100670001F910F91FF90EF90DF90CF90BF90AF90C0
:100680009F908F907F906F9008952F923F924F92FE
:100690005F926F927F928F929F92AF92BF92CF9212
:1006A000DF92EF92FF920F931F93CF93DF93CDB71B
:1006B000DEB7C65DD1090FB6F894DEBF0FBECDBF61
:1006C00087E292E00E947A0784E00E94F915682E82
:1006D00089E192E00E94AC0D6B017C0160E089E150
:1006E00092E00E94380D4B015C0161E089E192E0EB
:1006F0000E94380D1B012C01AB01BC01CE018F52B1
:100700009F4F0E940802B701A601CE0185539F4F5B
:100710000E9408026AE771E085E193E00E941412EA
:1007200022E030E0B701A60185E193E00E94E913E1
:1007300065E871E085E193E00E94141269E871E0D8
:1007400085E193E00E94141222E030E0B501A4019B
:1007500085E193E00E94E91367E971E085E193E0A8
:100760000E94141222E030E0B201A10185E193E081
:100770000E94E9136CE971E085E193E00E94311277
:10078000A5019401C501B4010E943E188E010D55CA
:100790001F4F811111C0A7019601C701B6010E9428
:1007A0003E18811109C020E030E0A901C701B6015F
:1007B0000E948816811122C00E94A7149F938F93D4
:1007C0007F936F931F9281E08F938DE091E09F93D1
:1007D0008F931F930F930E94C91A6BEA71E085E112
:1007E00093E00E943112B80185E193E00E9431123A
:1007F0000FB6F894DEBF0FBECDBFD5C0772473947B
:100800006710712C9DEC892E91E0992EAF969FAECA
:100810008EAEAF97CF55DF4F19821882C15AD040A4
:10082000CE0183599F4F0E94B90E5C0161EA71E0CD
:100830000E94EF0E41E050E060E070E00E94890FFE
:1008400063EC71E0C5010E94EF0E22E0B201A1014C
:100850000E947A0F28E2522EF801852D11928A9576
:10086000E9F748E250E0B801C5010E946802C801FA
:100870000E94AC0298AE8FAAAD961FAE1EAEAD9789
:10088000CE01C7960E94B90E5C0161EA71E00E9438
:10089000EF0E41E050E060E070E00E94890F66ECEE
:1008A00071E0C5010E94EF0E22E0B701A6010E948F
:1008B0007A0FF80111925A94E9F748E250E0B80132
:1008C000C5010E946802C8010E94AC028091180212
:1008D0008715B1F19A8289821EAA1DAACE010196BE
:1008E0000E94B90E7C0161EA71E00E94EF0E41E0C6
:1008F00050E060E070E00E94890F772029F04FE619
:10090000C42E41E0D42E04C034E7C32E31E0D32EF0
:1009100064EA71E0C7010E94EF0EB6010E946E0FFB
:1009200088E2F80111928A95E9F748E250E0B801AF
:10093000C7010E946802C8010E94AC0270921802AE
:100940008DEC91E09A8389831EAA1DAACE0101969F
:100950000E94B90E7C0161EA71E00E94EF0E41E055
:1009600050E060E070E00E94890F68EA71E0C70122
:100970000E94EF0E22E040E050E068E472E40E9442
:100980007A0F88E2F80111928A95E9F748E250E07F
:10099000B801C7010E946802C8010E94AC0280E34E
:1009A00095E70E942005CA52DF4F0FB6F894DEBFCC
:1009B0000FBECDBFDF91CF911F910F91FF90EF90B0
:1009C000DF90CF90BF90AF909F908F907F906F906F
:1009D0005F904F903F902F90089583FF02C098E260
:1009E000892787FD02C0806401C080E094B7977FAB
:1009F00094BFF89490916000986190936000809308
:100A0000600078940895EAE7F0E0908180818F7724
:100A1000808383B7817F846083BFF89483B78160CC
:100A200083BF85B7806685BF85B78F79806485BFB2
:100A30007894889583B78E7F83BF90937A000895CA
:100A4000DF92EF92FF920F931F93CF93DF938C016E
:100A5000EC0128E0E22EF12CC031D10538F19E01E5
:100A6000D12C2032310538F0D39489E0D81619F012
:100A700036952795F6CF109206038D2D0E94ED0432
:100A80000E9403058FEF0E94ED04C70102C0880F8A
:100A9000991FDA94E2F7C81BD90B20910603222391
:100AA00019F0C81BD90BD8CF80E001C081E040917C
:100AB000B7035091B8036091B9037091BA030C1B4E
:100AC0001D0B400F511F611D711D4093B7035093C3
:100AD000B8036093B9037093BA03DF91CF911F916C
:100AE0000F91FF90EF90DF90089561E08AE00E94FF
:100AF000C31561E08AE00E948A158CB580618CBDC7
:100B00008CB580648CBD61E08DE00E948A1561E047
:100B10008BE00C948A158EBD0DB407FEFDCF8EB50B
:100B20000895811103C08CB5806202C08CB58F7DA1
:100B30008CBD08959CB5937F982B9CBD08952CB5D2
:100B4000982F93702C7F922B9CBD9DB582FB88279C
:100B500080F99E7F982B9DBD0895FC017583648369
:100B6000E853FF4F8896918380830895CF93DF9356
:100B7000EC01C853DF4FA881B981AC17BD0770F4F1
:100B8000FC01389680E201900D928A95E1F7888108
:100B9000998180969983888381E001C080E0DF910C
:100BA000CF910895FC01E353FF4F20813181AB01C8
:100BB00042235323FC01868197814817590761F42A
:100BC0002095309583E0220F331F8A95E1F7262385
:100BD000372381E0232B09F080E00895FC01268172
:100BE00037814FEF5FEFBA0162237323672B31F038
:100BF000B3E0440F551FBA95E1F7F5CF40955095F6
:100C0000FC01E353FF4F51834083A3E05695479582
:100C1000AA95E1F73397BA01622373237183608346
:100C20004115510559F063E0369527956A95E1F72E
:100C300073E0569547957A95E1F7F2CFFC01E453BE
:100C4000FF4F208308950097C9F0282F2770215067
:100C5000253070F09F938F9388E690E09F938F9359
:100C60000E94A71A0F900F900F900F9080E00895A8
:100C700053E0969587955A95E1F7E5CF81E0089581
:100C8000CF93DF93CDB7DEB728970FB6F894DEBFCA
:100C90000FBECDBFE62FF0E0E153FE4F2081298348
:100CA000FE0136964CE050E09C01042E02C03695C1
:100CB00027950A94E2F7622F6F70262F30E0209577
:100CC000309574E0220F331F7A95E1F7262B22939B
:100CD000445051094C3F2FEF520731F729813A8197
:100CE0004B815C816D817E818F81988528960FB6BE
:100CF000F894DEBF0FBECDBFDF91CF9108958F92E4
:100D00009F92BF92CF92DF92EF92FF920F931F9329
:100D1000CF93DF931F92CDB7DEB74C016A01CA01B2
:100D200069830E9423066981882309F462C0F40163
:100D3000D782C68284819581FC0120812F3F09F4EE
:100D400058C021812F3F09F454C00E94540960E02B
:100D500070E0F401848195810E94920B62E070E062
:100D6000F401848195810E94380CF4018681978179
:100D700067E070E00E94421805E0080F4FE0602F26
:100D8000848195810E94540CF1E10F9F8001112410
:100D9000222717FD2095322FF4010083118322832F
:100DA0003383C4010E94EE05E5E0BE2E6B2DC60123
:100DB0000E94400679018A019B01AC016B2DF40170
:100DC000848195810E94BD0ABA94FFEFBF12EECFD5
:100DD000F401848195810F90DF91CF911F910F9144
:100DE000FF90EF90DF90CF90BF909F908F900C94EA
:100DF0004A0B0F90DF91CF911F910F91FF90EF90D1
:100E0000DF90CF90BF909F908F9008950F931F9386
:100E1000CF93DF93EC01CB01642F0E944006890140
:100E20009A01AB01BC018C819D810E94820ABE01A6
:100E3000685F7F4F40E28C819D810E94FC09488160
:100E400059816A817B8120E08C819D81DF91CF91E6
:100E50001F910F910C94FF09DF92EF92FF920F9375
:100E60001F93CF93DF938C01EB01CB010E942306EC
:100E70008823C1F1F801E653FF4FD080E18032961C
:100E8000F080BE01C8010E94D205811116C0F80190
:100E9000E353FF4F80819181BE0168237923F801DC
:100EA000268137816217730751F4F3E0880F991F89
:100EB000FA95E1F78760C823D923F12C02C0CD2D24
:100EC000DE2DF801848195810E945B094F2DBE01C2
:100ED000C8010E940607C82FF801848195810E94ED
:100EE0004A0B8C2FDF91CF911F910F91FF90EF90C4
:100EF000DF900895EF92FF920F931F93CF93DF93AC
:100F00001F92CDB7DEB78C017C0188E0E80EF11CA2
:100F1000F80184819581FC0120812F3F79F12181A5
:100F20002F3F61F1BE016F5F7F4F0E94540A8823FB
:100F300029F1F801848195810E94720A882341F386
:100F400040E2B701F801848195810E94760AF80198
:100F5000828593850E942306882359F3F8016285D0
:100F60007385868197816817790721F4C8010E94EB
:100F7000B605DFCFC8010E942C07DBCF0F90DF91B1
:100F8000CF911F910F91FF90EF9008950F931F93B2
:100F9000CF93DF93EC018B01BA018E819F81F80121
:100FA00091838083DE01189688E001900D928A95E6
:100FB000E1F72115310551F0CE014096A901293103
:100FC000310510F048E150E00E94431AF8016281B7
:100FD00073818E819F816817790739F4CE01DF9183
:100FE000CF911F910F910C94B605CE01DF91CF9157
:100FF0001F910F910C942C070F931F93CF93DF93A6
:101000001F92CDB7DEB78C0181E069830E94910504
:1010100080E00E949A0584E00E949F056981F801A2
:1010200081810E94C31585E090E00F90DF91CF9100
:101030001F910F910C94FE14FC0180819181891302
:101040000C94C31508951F93CF93DF93EC01162FD3
:1010500060E00E94FC07812F8F710E948B058FEF4B
:101060000E948B05182F61E0CE010E94FC07812FA2
:10107000DF91CF911F910895CF92DF92EF92FF926F
:101080000F931F93CF93DF9300D0CDB7DEB78C01C2
:10109000E62EF22E60E049835A830E94FC078E2DD3
:1010A0008F7180620E948B05E82E4981C42E5A817F
:1010B000D52EF40EFC1431F0F60181916F010E94DF
:1010C0008B05F8CF61E0C8010E94FC078E2D0F90C0
:1010D0000F90DF91CF911F910F91FF90EF90DF90D4
:1010E000CF900895EF92FF921F93CF93DF931F92BB
:1010F000CDB7DEB77C01162F60E049830E94FC0764
:10110000812F8F7180620E948B05182F4981842F57
:101110000E948B0561E0C7010E94FC07812F0F90A0
:10112000DF91CF911F91FF90EF900895AF92BF9202
:10113000CF92DF92EF92FF920F931F93CF93DF93A3
:1011400000D0CDB7DEB78C01D62EFC01E380F42EA3
:10115000E41608F4FE2CF8018481811102C0EF1816
:1011600001C0E12C60E0C80129837A830E94FC075A
:101170002981822F0E948B05C82EAD2C7A81B72E33
:10118000FD0CFA1431F0F50181915F010E948B058D
:10119000F8CFEE2029F080E00E948B05EA94F9CF89
:1011A00061E0C8010E94FC078C2D0F900F90DF9129
:1011B000CF911F910F91FF90EF90DF90CF90BF9054
:1011C000AF900895AF92BF92CF92DF92EF92FF92CD
:1011D0000F931F93CF93DF931F92CDB7DEB78C0190
:1011E000D62EFC01E380F42EE41608F4FE2CF80160
:1011F0008481811102C0EF1801C0E12C60E0C801B8
:1012000079830E94FC0781E60E948B05C82EAD2CD5
:101210007981B72EFD0CFA1439F08FEF0E948B05FF
:10122000F50181935F01F7CFEE2029F08FEF0E9447
:101230008B05EA94F9CF61E0C8010E94FC078C2D70
:101240000F90DF91CF911F910F91FF90EF90DF9062
:10125000CF90BF90AF9008951F93CF93DF93EC0191
:10126000162F60E00E94FC07812F0E948B05182F2B
:1012700061E0CE010E94FC07812FDF91CF911F9189
:10128000089562EE0C942C0961EE0C942C096FEF1A
:101290000C942C09FC0160834183128280E28383D9
:1012A000148285E082870895462F603808F04FE762
:1012B00065E00C947208CF93DF93EC0160E00E942C
:1012C0001C088B859C850E94FE146DE1CE010E9456
:1012D000230881FF07C08B859C850E94FE14CE01E8
:1012E0000E94440960E0CE010E942308482F4E7FEF
:1012F00060E0CE010E94720862E0CE010E942308E5
:10130000E7EFF1E0E49121E030E001C0220FEA953F
:10131000EAF7822B482F62E0CE01DF91CF910C9447
:101320007208CF93DF93EC0160E00E94230881FDF7
:1013300012C060E0CE010E942308482F426060E0A6
:10134000CE010E94720865E070E080E090E0DF91DD
:10135000CF910C94D614DF91CF9108950F93CF9332
:10136000DF93EC01222311F020EB01C020EACE0133
:101370000E949608002339F061E0CE01DF91CF9101
:101380000F910C941C08DF91CF910F910895CF928B
:10139000DF92EF92FF920F93CF93DF9300D0CDB700
:1013A000DEB76C017B01C6012A8349830E9447098D
:1013B0002A81498180FF10C0C6012A8349830E9487
:1013C00047092A81498184FFEECF40E167E0C601E9
:1013D0000E94720880E006C001E0B701C6010E94C9
:1013E000AE0981E00F900F90DF91CF910F91FF90A8
:1013F000EF90DF90CF90089520E00C94C7098F9272
:101400009F92AF92BF92CF92DF92EF92FF92CF93D3
:10141000DF93EC014A015B01222331F00E945B095A
:1014200061E0CE010E941C080E94A7146B017C01A0
:1014300067E1CE010E94230884FD26C0CE010E94F0
:10144000470984FFF5CF40E167E0CE010E947208B2
:1014500060E0CE010E941C0861E0CE010E941C08E1
:101460000E94A7146C197D098E099F0968157905DA
:101470008A059B05E8F260E0CE010E941C08CE01BF
:101480000E94440980E005C060E0CE010E941C0873
:1014900081E0DF91CF91FF90EF90DF90CF90BF90F0
:1014A000AF909F908F9008950F931F93CF93DF93EA
:1014B0008C01EB0167E10E94230880FD0BC020979F
:1014C00059F0C8010E94470990E09595879587706B
:1014D000888302C080E001C081E0DF91CF911F913D
:1014E0000F91089560E070E00C94540ACF93DF935D
:1014F000EC010E94E20840E767E0CE01DF91CF9166
:101500000C947208EF92FF920F931F93CF93DF9387
:10151000CDB7DEB728970FB6F894DEBF0FBECDBFAC
:101520007C0109831A832B833C834D835E836F8305
:101530007887FC012285AE014F5F5F4F6AE00E9411
:101540003C08F7012285AE014F5F5F4F60E1C701A4
:101550000E943C08F701438161E1C7010E947208C3
:1015600028960FB6F894DEBF0FBECDBFDF91CF91A6
:101570001F910F91FF90EF900895BF92CF92DF924D
:10158000EF92FF920F931F93CF93DF93CDB7DEB708
:1015900028970FB6F894DEBF0FBECDBF6C01B62EF4
:1015A000E982FA820B831C832D833E834F83588705
:1015B00061110AC0FC01428550E0BE016F5F7F4FA0
:1015C00005960E94431A07C0F6E0F61708F436C0E5
:1015D00081E0681308C0EB2DF0E0EF50FE4F6491FE
:1015E000F601228506C0E62FF0E0EF50FE4F649131
:1015F00021E0AE014F5F5F4FC6010E943C080B2DFA
:1016000010E0F801E551FE4F6491F6014381C601F7
:101610000E94720862E0C6010E942308F801E950A6
:10162000FE4F049121E030E001C0220F0A95EAF755
:10163000822B482F62E0C6010E94720828960FB6DE
:10164000F894DEBF0FBECDBFDF91CF911F910F91F8
:10165000FF90EF90DF90CF90BF9008951F93CF93AE
:10166000DF93EC01162F62E00E942308E12FF0E0E7
:10167000E950FE4FE49141E050E001C0440FEA958B
:10168000EAF74095482362E0CE01DF91CF911F91A8
:101690000C947208CF93DF93EC010E94910960E0F3
:1016A000CE010E942308482F416060E0CE010E94D5
:1016B000720840E767E0CE010E94720861E0CE0147
:1016C0000E941C088D81882349F02A85AE014B5F5A
:1016D0005F4F6AE0CE010E943C0804C060E0CE018A
:1016E0000E942E0B6DE1CE010E94230881FF05C0F0
:1016F000CE01DF91CF910C944409DF91CF910895F1
:10170000CF93DF93EC0160E00E94FC0780E50E942C
:101710008B0583E70E948B0561E0CE01DF91CF91BD
:101720000C94FC07EF92FF920F931F93CF93DF93DC
:101730001F92CDB7DEB77C018B0166E00E942308C3
:10174000582F577D0230110531F450620BE910E03B
:1017500020E030E00DC00130110529F005E510E072
:1017600020E030E005C0586001E410E020E030E007
:10177000F7010387148725873687452F66E0C70161
:1017800059830E94720866E0C7010E94230891E015
:101790005981851390E0892F0F90DF91CF911F9190
:1017A0000F91FF90EF900895CF93DF93EC01888124
:1017B0009981891719F061E00E948A1589819881C1
:1017C000981719F061E00E948A150E94750560E083
:1017D000CE010E941C0861E0CE010E94FC0765E07A
:1017E00070E080E090E00E94D6144CE060E0CE0112
:1017F0000E9472084FE564E0CE010E94720862E028
:1018000070E0CE010E94920B882311F081E08A8360
:1018100060E070E0CE010E94920BCE010E94800B2E
:1018200040E06DE1CE010E94720840E06CE1CE0123
:101830000E94720840E767E0CE010E9472086CE4E3
:10184000CE010E945409CE010E944109CE010E949E
:101850004409CE010E94910960E0CE010E94230854
:10186000482F4E7F60E0CE01DF91CF910C9472083B
:101870000F931F93CF93DF93EC018B0160E00E94E5
:101880002308482F437F0115110531F00130110560
:1018900011F4486001C04C6060E0CE01DF91CF914F
:1018A0001F910F910C94720820E1629FB0011124E6
:1018B0004F70462B64E00C9472081F920F920FB683
:1018C0000F9211248F9388E10FB6F89480936000F3
:1018D000109260000FBE8F910F900FBE0F901F905F
:1018E0001895FC0166834783208781E085870895EA
:1018F000CF93DF93EC0160E08E810E948A1561E056
:101900008E810E94C31519861A861B861C86DF915C
:10191000CF910895DF92EF92FF920F931F93CF9391
:10192000DF93EC010E94A71409851A852B853C855D
:10193000601771078207930720F419861A861B86A1
:101940001C862D85211111C009851A852B853C85A2
:10195000DC01CB01801B910BA20BB30B803D9740A8
:10196000A105B10510F481E07BC01D860E94A7147B
:1019700069877A878B879C871C821B821A821982CF
:10198000188261E08E810E94C3156AEF70E080E0EA
:1019900090E00E94D61461E08E810E948A1560E07A
:1019A0008E810E94C31564E170E080E090E00E94A7
:1019B000D614F89461E08E810E94C31588E290E00D
:1019C0000E94FE1460E08E810E948A15F12CD12CB9
:1019D00081E0E12C082F10E08E810E94F91580171C
:1019E000910741F4E39481E090E00E94FE148FEFB0
:1019F000E812F2CF8E810E94F9159FEFE916C9F027
:101A000023E02F1590F4F0FC10C09D2D969596952F
:101A10009695FE01E90FF11D9081990F908328851D
:101A20002E1510F491609083D394F39495E5F912F8
:101A3000D0CF789427E22D1590F42C8130E04881A6
:101A4000898190E0840F911D4A81840F911D4B8103
:101A5000840F911D99272817390709F484CF80E056
:101A6000DF91CF911F910F91FF90EF90DF9008953C
:101A7000CF92DF92EF92FF920F931F93CF93DF935A
:101A8000EC01162F0E948A0C882309F450C08F8124
:101A90008B3031F008F44BC08551823078F047C06C
:101AA0006A8170E080E090E00E942517112309F41C
:101AB00043C020E030E040E151E42AC00A81602FB9
:101AC0006F7770E080E090E00E94271720E030E020
:101AD00040E853E40E94DB176B017C016B8170E0EE
:101AE00080E090E00E9427179B01AC01C701B6017E
:101AF0000E94241620E030E040E251E40E948C165F
:101B000007FD90581123D9F020E030E040E151E486
:101B10000E94DB1720E030E040EA50E40E948C167F
:101B200020E030E040E052E40E94241608C020E0AB
:101B300030E040EC5FE705C09B01AC0102C09B01B7
:101B4000AC01B901CA01DF91CF911F910F91FF90B4
:101B5000EF90DF90CF900895CF92DF92EF92FF92B7
:101B6000CF93DF93EC010E948A0C882379F18F8157
:101B70008B3029F158F18551823040F5688170E051
:101B800080E090E00E94251720E030E040E853E438
:101B90000E94DB176B017C01698170E080E090E0BE
:101BA0000E9427179B01AC01C701B6010E942416B1
:101BB00020E030E040E251E40E948C160BC06881C6
:101BC00070E080E090E00E94251704C060E070E0C3
:101BD00080EC9FE7DF91CF91FF90EF90DF90CF9067
:101BE0000895BF92CF92DF92EF92FF920F931F93CF
:101BF000CF93DF937C01EB01009771F465ED71E009
:101C0000CE01DF91CF911F910F91FF90EF90DF9068
:101C1000CF90BF900C941412E881F9810190F0816B
:101C2000E02D62E2CE0109958C01F70161917F01FF
:101C3000662351F0EAEDF1E0B080BB2079F19181AB
:101C40009617B1F03296F8CFE881F9810190F081D2
:101C5000E02D62E2CE010995800F911FDF91CF91B7
:101C60001F910F91FF90EF90DF90CF90BF9008955C
:101C7000E881F9810190F081E02D6CE5CE010995B4
:101C80006C01E881F9810190F081E02D6B2DCE018E
:101C900009958C0D9D1D080F191FC7CFE881F9818B
:101CA0000190F081E02DCE010995F5CFFC018085F2
:101CB00091852681378182179307A4F4A481B58189
:101CC0009C012F5F3F4F31872087A80FB91F6C936E
:101CD000A481B58180859185A80FB91F1C9281E0F0
:101CE00090E0089580E090E00895CF93DF93EC01B9
:101CF00088819981DC01ED91FC910190F081E02DCA
:101D000009952A813B81280F391F3B832A83DF9164
:101D1000CF9108950F931F93CF93DF93EC018B0125
:101D20006BE5C8010E94750E0A80DB81C02D2097EB
:101D300079F0B801CE0102960E94970F0990D881E0
:101D4000C02D209729F06CE2C8010E94750EF1CFDA
:101D50006DE5C801DF91CF911F910F910C94750E25
:101D6000109208031092070310920A0310920903BD
:101D70000895CF93DF93EC01E881F9810190F08120
:101D8000E02D64E070E00995FC01009729F0D18313
:101D9000C0831382128202C08BE093E0DF91CF9167
:101DA00008950F931F93CF93DF938B01FC01C281A2
:101DB000D381209759F0B8018A819B810E94531AE0
:101DC000892B39F00990D881C02DF3CF80E090E0C5
:101DD00001C0CE01DF91CF911F910F9108950F9314
:101DE0001F93CF93DF93EC018B010E94D10EFC0176
:101DF000009741F588819981009739F1DC01ED91D7
:101E0000FC910190F081E02D6AE070E00995FC0101
:101E10000097D9F01182108281E090E0958384834D
:101E200013830283AA81BB81109751F08D919C91FD
:101E30001197009711F0DC01F9CFED93FC9302C0EC
:101E4000FB83EA83CF01049602C08FE093E0DF9129
:101E5000CF911F910F9108950F931F93CF93DF930D
:101E60008C01EB016BE7CE010E94750EF801028137
:101E700013810115110509F168817981F8018281C9
:101E800093810E94F10D2A813B81280F391F3B83EA
:101E90002A836AE3CE010E94750EBE01C801049632
:101EA0000E94970FF801008111810115110529F099
:101EB0006CE2CE010E94750EDFCF6DE7CE01DF919F
:101EC000CF911F910F910C94750E10920C031092EC
:101ED0000B0310920E0310920D030895FC018081F4
:101EE0009181892B31F085E090E091838083738329
:101EF00062830895FC0180819181892B49F030E053
:101F0000295F3F4F318320834283538364837583EA
:101F10000895FC0180819181892B41F086E090E059
:101F20009183808342835383648375830895CF9321
:101F3000DF93FC01EB01208131812230310531F446
:101F400082819381DF91CF910C948A0E23303105E9
:101F500031F482819381DF91CF910C942C0F253045
:101F6000310539F468817981828193810E94F10D74
:101F70002BC02630310559F442815381648175812B
:101F80002AE030E0888199810E949C121DC0243093
:101F9000310569F48281882319F061EF71E002C094
:101FA00066EF71E0888199810E9414120DC027307C
:101FB000310584F0275030E042815381648175817E
:101FC000888199810E94E9132A813B81280F391F5A
:101FD0003B832A83DF91CF910895109210031092D2
:101FE0000F030895FC01818D228D90E0805C9F4F4E
:101FF000821B91098F7399270895FC01918D828D21
:10200000981731F0828DE80FF11D858D90E00895CD
:102010008FEF9FEF0895FC01918D828D981761F0ED
:10202000828DDF01A80FB11D5D968C91928D9F5F0F
:102030009F73928F90E008958FEF9FEF089589E846
:1020400091E1892B49F080E090E0892B29F00E94F2
:10205000891181110C9400000895FC01848DDF0129
:10206000A80FB11DA35ABF4F2C91848D90E001960B
:102070008F739927848FA689B7892C93A089B189FA
:102080008C9180648C93938D848D981306C0028804
:10209000F389E02D80818F7D80830895CF93DF9336
:1020A000EC01888D8823C9F0EA89FB89808185FD50
:1020B00005C0A889B9898C9186FD0FC00FB607FCB1
:1020C000F5CF808185FFF2CFA889B9898C9185FFF2
:1020D000EDCFCE010E942D10E7CFDF91CF91089573
:1020E000CF92DF92FF920F931F93CF93DF931F92B4
:1020F000CDB7DEB76C01DC015B969C915B975C967B
:102100008C915C97981307C05096ED91FC91519774
:10211000808185FD32C0F601038D10E00F5F1F4FF7
:102120000F731127F02EF601848DF81211C00FB62F
:1021300007FCF9CFD6015096ED91FC915197808123
:1021400085FFF1CFC60169830E942D106981EBCF15
:10215000838DE80FF11DE35AFF4F6083D6015B9634
:102160000C935B975296ED91FC915397808180621E
:10217000808381E058968C930DC0D6015696ED91E0
:10218000FC91579760835096ED91FC915197808117
:102190008064808381E090E00F90DF91CF911F9168
:1021A0000F91FF90DF90CF900895BF92CF92DF9272
:1021B000EF92FF92CF93DF93EC016A017B01B22E85
:1021C00060E874E88EE190E0A70196010E9456183D
:1021D0002150310941095109569547953795279561
:1021E000E889F98982E08083211580E1380798F039
:1021F000E889F989108260E472E48FE090E0A70139
:1022000096010E94561821503109410951095695ED
:10221000479537952795EC85FD853083EE85FF85BD
:102220002083188EEC89FD89B082EA89FB89808140
:1022300080618083EA89FB89808188608083EA8964
:10224000FB89808180688083EA89FB8980818F7D1A
:102250008083DF91CF91FF90EF90DF90CF90BF9080
:1022600008951F920F920FB60F9211242F938F9300
:102270009F93EF93FF93E0912503F09126038081D4
:10228000E0912B03F0912C0382FD12C0908180918C
:102290002E038F5F8F7320912F03821751F0E091EF
:1022A0002E03F0E0EB5EFC4F958F80932E0301C070
:1022B0008081FF91EF919F918F912F910F900FBE91
:1022C0000F901F9018951F920F920FB60F92112426
:1022D0002F933F934F935F936F937F938F939F932E
:1022E000AF93BF93EF93FF9385E193E00E942D108E
:1022F000FF91EF91BF91AF919F918F917F916F91DE
:102300005F914F913F912F910F900FBE0F901F90B3
:10231000189585E193E00E94F20F21E0892B09F4E2
:1023200020E0822F0895109218031092170388EE70
:1023300093E0A0E0B0E08093190390931A03A09378
:102340001B03B0931C0380E092E0909316038093EC
:10235000150385EC90E0909322038093210384EC95
:1023600090E0909324038093230380EC90E090937B
:1023700026038093250381EC90E0909328038093BB
:10238000270382EC90E090932A038093290386EC44
:1023900090E090932C0380932B0310922E031092C5
:1023A0002F0310923003109231030895CF92DF92E1
:1023B000EF92FF920F931F93CF93DF936C017A01FB
:1023C000EB01E60EF71E00E010E0CE15DF0561F030
:1023D0006991D601ED91FC910190F081E02DC6014B
:1023E0000995080F191FF1CFC801DF91CF911F91F7
:1023F0000F91FF90EF90DF90CF90089561157105D8
:1024000081F0DB010D900020E9F7AD014150510949
:10241000461B570BDC01ED91FC910280F381E02D0E
:10242000099480E090E008950C94FE11DC01ED9198
:10243000FC910190F081E02D09940F931F93CF93AD
:10244000DF93EC016DE00E9416128C016AE0CE0170
:102450000E941612800F911FDF91CF911F910F9153
:1024600008950F931F93CF93DF93EC010E94FE1109
:102470008C01CE010E941D12800F911FDF91CF9120
:102480001F910F9108958F929F92AF92BF92CF921A
:10249000DF92EF92FF920F931F93CF93DF93CDB70D
:1024A000DEB7A1970FB6F894DEBF0FBECDBF7C019B
:1024B000C42EE52FCB01D22E19A221E02D1510F04C
:1024C0002AE0D22E8E010F5D1F4F8D2C912CA12C56
:1024D000B12C6C2D7E2FA50194010E9456188C2DD5
:1024E000D29E80191124015011098A3014F4805DA4
:1024F00001C0895CF8018083211531054105510532
:1025000021F0C22EE32FCA01E4CFB801C7010E9417
:10251000FE11A1960FB6F894DEBF0FBECDBFDF91BE
:10252000CF911F910F91FF90EF90DF90CF90BF90D0
:10253000AF909F908F900895CF92DF92EF92FF928D
:102540000F931F93CF93DF93EC016A017B01211559
:10255000310579F4E881F9810190F081E02D642F53
:10256000DF91CF911F910F91FF90EF90DF90CF906F
:1025700009942A303105E9F477FF1AC06DE20E9410
:1025800016128C0144275527BA014C195D096E09B2
:102590007F092AE0CE010E944312800F911FDF9134
:1025A000CF911F910F91FF90EF90DF90CF90089502
:1025B0002AE0B701A601CE01DF91CF911F910F91C3
:1025C000FF90EF90DF90CF900C9443120F931F93E6
:1025D000CF93DF93EC019A01AB01662757FD60951D
:1025E000762F0E949C128C01CE010E941D12800F3A
:1025F000911FDF91CF911F910F9108954F925F929C
:102600006F927F928F929F92AF92BF92CF92DF9202
:10261000EF92FF920F931F93CF93DF93EC016A0128
:102620007B01B22E9A01AB01C701B6010E943E1890
:10263000882319F06CE072E027C026013701E89486
:1026400077F82FEF3FEF4FE75FE7C301B2010E943A
:102650003E1881110DC02FEF3FEF4FE75FE7C30139
:10266000B2010E94881618161CF460E172E00CC0DA
:102670002FEF3FEF4FE75FE4C701B6010E94D71786
:102680001816ACF464E172E0CE01DF91CF911F9196
:102690000F91FF90EF90DF90CF90BF90AF909F9001
:1026A0008F907F906F905F904F900C94FE112FEF62
:1026B0003FEF4FE75FECC701B6010E94881687FD28
:1026C000E1CF20E030E0A901C701B6010E948816E1
:1026D00087FF0AC06DE2CE010E9416128C01F7FA44
:1026E000F094F7F8F09402C000E010E0A12C60E054
:1026F00070E080E09FE3AB1441F020E030E040E286
:1027000051E40E948C16A394F6CF9B01AC01C70143
:10271000B6010E9424166B017C010E94F9162B0160
:102720003C010E9425179B01AC01C701B6010E9424
:1027300023166B017C012AE0B301A201CE010E94A5
:102740004312080F191FBB2039F064E371E0CE017A
:102750000E94FE11080F191F7B2C772041F120E009
:1027600030E040E251E4C701B6010E94DB176B0183
:102770007C010E94F4164B01AA2497FCA094BA2C69
:102780002AE030E0B501A401CE010E949C12080F9E
:10279000191FC501B4010E9427179B01AC01C70195
:1027A000B6010E9423166B017C017A94D6CFC80132
:1027B000DF91CF911F910F91FF90EF90DF90CF901D
:1027C000BF90AF909F908F907F906F905F904F9051
:1027D00008950C94FE121F920F920FB60F921124BF
:1027E0002F933F934F935F936F937F938F939F9319
:1027F000AF93BF93EF93FF938091B2039091B30394
:10280000892B29F0E091B203F091B3030995FF9170
:10281000EF91BF91AF919F918F917F916F915F9158
:102820004F913F912F910F900FBE0F901F901895D1
:102830001F920F920FB60F9211242F933F934F9335
:102840005F936F937F938F939F93AF93BF93EF9318
:10285000FF938091B4039091B503892B29F0E09107
:10286000B403F091B5030995FF91EF91BF91AF913A
:102870009F918F917F916F915F914F913F912F9198
:102880000F900FBE0F901F901895009729F0BC0174
:1028900080E090E00C943A1A089508950E9409157A
:1028A0000E944D140E94BF01CFE1D0E10E94450378
:1028B0002097E1F30E941F10F9CF1F920F920FB6DD
:1028C0000F9211242F933F938F939F93AF93BF93B6
:1028D0008091B7039091B803A091B903B091BA0366
:1028E0003091B60326E0230F2D3720F40296A11D68
:1028F000B11D05C029E8230F0396A11DB11D20932A
:10290000B6038093B7039093B803A093B903B09331
:10291000BA038091BB039091BC03A091BD03B09119
:10292000BE030196A11DB11D8093BB039093BC0310
:10293000A093BD03B093BE03BF91AF919F918F91C0
:102940003F912F910F900FBE0F901F9018952FB7AA
:10295000F8946091B7037091B8038091B903909196
:10296000BA032FBF08953FB7F8948091BB039091AD
:10297000BC03A091BD03B091BE0326B5A89B05C0C2
:102980002F3F19F00196A11DB11D3FBF6627782F7B
:10299000892F9A2F620F711D811D911D43E0660FD3
:1029A000771F881F991F4A95D1F70895CF92DF921C
:1029B000EF92FF92CF93DF936B017C010E94B314DF
:1029C000EB01C114D104E104F10489F00E94221644
:1029D0000E94B3146C1B7D0B683E734090F381E042
:1029E000C81AD108E108F108C851DC4FEACFDF91DD
:1029F000CF91FF90EF90DF90CF90089581309105B7
:102A000039F0029729F0880F991F01970197F1F784
:102A10000895789484B5826084BD84B5816084BD56
:102A200085B5826085BD85B5816085BDEEE6F0E047
:102A3000808181608083E1E8F0E0108280818260A3
:102A40008083808181608083E0E8F0E08081816024
:102A50008083E1EBF0E0808184608083E0EBF0E054
:102A6000808181608083EAE7F0E0808184608083F8
:102A700080818260808380818160808380818068A2
:102A800080831092C10008958E3008F08E508770B8
:102A900020910C0190E4299F90011124822B8093B6
:102AA0007C0080917A00806480937A0080917A0023
:102AB00086FDFCCF809178002091790090E0922BE8
:102AC0000895833081F028F4813099F08230A1F0AC
:102AD00008958730A9F08830B9F08430D1F480911E
:102AE00080008F7D03C0809180008F77809380006D
:102AF000089584B58F7702C084B58F7D84BD089515
:102B00008091B0008F7703C08091B0008F7D80935B
:102B1000B0000895CF93DF9390E0FC01EB57FD4F99
:102B20002491FC01E756FD4F8491882349F190E000
:102B3000880F991FFC01EF53FD4FA591B491895463
:102B40009D4FFC01C591D4919FB7611108C0F894C5
:102B50008C91209582238C93888182230AC06230D5
:102B600051F4F8948C91322F309583238C93888183
:102B7000822B888304C0F8948C91822B8C939FBF06
:102B8000DF91CF9108950F931F93CF93DF931F92FF
:102B9000CDB7DEB7282F30E0F901EF58FD4F849113
:102BA000F901EB57FD4F1491F901E756FD4F0491E0
:102BB0000023C9F0882321F069830E94611569818F
:102BC000E02FF0E0EE0FFF1FE954FD4FA591B49107
:102BD0009FB7F8948C91611103C01095812301C0B7
:102BE000812B8C939FBF0F90DF91CF911F910F91FD
:102BF0000895CF93DF93282F30E0F901EF58FD4F70
:102C00008491F901EB57FD4FD491F901E756FD4F3F
:102C1000C491CC2391F081110E946115EC2FF0E05A
:102C2000EE0FFF1FE355FD4FA591B4912C912D237D
:102C300081E090E021F480E002C080E090E0DF914C
:102C4000CF91089508955058BB27AA270ED075C17B
:102C500066D130F06BD120F031F49F3F11F41EF4B7
:102C60005BC10EF4E095E7FB51C1E92F77D180F30A
:102C7000BA17620773078407950718F071F49EF579
:102C80008FC10EF4E0950B2EBA2FA02D0B01B901C8
:102C900090010C01CA01A0011124FF27591B99F0D2
:102CA000593F50F4503E68F11A16F040A22F232FDE
:102CB000342F4427585FF3CF469537952795A7952E
:102CC000F0405395C9F77EF41F16BA0B620B730BD5
:102CD000840BBAF09150A1F0FF0FBB1F661F771F46
:102CE000881FC2F70EC0BA0F621F731F841F48F4FB
:102CF000879577956795B795F7959E3F08F0B3CF81
:102D00009395880F08F09927EE0F9795879508956A
:102D1000D9D008F481E008950CD00FC107D140F05C
:102D2000FED030F021F45F3F19F0F0C0511139C1ED
:102D3000F3C014D198F39923C9F35523B1F3951B2C
:102D4000550BBB27AA2762177307840738F09F5FCC
:102D50005F4F220F331F441FAA1FA9F333D00E2E3B
:102D60003AF0E0E830D091505040E695001CCAF7A8
:102D700029D0FE2F27D0660F771F881FBB1F26176D
:102D800037074807AB07B0E809F0BB0B802DBF0140
:102D9000FF2793585F4F2AF09E3F510568F0B6C059
:102DA00000C15F3FECF3983EDCF38695779567951D
:102DB000B795F7959F5FC9F7880F911D96958795F1
:102DC00097F90895E1E0660F771F881FBB1F621710
:102DD00073078407BA0720F0621B730B840BBA0BCE
:102DE000EE1F88F7E095089504D06894B111D9C01A
:102DF0000895BCD088F09F5790F0B92F9927B7510C
:102E0000A0F0D1F0660F771F881F991F1AF0BA95AE
:102E1000C9F712C0B13081F0C3D0B1E00895C0C08D
:102E2000672F782F8827B85F39F0B93FCCF38695A4
:102E300077956795B395D9F73EF490958095709501
:102E400061957F4F8F4F9F4F0895E89409C097FB7E
:102E50003EF490958095709561957F4F8F4F9F4F71
:102E60009923A9F0F92F96E9BB279395F6958795B5
:102E700077956795B795F111F8CFFAF4BB0F11F478
:102E800060FF1BC06F5F7F4F8F4F9F4F16C088231F
:102E900011F096E911C0772321F09EE8872F762F55
:102EA00005C0662371F096E8862F70E060E02AF096
:102EB0009A95660F771F881FDAF7880F9695879582
:102EC00097F90895990F0008550FAA0BE0E8FEEF57
:102ED00016161706E807F907C0F012161306E407DE
:102EE000F50798F0621B730B840B950B39F40A26D7
:102EF00061F0232B242B252B21F408950A2609F4B5
:102F0000A140A6958FEF811D811D089597F99F67B8
:102F100080E870E060E008959FEF80EC0895002461
:102F20000A941616170618060906089500240A942E
:102F300012161306140605060895092E0394000CB4
:102F400011F4882352F0BB0F40F4BF2B11F460FF43
:102F500004C06F5F7F4F8F4F9F4F089557FD90586C
:102F6000440F551F59F05F3F71F04795880F97FB4D
:102F7000991F61F09F3F79F0879508951216130607
:102F80001406551FF2CF4695F1DF08C01616170636
:102F90001806991FF1CF869571056105089408956B
:102FA000E894BB2766277727CB0197F908958ADF36
:102FB00008F48FEF08950BD0C0CFB1DF28F0B6DF53
:102FC00018F0952309F0A2CFA7CF1124EACFC6DFCE
:102FD000A0F3959FD1F3950F50E0551F629FF0012C
:102FE000729FBB27F00DB11D639FAA27F00DB11D85
:102FF000AA1F649F6627B00DA11D661F829F22270E
:10300000B00DA11D621F739FB00DA11D621F839F94
:10301000A00D611D221F749F3327A00D611D231F6A
:10302000849F600D211D822F762F6A2F11249F57B8
:1030300050408AF0E1F088234AF0EE0FFF1FBB1FDB
:10304000661F771F881F91505040A9F79E3F51057A
:1030500070F05CCFA6CF5F3FECF3983EDCF3869533
:1030600077956795B795F795E7959F5FC1F7FE2B25
:10307000880F911D9695879597F9089523DF880B02
:10308000990B0895AA1BBB1B51E107C0AA1FBB1FC8
:10309000A617B70710F0A61BB70B881F991F5A95E4
:1030A000A9F780959095BC01CD010895A1E21A2E53
:1030B000AA1BBB1BFD010DC0AA1FBB1FEE1FFF1FDC
:1030C000A217B307E407F50720F0A21BB30BE40B2C
:1030D000F50B661F771F881F991F1A9469F7609573
:1030E0007095809590959B01AC01BD01CF0108952D
:1030F000052E97FB1EF400940E948F1857FD07D0F1
:103100000E94561807FC03D04EF40C948F1850956B
:103110004095309521953F4F4F4F5F4F08959095C3
:103120008095709561957F4F8F4F9F4F0895A29F17
:10313000B001B39FC001A39F700D811D1124911D8B
:10314000B29F700D811D1124911D08950E94971842
:10315000A59F900DB49F900DA49F800D911D1124EB
:103160000895B7FF0C94A6180E94A618821B930B13
:103170000895EE0FFF1F0590F491E02D0994CF9371
:10318000DF938230910510F482E090E0E091C1037A
:10319000F091C20320E030E0A0E0B0E0309739F1D8
:1031A0004081518148175907B8F04817590771F401
:1031B00082819381109729F013969C938E93129796
:1031C0002CC09093C2038093C10327C02115310501
:1031D00031F04217530718F0A901DB0101C0EF01DC
:1031E0009A01BD01DF010280F381E02DD7CF2115C7
:1031F0003105F9F0281B390B2430310580F48A8120
:103200009B816115710521F0FB019383828304C0CA
:103210009093C2038093C103FE01329644C0FE0125
:10322000E20FF31F81939193225031093983288350
:103230003AC02091BF033091C003232B41F4209169
:103240000201309103013093C0032093BF0320910A
:103250000001309101012115310541F42DB73EB730
:103260004091040150910501241B350BE091BF03EF
:10327000F091C003E217F307A0F42E1B3F0B2817B1
:10328000390778F0AC014E5F5F4F2417350748F0DF
:103290004E0F5F1F5093C0034093BF0381939193E0
:1032A00002C0E0E0F0E0CF01DF91CF910895CF932D
:1032B000DF93009709F487C0FC01329713821282D2
:1032C000C091C103D091C203209781F42081318144
:1032D000280F391F8091BF039091C0038217930775
:1032E00079F5F093C003E093BF036DC0DE0120E0E9
:1032F00030E0AE17BF0750F412964D915C911397D2
:103300009D014115510509F1DA01F3CFB383A28381
:1033100040815181840F951F8A179B0771F48D910D
:103320009C911197840F951F02969183808312962A
:103330008D919C911397938382832115310529F4F4
:10334000F093C203E093C1033EC0D9011396FC93EE
:10335000EE9312974D915D91A40FB51FEA17FB07ED
:1033600079F480819181840F951F0296D90111967D
:103370009C938E938281938113969C938E93129744
:10338000E0E0F0E08A819B81009719F0FE01EC01FA
:10339000F9CFCE01029628813981820F931F2091A7
:1033A000BF033091C0032817390769F4309729F417
:1033B0001092C2031092C10302C013821282D093F2
:1033C000C003C093BF03DF91CF9108958F929F9266
:1033D000AF92BF92CF92DF92EF92FF92CF93DF93A3
:1033E000EC01688179818A819B8161157105810574
:1033F000910521F464E279ED8BE597E02DE133EF5F
:1034000041E050E00E94781849015A019B01AC014B
:10341000A7EAB1E40E94A6186B017C01ACEEB4EF00
:10342000A50194010E94B418C60ED71EE81EF91E0D
:10343000F7FE06C081E0C81AD108E10880E8F80A62
:10344000C882D982EA82FB82C701B6019F77DF91E9
:10345000CF91FF90EF90DF90CF90BF90AF909F9073
:103460008F9008950E94E619089586E091E00E94E9
:10347000E61908956093060170930701809308018F
:10348000909309010895FB01DC0102C001900D92A7
:1034900041505040D8F70895DC0101C06D93415070
:1034A0005040E0F70895FB01DC018D9101908019F7
:1034B0000110D9F3990B08950F931F93CF93DF93C6
:1034C000EC018B01009731F46115710519F480E06E
:1034D00090E038C06EE070E081E090E00E94BD1C9A
:1034E000FC010097A1F380E883830115110571F0B9
:1034F0001387028781E883838091C3039091C4037B
:10350000892B21F4F093C403E093C3032097C9F0FF
:10351000D187C0878381826083838091C503909126
:10352000C603892B71F4F093C603E093C503809121
:10353000C7039091C803892B21F4F093C803E0934B
:10354000C703CF01DF91CF911F910F910895A0E0A4
:10355000B0E0EDEAFAE10C948D1DFE013796619121
:10356000719105EC13E0D8018D919C91DC011396CB
:103570002C911397286013962C93AF010E94EB1A9D
:10358000D801ED91FC912381277F2383E4E00C9403
:10359000A91DAEE0B0E0EFECFAE10C948D1D0D89B1
:1035A0001E8986E08C831A8309838FEF9FE79E83B1
:1035B0008D83AE01475E5F4F6F89788DCE01019696
:1035C0000E94EB1AEF81F885E00FF11F10822E9612
:1035D000E4E00C94A91DACE0B0E0E1EFFAE10C945A
:1035E0007F1D7C016B018A01FC0117821682838199
:1035F00081FFBDC1CE0101964C01F7019381F60117
:1036000093FD859193FF81916F01882309F4ABC1EC
:10361000853239F493FD859193FF81916F01853255
:1036200029F4B70190E00E94EF1CE7CF512C312C18
:1036300020E02032A0F48B3269F030F4803259F06F
:10364000833269F420612CC08D3239F0803339F433
:10365000216026C02260246023C0286021C027FD8D
:1036600027C030ED380F3A3078F426FF06C0FAE074
:103670005F9E300D1124532E13C08AE0389E300D0A
:103680001124332E20620CC08E3221F426FD6BC132
:10369000206406C08C3611F4206802C0883641F4DC
:1036A000F60193FD859193FF81916F018111C1CF47
:1036B000982F9F7D9554933028F40C5F1F4FFFE3A4
:1036C000F9830DC0833631F0833771F0833509F00B
:1036D0005BC022C0F801808189830E5F1F4F4424A4
:1036E0004394512C540115C03801F2E06F0E711C47
:1036F000F801A080B18026FF03C0652D70E002C0F4
:103700006FEF7FEFC5012C870E94E41C2C01830121
:103710002C852F77222E17C03801F2E06F0E711C16
:10372000F801A080B18026FF03C0652D70E002C0C3
:103730006FEF7FEFC5012C870E94D91C2C012C85CF
:103740002068222E830123FC1BC0832D90E04816A5
:103750005906B0F4B70180E290E00E94EF1C3A9461
:10376000F4CFF50127FC859127FE81915F01B70118
:1037700090E00E94EF1C31103A94F1E04F1A51088A
:103780004114510471F7E5C0843611F0893639F5DA
:10379000F80127FF07C060817181828193810C5FEE
:1037A0001F4F08C060817181882777FD8095982F11
:1037B0000E5F1F4F2F76B22E97FF09C09095809510
:1037C000709561957F4F8F4F9F4F2068B22E2AE0F2
:1037D00030E0A4010E94211DA82EA81844C08537FE
:1037E00029F42F7EB22E2AE030E025C0F22FF97F97
:1037F000BF2E8F36C1F018F4883579F0B4C0803709
:1038000019F0883721F0AFC02F2F2061B22EB4FEFF
:103810000DC08B2D8460B82E09C024FF0AC09F2FD5
:103820009660B92E06C028E030E005C020E130E007
:1038300002C020E132E0F801B7FE07C0608171816B
:10384000828193810C5F1F4F06C06081718180E08F
:1038500090E00E5F1F4FA4010E94211DA82EA81802
:10386000FB2DFF77BF2EB6FE0BC02B2D2E7FA51490
:1038700050F4B4FE0AC0B2FC08C02B2D2E7E05C049
:103880007A2C2B2D03C07A2C01C0752C24FF0DC07F
:10389000FE01EA0DF11D8081803311F4297E09C0FB
:1038A00022FF06C07394739404C0822F867809F0B7
:1038B000739423FD13C020FF06C05A2C731418F410
:1038C000530C5718732C731468F4B70180E290E01E
:1038D0002C870E94EF1C73942C85F5CF731410F481
:1038E000371801C0312C24FF12C0B70180E390E0EB
:1038F0002C870E94EF1C2C8522FF17C021FF03C0DC
:1039000088E590E002C088E790E0B7010CC0822F04
:10391000867859F021FD02C080E201C08BE227FDCC
:103920008DE2B70190E00E94EF1CA51438F4B701B6
:1039300080E390E00E94EF1C5A94F7CFAA94F40120
:10394000EA0DF11D8081B70190E00E94EF1CA110EB
:10395000F5CF332009F451CEB70180E290E00E9408
:10396000EF1C3A94F6CFF7018681978102C08FEF62
:103970009FEF2C96E2E10C949B1D0F931F93CF9326
:10398000DF93869F8001879F100D969F100D112455
:10399000C8010E94BF18EC01009729F0A80160E05F
:1039A00070E00E944C1ACE01DF91CF911F910F91D0
:1039B0000895FC010590615070400110D8F7809582
:1039C00090958E0F9F1F0895FC01615070400190EB
:1039D0000110D8F7809590958E0F9F1F08950F9333
:1039E0001F93CF93DF93182F092FEB018B8181FD5C
:1039F00003C08FEF9FEF20C082FF10C04E815F8118
:103A00002C813D81421753077CF4E881F9819F01A5
:103A10002F5F3F4F39832883108306C0E885F985DF
:103A2000812F0995892B29F72E813F812F5F3F4FE9
:103A30003F832E83812F902FDF91CF911F910F9184
:103A40000895FA01AA27283051F1203181F1E89434
:103A50006F936E7F6E5F7F4F8F4F9F4FAF4FB1E081
:103A60003ED0B4E03CD0670F781F891F9A1FA11D7C
:103A7000680F791F8A1F911DA11D6A0F711D811D7D
:103A8000911DA11D20D009F468943F912AE0269F42
:103A900011243019305D3193DEF6CF010895462FA1
:103AA0004770405D4193B3E00FD0C9F7F6CF462F82
:103AB0004F70405D4A3318F0495D31FD40524193EB
:103AC00002D0A9F7EACFB4E0A695979587957795A8
:103AD0006795BA95C9F700976105710508959B012F
:103AE000AC010A2E06945795479537952795BA95B8
:103AF000C9F7620F731F841F951FA01D08952F9291
:103B00003F924F925F926F927F928F929F92AF926D
:103B1000BF92CF92DF92EF92FF920F931F93CF93BA
:103B2000DF93CDB7DEB7CA1BDB0B0FB6F894DEBF51
:103B30000FBECDBF09942A88398848885F846E8477
:103B40007D848C849B84AA84B984C884DF80EE80C1
:103B5000FD800C811B81AA81B981CE0FD11D0FB6CA
:103B6000F894DEBF0FBECDBFED010895F894FFCFEE
:103B70000000C90380000100000001000149443A2F
:103B800025643A54533A256C753A45523A45525297
:103B90004F5200005374617274696E672076302E44
:103BA00032352E2E2E0025642E25640025642E30FD
:103BB00025640053656E64696E67207061636B6590
:103BC000742E2E2E005772697465206275666665C4
:103BD00072206661696C65640073656E743D0054A3
:103BE0007275650046616C73650048756D6964693E
:103BF00074793A20002025090054656D7065726162
:103C0000747572653A2000202A432000202A460954
:103C100000696400706972006273004661696C65D6
:103C20006420746F20726561642066726F6D204439
:103C300048540074660072680000000000A8013C4F
:103C40005A6996A5C36E756C6C0022225C5C620892
:103C5000660C6E0A720D74090000000000560ED644
:103C600011747275650066616C7365000000000078
:103C70007010D611F20F0B10FD0F4E106E616E001A
:083C8000696E66006F766600B4
:00000001FF
