:100000000C9482020C94941B0C94C11B0C942A1720
:100010000C942A170C942A170C94AA020C94AA0286
:100020000C94AA020C94AA020C94AA020C941D141B
:100030000C94AA020C94AA020C94AA020C94AA0290
:100040000C94EE1B0C94AA020C948D1D0C94BF1DF5
:100050000C94AA020C94AA020C94AA020C94AA0270
:100060000C94661A0C94AA02000000000000000024
:1000700000005F0000000000000007000700000013
:1000800000147F147F14000000242A7F2A1200002D
:100090000023130864620000003649552250000016
:1000A0000000050300000000001C224100000000C9
:1000B0000041221C0000000000082A1C2A08000041
:1000C0000008083E0808000000A0600000000000D2
:1000D0000008080808080000006060000000000038
:1000E0000020100804020000003E5149453E000077
:1000F0000000427F40000000006251494946000074
:100100000022414949360000001814127F100000F7
:100110000027454545390000003C4A494930000068
:100120000001710905030000003649494936000005
:1001300000064949291E0000000036360000000074
:100140000000AC6C00000000000814224100000018
:1001500000141414141400000041221408000000BC
:10016000000201510906000000324979413E0000B9
:10017000007E0909097E0000007F494949360000D8
:10018000003E414141220000007F4141221C00000D
:10019000007F494949410000007F09090901000029
:1001A000003E414151720000007F0808087F0000B6
:1001B00000417F4100000000002040413F0100005D
:1001C000007F081422410000007F404040400000B2
:1001D000007F020C027F0000007F0408107F0000F7
:1001E000003E4141413E0000007F09090906000030
:1001F000003E4151215E0000007F091929460000A0
:1002000000264949493200000001017F0101000038
:10021000003F4040403F0000001F2040201F0000E2
:10022000003F4038403F00000063140814630000A2
:1002300000030478040300000061514945430000B5
:10024000007F41410000000000020408102000006F
:100250000041417F00000000000402010204000090
:100260000080808080800000000102040000000007
:100270000020545454780000007F48444438000063
:10028000003844442800000000384444487F0000FF
:10029000003854545418000000087E090200000081
:1002A0000018A4A4A47C0000007F080404780000C7
:1002B00000007D00000000000080847D0000000040
:1002C000007F10284400000000417F400000000033
:1002D000007C041804780000007C08047C00000006
:1002E000003844443800000000FC242418000000BA
:1002F00000182424FC00000000007C08040000001A
:10030000004854542400000000047F440000000012
:10031000003C40407C000000001C2040201C0000ED
:10032000003C4030403C00000044281028440000BD
:10033000001CA0A07C000000004464544C44000059
:10034000000836410000000000007F0000000000AF
:100350000041360800000000000201010201000017
:100360000002050502000000000000080002010074
:100370000003040700000000000000000102040860
:1003800010204080010204081020010204081020FF
:10039000040404040404040402020202020203032B
:1003A00003030303000000002300260029000000CF
:1003B0000000250028002B0000000000240027007A
:1003C0002A004E414E494E495459494E46CDCCCC57
:1003D0003D0AD7233C17B7D13877CC2B329595E619
:1003E000241FB14F0A000020410000C84200401CF9
:1003F0004620BCBE4CCA1B0E5AAEC59D7400407A46
:1004000010F35A00A0724E18090010A5D4E800009D
:10041000E87648170000E40B54020000CA9A3B003B
:100420000000E1F505000080969800000040420FB2
:10043000000000A08601000000102700000000E876
:1004400003000000006400000000000A000000003B
:10045000000100000000002C76D888DC674F0823DC
:10046000DFC1DFAE59E1B1B796E5E3E453C63AE642
:1004700051997696E8E6C28426EB898C9B62ED4022
:100480007C6FFCEFBC9C9F40F2BAA56FA5F4900571
:100490005A2AF75C936B6CF9676DC11BFCE0E40DA5
:1004A00047FEF520E6B500D0ED902E030094357799
:1004B000050080841E080000204E0A000000C80CC1
:1004C000333333330F986E12831141EF8D2114892A
:1004D0003BE65516CFFEE6DB18D1844B381BF77C84
:1004E0001D901DA4BBE424203284725E228100C9C9
:1004F000F124ECA1E53D270052058B0D7211C819BE
:10050000EF1D680511241FBECFEFD8E0DEBFCDBFC1
:1005100013E0A0E0B1E0E2ECF7E502C005900D9237
:10052000A83EB107D9F726E0A8EEB3E001C01D92BE
:10053000A03EB207E1F714E0C2E0D5E004C0229784
:10054000FE010E94D421C83FD107C9F70E94331E83
:100550000C94D42B0C940000CF93C82FE091370655
:10056000F09138060190F081E02D682F87E396E046
:1005700009958C2F992787FD9095CF9108959C011F
:10058000FC01EE5BFF4F80819181680F791F613420
:10059000710530F4718360830296820F931F089572
:1005A00080E090E00895FC0182A193A1680F791F7B
:1005B0006132710530F473A362A302968E0F9F1F00
:1005C000089580E090E008950E94040BFC0181E012
:1005D000208131812230310508F480E0089560E007
:1005E00070E08CEA92E00C940C260F931F93CF934B
:1005F000DF938C01C1E0D0E00C171D0784F061E0AF
:100600008DE00E942C1D64EF71E080E090E00E947C
:10061000671C60E08DE00E942C1D2196EDCFDF91DC
:10062000CF911F910F91089540E0682F87E195E0E9
:100630000E94770E60910B0170910C0187E195E0AB
:100640000C94290FFF920F931F93CF93DF93CDB795
:10065000DEB72E970FB6F894DEBF0FBECDBFF82ED3
:100660008A01222321F06E870E9414036E85462F93
:100670006F2D87E195E00E94770E8CE0F801DE0196
:10068000119601900D928A95E1F71D86BE016F5F6C
:100690007F4F87E195E00E94290F2E960FB6F894C0
:1006A000DEBF0FBECDBFDF91CF911F910F91FF90A5
:1006B00008952F923F924F925F926F927F928F9206
:1006C0009F92AF92BF92CF92DF92EF92FF920F93E1
:1006D0001F93CF93DF93CDB7DEB7EF970FB6F894A4
:1006E000DEBF0FBECDBF9BAF8AAF0E94381C6B012F
:1006F0007C019E012B5E3F4F3BAB2AAB8DE0D901C5
:100700001D928A95E9F7FE013196FDABECAB84E1D1
:1007100011928A95E9F78090810490908204A090CC
:100720008304B09084048091850490918604A09104
:100730008704B0918804881A990AAA0ABB0AC701DB
:10074000B60128EE33E040E050E00E946A21820EBC
:10075000931EA41EB51EC501B40120E831E541E099
:1007600050E00E946A212CAF3DAF4EAF5FAF4B010E
:100770005C0120E13EE040E050E00E946A21190166
:10078000142F052F3CE3432E512C612C712CC501F5
:10079000B401A30192010E946A217F936F93A0EF9D
:1007A000B1EF9101412F502F0E94B921680D791DA1
:1007B0008A1D9B1DA30192010E946A213F932F93E2
:1007C0003F922F9280917F04909180042CAD3DAD9B
:1007D000820F931F9F938F938FE091E09F938F934E
:1007E0003BA93F934AA94F930E94872620E0AE0180
:1007F0004B5E5F4F60E070E081E090E00E9422037A
:100800000FB6F894DEBF0FBECDBFAAADBBADB7FF2C
:1008100016C08091770490917804A0917904B091EA
:100820007A04A7019601281B390B4A0B5B0BDA01EE
:10083000C90180369A4EA105B10508F41AC1C092CB
:100840007704D0927804E0927904F0927A0487E0F9
:10085000E82E84E0F82E90E1692E94E0792E25E0D0
:10086000C22ED12CA12CB12CAE01465D5F4F5FABE7
:100870004EABCE01829699AF88AFF70186899789F2
:10088000A08DB18D892B8A2B8B2B09F4E1C02AAD69
:100890003BAD2A153B0511F064E001C069E087E13A
:1008A00095E00E94A70D460131E0831A9108D70117
:1008B00056964D915D916D917C91599780917B04F5
:1008C00090917C04A0917D04B0917E044817590753
:1008D0006A077B0709F049C0C4010E941403F701AD
:1008E00061817281838194818E01065D1F4F21E0B9
:1008F00043E00E94E721D70115966D917D918D917E
:100900009C9118970850110921E043E00E94E721CB
:10091000EAA9FBA92DE011922A95E9F739AD3F9399
:1009200048AD4F935FA95F938EA98F93D7018C91A8
:100930001F928F93A3E2B1E0BF93AF931F92FDE0AC
:10094000FF932BA92F933AA93F930E94572620E0AB
:10095000AE014B5E5F4F60E070E0C4010E94220375
:100960000FB6F894DEBF0FBECDBFC6010E941403C0
:10097000ACA9BDA9E4E11D92EA95E9F760917B0479
:1009800070917C0480917D0490917E04D7015696ED
:100990000D911D912D913C915997601B710B820B0C
:1009A000930B28EE33E040E050E00E946A21CA0138
:1009B000B90120E831E541E050E00E946A211B01C5
:1009C0002C0120E13EE040E050E00E946A21122F1D
:1009D000032FF30180811F928F93F7018285938506
:1009E000A485B585B7FF03C080E090E0DC011F92CD
:1009F0008F93A0EFB1EF212F302F0E94B921620D0C
:100A0000731D841D951D2CE330E040E050E00E94F2
:100A10006A213F932F930F931F93ADE2B1E0BF93F1
:100A2000AF931F92F4E1FF932DA92F933CA93F931D
:100A30000E94572620E0AE014F5F5F4F60E070E0FC
:100A4000C6010E9422030FB6F894DEBF0FBECDBFD1
:100A50005FEFA51AB50A8CE1E80EF11C92E0C90E11
:100A6000D11CACE16A0E711CB4E0AB16B10409F004
:100A700004CFEF960FB6F894DEBF0FBECDBFDF9167
:100A8000CF911F910F91FF90EF90DF90CF90BF908B
:100A9000AF909F908F907F906F905F904F903F901E
:100AA0002F9008952AE135E04AE069E08DEC94E06A
:100AB0000E94811440E06DEC74E08AEC94E00E94A6
:100AC000420F20E047E066E088EE93E00C94FD17CB
:100AD00088EE93E00C94A417CF93DF9360E086E058
:100AE0000E94F31C61E087E00E94F31C61E08DE04E
:100AF0000E94F31C40E05BE460E070E088EE93E06D
:100B00000E942D180E94EF0288EE93E00E94DC16EE
:100B100081E090E00E94F5028AE695E00E949C192F
:100B200087E195E00E94C80D87E195E00E94C20E22
:100B300087E195E00E94A70E87E195E00E946B0E89
:100B400066E087E195E00E94A70D21E041E451E0D5
:100B500060E070E080E090E00E94220340910D018F
:100B600050910E0120E068E070E080E090E00E948B
:100B7000220321E04AE451E060E070E082E090E08E
:100B80000E94220320E043E551E060E070E083E052
:100B900090E00E942203E7E0F4E0C0E1D4E041E00D
:100BA00080E090E0A0E8BFEB2CE231E04083168AC1
:100BB000178A108E118E81839283A383B4838583D9
:100BC0009683A783B08718821286138614861586AB
:100BD000338F228F4F5F7C966C96453039F78AECC5
:100BE00094E00E94A80F81110FC021E040E651E07F
:100BF00060E070E083E090E00E9422036FE671E025
:100C000088EE93E00E949D1E63E08DEC94E00E94CC
:100C1000BA14811106C064E871E087E396E00E948F
:100C20009D1E42E050E062E070E08DEC94E00E9496
:100C3000C114811106C067E971E087E396E00E9464
:100C40009D1E65EA71E088EE93E0DF91CF910C94F0
:100C50009D1EAF92BF92DF92EF92FF920F931F9370
:100C6000CF93DF93CDB7DEB7C456D1090FB6F89452
:100C7000DEBF0FBECDBF7C016FEA71E088EE93E06E
:100C80000E94801EF70101900020E9F7BF0161502A
:100C900071096E197F094AE050E088EE93E00E94E6
:100CA0001C1F6AEA72E088EE93E00E94801EB70182
:100CB00088EE93E00E949D1E88EE93E00E94DC1671
:100CC000F70180818B3709F03EC181ED92E09A8374
:100CD00089831CA21BA201900020E9F7AF018E01BD
:100CE0000B5B1F4F4E195F09B701C8010E94EB252E
:100CF0004AE0B701CE0101960E94730D7C01FC0110
:100D000080819181892B71F469EB71E088EE93E029
:100D10000E949D1E6DE571E088EE93E00E94801EAA
:100D2000B80182C060EE71E0C7010E94B90B0E9459
:100D3000320BD62E60EE71E0C7010E94E4028823D8
:100D400009F470C0AD2CB12C60EE71E0C7010E94B7
:100D5000B90B0E94320B2CE12A9DF0012B9DF00D66
:100D60001124E95FFB4F738F628F63EE71E0C7015F
:100D70000E94E402882399F163EE71E0C7010E94AA
:100D8000B90B0E94320B60938104709382048093AC
:100D900083049093840465EE71E088EE93E00E94F2
:100DA000801E40918104509182046091830470916F
:100DB00084042AE030E088EE93E00E94381F0E940D
:100DC000381C28EE33E040E050E00E946A21209376
:100DD00085043093860440938704509388046EE51D
:100DE00072E0C7010E94E402882319F16EE572E007
:100DF000C7010E94B90B0E94320B7093800460936C
:100E00007F046AEF71E088EE93E00E94801E60919B
:100E10007F04709180044AE050E088EE93E00E94E5
:100E2000221F07C068E072E088EE93E00E949D1EDA
:100E300085C021E0A80160E070E082E090E00E94BF
:100E400022034FE061E08AEC94E00E94C10FF801B8
:100E500001900020E9F7AF0141505109401B510BAF
:100E60002D2DB8018AEC94E00E94650F9E012B5D48
:100E70003F4F7901811126C06CE172E088EE93E06A
:100E80000E94801E4AE050E06D2D88EE93E00E94A3
:100E9000151F66ED71E088EE93E00E94801EB80198
:100EA00088EE93E00E949D1EF80101900020E9F772
:100EB0003197E01BF10BFF93EF931F92DF9286E2D5
:100EC00092E029C08AEC94E00E94510F6DE272E03A
:100ED00088EE93E00E94801E4AE050E06D2D88EE7F
:100EE00093E00E94151F6AEA72E088EE93E00E9488
:100EF000801EB80188EE93E00E949D1EF8010190CB
:100F00000020E9F73197E01BF10BFF93EF931F925D
:100F1000DF9286E392E09F938F93FF92EF920E947D
:100F2000872620E0A70160E070E083E090E00E9467
:100F300022030FB6F894DEBF0FBECDBF88EE93E05C
:100F40000E94DC1617C06DE372E088EE93E00E9409
:100F5000801EB70188EE93E00E949D1E88EE93E00C
:100F60000E94DC1621E0A70160E070E082E090E0E2
:100F70000E942203CC59DF4F0FB6F894DEBF0FBE9C
:100F8000CDBFDF91CF911F910F91FF90EF90DF9038
:100F9000BF90AF9008953F924F925F926F927F9271
:100FA0008F929F92AF92BF92CF92DF92EF92FF9279
:100FB0000F931F93CF93DF93CDB7DEB7CB59D109F2
:100FC0000FB6F894DEBF0FBECDBF8FEF9FEF0E942C
:100FD000590380910A01882351F188EE93E00E9421
:100FE000C416892B21F10AE814E088EE93E00E94F0
:100FF000C416892BE1F088EE93E00E943716F801C1
:1010000001900020E9F73197808311828A3051F0F6
:10101000F80101900020E9F73197EA58F440E034F4
:10102000F10518F381E08093890410920A01809100
:101030008904882359F08AE894E00E9429061092D6
:101040008A0481E080930A01109289040E94381C6E
:1010500060937B0470937C0480937D0490937E0462
:101060005E0185E6A80EB11C8CE1D5011D928A9522
:10107000E9F74CE1342EFE01EF57FF4F4F012501F8
:10108000FFEF4F1A5F0A3E0185E4680E711C8AEC7F
:1010900094E00E94470F882309F4C5C1A7EDB2E090
:1010A000BA83A98325961FAE1EAE2597C556DF4F7E
:1010B0003882CB59D040C12CD12CE12CF12C00E04E
:1010C00010E09E0126563F4FAE0145565F4FB501D9
:1010D0008AEC94E00E94F30F811124C066E472E070
:1010E00088EE93E00E949D1EC656DF4F8881CA5944
:1010F000D0401F928F93A6E5B2E0BF93AF939F922B
:101100008F920E94872621E0A40160E070E082E0D7
:1011100090E00E9422030F900F900F900F900F907D
:101120000F90B5CFC556DF4F8881CB59D040F50120
:10113000E80FF11D10828AEC94E00E94E90F8F7095
:10114000D82EF50101900020E9F73197EA19FB0943
:10115000FF93EF931F928F93C656DF4F8881CA5932
:10116000D0401F928F93A0E6B2E0BF93AF939F92BF
:101170008F920E94872620E0A40166E070E083E061
:1011800090E00E9422030FB6F894DEBF0FBECDBFE1
:10119000C656DF4F8881CA59D040811107C068E820
:1011A00073E180E090E00E94671C71CF6AE672E014
:1011B00088EE93E00E94801E4AE050E0C556DF4F63
:1011C0006881CB59D04088EE93E00E94151F64E7F8
:1011D00072E088EE93E00E94801E4AE050E0C6561E
:1011E000DF4F6881CA59D04088EE93E00E94151FF6
:1011F0006BE772E088EE93E00E94801E8AEC94E038
:101200000E94E90F4AE050E0682F88EE93E00E94C8
:10121000151F6AEA72E088EE93E00E94801E4AE0A1
:1012200050E06D2D88EE93E00E94151F63EB71E096
:1012300088EE93E00E94801ED5010D900020E9F712
:10124000BD01615071096A197B094AE050E088EEDE
:1012500093E00E94221FF5018081882309F417CFB3
:101260008B3709F0D6C05F924F92C656DF4F888108
:10127000CA59D0401F928F93A3E8B2E0BF93AF93B7
:101280007F926F920E948726B30188EE93E00E94BE
:101290009D1E4AE0B501CE0101960E94730D8C019E
:1012A0000FB6F894DEBF0FBECDBFDC018D919C91CF
:1012B000892B61F46FE872E088EE93E00E94801E53
:1012C000B50188EE93E00E949D1EE1CEC656DF4F29
:1012D000E880CA59D040F12CB1E0EB1AF108E1E006
:1012E000DE121DC06CEA72E0C8010E94E40288238D
:1012F00009F494C06CEA72E0C8010E94B90B0E9424
:10130000170B3E9C90013F9C300D112448E050E0AB
:10131000BC01C9018B5E9B4F0E94FD257FC0F2E09E
:10132000DF127CC03E9C60013F9CD00C1124C601A2
:10133000895F9B4F6C0180917B0490917C04A0910C
:101340007D04B0917E04F601868B978BA08FB18FC0
:101350006EEA72E0C8010E94E402882371F06EEA2E
:1013600072E0C8010E94B90B0E94230BD6011596AA
:101370006D937D938D939C93189761EB72E0C801F8
:101380000E94E402882391F061EB72E0C8010E94A0
:10139000B90B0E94230B3E9CF0013F9CF00D1124E1
:1013A000E95FFB4F618372838383948364EB72E014
:1013B000C8010E94E402882391F064EB72E0C80146
:1013C0000E94B90B0E94320B3E9CF0013F9CF00D35
:1013D0001124E95FFB4F628773878487958767EBEA
:1013E00072E0C8010E94E402882379F067EB72E0A2
:1013F000C8010E94B90B0E940D0B3E9CF0013F9C5E
:10140000F00D1124E95FFB4F8187C7010E9459034A
:1014100005C0B50188EE93E00E949D1E88EE93E022
:101420000E94DC1634CEC556DF4F0FB6F894DEBFEF
:101430000FBECDBFDF91CF911F910F91FF90EF9025
:10144000DF90CF90BF90AF909F908F907F906F90E4
:101450005F904F903F900895DB01ED91FC911197C3
:101460000190F081E02DBC01CD0109940F931F93F1
:10147000CF93DF938C01F801C281D38188819927B2
:1014800087FD90950E94CB25892B29F02196F801A4
:10149000D383C283F0CFDF91CF911F910F91089535
:1014A0000F931F93CF93DF931F92CDB7DEB78C01BD
:1014B00069830E94360AD8011296ED91FC91139728
:1014C0008081698186130AC031961396FC93EE934E
:1014D0001297C8010E94360A81E001C080E00F9097
:1014E000DF91CF911F910F910895FB012191BF01D1
:1014F000222379F0DC011296ED91FC911397308153
:10150000321307C03196DC011396FC93EE931297C9
:10151000ECCF81E0211180E00895CF93FC01508150
:10152000523229F0573219F080E090E023C09C013C
:101530002F5F3F4FD901F901CF010196408144232C
:1015400099F3451791F04C3569F401964181EDEE20
:10155000F2E0C081CC2331F0C41302C0418102C04B
:101560003296F7CF4D93FC01E7CF1C92FB0191839C
:101570008083C901CF910895CF93DF93EC01BC0123
:1015800084E090E00E942C0AFC01009729F0D183AE
:10159000C0831382128202C083E195E0DF91CF9174
:1015A0000895CF93DF93EC01BC0184E090E00E94AA
:1015B0002C0AFC01009729F0D183C0831382128288
:1015C00002C08FE095E0DF91CF9108950F931F93B4
:1015D000CF93DF938B01FC01C281D381209759F017
:1015E000B8018A819B810E94F425892B39F00990EA
:1015F000D881C02DF3CF80E090E001C0CE01DF9113
:10160000CF911F910F9108950E94E60A009711F063
:101610000496089589E095E00895FC0120813181C8
:101620002430310511F48281089580E00895FC0191
:10163000208131812530310519F48281938108950B
:1016400080E090E00895FC01208131812730310550
:101650002CF06281738184819581089560E070E04F
:10166000CB010895FC01208131812630310529F418
:101670006281738184819581089560E070E0CB017F
:101680000895FC0180819181892B29F084E090E00C
:101690009183808362830895FC0180819181892BED
:1016A00031F085E090E091838083738362830895B5
:1016B000FC0180819181892B49F030E0295F3F4F07
:1016C0003183208342835383648375830895FC01AF
:1016D00080819181892B41F086E090E09183808325
:1016E00042835383648375830895FC0180819181D3
:1016F000892B31F082E090E0918380837383628351
:101700000895FC0180819181892B31F083E090E084
:1017100091838083738362830895FC01608171816A
:101720006115710579F08AE090E00E942C0AFC01B5
:10173000009741F01182108281E090E095838483CC
:10174000CF01089580E090E00895DC011296ED91BC
:10175000FC911397309749F080819181009711F0A7
:10176000FC01FACF718360830895FC017383628367
:101770000895EF92FF920F931F93CF93DF938C0105
:101780007B010E94E60AEC01009761F4C8010E9407
:101790008D0BEC01009749F0FB82EA82BC01C80185
:1017A0000E94A50BCE01049602C089E095E0DF916E
:1017B000CF911F910F91FF90EF900895FC016081F0
:1017C00071816115710579F088E090E00E942C0A22
:1017D000FC01009741F01182108281E090E0938338
:1017E0008283CF01089580E090E00895DC01129695
:1017F000ED91FC911397309749F08081918100978A
:1018000011F0FC01FACF718360830895FC017383AA
:10181000628308950F931F93CF93DF938C010E94EF
:10182000DE0BEC01009739F0BC01C8010E94F60BF9
:10183000CE01029602C089E095E0DF91CF911F9121
:101840000F910895EF92FF920F931F93CF93DF9321
:10185000EC01888199810E94BC0A7C016BE5CE0174
:101860000E94500A811103C083E195E022C06DE51A
:10187000CE010E94500A81111BC0C7010E940A0CB0
:101880008C01BC01CE010E94600CF80120813181E5
:101890002230310548F36DE5CE010E94500A8111D6
:1018A00007C06CE2CE010E94500A8111E6CFDCCF66
:1018B000C701DF91CF911F910F91FF90EF90089595
:1018C000EF92FF920F931F93CF93DF9300D0CDB78A
:1018D000DEB78C017B01DC0114968C911497882370
:1018E00009F4A3C0815014968C93C8010E94360A53
:1018F000F80182819381DC012C912A337CF420331E
:101900000CF03FC0273209F461C024F4223209F4FC
:101910005DC065C02D522230A0F161C02E3609F4A1
:1019200042C02CF42B3581F02636B1F058C0243754
:1019300099F02B3709F053C0C8010E941E0DBC015D
:10194000C7010E94810B4BC0C8010E94220CBC0140
:10195000C7010E94750B43C06EED72E0C8010E9482
:10196000750A882311F061E008C063EE72E0C801D7
:101970000E94750A882309F160E0C7010E94410BAB
:101980002EC04AE050E0BE016F5F7F4F0E9492245C
:10199000AB01BC01E981FA8180818E3229F18F7D12
:1019A0008534D1F521C069ED72E0C8010E94750A45
:1019B000882319F060E070E00FC086E0E9E0F5E010
:1019C000D70101900D928A95E1F709C0B8016E5FC9
:1019D0007F4F0E948D0ABC01C7010E944C0BF80189
:1019E00084818F5F848321C0B8016E5F7F4FD801EF
:1019F00012968D919C9113970E942F23AB01BC01ED
:101A0000F8012281338189819A81281B390B215069
:101A1000C7010E94580BE3CFD8011396FC93EE93B5
:101A20001297C7010E94670BDACF0F900F90DF91DA
:101A3000CF911F910F91FF90EF900895CF92DF9279
:101A4000EF92FF920F931F93CF93DF93EC01888166
:101A500099810E94D10A6C016BE7CE010E94500A65
:101A6000811103C08FE095E035C06DE7CE010E9483
:101A7000500A81112EC07E0182E0E80EF11CB701F0
:101A80008A819B810E948D0A8C01009759F36AE339
:101A9000CE010E94500A882329F3B801C6010E9492
:101AA000B90B8C01BC01CE010E94600CF8012081B1
:101AB000318122303105B0F26DE7CE010E94500A2B
:101AC000811107C06CE2CE010E94500A8111D7CF6C
:101AD000C9CFC601DF91CF911F910F91FF90EF9079
:101AE000DF90CF900895CF93DF9300D000D01F9266
:101AF000CDB7DEB79A8389837C836B834D83CE0118
:101B000001960E941E0D0F900F900F900F900F9056
:101B1000DF91CF9108951092140510921305109241
:101B20001605109215051092100510920F051092CF
:101B300012051092110510920A05109209050895D8
:101B4000DC01ED91FC910190F081E02D099440E1E0
:101B5000649F90011124FC0121836F7062830895BA
:101B6000CF93C62F6CE370E08AE695E00E94B0192F
:101B700060E870E08AE695E00E94A00D6C2F8AE68E
:101B800095E00E945D198AE695E0CF910C94C51905
:101B9000CF93DF93EC016DEF0E94B00D62E1CE01B7
:101BA0000E94B00D6EEACE010E94B00D68EACE012F
:101BB0000E94B00D6FE5CE010E94B00D61EACE012A
:101BC0000E94B00D60E0CE010E94B00D62EACE012D
:101BD0000E94B00D60E6CE010E94B00D60EACE0119
:101BE0000E94B00D66E4CE010E94B00D6BEACE01FA
:101BF0000E94B00D61E0CE010E94B00D61E8CE01FF
:101C00000E94B00D63E5CE010E94B00D61EBCE01E4
:101C10000E94B00D61E5CE010E94B00D63EBCE01D4
:101C20000E94B00D61E0CE010E94B00D69EBCE01C3
:101C30000E94B00D6CEBCE010E94B00D68E0CE01A9
:101C40000E94B00D6EEBCE010E94B00D67E0CE0198
:101C50000E94B00D66EBCE010E94B00D61E0CE0196
:101C60000E94B00D65EDCE010E94B00D62E6CE017E
:101C70000E94B00D64EACE010E94B00D6EE2CE016A
:101C80000E94B00D6FEACE010E94B00D64E670E0D4
:101C900080E090E00E94671C65E7CE010E94B00DD5
:101CA00060E0CE010E94B00D6FE5CE010E94B00D44
:101CB00065E1CE010E94B00D68E0CE010E94B00D3A
:101CC00067E3CE010E94B00D80EF89838FE08A83A5
:101CD000DF91CF910895CF93DF93EC0160EA0E94EA
:101CE000B00D66E4CE01DF91CF910C94B00DEF9270
:101CF000FF921F93CF93DF931F92CDB7DEB77C0186
:101D0000162F65E149830E94B00D4981642F660F4B
:101D1000660F685FC7010E94B00D67E3C7010E94AC
:101D2000B00D65E7C7010E94B00D110F110F110F23
:101D3000612FC7010E94B00D67E0610FC7010F90CE
:101D4000DF91CF911F91FF90EF900C94B00D64EA5A
:101D50000C94B00DCF93C62F6CE370E08AE695E04B
:101D60000E94B01960E470E08AE695E00E94A00D40
:101D70006C2F8AE695E00E945D198AE695E0CF9186
:101D80000C94C5190F931F93CF93DF93EC0100E3DD
:101D900010E660E0CE010E94AA0E1150D1F701506A
:101DA000B9F7DF91CF911F910F910895BF92CF9214
:101DB000DF92EF92FF920F931F93CF93DF937C01FB
:101DC00080EE860F803608F060E288E0689FE001D0
:101DD0001124C759D04084E0B82E00E010E06E0115
:101DE000F1E0CF1AD108F6018491FE01249130E090
:101DF000002E02C0359527950A94E2F7217090E0F5
:101E0000002E02C0959587950A94E2F780FF03C0E3
:101E1000F701818101C080E0222319F0F70162817E
:101E200001C060E0682BC7010E94AA0E0F5F1F4F20
:101E300008301105C1F6BA942296B110CECFDF91C9
:101E4000CF911F910F91FF90EF90DF90CF90BF90B7
:101E50000895FF920F931F93CF93DF93EC018B01B3
:101E6000F12CF801EF0DF11D6081662329F0CE0100
:101E70000E94D60EF394F5CFDF91CF911F910F9171
:101E8000FF900895FC017183608342830895DC0113
:101E90008D919C91DC01ED91FC910280F381E02D0C
:101EA0000994DC018D919C91DC01ED91FC910484FD
:101EB000F585E02D0994DC018D919C91DC01ED917B
:101EC000FC910488F589E02D0994EF92FF920F931D
:101ED0001F93CF93DF931F92CDB7DEB77C018B01A9
:101EE000622F49830E945B0FD7018D919C91DC0189
:101EF000ED91FC910680F781E02D4981B8010F90AA
:101F0000DF91CF911F910F91FF90EF900994DC0129
:101F10008D919C91DC01ED91FC910688F789E02D73
:101F200009941F93CF93DF93EC01162F8881998139
:101F3000DC01ED91FC910288F389E02D0995612F78
:101F4000CE010E94870F1A83DF91CF911F910895D0
:101F50001F93CF93DF93EC0188819981DC01ED9190
:101F6000FC910190F081E02D0995182F882321F034
:101F70006A81CE010E94910F812FDF91CF911F9135
:101F80000895DC018D919C91DC01ED91FC91028C16
:101F9000F38DE02D0994DC018D919C91DC01ED9194
:101FA000FC91068CF78DE02D0994DC018D919C91BC
:101FB000DC01ED91FC9100A0F1A1E02D0994DC0180
:101FC0008D919C91DC01ED91FC9102A0F3A1E02D9B
:101FD0000994DC018D919C91DC01ED91FC9104A0B0
:101FE000F5A1E02D0994AF92BF92CF92DF92EF92CC
:101FF000FF920F931F93CF93DF93EC0159018881D8
:102000009981DC01ED91FC910480F581E02D099529
:10201000882309F1A114B10429F0CE010E94D50F43
:10202000F50180830115110529F0CE010E94CB0F27
:10203000D8018C93E114F10429F0CE010E94DF0F46
:10204000F7018083C114D10441F0CE010E94E90F51
:10205000D6018C9302C080E001C081E0DF91CF9176
:102060001F910F91FF90EF90DF90CF90BF90AF90B6
:10207000089581E00895FC0165830895FC0164835F
:102080000895FC0162870895FC0163870895FC01AF
:10209000648708954095FC0125854223462B45879A
:1020A0000895FC0186810895FC0187810895FC0153
:1020B00080850895FC018185089580E00895CF937F
:1020C000DF93EC01E881F9810280F381E02DCE01FC
:1020D0000995811103C00E94931BF4CFDF91CF912A
:1020E0000895CF93DF93EC018A819B81039719F4C4
:1020F0000E94931BF9CF81E0DF91CF9108958F92D9
:102100009F92AF92BF92CF92DF92EF92FF92CF93C6
:10211000DF93EC016B010E94381C4B015C01E12C48
:10212000F12C0E94381C681979098A099B096C15E1
:102130007D058E059F0560F4E881F9810280F381B9
:10214000E02DCE010995811105C00E94931BE9CFB6
:1021500080E001C081E0DF91CF91FF90EF90DF90B0
:10216000CF90BF90AF909F908F9008958F929F9245
:10217000AF92BF92CF92DF92EF92FF92CF93DF9315
:10218000EC016B010E94381C4B015C01E12CF12C2D
:102190000E94381C681979098A099B096C157D050C
:1021A0008E059F0538F48A819B81039729F40E944C
:1021B000931BEECF80E001C081E0DF91CF91FF90D3
:1021C000EF90DF90CF90BF90AF909F908F90089549
:1021D000FC018CEF92E091838083138212828FEF57
:1021E00084838287838714861586108A1786128ACD
:1021F000118A148A138A089508950895FC0175833D
:1022000064830895FC01778366830895FC017383DA
:1022100062830895FC0188E293E091838083738355
:102220006283558344833783268308956EBD0000FF
:102230000DB407FEFDCF8EB508958CB580688CBDBA
:1022400008958CB58F778CBD0895FC012681378168
:102250002115310579F02130310541F02230310569
:1022600039F02330310531F49CE005C094E003C01F
:1022700098E001C090E08CB5837F892B8CBD848170
:102280009581019719F48CB5806202C08CB58F7D61
:102290008CBD8281938101978430910528F4FC01E3
:1022A000E85CFC4F908101C095E02CB5892F8370CC
:1022B0002C7F822B8CBD8DB592FB992790F98E7F58
:1022C000892B8DBD0C94BB180C94F118CF93DF9320
:1022D000EC010E940A1180E493E099838883DF91E6
:1022E000CF91089520E030E040E050E060E070E001
:1022F0008AE195E00C946611CF93DF93EC018D8910
:102300009E89DC01ED91FC910680F781E02D099515
:1023100061E08F890E94F31C61E08F890E942C1D6F
:1023200064E670E080E090E00E94671C81E0DF914D
:10233000CF910895EF92FF920F931F93CF93DF9366
:102340001F92CDB7DEB77C018A0169830E94E81035
:1023500084E593E0F70191838083168B058B698177
:10236000678B0F90DF91CF911F910F91FF90EF90AE
:1023700008950F931F93CF93DF93EC01062F1FB7A0
:10238000F89460E08F890E942C1D8D899E89DC0164
:10239000ED91FC910190F081E02D602F0995082FBF
:1023A00061E08F890E942C1D1FBF802FDF91CF918C
:1023B0001F910F9108950F931F93CF93DF93EC011B
:1023C000062F1FB7F89460E08F890E942C1D8D891D
:1023D0009E89DC01ED91FC910190F081E02D602F50
:1023E00009958D899E89DC01ED91FC910190F08128
:1023F000E02D60E00995082F61E08F890E942C1D77
:102400001FBF802FDF91CF911F910F910895EF9201
:10241000FF920F931F93CF93DF931F92CDB7DEB739
:102420007C01162F0FB7F89460E0DC0157968C9171
:1024300049830E942C1DF70185899689DC01ED9165
:10244000FC910190F081E02D612F0995182FF70183
:1024500085899689DC01ED91FC910190F081E02D58
:102460004981642F099561E0F70187890E942C1D3D
:102470000FBF812F0F90DF91CF911F910F91FF9090
:10248000EF900895AF92BF92DF92EF92FF920F9379
:102490001F93CF93DF9300D0CDB7DEB78C01D62E3C
:1024A000F22EEFB6F89460E0DC0157968C914983E8
:1024B0005A830E942C1DF80185899689DC01ED91D3
:1024C000FC910190F081E02D6D2D0995D82E498168
:1024D000A42E5A81B52EF40EFA1479F0F8018589EC
:1024E0009689DC01ED91FC910190F081E02D60E096
:1024F0000995F50181935F01EFCF61E0D80157960F
:102500008C910E942C1DEFBE8D2D0F900F90DF91AE
:10251000CF911F910F91FF90EF90DF90BF90AF9000
:102520000895AF92BF92DF92EF92FF920F931F93A5
:10253000CF93DF9300D0CDB7DEB78C01D62EF22E2D
:10254000EFB6F89460E0DC0157968C9149835A838A
:102550000E942C1DF80185899689DC01ED91FC9182
:102560000190F081E02D6D2D0995D82E4981A42E82
:102570005A81B52EF40EFA1471F0F8018589968906
:10258000D5016D915D01DC01ED91FC910190F0812F
:10259000E02D0995F0CF61E0F80187890E942C1D9C
:1025A000EFBE8D2D0F900F90DF91CF911F910F9166
:1025B000FF90EF90DF90BF90AF900895CF93DF939F
:1025C000EC018F890E94621D21E0892B09F420E033
:1025D0008A8D8227DF91CF910895FC01808D0C9424
:1025E0002C1DFC01238D6227818D0C942C1DCF9313
:1025F000DF93EC018A819B81029761F060E0CE015C
:102600000E94F11260E0CE010E94ED1282E090E0A3
:102610009B838A83DF91CF910895862F8695869537
:10262000887098E0980F891749F0E82FF0E0E45897
:10263000FC4F2081621719F08F5FF5CF80E008957D
:102640001F93CF93DF93EC010E94DE12882319F0D1
:102650009F8D9F5F9F8F9E8D891771F098A19035F8
:1026600018F42BE030E002C02DE130E098A1290FF2
:10267000311D28A38E8F03C088A18C5E88A388A1FA
:10268000803A08F46EC08AA19BA1969587959BA37A
:102690008AA38F8D853028F08AA19BA198609BA387
:1026A0008AA388A1805A88A31F8E89A1882309F450
:1026B00046C08CA18F5F8CA38C3008F452C06AA1F5
:1026C0007BA16F73CE010E940D13182F6AA17BA10D
:1026D00046E0769567954A95E1F7CE010E940D1385
:1026E00090E1199F90011124822BBE0167597F4F01
:1026F000FB019081DE01A859BF4F9923B1F0FB0186
:10270000908121E0290F2083AE01490F511DFA016C
:1027100085A3FB0190818C91981778F019A281E034
:102720008C8FCE010E94F71208C08C939C91973039
:1027300090F09C91943478F4E2CF1CA212C08AA14C
:102740009BA188339B4069F481E089A31CA2C759EF
:10275000DF4F188206C019A28F8598890196988B41
:102760008F87DF91CF911F910895CF92DF92EF92E3
:10277000FF920F931F93CF93DF93EC018C010459C9
:102780001F4FF801808191E0980F9083811136C02E
:102790006E01FAE6CF0ED11CF6018081EF56FF4F95
:1027A0009081891748F0CE010E94F7128B899C898D
:1027B00001969C8B8B8B22C0FE01E80FF11DE35923
:1027C000FF4F608170E07E01FBE6EF0EF11CF70128
:1027D000808191E0980F908302C0759567958A95E6
:1027E000E2F76170CE010E94ED12F7018081863020
:1027F00028F01082F60180818F5F8083F80180814C
:10280000883008F01082DF91CF911F910F91FF90D7
:10281000EF90DF90CF900895FC0122813381243026
:10282000310511F40C942013FC01228133812330F3
:10283000310511F40C94B51308951F920F920FB641
:102840000F9211242F933F934F935F936F937F9336
:102850008F939F93AF93BF93EF93FF938091220544
:10286000909123050E940C14FF91EF91BF91AF91BD
:102870009F918F917F916F915F914F913F912F9198
:102880000F900FBE0F901F9018958CE10895DF9266
:10289000EF92FF920F931F93CF93DF93EC017B0195
:1028A0008A01E881F9810280F381E02D0995D82E13
:1028B0008823F1F0E114F104C9F001151105B1F01C
:1028C0008A8D282F30E023503109F801408150E0F3
:1028D0004217530714F084508083F801408150E080
:1028E000BE01615E7F4FC7010E94EB251BAE1A8EB1
:1028F0008D2DDF91CF911F910F91FF90EF90DF9081
:1029000008951F93CF93DF93EC01162F642FA90135
:102910000E949A1180E993E0998388831BAE8CE032
:10292000888F198FDF91CF911F9108956F71606229
:102930000C940712CF93DF93EC018A819B8101975E
:1029400069F040E060E0CE010E94961460E0898D5D
:102950000E942C1D81E090E09B838A83DF91CF91C0
:1029600008956FEF0C94B91161EE0C94B91162EEF9
:102970000C94B911462F4F7765E00E94961481E0C0
:102980000895440F551F46706230710511F440627E
:1029900004C06130710509F44860416066E00E943E
:1029A000961481E00895CF93DF93EC018A819B8197
:1029B000029769F0488D60E0CE010E94961460E0B5
:1029C000898D0E942C1D82E090E09B838A83DF9199
:1029D000CF9108951F93CF93DF93EC018A819B8160
:1029E0000397D1F4CE010E94B114182F807319F40B
:1029F0000E94931BF7CF14FF03C0CE010E94B414B2
:102A0000CE010E94D31440E367E0CE010E949614E9
:102A100015FB882780F901C080E0DF91CF911F91DD
:102A20000895CF93DF93EC018A819B81049771F025
:102A3000488D436060E0CE010E94961461E0898D6C
:102A40000E942C1D84E090E09B838A83DF91CF91CC
:102A50000895CF93DF93EC018A819B810397B9F0AE
:102A600060E0898D0E942C1D40E367E0CE010E944A
:102A70009614488D426060E0CE010E94961461E099
:102A8000898D0E942C1D83E090E09B838A83DF91D7
:102A9000CF9108951F93CF93DF93EC01142F4D3105
:102AA00000F58A858B8F8B858C8F8C858D8F8D859E
:102AB0008E8F50E0CE014F960E94EB2524E0210F2F
:102AC000AE01455E5F4F60EBCE010E949112CE01D8
:102AD0000E9429158B899C8901969C8B8B8B81E0A8
:102AE00001C080E0DF91CF911F910895FC01828D9C
:102AF0008430C8F0838D8683848D8783858D80871D
:102B0000868D81878581811107C096818481981780
:102B100019F086818F3F39F4818992890196928BD1
:102B2000818B81E083AF08950F931F93CF93DF9341
:102B3000EC011BAD111134C02A813B8123303105DA
:102B400081F10E94111567E1CE010E94DB1180FD29
:102B500028C060E6CE010E94DB11082F813248F0C8
:102B6000CE010E94B7141BAE1A8ECE010E94D31460
:102B700018C040E467E0CE010E949614202FAE01F9
:102B8000455E5F4F61E6CE010E9442120A8FCE0180
:102B90000E9476158BAD882319F0CE010E94D314C4
:102BA0001BAD812FDF91CF911F910F9108951F933E
:102BB000CF93DF93EC018D899E89DC01ED91FC912F
:102BC0000684F785E02D60E070E00995CE010E9453
:102BD0007C11182F811102C010E044C061E0898D82
:102BE0000E94F31C60E0898D0E942C1D40E767E085
:102BF000CE010E9496144FE36CE1CE010E94961420
:102C000045E06DE1CE010E9496146DE1CE010E9477
:102C1000DB118530A9F4CE010E94D314CE010E94AD
:102C2000B414CE010E94B71462E0CE010E94BA141F
:102C300043E050E061E070E0CE010E94C11412C098
:102C400043E760E5CE010E94071245E06DE1CE0149
:102C50000E9496146DE1CE010E94DB11853009F0CF
:102C6000BBCFD9CF812FDF91CF911F9108952091B4
:102C700066053091670528173907B9F49091240546
:102C800080912505981789F0E0912405F0E0EA5D30
:102C9000FA4F80812091240530E02F5F3F4F2F7342
:102CA00033272093240590E008958FEF9FEF089538
:102CB0001F93CF93DF93DC015C968D919C915D9780
:102CC000009749F481E090E013969C938E931297BD
:102CD00080E090E03BC05196ED91FC915297509668
:102CE0002C915097322F30951FB75E964C915E977E
:102CF00041FB772770F941FD6095F8944081772377
:102D000011F0422B01C043234083EC012197F1F7DE
:102D100048E0508160FF02C0522B01C05323508312
:102D2000EC012197F1F76695415099F7808177235F
:102D300011F0832301C0822B80831FBF5C968D918D
:102D40009C915D970197F1F781E090E0DF91CF9141
:102D50001F9108952091660530916705281739075E
:102D600081F49091240580912505981751F0E09108
:102D70002405F0E0EA5DFA4F8081992787FD909560
:102D800008958FEF9FEF08952091660530916705B4
:102D90002817390771F4809125052091240590E0CA
:102DA000805C9F4F821B910960E470E00E94562175
:102DB000089580E090E008952091660530916705C0
:102DC0002817390739F48FB7F89410922505109217
:102DD00024058FBF0895E0916605F0916705E81717
:102DE000F90769F4A389B4899C9185898095892321
:102DF0008C93109267051092660581E0089580E03B
:102E00000895CF93DF93EC018A8D9B8D892BF1F090
:102E100080916605909167058C179D07B9F0009722
:102E200011F00E94EB168E8D8E7F8E8F10922505ED
:102E300010922405D0936705C0936605EB89FC8941
:102E400080819D89892B808381E001C080E0DF91B2
:102E5000CF9108951F920F920FB60F9211242F93C6
:102E60003F934F935F936F937F938F939F93AF9312
:102E7000BF93EF93FF93E0916605F091670530975C
:102E800009F451C0868DA685B785958581FF04C05C
:102E90008C91892329F447C08C91892309F043C080
:102EA000A389B4899C918589809589238C9386898F
:102EB00097890197F1F7208D318DA685B7857585A6
:102EC00058E040E0C9010197F1F7842F90E0959513
:102ED0008795482F6C91672309F04068515091F70E
:102EE000868D81FD40958091250590E001968F7338
:102EF000992720912405281749F0A0912505B0E0D5
:102F0000AA5DBA4F4C938093250503C0868D8160DE
:102F1000868F828D938D0197F1F7A389B4898C9167
:102F20009589892B8C93FF91EF91BF91AF919F91E0
:102F30008F917F916F915F914F913F912F910F9062
:102F40000FBE0F901F9018952CEB33E0FC013183DE
:102F500020830C94EB161F93CF93DF93EC01162F75
:102F60006E8D6695617081E06827812F0E942C1D0F
:102F700061E0812F0E94F31C812F90E0FC01E45856
:102F8000FC4FE491E88BFC01E057FC4FE491F0E04A
:102F9000EE0FFF1FE255FC4F859194919A8B898B20
:102FA000DF91CF911F9108951F93CF93DF93EC0191
:102FB000162F60E0812F0E94F31C8E8D81FD04C0CE
:102FC00061E0812F0E942C1D1C87812F90E0FC0165
:102FD000E458FC4FE491ED87FC01E057FC4FE4918D
:102FE000F0E0EE0FFF1FEC55FC4F859194919F8709
:102FF0008E87DF91CF911F910895FF920F931F93BA
:10300000CF93DF93EC01F62E522F1B821A8208EE2B
:1030100013E020E030E00C831D832E833F838CEB94
:1030200093E0998388831F8A1E8A198E188E1B8EBF
:103030001A8E1D8E1C8E8E8D8E7F50FB81F98E8F89
:10304000642FCE010E94AB176F2DCE01DF91CF917F
:103050001F910F91FF900C94D417CF93DF93EC0145
:103060009A01AB011B8E1A8E198E188E1F8A1E8A2A
:1030700060E874E88EE190E00E948C21C901243060
:10308000310520F0B9016350710902C061E070E0C0
:103090007D8F6C8FEC85E63108F068C0B9017695BC
:1030A00067956431710518F06351710902C061E0E0
:1030B00070E07F8B6E8B069718F0C901059702C0F0
:1030C00081E090E0998F888FC901880F991F820F46
:1030D000931F96958795969587958D30910510F05D
:1030E0000C9702C081E090E09B8F8A8F209168004E
:1030F000E83050F091E0EE3008F490E081E001C05B
:10310000880F9A95EAF701C084E0822B80936800CB
:103110002C85283038F02E3040F0263148F48CE6EB
:1031200090E008C08DE690E005C08BE690E002C01C
:1031300080E090E09C8B8B8B283030F481E001C0E4
:10314000880F2A95EAF70DC0822F90E02E3010F4F8
:10315000089701C00E9791E001C0990F8A95EAF790
:10316000892F8D8B8C8D9D8D0197F1F7CE01DF918D
:10317000CF910C940117CF93CFB7F8948091690544
:10318000811127C0EAE9F3E08491E6E8F3E0949145
:10319000E82FF0E0EE0FFF1FE854FC4FA591B4912B
:1031A0008C91892321F461E08AE00E942C1D61E06A
:1031B0008AE00E94F31C8CB580618CBD8CB5806464
:1031C0008CBD61E08DE00E94F31C61E08BE00E9409
:1031D000F31C809169058F5F80936905CFBFCF9104
:1031E00008959FB7F89480916905882319F081505C
:1031F0008093690580916905811105C08CB58F7B2D
:103200008CBD109268059FBF089580919A0590E04B
:1032100020919B05821B9109089520919B05809127
:103220009A05281750F4E22FF0E0E456FA4F808117
:1032300090E02F5F20939B0508958FEF9FEF0895F7
:10324000E0919B0580919A05E81730F4F0E0E45690
:10325000FA4F808190E008958FEF9FEF08950895D1
:10326000CF92DF92EF92FF920F931F93CF93DF9352
:103270007C01CB018A0120917605222389F0EB01A4
:103280006B01C40ED51ECC15DD0569F06991D7011F
:10329000ED91FC910190F081E02DC7010995F3CFEC
:1032A000642F0E943D1AC801DF91CF911F910F91A9
:1032B000FF90EF90DF90CF900895CF93DF931F9210
:1032C000CDB7DEB76983209176052223D1F0209116
:1032D0007705203240F021E030E0FC013383228387
:1032E00080E090E015C080917805E82FF0E0E75885
:1032F000FA4F998190838F5F80937805809377054B
:1033000005C061E0CE0101960E943D1A81E090E087
:103310000F90DF91CF910895FC011382128248EE45
:1033200053E060E070E044835583668377838CECE0
:1033300093E091838083089510929B0510929A05E3
:1033400010927805109277050C94CC1981E0809347
:103350007605609399051092780510927705089587
:103360000C94A6190F93062F21E04091770569E789
:1033700075E0809199050E94EA19109278051092E3
:103380007705109276050F91089561E00C94B219BB
:103390008AE695E00C948C191092290681E08093BE
:1033A00027061092260661E082E10E942C1D61E052
:1033B00083E10E942C1DE9EBF0E080818E7F808309
:1033C00080818D7F808380E28093B80085E4809344
:1033D000BC0008950F93413208F046C09091290631
:1033E0009111FCCF92E090932906009327069FEF5E
:1033F0009093BC051092010640930006FB0162E029
:1034000076E0DB019A2F961B941718F491919D9307
:10341000F9CF1092280690912806880F892B809367
:10342000280680912606813041F41092260680916C
:1034300028068093BB0085EC01C085EE8093BC001C
:10344000222321F0809129068230E1F38091BC058E
:103450008F3F61F08091BC05803251F08091BC05B6
:10346000803341F483E007C081E005C080E003C001
:1034700082E001C084E00F910895613298F42091B8
:103480002906243089F46093DE05FC0180EE95E086
:10349000DC012A2F281B261718F421912D93F9CF30
:1034A00080E0089581E0089582E0089585ED80939D
:1034B000BC008091BC0084FDFCCF109229060895C9
:1034C00085EC8093BC001092290608951F920F92FC
:1034D0000FB60F9211242F933F934F935F936F93E7
:1034E0007F938F939F93AF93BF93EF93FF938091BD
:1034F000B900887F803609F49CC068F5883209F4E9
:103500005BC090F4803109F454C038F4882309F486
:10351000F5C0883009F44DC0F5C0883109F44CC0BD
:10352000803209F45DC0EEC0803409F468C048F40C
:10353000803309F455C0883309F0E4C08093BC059A
:10354000A8C0803509F44FC0883509F45DC08834BF
:1035500009F0D8C0D5C0883909F4C6C0A8F48837A6
:1035600009F467C038F4883609F463C0803709F479
:1035700060C0C8C0883809F4B7C0803909F45FC09A
:10358000803809F0BFC05BC0803B09F485C038F4C7
:10359000803A09F466C0883A09F47EC0B3C0803C22
:1035A00009F4A6C0883C09F4A3C0883B09F489C08B
:1035B000A9C08091280610C0909101068091000654
:1035C000981770F5E091010681E08E0F8093010657
:1035D000F0E0EE5FF94F80818093BB0085EC85C001
:1035E0008093BC058DC0E091010681E08E0F809331
:1035F00001068091BB00F0E0EE5FF94F808390916F
:103600000106809100066DC0E091010681E08E0FF9
:10361000809301068091BB00F0E0EE5FF94F80835C
:103620008091270681116CC081E08093260684EA90
:1036300060C083E0809329061092BD05CFCF8091B2
:10364000BD05803208F050C0E091BD0581E08E0FCD
:103650008093BD058091BB00F0E0E254FA4F808377
:10366000BDCF8091BD05803230F4E091BD05F0E022
:10367000E254FA4F10820E94561A6091BD0570E024
:10368000E0912206F09123068EEB95E009951092C9
:10369000BD050E94601A36C084E08093290610920E
:1036A000DF051092DE05E0912406F09125060995CC
:1036B0008091DE05811105C081E08093DE051092C6
:1036C000E005E091DF0581E08E0F8093DF05F0E0FB
:1036D000E052FA4F80818093BB009091DF0580918A
:1036E000DE05981708F47ACF85E88093BC000AC0FD
:1036F00085EC8093BC001092290604C01092BC0592
:103700000E94561AFF91EF91BF91AF919F918F91B7
:103710007F916F915F914F913F912F910F900FBECD
:103720000F901F90189508951F920F920FB60F9249
:1037300011242F933F934F935F936F937F938F93B6
:103740009F93AF93BF93EF93FF9380912A0690913D
:103750002B06892B29F0E0912A06F0912B0609957A
:10376000FF91EF91BF91AF919F918F917F916F9159
:103770005F914F913F912F910F900FBE0F901F902F
:1037800018951F920F920FB60F9211242F933F930B
:103790004F935F936F937F938F939F93AF93BF9359
:1037A000EF93FF9380912C0690912D06892B29F0A1
:1037B000E0912C06F0912D060995FF91EF91BF91B4
:1037C000AF919F918F917F916F915F914F913F91B9
:1037D0002F910F900FBE0F901F9018951F920F9270
:1037E0000FB60F9211242F933F938F939F93AF9314
:1037F000BF9380912F0690913006A0913106B09131
:10380000320630912E0626E0230F2D3720F4029643
:10381000A11DB11D05C029E8230F0396A11DB11DEF
:1038200020932E0680932F0690933006A0933106A6
:10383000B09332068091330690913406A0913506FC
:10384000B09136060196A11DB11D80933306909369
:103850003406A0933506B0933606BF91AF919F9181
:103860008F913F912F910F900FBE0F901F90189541
:103870002FB7F89460912F06709130068091310631
:10388000909132062FBF08953FB7F8948091330688
:1038900090913406A0913506B091360626B5A89BC6
:1038A00005C02F3F19F00196A11DB11D3FBF66272E
:1038B000782F892F9A2F620F711D811D911D43E072
:1038C000660F771F881F991F4A95D1F70895CF92E9
:1038D000DF92EF92FF92CF93DF936B017C010E9406
:1038E000441CEB01C114D104E104F10489F00E94ED
:1038F000931B0E94441C6C1B7D0B683E734090F32D
:1039000081E0C81AD108E108F108C851DC4FEACFBC
:10391000DF91CF91FF90EF90DF90CF900895789452
:1039200084B5826084BD84B5816084BD85B58260C4
:1039300085BD85B5816085BDEEE6F0E08081816062
:103940008083E1E8F0E01082808182608083808162
:1039500081608083E0E8F0E0808181608083E1EB3A
:10396000F0E0808184608083E0EBF0E08081816022
:103970008083EAE7F0E080818460808380818260D8
:1039800080838081816080838081806880831092C1
:10399000C1000895833081F028F4813099F082309D
:1039A000A1F008958730A9F08830B9F08430D1F4BF
:1039B000809180008F7D03C0809180008F778093FD
:1039C0008000089584B58F7702C084B58F7D84BD53
:1039D00008958091B0008F7703C08091B0008F7DF3
:1039E0008093B0000895CF93DF9390E0FC01E458FA
:1039F000FC4F2491FC01E057FC4F8491882349F14E
:103A000090E0880F991FFC01E854FC4FA591B491F8
:103A100082559C4FFC01C591D4919FB7611108C09C
:103A2000F8948C91209582238C93888182230AC0FC
:103A3000623051F4F8948C91322F309583238C931B
:103A40008881822B888304C0F8948C91822B8C937C
:103A50009FBFDF91CF9108950F931F93CF93DF9373
:103A60001F92CDB7DEB7282F30E0F901E859FC4F9F
:103A70008491F901E458FC4F1491F901E057FC4F8F
:103A800004910023C9F0882321F069830E94CA1C95
:103A90006981E02FF0E0EE0FFF1FE255FC4FA5918A
:103AA000B4919FB7F8948C91611103C01095812354
:103AB00001C0812B8C939FBF0F90DF91CF911F91FD
:103AC0000F910895CF93DF93282F30E0F901E85943
:103AD000FC4F8491F901E458FC4FD491F901E0576F
:103AE000FC4FC491CC2391F081110E94CA1CEC2F91
:103AF000F0E0EE0FFF1FEC55FC4FA591B4912C9117
:103B00002D2381E090E021F480E002C080E090E08D
:103B1000DF91CF9108950E94C6251F920F920FB694
:103B20000F9211242F938F939F93EF93FF93E09124
:103B30004706F09148068081E0914D06F0914E06CF
:103B400082FD12C09081809150068F5F8F7320910B
:103B50005106821751F0E0915006F0E0E95CF94F10
:103B6000958F8093500601C08081FF91EF919F91C6
:103B70008F912F910F900FBE0F901F9018951F924D
:103B80000F920FB60F9211242F933F934F935F9391
:103B90006F937F938F939F93AF93BF93EF93FF9315
:103BA00087E396E00E94851FFF91EF91BF91AF914F
:103BB0009F918F917F916F915F914F913F912F9145
:103BC0000F900FBE0F901F90189587E396E00E940C
:103BD0004A1F21E0892B09F420E0822F08951092DA
:103BE0003A061092390688EE93E0A0E0B0E08093A8
:103BF0003B0690933C06A0933D06B0933E068CEDA9
:103C000093E0909338068093370685EC90E090938C
:103C100044068093430684EC90E09093460680939C
:103C2000450680EC90E0909348068093470681EC2F
:103C300090E090934A068093490682EC90E090933E
:103C40004C0680934B0686EC90E090934E06809352
:103C50004D06109250061092510610925206109284
:103C60005306089508950E948F1C0E94321E0E94E0
:103C70006C05C7E7DFE10E94CB072097E1F30E94C4
:103C8000771FF9CFCF92DF92EF92FF920F931F939E
:103C9000CF93DF936C017A01EB01E60EF71E00E093
:103CA00010E0CE15DF0561F06991D601ED91FC9130
:103CB0000190F081E02DC6010995080F191FF1CF81
:103CC000C801DF91CF911F910F91FF90EF90DF908E
:103CD000CF9008956115710581F0DB010D900020F2
:103CE000E9F7AD0141505109461B570BDC01ED913D
:103CF000FC910280F381E02D099480E090E008952A
:103D00000C946A1EDC01ED91FC910190F081E02D94
:103D100009940F931F93CF93DF93EC016DE00E9402
:103D2000821E8C016AE0CE010E94821E800F911FCC
:103D3000DF91CF911F910F9108950F931F93CF9310
:103D4000DF93EC010E946A1E8C01CE010E94891E45
:103D5000800F911FDF91CF911F910F9108958F9246
:103D60009F92AF92BF92CF92DF92EF92FF920F930A
:103D70001F93CF93DF93CDB7DEB7A1970FB6F8941B
:103D8000DEBF0FBECDBF7C01C42EE52FCB01D22EEE
:103D900019A221E02D1510F02AE0D22E8E010F5D20
:103DA0001F4F8D2C912CA12CB12C6C2D7E2FA50199
:103DB00094010E946A218C2DD29E801911240150F9
:103DC00011098A3014F4805D01C0895CF801808398
:103DD000211531054105510521F0C22EE32FCA01FD
:103DE000E4CFB801C7010E946A1EA1960FB6F894ED
:103DF000DEBF0FBECDBFDF91CF911F910F91FF901E
:103E0000EF90DF90CF90BF90AF909F908F900895EC
:103E10002115310541F4DC01ED91FC910190F08117
:103E2000E02D642F09940C94AF1E9A01462F50E0A8
:103E300060E070E00C94081F9A01AB0160E070E054
:103E40000C94081F0F931F93CF93DF93EC019A01FB
:103E5000AB0160E070E00E94081F8C01CE010E945F
:103E6000891E800F911FDF91CF911F910F910895AF
:103E70000F931F93CF93DF93EC010E94081F8C01D7
:103E8000CE010E94891E800F911FDF91CF911F915B
:103E90000F910895FC01818D228D90E0805C9F4FF1
:103EA000821B91098F7399270895FC01918D828D52
:103EB000981731F0828DE80FF11D858D90E00895FF
:103EC0008FEF9FEF0895FC01918D828D981761F01F
:103ED000828DDF01A80FB11D5D968C91928D9F5F41
:103EE0009F73928F90E008958FEF9FEF089585EE76
:103EF0009DE1892B49F080E090E0892B29F00E9418
:103F0000E51D81110C9400000895FC01848DDF01F2
:103F1000A80FB11DA35ABF4F2C91848D90E001963C
:103F20008F739927848FA689B7892C93A089B1892B
:103F30008C9180648C93938D848D981306C0028835
:103F4000F389E02D80818F7D80830895CF93DF9367
:103F5000EC01888D8823C9F0EA89FB89808185FD81
:103F600005C0A889B9898C9186FD0FC00FB607FCE2
:103F7000F5CF808185FFF2CFA889B9898C9185FF23
:103F8000EDCFCE010E94851FE7CFDF91CF9108953D
:103F9000CF92DF92FF920F931F93CF93DF931F92E5
:103FA000CDB7DEB76C01DC015B969C915B975C96AC
:103FB0008C915C97981307C05096ED91FC915197A6
:103FC000808185FD32C0F601038D10E00F5F1F4F29
:103FD0000F731127F02EF601848DF81211C00FB661
:103FE00007FCF9CFD6015096ED91FC915197808155
:103FF00085FFF1CFC60169830E94851F6981EBCFE0
:10400000838DE80FF11DE35AFF4F6083D6015B9665
:104010000C935B975296ED91FC915397808180624F
:10402000808381E058968C930DC0D6015696ED9111
:10403000FC91579760835096ED91FC915197808148
:104040008064808381E090E00F90DF91CF911F9199
:104050000F91FF90DF90CF90089540D008F481E059
:104060000895E89409C097FB3EF49095809570956B
:1040700061957F4F8F4F9F4F9923A9F0F92F96E9B4
:10408000BB279395F695879577956795B795F11129
:10409000F8CFFAF4BB0F11F460FF1BC06F5F7F4FC6
:1040A0008F4F9F4F16C0882311F096E911C07723D8
:1040B00021F09EE8872F762F05C0662371F096E8E1
:1040C000862F70E060E02AF09A95660F771F881FB0
:1040D000DAF7880F9695879597F90895990F000854
:1040E000550FAA0BE0E8FEEF16161706E807F907CA
:1040F000C0F012161306E407F50798F0621B730B65
:10410000840B950B39F40A2661F0232B242B252BE5
:1041100021F408950A2609F4A140A6958FEF811D88
:10412000811D089597F99F6780E870E060E0089529
:104130009FEF80EC089500240A94161617061806BF
:104140000906089500240A9412161306140605069B
:104150000895092E0394000C11F4882352F0BB0F2C
:1041600040F4BF2B11F460FF04C06F5F7F4F8F4F8F
:104170009F4F089557FD9058440F551F59F05F3FCA
:1041800071F04795880F97FB991F61F09F3F79F079
:1041900087950895121613061406551FF2CF4695FB
:1041A000F1DF08C0161617061806991FF1CF86957D
:1041B0007105610508940895E894BB276627772761
:1041C000CB0197F908950BD0C4CFB5DF28F0BADF43
:1041D00018F0952309F0A6CFABCF1124EECFCADF9C
:1041E000A0F3959FD1F3950F50E0551F629FF0010A
:1041F000729FBB27F00DB11D639FAA27F00DB11D63
:10420000AA1F649F6627B00DA11D661F829F2227EB
:10421000B00DA11D621F739FB00DA11D621F839F72
:10422000A00D611D221F749F3327A00D611D231F48
:10423000849F600D211D822F762F6A2F11249F5796
:1042400050408AF0E1F088234AF0EE0FFF1FBB1FB9
:10425000661F771F881F91505040A9F79E3F510558
:1042600070F060CFAACF5F3FECF3983EDCF3869509
:1042700077956795B795F795E7959F5FC1F7FE2B03
:10428000880F911D9695879597F90895DB018F9377
:104290009F930E94AB21BF91AF91A29F800D911D72
:1042A000A39F900DB29F900D1124089597FB072EA8
:1042B00016F4009407D077FD09D00E94BE2107FCB8
:1042C00005D03EF4909581959F4F08957095619526
:1042D0007F4F0895A1E21A2EAA1BBB1BFD010DC042
:1042E000AA1FBB1FEE1FFF1FA217B307E407F507A6
:1042F00020F0A21BB30BE40BF50B661F771F881F82
:10430000991F1A9469F760957095809590959B0117
:10431000AC01BD01CF010895052E97FB1EF400945A
:104320000E94A32157FD07D00E946A2107FC03D0F9
:104330004EF40C94A32150954095309521953F4F14
:104340004F4F5F4F089590958095709561957F4F81
:104350008F4F9F4F08950E94D821A59F900DB49F25
:10436000900DA49F800D911D11240895B7FF0C940A
:10437000AB210E94AB21821B930B0895AA1BBB1B90
:1043800051E107C0AA1FBB1FA617B70710F0A61B55
:10439000B70B881F991F5A95A9F780959095BC0176
:1043A000CD010895EE0FFF1F0590F491E02D0994C3
:1043B000A29FB001B39FC001A39F700D811D112466
:1043C000911DB29F700D811D1124911D0895EF92D2
:1043D0000F931F93CF93DF93E80147FF02C034E1AF
:1043E00001C034E0E42FFF27E7FDF095F7FF03C09D
:1043F000F195E195F109E32E022F2E2FAE010E94D7
:104400009728CE01DF91CF911F910F91EF900895E2
:10441000CF93DF938230910510F482E090E0E09139
:10442000D606F091D70620E030E0A0E0B0E030976B
:1044300039F14081518148175907B8F04817590799
:1044400071F482819381109729F013969C938E9337
:1044500012972CC09093D7068093D60627C02115BB
:10446000310531F04217530718F0A901DB0101C0F3
:10447000EF019A01BD01DF010280F381E02DD7CF6A
:1044800021153105F9F0281B390B2430310580F452
:104490008A819B816115710521F0FB0193838283E1
:1044A00004C09093D7068093D606FE01329644C08E
:1044B000FE01E20FF31F819391932250310939835A
:1044C00028833AC02091D4063091D506232B41F49D
:1044D00020910201309103013093D5062093D40638
:1044E00020910001309101012115310541F42DB7D2
:1044F0003EB74091040150910501241B350BE0911A
:10450000D406F091D506E217F307A0F42E1B3F0B5B
:104510002817390778F0AC014E5F5F4F2417350735
:1045200048F04E0F5F1F5093D5064093D4068193F9
:10453000919302C0E0E0F0E0CF01DF91CF910895C8
:10454000CF93DF93009709F487C0FC013297138261
:104550001282C091D606D091D706209781F420818F
:104560003181280F391F8091D4069091D50682178A
:10457000930779F5F093D506E093D4066DC0DE017C
:1045800020E030E0AE17BF0750F412964D915C91D9
:1045900013979D014115510509F1DA01F3CFB3835A
:1045A000A28340815181840F951F8A179B0771F464
:1045B0008D919C911197840F951F02969183808312
:1045C00012968D919C9113979383828321153105C7
:1045D00029F4F093D706E093D6063EC0D90113968E
:1045E000FC93EE9312974D915D91A40FB51FEA17BE
:1045F000FB0779F480819181840F951F0296D90180
:1046000011969C938E938281938113969C938E93A3
:104610001297E0E0F0E08A819B81009719F0FE019B
:10462000EC01F9CFCE01029628813981820F931FC8
:104630002091D4063091D5062817390769F43097B0
:1046400029F41092D7061092D60602C01382128265
:10465000D093D506C093D406DF91CF910895A0E002
:10466000B0E0E5E3F3E20C94A32B8B016115710537
:1046700021F0DB018C9311969C93EC015E01BFEF5E
:10468000AB1ABB0A7501C8808C2D90E00E94CB2527
:10469000892B11F0E501F2CFEDE2CE1208C07E01C8
:1046A000F2E0EF0EF11CC980DD24D39409C02BE2A7
:1046B000C21205C07E0142E0E40EF11CC980D12C7B
:1046C000E701219743E050E06AEC73E0CE010E94DD
:1046D000D325892BC1F4239645E050E065EC73E0C7
:1046E000CE010E94D325892B09F4259601151105C9
:1046F00019F0D801CD93DC93D11006C160E070E0D1
:1047000080E89FE70AC143E050E062EC73E0CE012D
:104710000E94D325892B59F40115110509F4F9C01C
:10472000B2E0EB0EF11CF801F182E082F2C0F70179
:1047300060E070E0CB01C0E0D0E07F01A0EDAA2EE8
:10474000AC0C29E02A1530F14D2D4260B42E2D2DF0
:104750002870D2FE04C0211125C0219623C021114A
:104760002197A5E0B0E09B01AC010E94AB21660F50
:10477000771F881F991F6A0D711D811D911D683952
:10478000A9E97A078A07A9E19A0760F0BD2DB6600A
:10479000BB2E08C02EEFA2120AC0D3FC50C04D2D74
:1047A0004860B42E3196D701CC90DB2CC6CF2C2D8F
:1047B0002F7D253409F043C0A081AD3241F4BD2DD9
:1047C000B061DB2E7F0122E0E20EF11C0CC07F0104
:1047D000AB3231F04FEFE41AF40A21E030E006C0CA
:1047E000A2E0EA0EF11CA18122E030E0A053AA3041
:1047F00018F0E21AF30A23C0F70120E030E0203875
:10480000BCE03B075CF4A901440F551F440F551F42
:10481000240F351F220F331F2A0F311DAF014F5FA9
:104820005F4F7A01A081A053AA3010F4FA01E7CFBC
:10483000D4FE03C0319521953109C20FD31FD1FE9B
:1048400009C00115110531F0E1E0EE1AF108D801B7
:10485000ED92FC920E9431202D2D2370233019F00F
:104860004B015C0106C04B015C01B7FAB094B7F88C
:10487000B09420E030E0A901C501B4010E942D20D0
:10488000882309F43EC0D7FF06C0D195C195D10950
:1048900001EE13E002C009EF13E06801B8E1CB1AA2
:1048A000D10890E2E92EF12CCE15DF0574F0F80165
:1048B0002591359145915491C501B4010E94E320A1
:1048C0004B015C01CE19DF09EFCF04501109F594BB
:1048D000E7940C151D0541F78A2D880F8B2D881F35
:1048E0008F3F49F020E030E0A901C501B4010E94EA
:1048F0002D20811106C082E290E09093DF06809324
:10490000DE06C501B40109C060E070E080E89FEFF9
:1049100004C060E070E080EC9FE7CDB7DEB7ECE06C
:104920000C94BF2B2F923F925F926F927F928F9247
:104930009F92AF92BF92CF92DF92EF92FF920F932E
:104940001F93CF93DF938B01EA016115710521F06D
:10495000DB018C9311969C93209739F09E01225095
:1049600031092332310508F0FBC07C016701BFEF3C
:10497000CB1ADB0A5601F7016080862D90E00E9479
:10498000CB25892B11F07601F1CFFDE26F120AC021
:10499000570182E0A80EB11CD70111966C907724C4
:1049A00073940BC0BBE26B1207C05701E2E0AE0E7E
:1049B000B11CD70111966C90712CCE018F7E892B82
:1049C00089F4B0E36B1222C0F50180818F7D8835B8
:1049D00041F56180F2E0AF0EB11C872D8260782E28
:1049E000C0E1D0E0C830D105F1F04CF4C230D105BF
:1049F00011F5C12CD12CE12CB0E4FB2E2FC0CA3014
:104A0000D10531F0C031D10521F115C0209751F702
:104A1000CAE0D0E0ACECCA2EDC2CEC2CACE0FA2ED8
:104A20001DC02097F9F6C8E0D0E0C12CD12CE12CB4
:104A3000F0E1FF2E13C060E070E080E090E89E019E
:104A4000442737FD4095542F0E946A2169017A015D
:104A500005C0C12CD12CE12CE8E0FE2EF50160E070
:104A600020E030E0A9014E01AA2497FCA094BA2CC2
:104A70001F0170ED572E560CA9E0A51570F48FEBB1
:104A8000860D8A3118F499EC592E06C08FE9860DEF
:104A90008A3130F589EA582E560C852D90E08C1716
:104AA0009D07F4F467FD18C0C216D306E406F506A8
:104AB00080F0C501B4010E9446219B01AC01250D87
:104AC000311D411D511D213031054105B0E85B0705
:104AD00010F06FEF01C061E03196D1016C90C8CF4A
:104AE000872D81700115110571F0662329F031972A
:104AF000D801ED93FC9307C071FE19C03297D8011D
:104B0000ED93FC9314C067FF12C0882329F020E0C6
:104B100030E040E050E804C02FEF3FEF4FEF5FE799
:104B200082E290E09093DF068093DE0616C0882331
:104B300041F050954095309521953F4F4F4F5F4F35
:104B40000CC057FF0AC082E290E09093DF0680938A
:104B5000DE062FEF3FEF4FEF5FE7B901CA0104C058
:104B600060E070E080E090E0DF91CF911F910F91C5
:104B7000FF90EF90DF90CF90BF90AF909F908F907D
:104B80007F906F905F903F902F90089581E090E02C
:104B9000F8940C94D42B911120C5803219F08950CF
:104BA0008550D0F70895FB01DC014150504088F05A
:104BB0008D9181341CF08B350CF4805E65916134ED
:104BC0001CF06B350CF4605E861B611171F3990B60
:104BD0000895881BFCCFFB01DC0102C001900D92FF
:104BE00041505040D8F70895FB01DC018D910190B0
:104BF00080190110D9F3990B0895FB01DC01415094
:104C0000504048F001900D920020C9F701C01D925C
:104C100041505040E0F708950F931F93CF93DF93D7
:104C2000EC018B01009731F46115710519F480E0F6
:104C300090E038C06EE070E081E090E00E947B2858
:104C4000FC010097A1F380E883830115110571F041
:104C50001387028781E883838091D8069091D906D3
:104C6000892B21F4F093D906E093D8062097C9F058
:104C7000D187C0878381826083838091DA06909197
:104C8000DB06892B71F4F093DB06E093DA06809162
:104C9000DC069091DD06892B21F4F093DD06E0938C
:104CA000DC06CF01DF91CF911F910F910895AEE007
:104CB000B0E0EDE5F6E20C94AB2B0D891E898F89EF
:104CC000988D26E02C831A83098397FF02C080E029
:104CD00090E801979E838D83AE01455E5F4F698D9D
:104CE0007A8DCE0101960E94A9264D815E8157FDE5
:104CF0000AC02F813885421753070CF49A01F80136
:104D0000E20FF31F10822E96E4E00C94C72BAEE066
:104D1000B0E0EDE8F6E20C94AB2B0D891E8986E03D
:104D20008C831A8309838FEF9FE79E838D83AE0167
:104D3000475E5F4F6F89788DCE0101960E94A9264C
:104D4000EF81F885E00FF11F10822E96E4E00C94BD
:104D5000C72BACE0B0E0EFEAF6E20C949D2B7C01AF
:104D60006B018A01FC0117821682838181FFBDC11C
:104D7000CE0101964C01F7019381F60193FD8591D7
:104D800093FF81916F01882309F4ABC1853239F417
:104D900093FD859193FF81916F01853229F4B701CD
:104DA00090E00E940D2BE7CF512C312C20E02032D7
:104DB000A0F48B3269F030F4803259F0833269F418
:104DC00020612CC08D3239F0803339F4216026C047
:104DD0002260246023C0286021C027FD27C030ED59
:104DE000380F3A3078F426FF06C0FAE05F9E300DA7
:104DF0001124532E13C08AE0389E300D1124332E17
:104E000020620CC08E3221F426FD6BC1206406C0E6
:104E10008C3611F4206802C0883641F4F60193FD07
:104E2000859193FF81916F018111C1CF982F9F7D53
:104E30009554933028F40C5F1F4FFFE3F9830DC0A6
:104E4000833631F0833771F0833509F05BC022C0BF
:104E5000F801808189830E5F1F4F44244394512CB5
:104E6000540115C03801F2E06F0E711CF801A080EA
:104E7000B18026FF03C0652D70E002C06FEF7FEFA9
:104E8000C5012C870E94022B2C0183012C852F77D2
:104E9000222E17C03801F2E06F0E711CF801A080BD
:104EA000B18026FF03C0652D70E002C06FEF7FEF79
:104EB000C5012C870E94F02A2C012C852068222E07
:104EC000830123FC1BC0832D90E048165906B0F4E3
:104ED000B70180E290E00E940D2B3A94F4CFF501E7
:104EE00027FC859127FE81915F01B70190E00E9428
:104EF0000D2B31103A94F1E04F1A5108411451042E
:104F000071F7E5C0843611F0893639F5F80127FFCD
:104F100007C060817181828193810C5F1F4F08C03F
:104F200060817181882777FD8095982F0E5F1F4FD4
:104F30002F76B22E97FF09C0909580957095619558
:104F40007F4F8F4F9F4F2068B22E2AE030E0A401A0
:104F50000E943F2BA82EA81844C0853729F42F7E25
:104F6000B22E2AE030E025C0F22FF97FBF2E8F3617
:104F7000C1F018F4883579F0B4C0803719F088375B
:104F800021F0AFC02F2F2061B22EB4FE0DC08B2DAB
:104F90008460B82E09C024FF0AC09F2F9660B92EE6
:104FA00006C028E030E005C020E130E002C020E18A
:104FB00032E0F801B7FE07C0608171818281938180
:104FC0000C5F1F4F06C06081718180E090E00E5F32
:104FD0001F4FA4010E943F2BA82EA818FB2DFF777E
:104FE000BF2EB6FE0BC02B2D2E7FA51450F4B4FEA1
:104FF0000AC0B2FC08C02B2D2E7E05C07A2C2B2DAA
:1050000003C07A2C01C0752C24FF0DC0FE01EA0DEF
:10501000F11D8081803311F4297E09C022FF06C072
:105020007394739404C0822F867809F0739423FDDF
:1050300013C020FF06C05A2C731418F4530C5718D1
:10504000732C731468F4B70180E290E02C870E94FF
:105050000D2B73942C85F5CF731410F4371801C001
:10506000312C24FF12C0B70180E390E02C870E940E
:105070000D2B2C8522FF17C021FF03C088E590E08F
:1050800002C088E790E0B7010CC0822F867859F003
:1050900021FD02C080E201C08BE227FD8DE2B70155
:1050A00090E00E940D2BA51438F4B70180E390E046
:1050B0000E940D2B5A94F7CFAA94F401EA0DF11D2A
:1050C0008081B70190E00E940D2BA110F5CF332015
:1050D00009F451CEB70180E290E00E940D2B3A9482
:1050E000F6CFF7018681978102C08FEF9FEF2C9654
:1050F000E2E10C94B92B0F931F93CF93DF93869F1C
:105100008001879F100D969F100D1124C8010E94E9
:105110000822EC01009729F0A80160E070E00E94ED
:10512000FB2ACE01DF91CF911F910F9108956F92CD
:105130007F929F92AF92BF92CF92DF92EF92FF92B7
:105140000F931F93CF93DF93CDB7DEB729970FB699
:10515000F894DEBF0FBECDBF6A01B22E102F0C3304
:1051600020F4FF24F394F00E02C04CE3F42E0F2D34
:1051700027E0AE014F5F5F4F0E94152A7981272FEC
:105180002970213031F0E1FC06C0E0FC06C060E08F
:1051900005C06DE203C06BE201C060E2AE2DA071FC
:1051A00073FF36C0662311F084E001C083E08B15E5
:1051B00010F4B81A01C0B12CA1110BC0F6018B2D4F
:1051C00090E2882319F091938150FBCFCB0CD11C36
:1051D000B12C662331F0F601608396012F5F3F4FBB
:1051E0006901C6010396E2FE05C02EE4F6012083A4
:1051F00031E404C02EE6F601208331E631832283B8
:10520000FC012B2D30E22223F1F131932150FBCF11
:1052100072FF40C0662311F084E001C083E08B156B
:1052200010F4B81A01C0B12CA1110BC0F6018B2DDE
:1052300090E2882319F091938150FBCFCB0CD11CC5
:10524000B12C662331F0F601608396012F5F3F4F4A
:105250006901C6010396E2FE07C029E4F601208336
:105260002EE4218326E406C029E6F60120832EE6FB
:10527000218326E62283FC012B2D30E2222319F024
:1052800031932150FBCFFC01EB0DF11D10828EEF0D
:105290009FEFB7C0B1E0611101C0B0E04B2F50E00B
:1052A0001816190624F49C012F5F3F4F02C021E01D
:1052B00030E0240F351F112329F0412F50E04F5FBC
:1052C0005F4F02C040E050E0420F531F2B2D30E0F3
:1052D0004217530714F4B41A01C0B12C2E2D2871B3
:1052E00059F4F6012B2D30E2222319F0319321508D
:1052F000FBCFCB0CD11CB12CBB2331F0F60160836A
:1053000096012F5F3F4F6901A1110BC0F6012B2DB4
:1053100030E3222319F031932150FBCFCB0CD11C69
:10532000B12CF80E0A81372F3071A32E74FF03C001
:10533000013309F4FA941F142CF42F2D293018F09E
:1053400028E001C021E0682F392F97FF02C060E0FC
:1053500030E0462F532F612C712C3EE2932EBC017E
:10536000621B71099B01DC01A41BB50BE1E0F0E0BD
:10537000EC0FFD1FAE0FBF1FE12EF12CF194E19455
:10538000F1084F3FFFEF5F0731F4F6019082B6015D
:105390006F5F7F4F6B01841795074CF0241735071B
:1053A00034F4BD01660D771DFB01118101C010E3CE
:1053B00041505109FFEF6F1A7F0AB6016F5F7F4FAF
:1053C0004E155F0524F0F60110836B01DACF481704
:1053D000590739F4063320F4053319F4A11001C03C
:1053E00011E3F6011083FB018B2D90E2882319F065
:1053F00091938150FBCFFB01EB0DF11D108280E0FA
:1054000090E029960FB6F894DEBF0FBECDBFDF91B6
:10541000CF911F910F91FF90EF90DF90CF90BF90B1
:10542000AF909F907F906F900895283008F027E00C
:105430003327DA01990F311D87FD916000966105D0
:10544000710539F432602E5F3D9330E32A95E1F720
:1054500008959F3F30F080387105610509F03C5F89
:105460003C5F3D93913008F08068911DDF93CF93AE
:105470001F930F93FF92EF92192F987F9695E92F24
:1054800096959695E90FFF27E95AFB4F9927332701
:10549000EE24FF24A701E70105900894079428F45F
:1054A000360FE71EF81E491F511D660F771F881F14
:1054B000991F0694A1F70590079428F4E70EF81EAB
:1054C000491F561FC11D770F881F991F661F06941D
:1054D000A1F70590079428F4F80E491F561FC71F1F
:1054E000D11D880F991F661F771F0694A1F705909D
:1054F000079420F4490F561FC71FD81F990F661F26
:10550000771F881F0694A9F784911095177041F0B2
:10551000D695C79557954795F794E7941A95C1F78F
:10552000EDEFF3E0689415901591359165919591A3
:1055300005907FE27395E118F10A430B560BC90BF6
:10554000D009C0F7E10CF11E431F561FC91FD01D23
:105550007EF4703311F48A95E6CFE894015030F070
:10556000080F0AF40027021708F4202F2395022FB2
:105570007A3328F079E37D932A95E9F710C07D937B
:105580002A9589F6069497956795379517951794F8
:10559000E118F10A430B560BC90BD00998F023957B
:1055A0007E9173957A3308F070E37C932013B8F7FB
:1055B0007E9170617D9330F0839571E37D9370E30C
:1055C0002A95E1F71124EF90FF900F911F91CF9151
:1055D000DF91992787FD9095089599278827089549
:1055E000FC010590615070400110D8F780959095AE
:1055F0008E0F9F1F0895DC0101C06D9341505040F4
:10560000E0F70895FC016150704001900110D8F757
:10561000809590958E0F9F1F08950F931F93CF93A2
:10562000DF93182F092FEB018B8181FD03C08FEFD2
:105630009FEF20C082FF10C04E815F812C813D8191
:10564000421753077CF4E881F9819F012F5F3F4F98
:1056500039832883108306C0E885F985812F099551
:10566000892B29F72E813F812F5F3F4F3F832E8368
:10567000812F902FDF91CF911F910F910895FA0103
:10568000AA27283051F1203181F1E8946F936E7F81
:105690006E5F7F4F8F4F9F4FAF4FB1E03ED0B4E072
:1056A0003CD0670F781F891F9A1FA11D680F791FB3
:1056B0008A1F911DA11D6A0F711D811D911DA11DC4
:1056C00020D009F468943F912AE0269F11243019D4
:1056D000305D3193DEF6CF010895462F4770405D6F
:1056E0004193B3E00FD0C9F7F6CF462F4F70405D1E
:1056F0004A3318F0495D31FD4052419302D0A9F779
:10570000EACFB4E0A6959795879577956795BA9572
:10571000C9F700976105710508959B01AC010A2E38
:1057200006945795479537952795BA95C9F7620F0F
:10573000731F841F951FA01D08952F923F924F92B3
:105740005F926F927F928F929F92AF92BF92CF9211
:10575000DF92EF92FF920F931F93CF93DF93CDB71A
:10576000DEB7CA1BDB0B0FB6F894DEBF0FBECDBF92
:1057700009942A88398848885F846E847D848C8463
:105780009B84AA84B984C884DF80EE80FD800C816C
:105790001B81AA81B981CE0FD11D0FB6F894DEBF4F
:1057A0000FBECDBFED01089515E0C2E0D5E004C005
:1057B000FE010E94D4212296C430D107C9F7F89483
:0257C000FFCF19
:1057C2000000E00680000100000001BB02C80225C3
:1057D2003033752E253032753A253032753A253000
:1057E200327500257520257320202573002530325F
:1057F2007525303275202532752525206D3A25759F
:10580200005069205263767220005374617274757D
:105812007021002D2D2D2D2D2D2D2D2D2D2D2D00D9
:10582200446174616772616D206572726F720064A7
:105832006174616772616D20696E69742066616965
:105842006C656400736574206368616E6E656C20BC
:105852006661696C656400736574205246206661F6
:10586200696C6564005B737461727475705D006568
:1058720063686F206C656E3D00526563656976658D
:10588200722070617273654F626A656374282920A1
:10589200636F6E666967206661696C65643A2000B1
:1058A20069640074007365632073696E6365206DBB
:1058B20069646E696768743A2000646179206F6672
:1058C20020796561723A20004E6F20696420666F0C
:1058D200756E6420696E206A736F6E005772697408
:1058E2006520746F20004525643A25640053656E77
:1058F2007420746F20005425643A25640053746147
:105902007475733A20004E6F206D73672072656361
:105912006569766564004E6F206D736720256400AB
:1059220025643A25307820256400526563656976DE
:10593200656420002066726F6D200020666C6167CE
:105942007320007B226964223A25642C257300703F
:10595200617273654F626A65637428292073656E8C
:10596200736F72206661696C65643A0076007268D2
:10597200007466006273007069720020202020208B
:105982002020202020202000302E37300000000070
:1059920000D30200000000BF026E756C6C007472CE
:1059A20075650066616C73650022225C5C62086644
:1059B2000C6E0A720D7409000000000039108B1D74
:1059C2008B1D8B1D8B1D5F107110B6107F103E104A
:1059D2004110441047104A103B10511054105710F8
:1059E2005A105D10000000008B1DFC10FD108B1D75
:1059F2008B1DFE10021106110004040400000000B9
:105A020016111D11211125116411FE10021106112A
:105A1200000000007C118B1D8B1D8B1D8B1D5F10E8
:105A22007110B6107F103E104110441047104A10FA
:105A32003B105110541057105A105D100D0E1315D3
:105A420016191A1C232526292A2C3234000000009C
:105A5200D715941547144A1545145F10EA14B61069
:105A62007F103E104110441047104A103B10511055
:105A7200541057105A109A14000000005816421E73
:105A8200C4163716AA16DC16000000005D1930197C
:105A920005190D1920192F1900000000C81F421EF8
:085AA2004A1F631F551FA61FD8
:00000001FF
